:020000040800F2
:1000000000000220E95C0008191500081B15000813
:100010001D1500081F15000821150008000000002C
:100020000000000000000000000000001155000862
:100030002315000800000000B155000815560008FF
:10004000395D0008395D0008395D0008395D000838
:10005000395D0008395D0008395D0008395D000828
:10006000395D0008395D0008395D0008395D000818
:10007000395D0008395D0008395D0008395D000808
:10008000395D0008395D0008395D0008395D0008F8
:10009000395D0008395D0008395D0008395D0008E8
:1000A000395D0008395D0008395D0008395D0008D8
:1000B00025150008395D0008395D0008395D000824
:1000C000395D0008395D0008395D00083515000804
:1000D000395D00084515000855150008651500082C
:1000E000395D0008395D0008395D0008395D000898
:1000F000395D0008395D0008395D0008395D000888
:10010000395D0008395D0008395D0008395D000877
:10011000395D0008395D0008395D0008395D000867
:10012000395D0008395D0008395D0008395D000857
:10013000395D0008395D0008395D0008395D000847
:10014000395D0008395D0008395D0008395D000837
:10015000395D0008395D0008395D0008395D000827
:10016000395D0008395D0008395D0008395D000817
:10017000395D0008395D0008395D000800000000A5
:08018000395D0008395D00083B
:10019000034613F8012B002AFBD1181A01387047C7
:1001A00001F0FF01102A2BDB10F0070F08D010F828
:1001B000013B013A8B422DD010F0070F42B3F6D12C
:1001C000F0B441EA012141EA014122F007047FF045
:1001D00000070023F0E80256083C85EA010586EA9C
:1001E000010685FA47F5A3FA87F586FA47F6A5FAD8
:1001F00087F68EB9EED1F0BC01F0FF0102F00702E4
:1002000032B110F8013B013A83EA010313B1F8D18E
:100210000020704701387047002D06BF354603386F
:10022000073815F0010F07D1013015F4807F02BFA8
:10023000013015F4C03F0130F0BC0138704700BFF9
:1002400053B94AB9002908BF00281CBF4FF0FF313D
:100250004FF0FF3000F00CB8ADF1080C6DE904CEA2
:1002600007F038F8DDF804E0DDE9022304B0704758
:10027000704700BF0348044B834202D0034B03B1D5
:100280001847704780000020800000200000000018
:100290000548064B1B1AD90F01EBA301491002D0E8
:1002A000034B03B1184770478000002080000020F6
:1002B0000000000010B5064C237843B9FFF7DAFFC1
:1002C000044B13B10448AFF300800123237010BD29
:1002D00080000020000000009075000808B5054B64
:1002E0001BB105490548AFF30080BDE80840FFF7A2
:1002F000CFBF00BF00000000840000209075000800
:100300004FF06043D3F8803E13F0010F11D04FF04F
:100310006043D3F8003E13F0010F01D1704700BFD6
:100320004FF060431B68002BF9D0C3B24FF060421E
:100330001370704770B50C461646002504E014F89B
:10034000010BFFF7DDFF0135B542F8DB304670BD2C
:1003500008B50368B3F1804F00D008BD03F03CF945
:10036000FBE772B6FEE7000000B595B03022002131
:1003700008A805F0EBFE002303930493059306936E
:1003800007930193204A116C41F080511164126C63
:1003900002F080520192019A02931C4B1A6842F4B7
:1003A00080421A601B6803F480430293029B01237E
:1003B00008934FF48033099302220E924FF4800386
:1003C0000F9304231093A82111911292139308A85C
:1003D00002F0E2F998B90F23039302230493002358
:1003E00005934FF4A05306934FF4805307930521D0
:1003F00003A802F03BFC20B915B05DF804FBFFF741
:10040000B0FFFFF7AEFF00BF0038024000700040B1
:1004100008B503F0C7F8FFF7A7FF05F003FA05F0EA
:10042000A7FA05F005FB05F057FB05F06FFB05F09B
:1004300087FB00F0BDFE04F0E1FEFEE72DE9F04190
:1004400007460E4603F0D4F80546642200211348FF
:1004500005F07CFE002404E0022004F0D4FEA04657
:10046000444603F0C5F8401BB04213D200F0C6F971
:100470000346B0F1FF3FEFD004F1010807480355F0
:10048000002300F80830394605F008FE0028E7D0C0
:10049000012000E00020BDE8F08100BFE000002066
:1004A00008B50D21044800F0DBF94FF47A710348D8
:1004B000FFF7C4FF08BD00BFA8750008B8750008A5
:1004C00010B500F095F90C21134800F0C9F9134C50
:1004D0004FF47A712046FFF7B1FF0E21104800F06B
:1004E000BFF94FF47A712046FFF7A8FF19210D4894
:1004F00000F0B6F94FF47A712046FFF79FFF0C2108
:10050000094800F0ADF94FF4FA612046FFF796FF75
:1005100000F06EF910BD00BFBC750008B87500088A
:10052000CC750008DC750008F875000838B500F0D7
:100530005FF90D21204800F093F9204D4FF47A71B6
:100540002846FFF77BFF1E4C1E4A1F49204605F038
:10055000E1FC2046FFF71CFE81B2204600F080F946
:100560004FF47A712846FFF769FF184A1849204668
:1005700005F0D0FC2046FFF70BFE81B2204600F0CC
:100580006FF94FF47A712846FFF758FF2A21114876
:1005900000F066F94FF47A712846FFF74FFF2921E2
:1005A0000D4800F05DF94FF47A712846FFF746FFD9
:1005B00000F01EF938BD00BF08760008B8750008C5
:1005C00044010020EC78000818760008187900082B
:1005D000307600084C7600087876000808B50D21C2
:1005E000014800F03DF908BDA4760008F8B50746BB
:1005F0000C4602F0FDFF00F5DA5618362046FFF7EC
:10060000C7FD02463D4D3E49284605F083FC28467D
:10061000FFF7BEFD81B2284600F022F9962004F0D3
:10062000F2FD2046FFF7B4FD81B2204600F018F934
:10063000962004F0E8FD00F0DBF864220021284653
:1006400005F084FD11212F4800F00AF9002404E090
:10065000022004F0D8FD25462C4602F0C9FFB04226
:1006600011D200F0CBF80346B0F1FF3FF0D0622C7E
:1006700040D8651C2148035500234355224905F005
:100680000DFD0028E8D002F0B3FFB0421ED2642076
:1006900004F0B9FD00F0ACF811211C4800F0E0F8BE
:1006A000962004F0B0FD154D3222FA21284600F0C4
:1006B000B5F87B21284605F06DFB04467D212846D0
:1006C00005F068FBC4B158B9002014E0FFF786FFBD
:1006D000FFF7E6FEFFF7F4FEFFF728FF00200AE031
:1006E000031B01330022E2542146384605F04AFB41
:1006F000012000E00020F8BD0020FCE7E000002021
:10070000B4760008CC760008E0760008F47600089D
:1007100008B50621014800F0A3F808BD08770008D5
:1007200010B5FFF7F5FF0E4C4FF47A712046FFF736
:1007300085FE0B210B4800F093F84FF47A712046A8
:10074000FFF77CFE0C21084800F08AF84FF47A711C
:100750002046FFF773FEFFF7B3FEFFF7E7FE10BD7D
:10076000B87500081C7700082877000808B5154BF5
:10077000984203D0144B984212D008BD134A937884
:10078000591C5278914205D0104A1078D118C8707F
:100790000133937001220D490A4804F030F8ECE768
:1007A0000B4A9378591C5278914205D0084A107828
:1007B000D118C8700133937001220549024804F032
:1007C0001EF8DAE7F8460020B4460020CC020020EC
:1007D000C801002008B5044900238B704B7001222A
:1007E000024804F00CF808BDCC020020F8460020B6
:1007F000014B5A789A707047CC020020064B9978CA
:100800005A78914204D0511C59701344D8787047DB
:100810004FF0FF30704700BFCC020020F8B507460C
:100820000E46154602F0E4FE0544002404E00220D2
:1008300004F0E9FCA6420BDD02F0DAFEA8420BD27E
:10084000FFF7DCFFB0F1FF3FF1D038550134F1E79D
:1008500000233B55344601E000233B552046F8BDBC
:1008600010B50C4664230A460146044803F077FDA0
:1008700008B9204610BD0020FCE700BFF846002064
:1008800008B5044900238B704B700122024803F025
:10089000B6FF08BDC8010020B4460020064B997879
:1008A0005A78914204D0511C59701344D87870473B
:1008B0004FF0FF30704700BFC8010020F8B5074671
:1008C0000E46154602F094FE0544002404E0022082
:1008D00004F099FCA6420BDD02F08AFEA8420BD27E
:1008E000FFF7DCFFB0F1FF3FF1D038550134F1E7FD
:1008F00000233B55344601E000233B552046F8BD1C
:10090000A2F5E163B3F5966F34D24B1E0B2B33D8AF
:10091000431E1E2B32D81D2B0AD8012930D00029A6
:1009200006DDA1F1030CBCF1090F01D801207047CD
:100930001B2B01D8022925D01D2825D1022925D11C
:10094000164981FB0231D317C3EBE1134FF4C87191
:1009500001FB1323E3B112F0030F1BD10F4981FBFD
:100960000231D317C3EB6113642101FB13239BB93D
:10097000002070470020704700207047002070471B
:1009800008467047012070470020704700207047DC
:100990000120704700207047012070471F85EB51F0
:1009A00000B5C1F10E0C204B83FB0CE34FEAEC7C4D
:1009B000CCEB630C0CEB4C0301EB8303033B03EB2D
:1009C000C30303EB03130233184981FB03E1DB1775
:1009D000C3EB6103134400F59650A0EB0C0040F20A
:1009E0006D1202FB0033024600281ADB03EBA20360
:1009F0000F4A82FB0012C017A0EB62110B44C0EB40
:100A0000E2100344A3F5FA432D3B0A4A82FB03128A
:100A10001A44D817C0EBA200C0EBC000181A5DF84A
:100A200004FBC21CE2E700BFABAAAA2A676666669F
:100A30001F85EB519324499230B583B01F24009455
:100A400032234FF4A0720021084600F0B9FC019453
:100A5000032300934FF6FF7305224621494800F017
:100A60003BFD13240094EF234FF4A07225210020B6
:100A700000F0A6FC0194022500954FF4FC63B92216
:100A80000521414800F028FD019400954FF478437A
:100A9000B9228C213D4800F01FFD15234FF4A072B0
:100AA0004A21002001F0E0F815234FF4A0724B21F9
:100AB000002001F0D9F8019400954FF4FC63DA228C
:100AC0000521334800F008FD019400954FF6FF73AF
:100AD000DA229A212F4800F0FFFC15234FF4A07270
:100AE0006B21002001F0C0F815234FF4A0726C2197
:100AF000002001F0B9F8019400954FF4FC637722CF
:100B00000521254800F0E8FC15234FF4A0728C2144
:100B1000002001F0A9F815234FF4A0728D210020C8
:100B200001F0A2F8019400954FF4FC63982205218E
:100B30001A4800F0D1FC15234FF4A072AD2100201B
:100B400001F092F815234FF4A072AE21002001F0BD
:100B50008BF8019400954FF4FC6335220521104871
:100B600000F0BAFC15234FF4A072CE21002001F052
:100B70007BF815234FF4A072CF21002001F074F808
:100B800003B030BD3877000844770008507700087C
:100B90005C7700086C77000874770008807700089D
:100BA000B8770008F0B583B0AA48AB4B1860AB4BE0
:100BB00020221A80AA4BAB4A13600124AA4A14804F
:100BC000AA4A1360AA4B02221A802246102102F080
:100BD00018FC00F0C9FD204600F07AFD132000F05B
:100BE00025FFFFF729FF2EE2132301930223009331
:100BF0004FF4FC63B92205219E4800F06DFC9E4B2A
:100C00001B787BB913230193022300934FF478439D
:100C1000B9228921994800F05FFC974B1A78984BCC
:100C20001A7017E213230193022300934FF6FF7308
:100C3000B9228921934800F04FFCEEE7132301937A
:100C4000022300934FF4FC63DA2205218E4800F062
:100C500043FC8E4B1B78012B06D0022B10D08B4B04
:100C60001A788B4B1A70FCE1132301930223009333
:100C70004FF6FF73DA229521864800F02DFCEEE74F
:100C800013230193022300934FF6E073DA22952198
:100C9000814800F021FCE2E7804A1370804F814CCC
:100CA00097F840208049204605F034F91325019536
:100CB000032600964FF6FF73352246217B4800F04D
:100CC0000BFC019500964FF6FF7335224621204616
:100CD00000F002FC0195022600964FF4FC63772297
:100CE0000521734800F0F8FB3A467249204605F0AA
:100CF00011F9019500964FF6FF7377227521204672
:100D000000F0EAFB07F114026B49204605F002F9F6
:100D1000019500964FF4FC6398220521674800F086
:100D2000DBFB019500964FF6FF7398228021204649
:100D300000F0D2FB9DE1224629463046FFF730FE07
:100D4000062845D8DFE800F0041B212A30373D0093
:100D5000544B5B4A92E8030083E80300013D0B2DEE
:100D60004AD8DFE815F03D006A00C300D100DF007B
:100D7000EB00F70003010E011D012A013701514A62
:100D8000484B07CA03C31A70E8E74F4A454B07CAE6
:100D900003C323F8022B120C1A70DFE74B4A414BB6
:100DA00007CA03C31A80D9E73E4B494A92E80300B9
:100DB00083E80300D2E7474A3A4B07CA03C31A80C5
:100DC000CCE7384B444A92E8030083E80300C5E7C8
:100DD000344B00221A605A609A60DA601A61BDE7EB
:100DE000304C2046FFF7D4F9024605193B4B03CBA4
:100DF000A05069601B782B722A4C2046FFF7C8F977
:100E0000274A938F92F83F203549204405F082F815
:100E100013260196022500954FF6FF7356220521F1
:100E2000304800F059FB019600954FF4FC635622C0
:100E30000521204600F050FB30E11A4C2046FFF718
:100E4000A7F902460519284B03CBA05069601B88FF
:100E50002B81D1E700080240100400200C04002080
:100E600000040240080400200604002018040020AA
:100E700014040020447700080F0800205077000871
:100E8000050400208C7700085C7700081300002020
:100E9000040400206C770008987700080304002001
:100EA0009C000020D0030020A0770008AC77000849
:100EB00074770008BC770008C477000880770008C2
:100EC000CC770008D4770008E0770008EC770008BA
:100ED000F8770008007800080C78000814780008FB
:100EE0008C78000894780008207800088F4C204601
:100EF000FFF74EF9034601198D4A1068E0509088BB
:100F0000937988808B7177E7884C2046FFF740F90A
:100F100003460119874A1068E050908893798880C9
:100F20008B7169E7814C2046FFF732F903460119BE
:100F3000814A1068E05013790B715DE77B4C2046C5
:100F4000FFF726F9034601197C4A1068E0509388A0
:100F50008B8051E7754C2046FFF71AF903460119BB
:100F6000774A1068E05093888B8045E76F4C2046A5
:100F7000FFF70EF903460519724A03CAE05069608B
:100F80003AE76A4D2846FFF703F9024644196E4BCB
:100F900003CBA85061601A889B782281A3722BE74B
:100FA000624C2046FFF7F4F802460519674B03CB65
:100FB000A05069601B782B721EE75C4C2046FFF73F
:100FC000E7F802460519624B03CBA05069601B8805
:100FD0002B8111E7554C2046FFF7DAF80246051938
:100FE0005C4B03CBA05069601B882B8104E75A4BF4
:100FF000186804F08DF8594B02221A70584B0322DE
:101000001A70002304E0574AD15C574AD154013387
:10101000172BF8DD002304E0544AD15C544AD15424
:101020000133112BF8DD534B186803F071FE40F2C9
:10103000DC5004F0E8F8504B01221A704FF40051D4
:101040004E4802F0E4F94E4B1A784E4B1B789A4208
:101050007FF4CAAD4C4B1A78404B1B789A427FF410
:10106000EDAD4A4B93F84130494A127893427FF4F0
:1010700013AE464B93F83F40464B1B789C420DD035
:10108000444B1C70414B93F83E509E8F324629468C
:101090002046FFF735FC01283FF44DAE322004F026
:1010A000B2F80221354802F0A5F9002834D14FF4F6
:1010B0007A7004F0A8F80221304802F09BF9002869
:1010C000C1D12D4B1B78002BBDD1244B1B78012B9C
:1010D0008DD0022BABD1274B186804F019F81F4BA9
:1010E00001221A701E4B03221A70002304E0204ACA
:1010F000D15C1E4AD1540133112BF8DD002304E0EA
:10110000194AD15C174AD1540133172BF8DD124B21
:10111000186803F0FDFD8AE70221184802F06AF919
:1011200001288BD1144B00221A7087E7D0030020CE
:101130002C780008347800083C78000844780008CF
:101140004C780008547800085C780008687800083B
:1011500074780008807800088006002013000020C2
:10116000E0070020A006002008080020A8060020B4
:10117000E40700207C060020CF030020000C024082
:10118000050400200F080020040400209C0000201B
:101190000304002002040020034B0360034B0B6098
:1011A00080231360704700BF1C0600201C04002031
:1011B00030B583B01F4C0194052500950023FA2219
:1011C0001D491E4803F071FD206803F0A1FF1C4C6F
:1011D000019400950023C8221A491B4803F065FDBD
:1011E000206803F095FF194C019404230093002319
:1011F0004FF4C8721649174803F057FD206803F0F2
:1012000087FF154B01930323009300234FF4C8720B
:101210001249134803F049FD124B01930223009336
:1012200000234FF496721049104803F03EFD03B0BE
:1012300030BD00BF80060020B07800087D20000887
:101240007C060020B8780008B92100087406002048
:10125000C07800085122000870060020CC780008F1
:10126000ED26000878060020D8780008A50B0008B5
:1012700000F1784243F6FE739A4247D9A2F58043C3
:1012800043F6FE72934243D900F17843A3F500433D
:1012900093423FD900F17843A3F5404393423BD9B1
:1012A00000F1774303F57F034FF6FE72934235D981
:1012B00000F1774303F57E0302F5803293422FD984
:1012C00000F1774303F57C0393422BD900F1774378
:1012D00003F57A03934227D900F1774303F57803A6
:1012E000934223D900F1774303F5760393421FD944
:1012F00000F1774303F5740393421BD900F1774063
:1013000000F57200904217D9002070470020704706
:101310000120704702207047032070470420704767
:101320000520704706207047072070470820704747
:10133000092070470A2070470B207047F0B583B032
:1013400005460F46164601F017FE2846FFF790FFA8
:10135000044605EB8600FFF78BFF134B00221A6053
:1013600002221A619C60001B0130D86001A9184656
:1013700001F000FF68B90024A64210DD57F82420D0
:1013800000232946022001F04FFE28B9043501341C
:10139000F2E701F013FE05E001F010FE02E001F0BB
:1013A00003FE002003B0F0BD8406002050F8043B8B
:1013B00041F8043B1346013A92B2002BF6D1704734
:1013C00010B582B096469C46131A002B16DB0022FD
:1013D000ACEB0103002B13DB00239AB9AEEB000E3C
:1013E0001FFA8EF29BB9ACEB010C1FFA8CF3BDF81F
:1013F0001040009400F000FC02B010BD0122E7E7AD
:101400000123EAE7A0EB0E0292B27046EAE7A1EBF5
:101410000C039BB26146EAE72DE9F04385B00F4625
:1014200090469946BDF830601F2801D92038C0B2D7
:1014300000230CE000EB4001264A02EB4102D15CA4
:1014400003F110026A4402F8081C0133DBB2052BD9
:10145000F0D9F3009BB206EB4602520092B2BDF8FF
:10146000341000914146384600F0C6FB002529E0C3
:1014700004EB0801E8194A4689B280B200F0F0FA9C
:101480000134E4B2072C1BD805F110036B4413F8A8
:10149000080C204110F0010FF2D0012EE8D015FB0E
:1014A00006F014FB06F118FA81F117FA80F0CDF876
:1014B00000903346324689B280B200F09DFBDFE7F0
:1014C0000135EDB2052D01D80024DBE705B0BDE8FC
:1014D000F08300BF587900082DE9F04383B004463B
:1014E0000D4690461F46BDF82860BDF82C900DE0D3
:1014F0000134CDF8049000963B4642462946FFF75A
:101500008BFF06EB460105EB41018DB220780028E8
:10151000EED103B0BDE8F083FEE7FEE7FEE7FEE7AD
:10152000FEE7704708B5024802F0A0FB08BD00BF07
:101530008845002008B5024802F048FA08BD00BFFF
:10154000D045002008B5024802F0FEFF08BD00BFEC
:101550007046002008B5024802F0F6FF08BD00BF43
:10156000F846002008B5024802F0EEFF08BD00BFB3
:10157000B446002008B50022034B1988034B1868B5
:1015800001F03FFF08BD00BF140400201804002034
:1015900000B583B08DF8070001231A460DF107014D
:1015A000024802F036F903B05DF804FBD045002094
:1015B00070B504460B4E0C4D00223188286801F0AE
:1015C00020FF0022094B1988094B186801F019FF08
:1015D0002046FFF7DDFF01223188286801F011FF66
:1015E00070BD00BF14040020180400200C0400206B
:1015F0001004002070B5044601220B4B19880B4BD8
:10160000186801F0FEFE0A4E0A4D00223188286853
:1016100001F0F7FE2046FFF7BBFF01223188286862
:1016200001F0EFFE70BD00BF0C040020100400208C
:101630001404002018040020F8B507460D4616468D
:101640001C462A20FFF7B4FF380AFFF7D3FFF8B291
:10165000FFF7D0FF300AFFF7CDFFF0B2FFF7CAFF68
:101660002B20FFF7A5FF280AFFF7C4FFE8B2FFF71A
:10167000C1FF200AFFF7BEFFE0B2FFF7BBFF2C203F
:10168000FFF796FFF8BD000038B50D4D0D4C012257
:101690002988206801F0B5FEC82001F0AFFF0022C4
:1016A000094B1988094B186801F0ABFEC82001F0FE
:1016B000A5FF01222988206801F0A3FE38BD00BFE4
:1016C0000604002008040020140400201804002050
:1016D00010B504463620FFF76BFF012001F08EFFA6
:1016E000032C0DD8DFE804F0020D18234820FFF783
:1016F00081FF144BF0221A80134B4FF4A0721A8012
:1017000010BD2820FFF776FF0E4B4FF4A0721A8011
:101710000D4BF0221A80F3E78820FFF76BFF094B8F
:10172000F0221A80084B4FF4A0721A80E8E7E820F4
:10173000FFF760FF034B4FF4A0721A80024BF022B8
:101740001A80DDE7000000200200002008B5012219
:10175000034B1988034B186801F053FE08BD00BF06
:10176000060400200804002008B5FFF7EFFFFFF78C
:1017700001FFFFF789FF0120FFF71AFF4FF47A708E
:1017800001F03CFFCB20FFF713FF3920FFF732FFBA
:101790002C20FFF72FFF0020FFF72CFF3420FFF74E
:1017A00029FF0220FFF726FFCF20FFF701FF0020CF
:1017B000FFF720FFC120FFF71DFF3020FFF71AFFC2
:1017C000E820FFF7F5FE8520FFF714FF0020FFF764
:1017D00011FF7820FFF70EFFEA20FFF7E9FE002057
:1017E000FFF708FF0020FFF705FFED20FFF7E0FE01
:1017F0006420FFF7FFFE0320FFF7FCFE1220FFF737
:10180000F9FE8120FFF7F6FEF720FFF7D1FE20203A
:10181000FFF7F0FEC020FFF7CBFE2320FFF7EAFE24
:10182000C120FFF7C5FE1020FFF7E4FEC520FFF73B
:10183000BFFE3E20FFF7DEFE2820FFF7DBFEC720BD
:10184000FFF7B6FE8620FFF7D5FE3620FFF7B0FE85
:101850004820FFF7CFFE3A20FFF7AAFE5520FFF7FA
:10186000C9FEB120FFF7A4FE0020FFF7C3FE182039
:10187000FFF7C0FEB620FFF79BFE0820FFF7BAFE79
:101880008220FFF7B7FE2720FFF7B4FEF220FFF714
:101890008FFE0020FFF7AEFE2620FFF789FE012015
:1018A000FFF7A8FEE020FFF783FE0F20FFF7A2FE60
:1018B0003120FFF79FFE2B20FFF79CFE0C20FFF747
:1018C00099FE0E20FFF796FE0820FFF793FE4E20AC
:1018D000FFF790FEF120FFF78DFE3720FFF78AFE1D
:1018E0000720FFF787FE1020FFF784FE0320FFF795
:1018F00081FE0E20FFF77EFE0920FFF77BFE002011
:10190000FFF778FEE120FFF753FE0020FFF772FE9D
:101910000E20FFF76FFE1420FFF76CFE0320FFF789
:1019200069FE1120FFF766FE0720FFF763FE3120F6
:10193000FFF760FEC120FFF75DFE4820FFF75AFE6B
:101940000820FFF757FE0F20FFF754FE0C20FFF78B
:1019500051FE3120FFF74EFE3620FFF74BFE0F20E1
:10196000FFF748FE1120FFF723FE782001F046FE26
:101970002920FFF71DFE0020FFF7AAFE08BD00008A
:101980002DE9F04700AF06460D464FEA4108B8F58D
:10199000FA7F01D34FF4FA7501221F4B19881F4BB0
:1019A000186801F02EFD00221D4B19881D4B186888
:1019B00001F027FD310AEB1D23F00703ADEB030D0A
:1019C0006C46002303E0E1545A1CA65402339D42A6
:1019D000F9D8B8FBF5F905FB198AA84510D20A23F6
:1019E0001FFA8AF22146104801F013FF01220C4B26
:1019F00019880C4B186801F004FDBD46BDE8F0875E
:101A000000264E45EBD20A23AAB22146064801F031
:101A100000FF0136F5E700BF0C0400201004002091
:101A20001404002018040020D045002070B504469E
:101A3000094E3288094D2B889BB292B2002108468C
:101A4000FFF7FAFD33889BB2298889B203FB01F1C5
:101A50002046FFF795FF70BD000000200200002027
:101A60005E4B1B889BB2834240F2B7802DE9F04762
:101A700084B004460D469046594B1B889BB28B425E
:101A800002D804B0BDE8F087DFF864A1DFF8649104
:101A90000022BAF80010D9F8000001F0B2FC514F52
:101AA000514E00223988306801F0ABFC2A20FFF744
:101AB0006FFD0122BAF80010D9F8000001F0A1FC76
:101AC00001223988306801F09CFC00223988306896
:101AD00001F097FC230A8DF80C30E3B28DF80D303D
:101AE000013424128DF80E4001338DF80F303F4C35
:101AF0000123042203A9204601F08BFE012239882C
:101B0000306801F07EFC0022BAF80010D9F800001D
:101B100001F077FC00223988306801F072FC2B203C
:101B2000FFF736FD0122BAF80010D9F8000001F0E5
:101B300068FC01223988306801F063FC0022398892
:101B4000306801F05EFC2B0A8DF80830EBB28DF89E
:101B5000093001352D128DF80A5001338DF80B3004
:101B60000123042202A9204601F053FE01223988F4
:101B7000306801F046FC0022BAF80010D9F80000E5
:101B800001F03FFC00223988306801F03AFC2C203B
:101B9000FFF7FEFC0122BAF80010D9F8000001F0AE
:101BA00030FC01223988306801F02BFC0022398892
:101BB000306801F026FC4FEA18238DF804308DF8C8
:101BC00005800123022201A9204601F022FE012204
:101BD0003988306801F015FC53E770470000002099
:101BE000020000201404002018040020D04500202A
:101BF0000C0400201004002038B51C46184B1B882C
:101C00009BB283422BD91546164B1B889BB28B4245
:101C100025D98218124B1B889BB29A4204DD104BC7
:101C20001D88ADB22D1AADB20A190E4B1B889BB29E
:101C30009A4204DD0B4B1C88A4B2641AA4B22A1881
:101C400092B263189BB2013B013A9BB292B2FFF78A
:101C5000F3FC05FB04F1BDF81000FFF791FE38BD61
:101C6000000000200200002038B514461D46104B2D
:101C70001A8892B282421AD90E4B1B889BB28B42B1
:101C800015D902190A4B1B889BB29A4204DD084BF6
:101C90001C88A4B2241AA4B2221892B2013A0B46AC
:101CA00092B2FFF7C9FC21462846FFF769FE38BD0E
:101CB000000000200200002010B45308023312F08C
:101CC000010F0AD10A4CE25C02F0F002E254014337
:101CD0000A43E2545DF8044B7047054CE25C02F0A5
:101CE0000F02E254084342EA0012E254F2E700BF56
:101CF000A00600200B4A137903F00F03137101288B
:101D000002D0022808D0704701228A40D24352B242
:101D10001340044A1371704701228A401343014A59
:101D20001371F0E7A0060020084B00225A7102232D
:101D300005E0064A5179D05C014451710133042B0E
:101D4000F7DD024A53795B4253717047A0060020C9
:101D500008B50138092831D8DFE810F00A00310051
:101D600058007F00A600CD00F4001B01420169016C
:101D7000002211460120FFF79FFF012204210320CA
:101D8000FFF79AFF022200210120FFF795FF0322AF
:101D900000210120FFF790FF00210120FFF7AAFF9B
:101DA00001210846FFF7A6FF02210120FFF7A2FF4D
:101DB00003210120FFF79EFFFFF7B6FF08BD0022B9
:101DC00011460320FFF778FF012200210320FFF7CF
:101DD00073FF022200210120FFF76EFF0322002182
:101DE0000120FFF769FF00210120FFF783FF012198
:101DF0000846FFF77FFF02210846FFF77BFF03211C
:101E00000220FFF777FFFFF78FFFD7E70022114689
:101E10000220FFF751FF012200210220FFF74CFFB3
:101E2000022200210120FFF747FF032200210120A9
:101E3000FFF742FF00210120FFF75CFF0121084668
:101E4000FFF758FF02210120FFF754FF0321012073
:101E5000FFF750FFFFF768FFB0E7002204210120E1
:101E6000FFF72AFF012204211046FFF725FF022277
:101E700000210120FFF720FF032200210120FFF7AE
:101E80001BFF00210120FFF735FF01210846FFF766
:101E900031FF02210120FFF72DFF03210120FFF771
:101EA00029FFFFF741FF89E7002208210120FFF702
:101EB00003FF012208211046FFF7FEFE0222002147
:101EC0000120FFF7F9FE032200210120FFF7F4FEB5
:101ED00000210120FFF70EFF01210846FFF70AFF4E
:101EE00002210120FFF706FF03210120FFF702FF77
:101EF000FFF71AFF62E7002211460120FFF7DCFE20
:101F0000012200211046FFF7D7FE02220021032004
:101F1000FFF7D2FE032200210120FFF7CDFE0021B2
:101F20000220FFF7E7FE01210220FFF7E3FE022176
:101F30000120FFF7DFFE03210120FFF7DBFEFFF7A3
:101F4000F3FE3BE7002211460120FFF7B5FE012218
:101F500000211046FFF7B0FE022200211046FFF7D5
:101F6000ABFE032200210120FFF7A6FE0021012085
:101F7000FFF7C0FE01210846FFF7BCFE0221012049
:101F8000FFF7B8FE03210120FFF7B4FEFFF7CCFEF8
:101F900014E7002211460120FFF78EFE01220021E6
:101FA0001046FFF789FE022204210120FFF784FE7C
:101FB000032204210120FFF77FFE00210120FFF70B
:101FC00099FE01210846FFF795FE02210120FFF747
:101FD00091FE03210120FFF78DFEFFF7A5FEEDE640
:101FE000002211460120FFF767FE01220021104662
:101FF000FFF762FE022208210120FFF75DFE0322A7
:1020000008210120FFF758FE00210120FFF772FE92
:1020100001210846FFF76EFE02210120FFF76AFE4C
:1020200003210120FFF766FEFFF77EFEC6E60022D1
:1020300011460120FFF740FE012200211046FFF764
:102040003BFE022200210120FFF736FE0322002181
:102050000120FFF731FE00210120FFF74BFE012197
:102060000846FFF747FE02210120FFF743FE032148
:102070000120FFF73FFEFFF757FE9FE610B58CB03B
:10208000434B00221A609A80FF211970597014E0A6
:10209000404B995C404B33F811300CA901EB4201E5
:1020A00021F81C3C3D49088803449BB20B8002F197
:1020B0003001694401F82C3C01320D2AE8DD364B31
:1020C000B3F91A20364B1A80002451E001330D2B4E
:1020D00009DC03F130026A4412F82C1C314A1288E0
:1020E0009142F3D9DCB2304B1B78A34210D10023CC
:1020F0000D2B2FDC0CAA02EB430232F81C1C254AE4
:10210000D05C254A32F81020914208D10133EFE724
:10211000254B1C70254B185DFFF71AFEE7E70022E0
:102120001E4B1A800D2A15DC1A4B995C1A4B33F89A
:1021300011300CA901EB420121F81C3C1749088819
:1021400003449BB20B8002F13001694401F82C3C3E
:102150000132E7E7104BB3F91A20114B1A804FF404
:102160000071134801F053F940F2E63003F04BF8E8
:10217000104B1B784BB90B4A138801330749098868
:1021800093FBF1F001FB1033138000239FE700BFA6
:10219000A006002004000020A806002098060020C9
:1021A0009A0600209C06002012000020987B000860
:1021B000000C02409E06002008B5114BFF221A7049
:1021C0005A7000249C70DC701C710E4B14221A7023
:1021D000FFF7AAFD0C4D01224FF40071284601F0D3
:1021E00010F940F2E73003F00EF822464FF4007188
:1021F000284601F006F940F2E73003F004F8DCE786
:10220000A006002012000020000C024000B583B0A0
:10221000002200920D4B596C41F480415964596C75
:1022200001F48041009100990192196C41F08051B4
:1022300019641B6C03F080530193019B0F216FF015
:10224000010001F091F903B05DF804FB0038024091
:1022500030B585B001F0CCF90446FEF711FB3EE045
:1022600001F0C6F9001BC7283DD901F0C1F90446A9
:10227000642306222F49304802F071F833E002F15E
:102280001001694411F80C1C0B44DBB20132072A1F
:10229000F5DDABB99DF8083063F30705ADB29DF8E5
:1022A000093063F31F25254B1B88AB422BD001F06F
:1022B0009FF9234B18604FF40061224801F0A7F802
:1022C00001F096F91E4B1B68C01A40F6B8339842CD
:1022D00002D91D4B00221A700A2002F0A7FE1B4BE8
:1022E0001B78002BBCD00A22114601A8FEF7E6FAA3
:1022F0009DF80430FF2BE3D19DF80530FF2BDFD193
:1023000002220023C3E7104A012111709DF8062024
:1023100062F30705ADB29DF8072062F31F250C4A52
:10232000B2F900202A4492FBF3F103FB1122094B7E
:102330001A80BCE7A0060020704600209806002006
:10234000CC060020000C02409E0600200E08002053
:102350009A0600209C06002000B58BB00A22694630
:102360000948FFF723F8002308E00AAA02EB43021A
:1023700032F8281C054A22F813100133112BF4DD22
:102380000BB05DF804FB00BF00E00108A8060020C8
:1023900008B50A2202490348FEF7D0FF08BD00BF76
:1023A000F006002000E0010870B55B21584803F0FA
:1023B000F1FCB0B15749013003F014FE002408E0ED
:1023C000651C554B23F814005249002003F00AFE07
:1023D0002C4638B1122C05DC03F0FFFDB0F57A7FF6
:1023E000EED370BD132CFCD14C4B1B7813B1013BC9
:1023F0004A4A1370484B9B8CE3B1494A0021117043
:10240000012B31D0444B9B8C012B38D0022BE8D1CF
:10241000444B1B78022BE4D0404A1278002AE0D1CA
:10242000012B59D0404B186802F072FC3D4B022240
:102430001A70D6E73A4B01221A70D2E70133112BFA
:1024400016DC3A4A32F81310334A32F8132091421C
:1024500003D0364921F813200124344A32F81320DE
:10246000002AEBD10130E9E7002318461C46E6E7D5
:102470001128C7D0002CC5D0FFF78AFFC2E7294A30
:102480001278012AC2D0254909780029BED1022A32
:102490001DD0274B274A1068186092889A80264ED4
:1024A000224D06F1200E34460FCC28606960AA60E8
:1024B000EB60264610357445F5D1206828601F4B27
:1024C000186802F025FC174B01221A7089E7164B99
:1024D000186802F01DFEDCE7184B186802F018FEC1
:1024E000144B134A1068186092889A800F4C124E51
:1024F00004F1200E354620686168A268E3680FC5C4
:1025000010342E467445F5D1206828608AE700BF54
:1025100018070020E0780008F0060020E0070020FF
:102520000E080020130000207C060020A8060020D2
:10253000A006002008080020E407002080060020F4
:10254000654B7B221A7022225A7073219970742075
:10255000D8704FF0610C83F804C0587175209871E1
:10256000D9711A723A225A725B229A722C221A7309
:102570009A731A749A745D221A757D225A75002214
:102580009A753022DA725A73DA735A74DA74534BCA
:102590001B78002B40F09B80514B1B78012B17D0F0
:1025A000504B1B78FBB14C4B3422DA744E4B9B786A
:1025B00003F00302C3F38101022A1CD0032A2CD0AA
:1025C000012A1BD1012912D0434A3121D17215E0D1
:1025D000444B1B781BB1404B3322DA74E6E73E4B89
:1025E0003122DA74E2E73C4B3222DA74DEE73A4A0F
:1025F0003521D17202E0384A3221D172C3F301127F
:102600009B09022A17D0032A2AD0012A16D1012BAE
:102610000DD0314B31225A7310E0012903D02E4ADC
:102620003321D172EAE72C4A3421D172E6E72A4BF2
:1026300035225A7302E0284B32225A732A4BDB7838
:1026400003F00302C3F38101022A17D0032A27D023
:10265000012A16D101290DD01F4A3121D17310E072
:10266000012B03D01C4B33225A73E7E71A4B342259
:102670005A73E3E7184A3521D17302E0164A322132
:10268000D173C3F301129B09022A17D0032A19D070
:10269000012A1CD1012B0DD00F4B31225A747047E7
:1026A000012903D00C4A3321D173EAE70A4A3421C5
:1026B000D173E6E7084B35225A747047064B322235
:1026C0005A747047012B03D0034B33225A7470475E
:1026D000014B34225A747047D40600200E080020A3
:1026E00013000020E0070020A006002010B5FEF730
:1026F00071F8FFF731FE204B186802F009FB1F4B01
:10270000186802F005FBFEF70BF81D4B002283F85A
:10271000412083F840201AE0FFF746FE194C0122C1
:102720004FF40041204600F06CFE642002F06BFD87
:1027300000224FF40041204600F063FE124B0122BC
:102740001A70124B00221A80142002F06FFCFFF75F
:10275000F7FE0F490F48FDF749FF0028DCD10B4A6F
:10276000138801339BB21380074A00211170044A79
:1027700082F84130E8E700BF8006002074060020A0
:102780009C000020000C02400F080020D006002012
:10279000D406002018070020002800F0E08170B562
:1027A00082B00446036813F0010F3BD09F4B9B6837
:1027B00003F00C03042B2CD09C4B9B6803F00C0300
:1027C000082B21D06368B3F5803F4FD0B3F5A02F1D
:1027D00052D0964B1A6822F480321A601A6822F49A
:1027E00080221A606368002B50D000F001FF05467C
:1027F0008E4B1B6813F4003F14D100F0F9FE401B10
:102800006428F5D90320B1E1884B5B6813F4800F8D
:10281000D8D0864B1B6813F4003F03D06368002BAD
:1028200000F09F81236813F0020F54D07F4B9B6808
:1028300013F00C0F3ED07D4B9B6803F00C03082B6C
:1028400033D0E368002B68D0794B01221A6000F086
:10285000CFFE0546754B1B6813F0020F54D100F0F4
:10286000C7FE401B0228F5D903207FE16F4A136899
:1028700043F480331360B5E76C4B1A6842F480224E
:102880001A601A6842F480321A60ABE700F0B0FEBA
:102890000546664B1B6813F4003FC3D000F0A8FE4A
:1028A000401B6428F5D9032060E1604B5B6813F49A
:1028B000800FC6D15D4B1B6813F0020F03D0E36895
:1028C000012B40F05081594A136823F0F803216925
:1028D00043EAC1031360236813F0080F42D0636911
:1028E0006BB3534B0122C3F8802E00F081FE0546E6
:1028F0004E4B5B6F13F0020F34D100F079FE401B9A
:102900000228F5D9032031E1484A136823F0F8037F
:10291000216943EAC1031360DDE7454B00221A60D9
:1029200000F066FE0546414B1B6813F0020FD2D043
:1029300000F05EFE401B0228F5D9032016E13C4B57
:102940000022C3F8802E00F053FE0546374B5B6F24
:1029500013F0020F06D000F04BFE401B0228F5D901
:10296000032003E1236813F0040F77D02F4B1B6C77
:1029700013F0805F33D1002301932C4B1A6C42F08B
:1029800080521A641B6C03F080530193019B012554
:10299000284B1B6813F4807F23D0A368012B34D00D
:1029A000052B38D0214B1A6F22F001021A671A6FDB
:1029B00022F004021A67A368002B3DD000F018FE35
:1029C00006461A4B1B6F13F0020F46D100F010FEA3
:1029D000801B41F288339842F3D90320C6E00025DA
:1029E000D6E7144A136843F48073136000F000FEC6
:1029F0000646104B1B6813F4807FCED100F0F8FD23
:102A0000801B0228F5D90320B0E0084A136F43F079
:102A100001031367CFE7054B1A6F42F004021A67F0
:102A20001A6F42F001021A67C5E700BF0038024082
:102A3000000047420070004000F0DAFD0646524BAD
:102A40001B6F13F0020F08D000F0D2FD801B41F283
:102A500088339842F3D9032088E0EDB9A369002BAD
:102A600000F08380484A926802F00C02082A51D094
:102A7000022B17D0454B00221A6600F0B9FD044620
:102A8000414B1B6813F0007F42D000F0B1FD001BEA
:102A90000228F5D9032069E03B4A136C23F08053E8
:102AA0001364DBE7394B00221A6600F0A1FD0546EE
:102AB000354B1B6813F0007F06D000F099FD401BDA
:102AC0000228F5D9032051E0E369226A1343626AC0
:102AD00043EA8213A26A5208013A43EA0243E26AD5
:102AE00043EA0263284A5360284B01221A6600F029
:102AF0007FFD0446244B1B6813F0007F06D100F0D5
:102B000077FD001B0228F5D903202FE000202DE0DF
:102B100000202BE0012B2BD01B4B5B6803F48001C2
:102B2000E269914226D103F03F02216A8A4223D111
:102B3000616A47F6C0721A40B2EB811F1ED103F4DE
:102B40004031A26A5208013AB1EB024F18D103F0AA
:102B50007063E26AB3EB026F14D1002006E001203B
:102B60007047012002E0012000E0002002B070BDAB
:102B70000120FBE70120F9E70120F7E70120F5E755
:102B80000120F3E70120F1E700380240000047424E
:102B900008B5334B9B6803F00C03042B5BD0082B68
:102BA0005BD12F4B5A6802F03F025B6813F4800F31
:102BB0002CD02B4B5868C0F388104FEA401CBCEB5C
:102BC000000C6EEB0E0E4FEA8E1343EA9C634FEA45
:102BD0008C11B1EB0C0163EB0E03DB0043EA517384
:102BE000C90011EB000C43F10003590200234FEA26
:102BF0004C2041EADC51FDF723FB194B5B68C3F322
:102C0000014301335B00B0FBF3F008BD144B58687F
:102C1000C0F388104FEA401CBCEB000C6EEB0E0EAC
:102C20004FEA8E1343EA9C634FEA8C11B1EB0C011F
:102C300063EB0E03DB0043EA5173C90011EB000C98
:102C400043F10003990200234FEA8C2041EA9C5192
:102C5000FDF7F6FAD1E70348D7E70348D5E700BF09
:102C60000038024000127A000024F400002800F02E
:102C70009B8070B50D4604464F4B1B6803F007035D
:102C80008B4208D2CBB24C4A1370136803F007038F
:102C90008B4240F08B80236813F0020F17D013F0A3
:102CA000040F04D0454A936843F4E05393602368CB
:102CB00013F0080F04D0414A936843F460439360D3
:102CC0003E4A936823F0F003A1680B4393602368A6
:102CD00013F0010F32D06368012B21D09A1E012A14
:102CE00025D9364A126812F0020F61D033498A683A
:102CF00022F0030213438B6000F07AFC06462F4B50
:102D00009B6803F00C036268B3EB820F16D000F0EF
:102D10006FFC801B41F288339842F0D9032042E0D7
:102D2000264A126812F4003FE0D101203BE0234A1A
:102D3000126812F0007FD9D1012034E01E4B1B68CD
:102D400003F00703AB4207D9EAB21B4B1A701B68AA
:102D500003F00703AB422DD1236813F0040F06D014
:102D6000164A936823F4E053E1680B4393602368A9
:102D700013F0080F07D0114A936823F460432169C8
:102D800043EAC1039360FFF703FF0C4B9B68C3F357
:102D900003130B4AD35CD8400A4B18600A4B1868DF
:102DA00002F0EEFC002070BD012070470120FAE720
:102DB0000120F8E70120F6E7003C0240003802401D
:102DC000B07B00081C00002018000020014B186890
:102DD000704700BF1C00002008B5FFF7F7FF044B49
:102DE0009B68C3F38223034AD35CD84008BD00BF6D
:102DF00000380240A87B000808B5FFF7E7FF044B46
:102E00009B68C3F34233034AD35CD84008BD00BF7C
:102E100000380240A87B00080F2303600B4B9A6820
:102E200002F0030242609A6802F0F00282609A683F
:102E300002F4E052C2609B68DB0803F4E0530361D4
:102E4000034B1B6803F007030B6070470038024018
:102E5000003C024010B40A490C6924F440740C612F
:102E60000C6944F440740C610C6944F001040C6179
:102E70000260BFF36F8F43605DF8044B704700BF83
:102E8000003C0240074B1A6922F440721A611A6929
:102E900042F400721A611A6942F001021A6101607B
:102EA000704700BF003C0240074B1A6922F4407291
:102EB0001A611A6942F480721A611A6942F00102B9
:102EC0001A610180704700BF003C0240064B1A693E
:102ED00022F440721A611A691A611A6942F00102F9
:102EE0001A610170704700BF003C0240204BDB6854
:102EF00013F0100F07D01F4AD36943F01003D361BA
:102F00001B4B1022DA601A4BDB6813F0200F07D03E
:102F1000184AD36943F00803D361154B2022DA60C5
:102F2000134BDB6813F0400F07D0124AD36943F00C
:102F30000403D3610E4B4022DA600D4BDB6813F0C3
:102F4000800F07D00B4AD36943F00203D361084BCB
:102F50008022DA60064BDB6813F0020F07D0054AC7
:102F6000D36943F02003D361014B0222DA6070473A
:102F7000003C024010080020094B1B69002B01DBBC
:102F800000207047064B074A5A6002F188325A60A7
:102F90001B69002B01DB002070470120704700BF38
:102FA000003C024023016745034A136943F0004394
:102FB00013610020704700BF003C0240014BD869FC
:102FC000704700BF1008002038B50446144B00229B
:102FD000DA6100F00DFB0546124BDB6813F4803F0D
:102FE0000AD0B4F1FF3FF7D024B100F001FB401B41
:102FF000A042F1D903200DE00A4BDB6813F0010F6A
:1030000002D0084B0122DA60064BDB6813F0F20FA6
:1030100001D1002038BDFFF769FF0120FAE700BFAA
:1030200010080020003C0240F8B516461B4A127EEC
:10303000012A30D004460D461F46184B01221A764D
:103040004CF25030FFF7C0FF90B9ACB1012C18D052
:10305000022C1BD032463B462846FFF7FBFE4CF2C3
:103060005030FFF7B1FF0E4A136923F001031361DB
:103070000A4B00221A76F8BDF1B22846FFF726FF68
:10308000EDE7B1B22846FFF70FFFE8E731462846E3
:10309000FFF7F8FEE3E70220EDE700BF100800208D
:1030A000003C0240074B1A6922F440721A611A6907
:1030B00042F004021A611A6942EA002242F48032A4
:1030C0001A617047003C0240012905D0022906D050
:1030D00039B14FF4407104E04FF4807101E04FF4D6
:1030E00000710B4B1A6922F440721A611A690A4383
:1030F0001A611A6922F0F8021A611A6942EAC000DC
:1031000040F0020018611A6942F480321A61704777
:10311000003C0240164B1B6813F4007F10D0144B88
:103120001A6822F400721A601A6842F400621A6087
:103130001A6822F400621A601A6842F400721A6077
:103140000B4B1B6813F4806F10D0094B1A6822F4E4
:1031500080621A601A6842F480521A601A6822F477
:1031600080521A601A6842F480621A60704700BF89
:10317000003C0240F8B5224B1B7E012B3ED004469A
:103180000E461F4B01221A764CF25030FFF71CFFFF
:10319000074670BB4FF0FF3333602368012B16D016
:1031A000A568E368A2681344AB4220D9217C284675
:1031B000FFF78AFF4CF25030FFF706FF114A136900
:1031C00023F0FA031361074680B90135E9E7616826
:1031D000207CFFF767FF4CF25030FFF7F5FE074603
:1031E000084A136923F00403136100E03560FFF718
:1031F00091FF034B00221A763846F8BD0227FBE701
:1032000010080020003C024000230F2B00F2E98050
:1032100070B582B065E085684FEA430E032404FA76
:103220000EF425EA0405CC6804FA0EF42C438460FD
:10323000446824EA02044A68C2F300129A40224316
:1032400042605CE0DC08083450F8242003F00705F5
:10325000AD004FF00F0E0EFA05FE22EA0E0E0A69BF
:10326000AA4042EA0E0240F824205CE0072200E077
:10327000002202FA0EF22A4302345A4D45F8242065
:10328000594A94686FEA0C0224EA0C054E6816F459
:10329000801F01D04CEA0405534CA560E46802EAA3
:1032A00004054E6816F4001F01D04CEA04054E4C8C
:1032B000E560646802EA04054E6816F4003F01D038
:1032C0004CEA0405484C6560246822404D6815F4BA
:1032D000803F01D04CEA0402434C226001330F2BA3
:1032E0007DD801229A400C6804EA020C32EA0404F8
:1032F000F4D14C6804F00304013C012C8BD94A68DA
:1033000002F00302032A09D0C4685D000322AA4028
:1033100024EA02048A68AA402243C2604A6802F092
:103320000302022A8ED004684FEA430E032202FAF7
:103330000EF224EA02044A6802F0030202FA0EF2D4
:10334000224302604A6812F4403FC7D00022019233
:10335000264A546C44F480445464526C02F4804213
:103360000192019A9C08A51C1E4A52F8255003F0B0
:10337000030E4FEA8E0E0F2202FA0EF225EA020524
:103380001B4A90423FF474AF02F5806290421AD01B
:1033900002F58062904218D002F58062904216D009
:1033A00002F58062904214D002F58062904212D001
:1033B00002F58062904210D002F5806290423FF4A4
:1033C00055AF082255E7012253E7022251E70322B5
:1033D0004FE704224DE705224BE7062249E702B0FA
:1033E00070BD704700380140003C01400038024089
:1033F000000002400369194201D0012070470020FB
:1034000070470AB18161704709048161704743695F
:1034100001EA030221EA030141EA024181617047A6
:1034200070B50446866D00F0E3F894F83530DBB2F1
:10343000022B06D080236365002384F834300120FA
:1034400070BD05462268136823F0160313602268D6
:10345000536923F080035361236CE3B1226813683E
:1034600023F0080313602268136823F0010313603C
:1034700023681B6813F0010F11D000F0B9F8431B4B
:10348000052BF5D920236365032084F8350000233C
:1034900084F83430D4E7A36C002BDFD1E3E7E26D8E
:1034A0003F239340B360012384F83530002084F833
:1034B0003400C5E790F83530DBB2022B03D080230F
:1034C000436501207047052380F835300268136892
:1034D00023F001031360002070470000002808DB80
:1034E0000901C9B200F1604000F5614080F80013A5
:1034F000704700F00F000901C9B2014B1954704721
:1035000014ED00E000B500F00700C0F1070CBCF1BD
:10351000040F28BF4FF0040C031D062B0FD9C31E48
:103520004FF0FF3E0EFA0CF021EA000199400EFA2E
:1035300003FE22EA0E0241EA02005DF804FB0023CA
:10354000EEE70000074AD36823F4E0631B041B0C7A
:10355000000200F4E060034343F0BF6343F4003330
:10356000D360704700ED00E010B50446054BD86805
:10357000C0F30220FFF7C6FF01462046FFF7AEFF6B
:1035800010BD00BF00ED00E0002807DB00F01F02C7
:10359000400901239340024A42F82030704700BF9F
:1035A00000E100E008B50B4B1A6842F400721A60A3
:1035B0001A6842F480621A601A6842F480721A60D3
:1035C0000320FFF7BFFF0F2002F0DAF8FEF71EFE20
:1035D000002008BD003C0240034A1168034B1B78E1
:1035E0000B441360704700BF300800201400002017
:1035F000014B1868704700BF3008002038B50446FA
:10360000FFF7F6FF0546B4F1FF3F02D0044B1B78ED
:103610001C44FFF7EDFF401BA042FAD338BD00BFAA
:10362000140000202DE9F04782B005468846174671
:103630001E46FFF7DDFF0A9B1B1A03EB0609FFF787
:10364000D7FF8246284B1B68C3F3CB3309FB03F338
:1036500001932B689C6838EA04040CBF0123002303
:10366000BB423DD0B6F1FF3FF3D0FFF7C1FFA0EB67
:103670000A00484507D2019A02B14A46019B013B24
:1036800001939146E5E72A68536823F0E00353600D
:103690006B68B3F5827F0BD0AB6AB3F5005F14D0D3
:1036A000012385F85130002385F85030032018E0BD
:1036B000AB68B3F5004F02D0B3F5806FECD12A6848
:1036C000136823F040031360E6E72A68136823F4C5
:1036D000005313602A68136843F400531360DFE754
:1036E000002002B0BDE8F0871C00002010B584B0B7
:1036F0000446164B1868164BA3FB0030400D4FF4E0
:103700007A7303FB00F003906368B3F5827F0BD0FC
:10371000039BBBB1039B013B039323689B6813F09E
:10372000800FF5D100200EE000920B460022802190
:103730002046FFF777FF30B1636D43F020036365E8
:10374000032000E0002004B010BD00BF1C000020DA
:10375000819F5E1600285AD010B50446436A33B9DB
:103760004368B3F5827F05D00023C36102E00023E4
:10377000036143610023A36294F85130002B40D0D1
:10378000022384F851302268136823F04003136049
:10379000636803F48273A26802F404421343E2688C
:1037A00002F400621343226902F0020213436269C9
:1037B00002F001021343A26902F400721343E269AA
:1037C00002F038021343226A02F080021343A26A15
:1037D00002F40052216813430B60638B03F004036F
:1037E000626A02F01002216813434B602268D369B9
:1037F00023F40063D36100206065012384F8513015
:1038000010BD84F85030204602F0D4F8B8E701200B
:1038100070472DE9F04383B01D4690F85030012BDE
:1038200000F0D180044688469146012380F850304C
:10383000FFF7DEFE074694F85160F6B2012E40F025
:10384000AF80B8F1000F00F0AC80B9F1000F00F0CC
:10385000A880032384F8513000236365C4F83080C6
:10386000A4F83490A4F83690A363A387E387636435
:103870002364A368B3F5004F1ED023681A6812F0C2
:10388000400F03D11A6842F040021A60E368B3F5B2
:10389000006F1CD0636813B1B9F1010F52D1226BD4
:1038A000236812781A73236B01332363E38E9BB270
:1038B000013B9BB2E38645E02268136823F0400396
:1038C00013602268136843F480431360D5E763688C
:1038D00013B1B9F1010F16D1226B23681288DA6097
:1038E000236B02332363E38E9BB2013B9BB2E386DF
:1038F00009E0FFF77DFEC01BA84202D3B5F1FF3FF0
:1039000059D1002D59D0E38E9BB2002B33D02368C0
:103910009A6812F0020FECD0226B1288DA60236BE7
:1039200002332363E38E9BB2013B9BB2E386EAE75B
:10393000FFF75EFEC01BA84202D3B5F1FF3F3ED1A8
:10394000002D3ED0E38E9BB2ABB123689A6812F093
:10395000020FEDD0226B12781A73236B01332363AD
:10396000B4F836C01FFA8CFC0CF1FF3C1FFA8CFC3B
:10397000A4F836C0E6E73A4629462046FFF7B6FEE9
:1039800008B120236365A36833B901932368DA681B
:1039900001929B680193019B636D13B9002600E0BF
:1039A0000226012384F85130002384F85030304639
:1039B00003B0BDE8F0830326F3E70326F1E703260F
:1039C000EFE70326EDE70226F1E7704730B585B053
:1039D0000446026851689368C3F3801013F0400FE7
:1039E00005D113F0010F02D011F0400F69D113F08F
:1039F000020F02D011F0800F67D1C3F3401513F00E
:103A0000200F03D110B913F4807F61D011F0200F83
:103A10005ED078B194F85100C0B203285AD0606DDE
:103A200040F00400606500200090D068009090682D
:103A30000090009865B1606D40F001006065002065
:103A4000029090680290106820F040001060029A86
:103A500013F4807F09D0636D43F00803636500238E
:103A6000039323689B680393039B636D002B2FD004
:103A70002268536823F0E0035360012384F8513037
:103A800011F0030F2ED02268536823F00303536014
:103A9000E36C4BB1154A1A65E06CFFF70BFD18B1EA
:103AA000636D43F040036365A36C8BB10F4A1A65E5
:103AB000A06CFFF7FFFC58B1636D43F040036365F2
:103AC00006E0236C2046984702E0636C2046984746
:103AD00005B030BD00230193D3680193936801932F
:103AE000019BF5E72046FFF770FFF1E7F13A000888
:103AF00008B5806B0023C387C386FFF766FF08BD48
:103B000010B4036A046A24F001040462846924F096
:103B1000F00C4CEA021223F00A030B4382610362A9
:103B20005DF8044B704710B4036A23F0100303627E
:103B30008469036A24F4704C4CEA023223F0A00337
:103B400043EA0113826103625DF8044B70478368A6
:103B500023F070030B4343F00703836070470000BA
:103B600090F83D30DBB2012B32D1022380F83D309A
:103B70000368194A934220D0B3F1804F1DD0A2F5BB
:103B80007C42934219D002F58062934215D002F52F
:103B90008062934211D002F5784293420DD002F533
:103BA0007052934209D0A2F59432934205D01A681C
:103BB00042F001021A60002070479A6802F0070282
:103BC000062A07D01A6842F001021A6000207047E6
:103BD00001207047002070470000014090F83D3000
:103BE000DBB2012B37D1022380F83D300268D36865
:103BF00043F00103D3600368194A934220D0B3F124
:103C0000804F1DD0A2F57C42934219D002F580620C
:103C1000934215D002F58062934211D002F57842AA
:103C200093420DD002F57052934209D0A2F594321E
:103C3000934205D01A6842F001021A6000207047D2
:103C40009A6802F00702062A07D01A6842F00102B9
:103C50001A6000207047012070470020704700BFA5
:103C600000000140704770477047704710B5044628
:103C700003681A6912F0020F11D0DA6812F0020F0D
:103C80000DD06FF002021A610123037703689B696C
:103C900013F0030F70D0FFF7E6FF002323772368AC
:103CA0001A6912F0040F12D0DA6812F0040F0ED065
:103CB0006FF004021A610223237723689B6913F4CF
:103CC000407F5FD02046FFF7CEFF00232377236895
:103CD0001A6912F0080F12D0DA6812F0080F0ED02D
:103CE0006FF008021A61042323772368DB6913F05D
:103CF000030F4ED02046FFF7B6FF0023237723683B
:103D00001A6912F0100F12D0DA6812F0100F0ED0EC
:103D10006FF010021A61082323772368DB6913F41C
:103D2000407F3DD02046FFF79EFF00232377236886
:103D30001A6912F0010F03D0DA6812F0010F36D1C0
:103D400023681A6912F0800F03D0DA6812F0800F2E
:103D500034D123681A6912F0400F03D0DA6812F0E8
:103D6000400F32D123681A6912F0200F03D0DA68AD
:103D700012F0200F30D110BDFFF774FF2046FFF77F
:103D800073FF8AE72046FFF76DFF2046FFF76CFFC1
:103D90009BE72046FFF766FF2046FFF765FFACE78D
:103DA0002046FFF75FFF2046FFF75EFFBDE76FF09D
:103DB00001021A612046FCF7CBFAC1E76FF08002DE
:103DC0001A61204600F073F9C3E76FF040021A61F0
:103DD0002046FFF74AFFC5E76FF020021A61204630
:103DE00000F064F9C7E700000368304A904212D03F
:103DF000B0F1804F0FD0A2F57C4290420BD002F57B
:103E00008062904207D002F58062904203D002F5B2
:103E10007842904203D123F070034A681343234A47
:103E200090422AD0B0F1804F27D0A2F57C42904238
:103E300023D002F5806290421FD002F5806290424A
:103E40001BD002F57842904217D002F57052904292
:103E500013D002F5806290420FD002F5806290424A
:103E60000BD0A2F59832904207D002F580629042C2
:103E700003D002F58062904203D123F44073CA68F4
:103E8000134323F080034A69134303608B68C362C2
:103E90000B688362054B984203D003F58063984218
:103EA00001D10B69036301234361704700000140A6
:103EB00040B310B5044690F83D30F3B1022384F8C6
:103EC0003D30214651F8040BFFF78EFF012384F8A3
:103ED000463084F83E3084F83F3084F8403084F82F
:103EE000413084F8423084F8433084F8443084F818
:103EF000453084F83D30002010BD80F83C3001F0A2
:103F0000D3FDDBE70120704710B4846824F47F4CB4
:103F100042EA03220A4342EA0C0282605DF8044B43
:103F2000704790F83C30012B78D010B5044601233F
:103F300080F83C30022380F83D300268936823F417
:103F40007F4323F0770393600B68602B4CD023D81A
:103F5000402B54D011D8202B03D00AD80BB1102BF2
:103F600005D119462068FFF7F2FD002028E0012066
:103F700026E0302BF5D0012022E0502B0AD1CA6870
:103F800049680068FFF7BCFD50212068FFF7DFFD9E
:103F9000002015E0012013E0B3F5805F3AD0B3F5BF
:103FA000005F14D0702B37D1CB684A6889680068ED
:103FB000FFF7AAFF2268936843F07703936000201D
:103FC000012384F83D30002384F83C3010BDCB68D9
:103FD0004A6889680068FFF797FF2268936843F48E
:103FE000804393600020EBE7CA6849680068FFF7E8
:103FF0009AFD60212068FFF7AAFD0020E0E7CA686B
:1040000049680068FFF77CFD40212068FFF79FFDAD
:104010000020D5E70020D3E70120D1E70220704738
:1040200090F83C20012A3DD010B40346012280F8CC
:104030003C20022280F83D2002685068946820F0FD
:10404000700C086840EA0C0050601A6816488242FA
:104050001AD0B2F1804F17D0A0F57C40824213D025
:1040600000F5806082420FD000F5806082420BD064
:1040700000F57840824207D000F57050824203D0AC
:10408000A0F59430824204D124F080044968214391
:104090009160012283F83D20002083F83C005DF808
:1040A000044B704702207047000001407047704782
:1040B000026802F10C0353E8003F23F490730C32C2
:1040C00042E800310029F3D1026802F1140353E8F9
:1040D000003F23F00103143242E800310029F3D1FC
:1040E000036B012B05D0202380F83E3000230363AF
:1040F0007047026802F10C0353E8003F23F01003FD
:104100000C3242E800310029F3D1ECE790F83D3061
:10411000DBB2212B01D0022070478368B3F5805FAA
:1041200017D0036A5A1C02621A7803685A60C38C5B
:104130009BB2013B9BB2C3844BB90268D36823F0A6
:104140008003D3600268D36843F04003D36000204B
:1041500070470369002BE4D1036A1B880268C3F32C
:1041600008035360036A02330362E0E710B50446B4
:104170000268136923F44053C1680B4313618368D9
:1041800002691A4343691A43C3691A430168CB6839
:1041900023F4164323F00C031343CB6002685369E6
:1041A00023F4407381690B4353610368314A93429E
:1041B00006D002F58062934202D0FEF70DFE01E0C8
:1041C000FEF71AFEE369B3F5004F29D0002103186A
:1041D00049411B1841F10001C90041EA5371DB005C
:1041E000181863684FEA83024FEA937341F10001A4
:1041F000FCF726F8204AA2FB00314909642303FB9F
:1042000011031B013233A2FB03235B0903F0F0020D
:1042100002EB011203F00F03216813448B6010BD01
:104220000023021843EB0301121841F10001C900F9
:1042300041EA5271D200101841F1000162689218EF
:104240005B41FBF7FDFF0C4AA2FB003149096423E7
:1042500003FB1103DB003233A2FB03235B095A008B
:1042600002F4F87202EB011203F007032168134411
:104270008B60D4E7001001401F85EB512DE9F84316
:1042800005460F4616469946DDF820802B681C68C7
:1042900037EA04040CBF01240024B4422DD1B8F144
:1042A000FF3FF3D0B8F1000F05D0FFF7A1F9A0EB65
:1042B00009004045EAD92A6802F10C0353E8003F9F
:1042C00023F4D0730C3242E800310029F3D12A687C
:1042D00002F1140353E8003F23F00103143242E8D3
:1042E00000310029F3D1202385F83D3085F83E3098
:1042F000002385F83C30032000E00020BDE8F8836F
:1043000058B310B5044690F83D300BB3242384F81D
:104310003D302268D36823F40053D3602046FFF772
:1043200025FF2268136923F49043136122685369BF
:1043300023F02A0353612268D36843F40053D36007
:1043400000202064202384F83D3084F83E3010BDE6
:1043500080F83C3001F00EFCD8E7012070472DE9D1
:10436000F04182B01E4690F83D30DBB2202B54D194
:1043700004460D469046002953D0002A53D090F8A9
:104380003C30012B51D0012380F83C3000230364E2
:10439000212380F83D30FFF72BF90746A4F824804D
:1043A000A4F82680A368B3F5805F05D04FF000081D
:1043B000002384F83C3012E0236913B14FF0000869
:1043C000F6E7A8460025F3E738F8023B2268C3F376
:1043D00008035360E28C92B2013A92B2E284E38C19
:1043E0009BB273B100963B46002280212046FFF726
:1043F00045FFE0B9002DE7D015F8012B23685A607E
:10440000E8E700963B46002240212046FFF736FFB2
:1044100078B9202384F83D3000E0022002B0BDE8E6
:10442000F0810120FAE70120F8E70220F6E70320F7
:10443000F4E70320F2E7704708B50168CA6822F084
:104440004002CA60202280F83D20FFF7F4FF0020E0
:1044500008BD704708B5806B0023C385C384FFF790
:10446000F8FF08BD704790F83E30DBB2222B67D1D1
:104470008368B3F5805F4DD0826AB3F5805F04D066
:10448000002B54D10369002B51D103685B68137072
:10449000836A01338362C38D9BB2013B9BB2C385A8
:1044A000002B4FD100B583B00268D36823F02003FE
:1044B000D3600268D36823F48073D36002685369C1
:1044C00023F001035361202380F83E30036B012B5E
:1044D00033D100230363026802F10C0353E8003F69
:1044E00023F010030C3242E800310029F3D10368B5
:1044F0001A6812F0100F06D0002201921A68019279
:104500005B680193019B818DFFF7ACFF002003B036
:104510005DF804FB0269002AAED1826A03685B6819
:10452000C3F308031380836A02338362B3E703682B
:104530005B6803F07F031370AAE7FCF717F9E5E760
:10454000022070470020704710B582B00446026810
:104550001368D068516913F00F0F09D113F0200FC1
:104560000CD010F0200F09D02046FFF77CFF16E09A
:1045700011F0010115D110F4907F12D1216B0129A6
:1045800079D013F0800F03D010F0800F40F010812D
:1045900013F0400F03D010F0400F40F00D8102B037
:1045A00010BD13F0010F06D010F4807F03D0226CF1
:1045B00042F00102226413F0040F04D019B1226CFE
:1045C00042F00202226413F0020F04D019B1226CEF
:1045D00042F00402226413F0080F07D010F0200FFD
:1045E00000D119B1226C42F008022264226C002A28
:1045F000D5D013F0200F02D010F0200F29D123685E
:104600005B6903F04003226C12F0080F00D163B322
:104610002046FFF74DFD23685B6913F0400F20D063
:10462000226802F1140353E8003F23F040031432E0
:1046300042E800310029F3D1A36B73B1604A1A65D7
:10464000A06BFEF737FF0028A9D0A06B036D984739
:10465000A5E72046FFF707FFD1E72046FFF7F9FE61
:104660009DE72046FFF7F5FE99E72046FFF7F1FEAC
:104670000023236493E713F0100F82D010F0100F83
:104680003FF47FAF002301931368019353680193B4
:10469000019B536913F0400F50D0A26B13685B6805
:1046A0009BB2002B3FF47BAFA18D99427FF677AF91
:1046B000E385D369B3F5807F37D0226802F10C031C
:1046C00053E8003F23F480730C3242E800310029A4
:1046D000F3D1226802F1140353E8003F23F00103F1
:1046E000143242E800310029F3D1226802F11403A8
:1046F00053E8003F23F04003143242E80031002920
:10470000F3D1202384F83E3000232363226802F192
:104710000C0353E8003F23F010030C3242E8003151
:104720000029F3D1A06BFEF77BFEA18DE38D9BB238
:10473000C91A89B22046FFF795FE30E7A18DE38DB7
:104740009BB2C91A89B2E38D9BB2002B3FF427AF0D
:1047500000293FF424AF226802F10C0353E8003F24
:1047600023F490730C3242E800300028F3D1226821
:1047700002F1140353E8003F23F00103143242E82E
:1047800000300028F3D1202384F83E300023236337
:10479000226802F10C0353E8003F23F010030C32AF
:1047A00042E800300028F3D12046FFF75BFEF6E632
:1047B0002046FFF7ABFCF2E62046FFF73DFEEEE6B3
:1047C0005544000881628285C28500230364222249
:1047D00080F83E2080F83C30036923B10268D3683A
:1047E00043F48073D3600268536943F0010353615B
:1047F0000268D36843F02003D3600020704708B5F7
:1048000090F83E30DBB2202B0DD171B17AB190F827
:104810003C30012B0DD0012380F83C300023036392
:10482000FFF7D0FF00E0022008BD0120FCE70120D7
:10483000FAE70220F8E70000034AD2F8883043F490
:104840007003C2F88830704700ED00E000F1080303
:1048500043604FF0FF328260C36003610023036056
:10486000704700230361704743684B609A688A6011
:10487000516099600861036801330360704730B488
:104880000D68B5F1FF3F11D000F108031C465B68CD
:104890001A68AA42FAD963684B6099608C606160BB
:1048A000086103680133036030BC70470469F2E7B4
:1048B0000369416882688A60416851605A6882422F
:1048C00006D0002202611A68013A1A60186870471F
:1048D00082685A60F5E7000028B141690C4A9142AC
:1048E0000AD0002070474FF0500383F31188BFF3C4
:1048F0006F8FBFF34F8FFEE7836A064A934202D061
:104900001BB100207047002070470120704700BF96
:10491000600800208C080020084B1B681B6823B926
:10492000074B4FF0FF321A607047044B1B68DB687F
:10493000DB685A68024B1A60704700BFA408002069
:104940003C0800202DE9F04707469846089DDDF811
:1049500024900A9C266B02F18042013A06EB820603
:1049600026F00706C1B308464FF0000CBCF10F0F4C
:1049700009D810F80C2004EB0C0383F8342012B192
:104980000CF1010CF2E7002384F84330062D00D926
:104990000625E56265644FF0000AC4F848A0201DB2
:1049A000FFF75FFF04F11800FFF75BFF2461C5F11B
:1049B0000705A5616462C4F84CA084F850A0424683
:1049C0003946304600F088FD2060B9F1000F01D073
:1049D000C9F80040BDE8F087002384F83430D5E7FB
:1049E00038B5002407E004EB840293000E48184415
:1049F000FFF72CFF0134062CF5D90C4D2846FFF7A4
:104A000025FF0B4C2046FFF721FF0A48FFF71EFF4A
:104A10000948FFF71BFF0948FFF718FF084B1D6007
:104A2000084B1C6038BD00BFD0080020BC08002027
:104A3000A80800208C0800207808002060080020CA
:104A4000A4080020A008002010B5044600F072FD64
:104A5000214A136801331360204B1B685BB1204B64
:104A60001B686BB91D4B1B68DA6AE36A9A4207D868
:104A70001A4B1C6004E0194B1C601368012B28D0F2
:104A8000184A136801331360E06A01238340164A11
:104A900011680B43136000EB8000211D134B03EBE7
:104AA0008000FFF7E1FE00F067FD0D4B1B687BB156
:104AB0000A4B1B68DA6AE36A9A4209D24FF0E02394
:104AC0004FF08052C3F8042DBFF34F8FBFF36F8FA9
:104AD00010BDFFF785FFD3E75C0800205C090020CC
:104AE000500800204008002054080020D008002072
:104AF00010B5044690F8513063B1012B11D0022B50
:104B00000ED04FF0500383F31188BFF36F8FBFF3C4
:104B10004F8FFEE7006B00F063FC204600F060FC66
:104B200010BD00F05DFCFBE70F4B1B68D3B110B567
:104B300000F000FD0D4BDB68DC68201DFFF7B8FEC0
:104B40000B4A1368013B1360074A1368013B13606B
:104B500000F012FD2046FFF7CBFF034B1B68002B34
:104B6000E6D110BD704700BF74080020780800200F
:104B70005C08002008B5FFF7D7FF074B1B68012B27
:104B8000F9D94FF0E0234FF08052C3F8042DBFF362
:104B90004F8FBFF36F8FEEE7D008002070B504464B
:104BA0000D461D4B1E681D4B18680430FFF780FE34
:104BB00048B91A4B1B68DB6A01229A4018490B68F6
:104BC00023EA02030B60B4F1FF3F0DD03444134BD2
:104BD0001B685C60A64210D9124B18680F4B19680D
:104BE0000431FFF74CFE70BD002DEFD00B4B196860
:104BF00004310D48FFF738FEF5E70C4B1868074BFA
:104C000019680431FFF73BFE094B1B68A342EAD940
:104C1000074B1C60E7E700BF580800205C09002034
:104C200054080020A008002060080020A4080020EC
:104C30003C08002030B587B00B9C7CB10C9DB5B111
:104C400054250495049D542D1AD04FF0500383F33E
:104C50001188BFF36F8FBFF34F8FFEE74FF0500304
:104C600083F31188BFF36F8FBFF34F8FFEE74FF0D1
:104C7000500383F31188BFF36F8FBFF34F8FFEE7AD
:104C8000049D0C9D2C63022485F85140002403945C
:104C9000029505AC01940A9C0094FFF753FE0C9812
:104CA000FFF7D2FE059807B030BD2DE9F04385B07F
:104CB0000746884614461E46900000F00FFB08B3D6
:104CC0008146542000F00AFB0546A8B1C0F8309098
:104CD000002380F85130039302900D9B01930C9BAD
:104CE00000933346224641463846FFF72BFE2846BE
:104CF000FFF7AAFE012007E0484600F071FB4FF0E5
:104D0000FF3001E04FF0FF3005B0BDE8F083000058
:104D100038B568B104461D4B1B68834207D000F0CC
:104D200009FC2046FFF7D8FD58B900F025FC38BD36
:104D30004FF0500383F31188BFF36F8FBFF34F8F92
:104D4000FEE7251D2846FFF7B3FDE06A01238340F7
:104D50000F4A11680B43136000EB800029460D4B8E
:104D600003EB8000FFF780FDE26A084B1B68DB6AFB
:104D70009A42DAD34FF0E0234FF08052C3F8042D6B
:104D8000BFF34F8FBFF36F8FCFE700BF5C090020E9
:104D900054080020D008002010B588B000240594E5
:104DA000069407AA06A905A8FCF7F6F9059B029345
:104DB000069B019300942346079A0E490E48FFF77D
:104DC00039FF0E4B186090B14FF0500383F31188F8
:104DD000BFF36F8FBFF34F8F094B4FF0FF321A6055
:104DE000084B01221A60084B1C6000F03DFC08B023
:104DF00010BD00BFE4780008754B0008380800209B
:104E00003C0800205008002058080020024A13687F
:104E100001331360704700BF34080020F8B53A4BE7
:104E20001B68002B69D1394B1D6801351D60C5B960
:104E3000374B1B681B6843B14FF0500383F3118855
:104E4000BFF36F8FBFF34F8FFEE7314A1168314BCD
:104E5000186810601960304A136801331360FFF757
:104E60005BFD2E4B1B68AB423DD900272C4B1B68CA
:104E7000DB6A03EB83039A002A4B9B58012B00D972
:104E80000127294B1B68002B3CD001273AE0012762
:104E90001F4B1B681B6843B31D4B1B68DB68DC683A
:104EA00063689D4226D3261D3046FFF701FDA36AA5
:104EB0001BB104F11800FFF7FBFCE36A01229A40E2
:104EC0001A49086802430A6003EB83039A003146DB
:104ED00014481044FFF7C8FCE26A114B1B68DB6AF8
:104EE0009A42D4D2D4E70027D2E70C4B4FF0FF32DE
:104EF0001A60BBE7094A1360B8E70D4A136801332B
:104F0000136000273846F8BD3408002058080020F8
:104F1000A4080020A0080020440800203C0800202D
:104F20005C090020D0080020480800205408002018
:104F30004C08002038B5354B1B6843B94FF050037F
:104F400083F31188BFF36F8FBFF34F8FFEE700F03D
:104F5000F1FA2E4B1A68013A1A601B68002B4FD1E8
:104F60002B4B1B680BB900244BE00024294B1B681A
:104F70001BB3284BDB68DC6804F11800FFF798FCD2
:104F8000251D2846FFF794FCE06A01238340224A4E
:104F900011680B43136000EB800029461F4B03EBA5
:104FA0008000FFF761FCE26A1D4B1B68DB6A9A42D6
:104FB000DCD31C4B01221A60D8E70CB1FFF7ACFC24
:104FC000194B1C6884B9174B1C68D4B14FF0E0230F
:104FD0004FF08052C3F8042DBFF34F8FBFF36F8F94
:104FE00001240EE0013C07D0FFF718FF0028F9D09C
:104FF0000C4B01221A60F5E70B4B00221A60E2E726
:10500000002400F0B9FA204638BD00BF3408002063
:105010005C0800208C08002054080020D0080020E4
:105020005C090020480800204C08002010B5A8B1F9
:105030000446104B1B6843B14FF0500383F31188B3
:10504000BFF36F8FBFF34F8FFEE7FFF7DFFE002147
:105050002046FFF7A3FDFFF76DFF48B94FF0E023AF
:105060004FF08052C3F8042DBFF34F8FBFF36F8F03
:1050700010BD00BF34080020204B1B681BB1204B23
:1050800001221A6070471E4B00221A601D4B1B68DC
:10509000B3FA83F3DBB2C3F11F0303EB83018A008E
:1050A00019498A5842B94FF0500383F31188BFF36E
:1050B0006F8FBFF34F8FFEE7134803EB83018A0026
:1050C000024451684968516003EB830C4FEA8C023B
:1050D00008320244914209D003EB83039A000A4B41
:1050E00013445B68DA68094B1A6070474868624687
:1050F0009100054A0A445060EEE700BF34080020E2
:105100004808002054080020D00800205C09002036
:1051100038B5044600F00EFA64B3251D2846FFF7A3
:10512000C7FB70B9E26A02EB82039B002C49CB58A3
:105130003BB9012303FA02F22A490B6823EA02036E
:105140000B60A36A1BB104F11800FFF7B1FB2946FD
:105150002548FFF789FB94F85030DBB2012B0CD0C7
:1051600000F00AFA214B1B685BB9214B1B68A34274
:105170000ED038BD1E4B1C68CFE7002384F850309A
:10518000EEE700F0D7F9FFF7C7FB00F0F5F9ECE721
:10519000164B1B68B3B1174B1B6843B14FF050035C
:1051A00083F31188BFF36F8FBFF34F8FFEE74FF08C
:1051B000E0234FF08052C3F8042DBFF34F8FBFF3AD
:1051C0006F8FD6E7084B1A680B4B1B689A4203D1C6
:1051D000074B00221A60CCE7FFF74EFFC9E700BF7C
:1051E000D00800205408002060080020500800204B
:1051F0005C090020340800205C08002008B5FFF797
:10520000CBFD002008BD08B500B90120FFF70EFF57
:10521000002008BD124A12F0070F1ED0D11D21F048
:105220000701C1F5705313440A460E48026000217D
:1052300041601344083B23F007030B4803605960A7
:105240001960991A51601360084B1960084B196076
:10525000084B4FF000421A6070474FF47053E4E778
:105260008009002078090020740900206C090020C2
:105270007009002060090020164B1A461B68834203
:10528000FBD3516802EB010C844509D0416800EB67
:10529000010C634509D00360904219D0106070473B
:1052A0004068014451601046F0E710B40A4C24688D
:1052B000A3420BD05B681944416013681B6803600C
:1052C000904200D010605DF8044B70470460F7E72F
:1052D000704700BF780900207409002038B50446E3
:1052E000FFF794FD384B1B68B3B1384B1B681C4269
:1052F00050D1002C50D004F1080214F0070F02D056
:1053000022F007020832002A55D0314B1B68934225
:1053100053D330490C6804E0FFF77CFFE5E72146F2
:105320001C466368934202D22368002BF7D1264BB8
:105330001B68A34243D00D68083523680B6063687F
:105340009B1A102B10D9A01810F0070F08D04FF09F
:10535000500383F31188BFF36F8FBFF34F8FFEE7C6
:1053600043606260FFF788FF626819490B689B1A07
:105370000B60194909688B4201D217490B60134B26
:105380001B681343636000232360144A13680133CE
:10539000136002E0002500E00025FFF7CBFD15F0CB
:1053A000070F0ED04FF0500383F31188BFF36F8FB8
:1053B000BFF34F8FFEE70025EFE70025EDE700255F
:1053C000EBE7284638BD00BF7409002060090020C3
:1053D00070090020780900206C090020680900206D
:1053E000002834D038B50446A0F1080550F8043C34
:1053F000174A1268134208D14FF0500383F3118803
:10540000BFF36F8FBFF34F8FFEE750F8081C41B119
:105410004FF0500383F31188BFF36F8FBFF34F8FAB
:10542000FEE723EA020340F8043CFFF7EFFC54F8E0
:10543000041C084A13680B4413602846FFF71CFF3E
:10544000054A136801331360FFF774FD38BD7047D8
:1054500060090020700900206409002082B0002348
:1054600001930D4B1B68B3F1FF3F08D04FF0500381
:1054700083F31188BFF36F8FBFF34F8FFEE74FF0B9
:10548000500383F31188BFF36F8FBFF34F8F019BDE
:10549000002BFCD002B070472000002008480068B4
:1054A000006880F308884FF0000080F3148862B62B
:1054B00061B6BFF34F8FBFF36F8F00DF00BF0000F7
:1054C00008ED00E0DFF80C00016841F470010160B4
:1054D0007047000088ED00E04FF0807340F8043C16
:1054E00021F0010140F8081C054B40F80C3C40F845
:1054F000202C6FF0020340F8243C4438704700BF72
:105500005D540008000000000000000000000000E2
:10551000074B19680868B0E8F04F80F30988BFF3BB
:105520006F8F4FF0000080F311887047AFF3008059
:105530005C0900204FF0500383F31188BFF36F8F95
:10554000BFF34F8F0B4A136801331360012B00D058
:1055500070474FF0E023D3F8043D13F0FF0FF7D06E
:105560004FF0500383F31188BFF36F8FBFF34F8F5A
:10557000FEE700BF20000020094B1B6843B94FF035
:10558000500383F31188BFF36F8FBFF34F8FFEE794
:10559000013B034A13600BB983F31188704700BFC6
:1055A00020000020000000000000000000000000BB
:1055B000EFF30980BFF36F8F154B1A681EF0100FC1
:1055C00008BF20ED108A20E9F04F10602DE9090096
:1055D0004FF0500080F31188BFF34F8FBFF36F8FF0
:1055E000FFF74AFD4FF0000080F3118809BC1968ED
:1055F0000868B0E8F04F1EF0100F08BFB0EC108A3A
:1056000080F30988BFF36F8F704700BFAFF300804E
:105610005C09002008B54FF0500383F31188BFF3F5
:105620006F8FBFF34F8FFFF7F9FB28B14FF0E023E7
:105630004FF08052C3F8042D002383F3118808BD76
:105640004FF0E022002313619361054B1B6805496D
:10565000A1FB03139B09013B5361072313617047AF
:105660001C000020D34D62104FF0E023D3F8002D32
:105670003D4B9A421CD04FF0E023D3F8002D3B4B1A
:105680009A421ED030B583B0394B1A78D2B201920B
:10569000FF221A701B78DBB28DF803309DF80330BF
:1056A00003F05003334A1370334B07221A601BE098
:1056B0004FF0500383F31188BFF36F8FBFF34F8F09
:1056C000FEE74FF0500383F31188BFF36F8FBFF3F2
:1056D0004F8FFEE7284A1368013B13609DF80330A3
:1056E0005B00DBB28DF803309DF8033013F0800FC0
:1056F000F0D1214B1B68032B08D04FF0500383F3EC
:105700001188BFF36F8FBFF34F8FFEE71B021A4A5A
:10571000136003F4E0631360019BDBB2144A13705F
:105720004FF0E024D4F8203D43F47003C4F8203D4A
:10573000D4F8203D43F07043C4F8203DFFF780FFCC
:1057400000250E4B1D60FFF7BDFED4F8343F43F03B
:105750004043C4F8343FFFF7A1FEFFF78DFCFFF78D
:105760007DFE284603B030BD71C20F4170C20F41AB
:1057700000E400E084450020804500202000002057
:1057800030B589B0044600230193224B1A6C42F0D5
:1057900001021A641B6C03F001030193019B02A92F
:1057A00003A8FDF739FB069BD3B9FDF715FB0346AC
:1057B000194AA2FB03239B0C013B18484FF080427F
:1057C000026040F2E732C2604360002303618360FD
:1057D0008361FEF76DFB054630B1284609B030BD48
:1057E000FDF7FAFA4300E3E70C48FEF7F7F9054640
:1057F0000028F2D11C20FDF7C7FE0F2C01D901258E
:10580000EBE7002221461C20FDF7AEFE044B1C6096
:10581000E3E700BF0038024083DE1B4388450020D9
:10582000180000202DE9F0438DB00024079408945F
:1058300009940A940B940194484B1A6B42F080022D
:105840001A631A6B02F080020192019A02941A6B99
:1058500042F004021A631A6B02F004020292029AE6
:1058600003941A6B42F001021A631A6B02F00102F0
:105870000392039A04941A6B42F002021A631A6BA1
:1058800002F002020492049A05941A6B42F010028C
:105890001A631A6B02F010020592059A06941A6BAD
:1058A00042F008021A631B6B03F008030693069B81
:1058B000DFF8B490224630214846FDF7A2FD284E7D
:1058C00022464CF203013046FDF79BFDDFF89C8039
:1058D00022464FF46C414046FDF793FD214F22468E
:1058E0004FF440713846FDF78CFD302307930125B6
:1058F000089509940A9407A94846FDF785FC4CF2DF
:10590000A3030793089509940A9407A93046FDF765
:105910007BFC4FF46C430793089509940A9407A9FC
:105920004046FDF771FC4BF6203307930895099428
:105930000A9407A93846FDF767FC022307930894E9
:1059400009940A9407A93846FDF75EFC2A462021EF
:105950003046FDF756FD0DB0BDE8F083003802403B
:1059600000040240000C0240000802400010024007
:1059700008B50E480E4B03604FF48273436000235A
:105980008360C360036143614FF40072826110223F
:10599000C2610362436283620A23C362FDF7DAFED7
:1059A00000B908BDFAF7DDFCFBE700BFD0450020D9
:1059B0000030014030B589B0002303930493059370
:1059C000069307930268184B9A4201D009B030BD84
:1059D0000024019403F584335A6C42F480525A64D3
:1059E0005A6C02F480520192019A02941A6B42F0AE
:1059F00001021A631B6B03F001030293029BE02375
:105A0000039302230493032306930525079503A913
:105A10000648FDF7F9FB224629462320FDF7A4FDA1
:105A20002320FDF7B1FDD1E7003001400000024026
:105A300000B587B00023029303930493059300936A
:105A400001931748174A0260A722426083604FF60D
:105A5000FF72C260036143618361FEF729FAA8B94E
:105A60004FF48053029302A90D48FEF75AFA80B909
:105A700000230093019369460948FEF7D1FA58B90B
:105A80000748FEF76DF807B05DF804FBFAF769FC0C
:105A9000E6E7FAF766FCEBE7FAF763FCF0E700BF2E
:105AA00028460020000001400268094B9A4200D0BD
:105AB000704782B000230193064B5A6C42F00102FA
:105AC0005A645B6C03F001030193019B02B07047C1
:105AD000000001400038024008B50A480A4B036044
