:100000000C9417010C942B010C942B010C942B01D4
:100010000C942B010C942B010C942B010C942B01B0
:100020000C942B010C942B010C942B010C942B01A0
:100030000C942B010C942B010C942B010C942B0190
:100040000C942B010C942B010C942B010C942B0180
:100050000C942B010C942B010C942B010C942F026B
:100060000C942B010C942B010C942B010C942B0160
:100070000C942B010C942B010C942B010C942B0150
:100080000C942B010C942B010C942B010C942B0140
:100090000C942B010C942B010C942B010C942B0130
:1000A0000C942B010C942B010C942B010C942B0120
:1000B0000C942B010C942B010C942B010C942B0110
:1000C0000C942B010C942B010C942B010C942B0100
:1000D0000C942B010C942B010C942B010C942B01F0
:1000E0000C942B010C9497010C9481010C94C80181
:1000F0000C949F010C94AC010C94A8010C949301F6
:100100000C94B2010C94CE010C94C0010C947C01AF
:100110000C949B010C94BA010C94B6010C94A201AE
:100120000C94D2010C94C40100000A0B02090C0DBE
:100130000E0807030401000000000000000000009A
:1001400000000000000000000000000000000000AF
:10015000000000001211100000000000000000006C
:10016000000000000000000000000000000000008F
:100170002200250028002B002E003100340002014F
:100180000000050108010B010000210024002700E8
:100190002A002D0030003300010100000401070196
:1001A0000A010505050507050808080802020202FC
:1001B0000A0A080804040404010101010101010103
:1001C0000303030303030303040707070C0C0C0CCE
:1001D0000C0C0C0C020202020606060606060606B7
:1001E0000B0B0B0B0B0B0B0B010210202008081044
:1001F0002040102040800201020108040201010297
:10020000040810204080804020100804020180046F
:1002100002018040201008040201080402010102CA
:10022000040810204080010204081020408011249E
:100230001FBECFEFD1E2DEBFCDBF00E00CBF22E09A
:10024000A0E0B2E001C01D92AB32B207E1F70E941C
:1002500079020C949C050C94000090E0FC01E8519C
:10026000FE4F24918E559E4FFC018491882399F076
:1002700090E0880F991FFC01E857FE4FA591B491BB
:10028000FC01E259FE4F859194918FB7F894EC915F
:10029000E22BEC938FBF0895282F30E0F901E85D41
:1002A000FE4F9491F901E851FE4F44912E553E4F77
:1002B000F9012491222309F435C0992311F19150B9
:1002C0009231F8F4E92FF0E08827E659FE4F8F4F7E
:1002D0000C9494059B019F017C019301970181017E
:1002E000A201A801AC01B201B601BA01C001C4016A
:1002F0008101C801CE01D201809180008F77809367
:100300008000E22FF0E0EE0FFF1FE259FE4FA591B3
:10031000B4918FB7F894EC91611148C040954E2389
:100320004C938FBF0895809180008F7DE8CF80919E
:100330008000877FE4CF84B58F7784BDE2CF84B51A
:100340008F7DFBCF8091B0008F778093B000D9CFA5
:100350008091B0008F7DF9CF809190008F7780934E
:100360009000CFCF809190008F7DF9CF8091900049
:10037000877FF5CF8091A0008F778093A000C1CFB9
:100380008091A0008F7DF9CF8091A000877FF5CF6D
:10039000809120018F7780932001B3CF809120013D
:1003A0008F7DF9CF80912001877FF5CF4E2BB8CF7D
:1003B0003FB7F8948091270290912802A0912902DA
:1003C000B0912A0226B5A89B05C02F3F19F00196CF
:1003D000A11DB11D3FBFBA2FA92F982F8827BC019F
:1003E000CD01620F711D811D911D42E0660F771FC7
:1003F000881F991F4A95D1F708958F929F92AF92C7
:10040000BF92CF92DF92EF92FF924B015C010E946C
:10041000D8016B017C010E94D8016C197D098E09FD
:100420009F09683E734081059105A8F321E0821A77
:100430009108A108B10888EEC80E83E0D81EE11C1F
:10044000F11C81149104A104B10429F7FF90EF90ED
:10045000DF90CF90BF90AF909F908F9008951F92A4
:100460000F920FB60F9211242F933F938F939F9368
:10047000AF93BF938091230290912402A091250213
:10048000B09126023091220223E0230F2D3758F538
:100490000196A11DB11D2093220280932302909307
:1004A0002402A0932502B093260280912702909106
:1004B0002802A0912902B0912A020196A11DB11D26
:1004C0008093270290932802A0932902B0932A02D6
:1004D000BF91AF919F918F913F912F910F900FBE40
:1004E0000F901F90189526E8230F0296A11DB11DAD
:1004F000D2CF789484B5826084BD84B5816084BD98
:1005000085B5826085BD85B5816085BD80916E00B1
:10051000816080936E0010928100809181008260E2
:10052000809381008091810081608093810080911F
:1005300080008160809380008091B100846080930E
:10054000B1008091B00081608093B00080919100F3
:1005500082608093910080919100816080939100EE
:10056000809190008160809390008091A1008260D2
:100570008093A1008091A10081608093A10080916F
:10058000A00081608093A00080912101826080930F
:1005900021018091210181608093210180912001BE
:1005A00081608093200180917A00846080937A003A
:1005B00080917A00826080937A0080917A008160D5
:1005C00080937A0080917A00806880937A001092FC
:1005D000C10060E086E10E944C0160E08AE10E9477
:1005E0004C0160E088E10E944C0160E08CE10E94D7
:1005F0004C0160E08EE10E944C0160E082E20E94CA
:100600004C0160E080E20E944C0160E084E20E94C4
:100610004C0160E08AE20E944C0160E08EE20E94A0
:100620004C0160E08CE20E944C0160E080E30E949B
:100630004C0160E082E30E944C0160E085E30E948F
:100640004C0160E084E30E944C0160E083E30E947F
:100650004C0160E08BE10E944C0160E08FE10E9460
:100660004C0160E08DE10E944C0160E081E20E945B
:100670004C0160E083E20E944C0160E087E20E944E
:100680004C0160E085E20E944C0160E089E20E943A
:100690004C0160E08DE00E944C0160E08BE00E9424
:1006A0004C0160E08CE00E944C0160E08AE00E9416
:1006B0004C0160E089E00E944C0160E087E00E940C
:1006C0004C0160E088E00E944C0160E086E00E94FE
:1006D0004C0160E086E20E944C0160E088E20E94EA
:1006E0004C0160E081E30E944C0160E08FE20E94D7
:1006F0004C0160E08BE20E944C0160E08DE20E94C0
:100700004C0160E087E10E944C0160E089E10E94B9
:100710004C0186E10E942D018AE10E942D0188E1B1
:100720000E942D018CE10E942D018AE20E942D0180
:100730008EE20E942D018CE20E942D0180E30E9436
:100740002D018BE10E942D018FE10E942D018DE191
:100750000E942D0181E20E942D018DE00E942D0159
:100760008BE00E942D018CE00E942D018AE00E9406
:100770002D018EE10E942D0182E20E942D0180E276
:100780000E942D0184E20E942D0182E30E942D012E
:1007900085E30E942D0184E30E942D0183E30E94E2
:1007A0002D0183E20E942D0187E20E942D0185E246
:1007B0000E942D0189E20E942D0189E00E942D01F5
:1007C00087E00E942D0188E00E942D0186E00E94B2
:1007D0002D0186E20E942D0188E20E942D0181E315
:1007E0000E942D018FE20E942D018BE20E942D01BB
:1007F0008DE20E942D0187E10E942D0189E10E9476
:100800002D0186E180931C028AE280931D028BE118
:1008100080931E028DE080931F028AE18093140270
:100820008EE2809315028FE1809316028BE0809315
:10083000170288E1809318028CE2809319028DE1FF
:1008400080931A028CE080931B028CE1809310024B
:1008500080E38093110281E2809312028AE0809308
:1008600013028EE180930C0282E380930D0283E2F7
:1008700080930E0289E080930F0282E2809304024B
:1008800085E38093050287E28093060287E08093E8
:10089000070280E28093080284E38093090285E2E4
:1008A00080930A0288E080930B0284E28093000226
:1008B00083E38093010289E28093020286E08093C1
:1008C000030297E0C92ED12C20E0A22E20E0B22E08
:1008D000E0902002F090210240901C0250901802FB
:1008E000609014027090100200910C0210910802A6
:1008F000D0910402C0910002C701B6010E94800598
:10090000892B09F498C061E0842D0E944C0160E0BD
:10091000852D0E944C0160E0862D0E944C0160E014
:10092000872D0E944C0161E0802F0E944C0160E005
:10093000812F0E944C0160E08D2F0E944C0160E0ED
:100940008C2F0E944C0161E086E20E944C0160E025
:1009500088E20E944C0160E27EE480E090E00E9428
:10096000FD0160E0842D0E944C0160E0852D0E9415
:100970004C0161E0862D0E944C0161E0872D0E94B0
:100980004C0160E0802F0E944C0160E0812F0E94AA
:100990004C0161E08D2F0E944C0161E08C2F0E9480
:1009A0004C0160E086E20E944C0161E088E20E9416
:1009B0004C0168EA71E680E090E00E94FD0160E091
:1009C000842D0E944C0161E0852D0E944C0160E065
:1009D000862D0E944C0160E0872D0E944C0160E052
:1009E000802F0E944C0161E0812F0E944C0160E049
:1009F0008D2F0E944C0160E08C2F0E944C0161E021
:100A000086E20E944C0160E088E20E944C0168EBA3
:100A10007BE080E090E00E94FD018FEFE81AF80A89
:100A2000F0922102E0922002A114B10409F450CF07
:100A30000E9400004DCF8EE1882E912C60E086E26E
:100A40000E944C0160E088E20E944C0160E0842D2D
:100A50000E944C0160E0852D0E944C0160E0862DD3
:100A60000E944C0160E0872D0E944C0160E0802FC5
:100A70000E944C0160E0812F0E944C0160E08D2FAC
:100A80000E944C0160E08C2F0E944C0168EE73E0E4
:100A900080E090E00E94FD0161E086E20E944C014E
:100AA00060E088E20E944C0160E0842D0E944C01CD
:100AB00061E0852D0E944C0160E0862D0E944C0172
:100AC00060E0872D0E944C0160E0802F0E944C0165
:100AD00061E0812F0E944C0160E08D2F0E944C014B
:100AE00060E08C2F0E944C0168EE73E080E090E0A3
:100AF0000E94FD0181E0881A910809F09FCF8DCFF7
:100B0000AA1BBB1B51E107C0AA1FBB1FA617B70733
:100B100010F0A61BB70B881F991F5A95A9F780954F
:100B20009095BC01CD010895EE0FFF1F881F8BBF6C
:0C0B30000790F691E02D1994F894FFCF87
:00000001FF
