:020000040800F2
:1000000000500020AD3D0008C9180008CB180008BA
:10001000CD180008CF180008D11800080000000013
:10002000000000000000000000000000D3180008DD
:10003000D518000800000000D7180008D9180008DB
:10004000F53D0008F53D0008F53D0008F53D0008C8
:10005000F53D0008F53D0008F53D0008F53D0008B8
:10006000F53D0008F53D0008F53D0008F53D0008A8
:10007000F53D0008F53D0008F53D0008E1180008D1
:1000800001190008F53D0008F53D0008F53D0008A0
:10009000F53D0008F53D0008F53D0008F53D000878
:1000A000F53D000811190008F53D0008F53D000870
:1000B000F53D0008F53D0008F53D0008F53D000858
:1000C000F53D0008F53D0008F53D0008F53D000848
:1000D000F53D0008F53D0008F1180008F53D000861
:1000E000F53D0008F53D0008F53D00080000000062
:1000F0000000000000000000000000000000000000
:0C01000000000000000000005FF808F1A3
:10010C000348044B834202D0034B03B1184770479A
:10011C000C0000200C000020000000000548064BDD
:10012C001B1AD90F01EBA301491002D0034B03B1E9
:10013C00184770470C0000200C0000200000000045
:10014C0010B5064C237843B9FFF7DAFF044B13B113
:10015C000448AFF300800123237010BD0C00002075
:10016C0000000000503E000808B5054B1BB10549C6
:10017C000548AFF30080BDE80840FFF7CFBF00BFD4
:10018C000000000010000020503E00082DE9F04156
:10019C0088B000240494059406940794214B9A6922
:1001AC0042F020029A619A6902F020020192019AAF
:1001BC009A6942F004029A619A6902F0040202926E
:1001CC00029A9A6942F008029A619B6903F008034B
:1001DC000393039BDFF85080224640F2B221404645
:1001EC0003F0E0F8114D22464FF2FF71284603F060
:1001FC00D9F840F2B22304930127059706940226FE
:10020C00079604A9404602F0BFFF4FF2FF73049318
:10021C0005970694079604A9284602F0B5FF08B086
:10022C00BDE8F0810010024000080140000C0140C4
:10023C0000B583B00E4B5A6942F001025A615B69FA
:10024C0003F001030193019B002211460F2003F0E0
:10025C0089FA0F2003F096FA00221146102003F0C1
:10026C0081FA102003F08EFA03B05DF804FB00BF96
:10027C000010024008B5084B984203D0074B984237
:10028C0005D008BD0021184602F02EFBF9E7044BFF
:10029C0000221A60F5E700BF88250020D025002039
:1002AC005C2400200B4B834200D0704710B50A4CE5
:1002BC002268C2EB0212F023084901EB4212002122
:1002CC00074802F0DFF92368032B02DC23680133B3
:1002DC00236010BDD02500205C2400209C11002040
:1002EC008825002070470000002316E00C4A03F517
:1002FC009660002122F8101003F5B46022F810105B
:10030C0003F5D26022F8101003F5F06022F81010FB
:10031C0003F5076022F810100133EF2BE6DD704770
:10032C009C1100202DE9F04383B00C4668B30346C2
:10033C00B0F57A7F80F2AD80632836DDB84A82FB57
:10034C000012C617C6EB6216F6B2092B2FDDB449A4
:10035C0081FB0321DA17C2EB6112642101FB12321B
:10036C00B04981FB0201D017C0EBA100C0B2AD4A6D
:10037C0082FB0312DF17C7EBA20707EB8707A3EB80
:10038C0047070A2E46D000233DE000233B2B3CD8E8
:10039C000022A54941F82320A449CA54A44941F894
:1003AC002320A449CA540133F0E70A26CDE70A20DA
:1003BC00DDE7A14DC6EB061203EB820255F822C015
:1003CC00C0EB001203EB820255F82220910741EAA0
:1003DC004C01DFF854C24CF823104FEA920C9349AD
:1003EC0001F803C0F9B2C1EB011103EB810155F81F
:1003FC002110920A42EA01528D4D45F82320490BF7
:10040C008C4AD15401333B2BD3D9FFF76DFF4FF0FE
:10041C00000C78E10A2801D0002337E000233B2BA5
:10042C00F3D8FAB2C2EB021203EB8202824951F802
:10043C00222090077C4941F8230090087B49C8543E
:10044C00920A7B4941F823207A4A0021D154013386
:10045C00E5E77949C0EB001203EB820251F8222048
:10046C00D603714D45F82360520C704DEA54FAB224
:10047C00C2EB021203EB820251F8222052016C49AA
:10048C0041F823206B4A0021D15401333B2BE0D996
:10049C00BBE7B0F5FA6F20D040F2D1729042B4D1E4
:1004AC00002334E0654A52F823005F4941F82300E9
:1004BC00D11891F8F0505D48C55403F14A0002EB95
:1004CC00800250685A4A42F8230091F81C12594A8B
:1004DC00D15401333B2BE5D997E70023FAE7584A6F
:1004EC0052F82300504941F82300D11891F8F050EC
:1004FC004E48C55403F14A0002EB800250684C4A46
:10050C0042F8230091F81C124A4AD15401333B2B78
:10051C00E5D97AE7A1F120020123934027E04FF4BB
:10052C0080422FE02023ADF802300EF1050221F0BD
:10053C0003030B443344434FC2EB021003EB001094
:10054C0037F81000BDF80080BDF80290C2EB021223
:10055C0003EB021348EA0902024327F81320013186
:10056C00272900F2CE801F29D4D801238B40002CE0
:10057C006AD135BB1F290ED82D4A52F82C201A42AD
:10058C00CDD10022ADF80020274A52F82C201A4277
:10059C00C8D10023C7E7274A12F80C201A420BD106
:1005AC000022ADF80020214A12F80C201A4206D184
:1005BC000023ADF80230B8E74FF48042F1E7202376
:1005CC00F7E71F2915D81A4A52F82C201A420BD1DA
:1005DC000022ADF80020144A52F82C201A4206D101
:1005EC000023ADF80230A0E74FF40042F1E74023BE
:1005FC00F7E7104A12F80C201A420BD10022ADF882
:10060C0000200A4A12F80C201A4206D10023ADF839
:10061C0002308AE74FF40042F1E74023F7E700BFCE
:10062C001F85EB516766666690010020540100201F
:10063C0064000020280000204C070020F404002057
:10064C009C0200209C1100206DBB1F2915D84F4A1D
:10065C0052F82C201A420BD10022ADF800204C4A43
:10066C0052F82C201A4206D10023ADF802305CE778
:10067C004FF40052F1E71023F7E7464A12F80C202A
:10068C001A420BD10022ADF80020434A12F80C207C
:10069C001A4206D10023ADF8023046E74FF400525F
:1006AC00F1E71023F7E71F2915D8384A52F82C2008
:1006BC001A420BD10022ADF80020354A52F82C20FA
:1006CC001A4206D10023ADF802302EE74FF48052C7
:1006DC00F1E70823F7E72F4A12F80C201A420BD146
:1006EC000022ADF800202C4A12F80C201A4206D138
:1006FC000023ADF8023018E74FF48052F1E70823DD
:10070C00F7E70CF1010CBCF13B0F10D8234DA5FB06
:10071C000C354FEA950E72460EEB8E0EACEB0E0EB0
:10072C00C5F3C0051E4B53F82260002118E70023C7
:10073C0027E01C4A03F5966132F8111022F81310C9
:10074C0003F5B46132F8110003F1F00122F8110045
:10075C0003F5D26132F8110003F5F07122F81100A3
:10076C0003F5F06132F8110003F5347122F8110031
:10077C0003F5076132F8110003F5707122F81100CE
:10078C000133EF2BD5D903B0BDE8F0836400002012
:10079C00900100202800002054010020CDCCCCCCAE
:1007AC00683E00089C11002070B4002306E003F59D
:1007BC001671CD4A002042F8210001332F2BF6D9B7
:1007CC00C94B4FF6F072C3F89428C84AC3F898285E
:1007DC00C74AC3F89C28C74AC3F8A02802F50022D0
:1007EC00C3F8E428023AC3F8E828043AC3F8EC2822
:1007FC00083AC3F8F0280D2309E0BB4903F507704C
:10080C0051F8202042F00F1241F8202001331C2B0C
:10081C00F3D9212309E0B44903F5077051F82020DE
:10082C0042F4702241F8202001332E2BF3D9AE4B29
:10083C00B04DC3F82C59AE4CC3F83049AB49C3F892
:10084C0034194FF6F072C3F83829D3F8280940F060
:10085C000F00C3F82809D3F8240940F00F00C3F89F
:10086C002409D3F8200940F00F00C3F82009D3F86D
:10087C001C0940F00F00C3F81C09C3F8A427C3F8E7
:10088C00A817C3F8AC47C3F8B057C3F8F017C3F8B0
:10089C00F427C3F8F827C3F8FC17D3F8EC0740F497
:1008AC00403040F00C00C3F8EC07D3F8E80740F4F4
:1008BC00E02040F00E00C3F8E807D3F8000840F43D
:1008CC00403040F00C00C3F80008D3F8040840F4A2
:1008DC00E02040F00E00C3F80408C3F83C58C3F8FD
:1008EC004048C3F84418C3F848280D2309E07E4952
:1008FC0003F5F07051F8202042F00F0241F820204F
:10090C000133192BF3D9222309E0774903F5F07051
:10091C0051F8202042F00F0241F8202001332E2BF9
:10092C00F3D9222309E0704903F5F07051F8202027
:10093C0042F4702241F8202001332E2BF3D90D23E1
:10094C0009E0694903F5F07051F8202042F4702257
:10095C0041F820200133192BF3D9634B664AC3F8B5
:10096C00B426C3F8B826C3F8BC26C3F8C0262C237B
:10097C000DE05D4C03F5D27C54F82C20C3F12C0017
:10098C0040081F2181400A4344F82C20013B0C2BCA
:10099C00EFD82D2309E0544903F5D27051F82020EB
:1009AC0042F00F0241F820200133322BF3D94E4B89
:1009BC00D3F8C02642F00F02C3F8C026D3F8C426E1
:1009CC0042F00F02C3F8C426D3F8C82642F00F0237
:1009DC00C3F8C8264FF6FF72C3F80C2602F5803216
:1009EC00C3F8102602F50032C3F8142602F5802253
:1009FC00C3F81826013AC3F85C263D4AC3F86026B2
:100A0C003A4AC3F864264FF6F072C3F868261F23DF
:100A1C0009E0354903F5B47051F8202042F00F126B
:100A2C0041F8202001332E2BF3D90D2309E02E4958
:100A3C0003F5B47051F8202042F00F0241F8202049
:100A4C0001331A2BF3D9284B4FF6F072C3F8C42597
:100A5C00264AC3F8C825264AC3F8CC25254AC3F82C
:100A6C00D025D3F8D42542F47022C3F8D425D3F87A
:100A7C00D82542F47022C3F8D825D3F8DC2542F4EB
:100A8C007022C3F8DC25D3F8E02542F47022C3F8B9
:100A9C00E025194AC3F8D424C3F8D824C3F8DC24BD
:100AAC00C3F8E0240D2309E00F4903F5967051F8C3
:100ABC00202042F00F0241F820200133152BF3D9EE
:100ACC00094B4FF6FF72C3F8082502F58032C3F8C4
:100ADC000C2502F50032C3F8102502F58022C3F86C
:100AEC0014251A2314E000BF4C070020F8FF010066
:100AFC00FCFF0300FEFF0700FFFF0F00D94903F5C1
:100B0C00967051F8202042F4702241F820200133D5
:100B1C002E2BF3D9D34BD44AC3F86C25D34AC3F844
:100B2C007025D34AC3F874254FF6F072C3F87825B4
:100B3C00D3F8682542F00F02C3F86825D3F8642572
:100B4C0042F00F02C3F86425D3F8602542F00F027F
:100B5C00C3F86025D3F85C2542F00F02C3F85C257E
:100B6C00D3F8582542F00F02C3F85825D3F8542572
:100B7C0042F00F02C3F85425D3F8502542F00F026F
:100B8C00C3F85025D3F84C2542F00F02C3F84C257E
:100B9C00D3F8482542F00F02C3F848256FF07F4286
:100BAC00C3F84C24C3F85024C3F85424C3F8582475
:100BBC0023230DE0AB4C03F1F00C54F82C20C3F1C3
:100BCC00230040081F2181400A4344F82C20013B9C
:100BDC00082BEFD8092309E0A24903F1F00051F8E2
:100BEC00202042F4702241F820200133322BF3D91B
:100BFC009C4B4FF6F072C3F8F4229D48C3F8F802F0
:100C0C009A4CC3F8FC42984DC3F800539949C3F869
:100C1C004013C3F84423C3F84823C3F84C13D3F848
:100C2C003C1341F44031C3F83C13D3F8381341F46E
:100C3C00E021C3F83813D3F8501341F44031C3F812
:100C4C005013D3F8541341F4E021C3F85413C3F8F0
:100C5C008C53C3F89043C3F89403C3F8982322230E
:100C6C0009E0804903F1B40051F8202042F47022CD
:100C7C0041F8202001332E2BF3D90D2309E07949BB
:100C8C0003F1B40051F8202042F4702241F82020E6
:100C9C000133192BF3D9734BD3F8042342F00F0211
:100CAC00C3F80423D3F8082342F00F02C3F8082337
:100CBC00D3F80C2342F00F02C3F80C23D3F8102303
:100CCC0042F00F02C3F81023D3F8882342F00F022E
:100CDC00C3F88823D3F8842342F00F02C3F884238B
:100CEC00D3F8802342F00F02C3F88023D3F87C237F
:100CFC0042F00F02C3F87C234FF6F072C3F80422C3
:100D0C005B4AC3F80822594AC3F80C22564AC3F866
:100D1C0010220D2309E0534903F1780051F82020EB
:100D2C0042F4702241F8202001331D2BF3D94D4B96
:100D3C00514AC3F85822514AC3F85C22504AC3F8AE
:100D4C0060224FF6FE72C3F86422222309E0454963
:100D5C0003F1780051F8202042F00F0241F82020D6
:100D6C0001332E2BF3D93F4B3F4AC3F89C223F4A09
:100D7C00C3F8A0223E4AC3F8A4224FF6F072C3F87F
:100D8C00A822D3F8142142F47862C3F81421D3F8C2
:100D9C00182142F47C62C3F81821D3F81C2142F4C8
:100DAC007E62C3F81C21D3F8202142F47F62C3F881
:100DBC0020210D2309E02B4903F13C0051F82020A0
:100DCC0042F4706241F8202001332E2BF3D9254BCD
:100DDC00D3F8B82142F47F3242F47F72C3F8B821C1
:100DEC00D3F8B42142F47F3242F47F72C3F8B421B9
:100DFC00D3F8B02142F47F3242F47F72C3F8B021B1
:100E0C00D3F8AC2142F47F3242F47F72C3F8AC21A8
:100E1C004FF6F0725A62164999621448D862124C15
:100E2C001C63C3F8BC40C3F8C000C3F8C410C3F8BB
:100E3C00C8200D2307E00B4951F8232042F00F1274
:100E4C0041F8232001332E2BF5D90E4B4FF6FC72B3
:100E5C001A634FF6FE725A634FF6FF729A630F23B2
:100E6C0017E000BF4C070020FEFF0700FCFF03004B
:100E7C00F8FF0100F0FF0100F0FF0700F8FF03008E
:100E8C00FCFF0100F4040020DE4A072142F8231085
:100E9C0001331C2BF8D9DB4B43F6FF725A6747F62C
:100EAC00FE729A674FF6FC72DA67202305E0D54A8A
:100EBC004FF4604142F8231001332D2BF7D9D14B5D
:100ECC004FF6FF72C3F8B82047F6FF72C3F8BC2088
:100EDC0043F6FF72C3F8C020D3F8B42042F00702E7
:100EEC00C3F8B420D3F8B02042F00702C3F8B02006
:100EFC00D3F8AC2042F00702C3F8AC20D3F8A820FA
:100F0C0042F00702C3F8A820DC6B44F46042DA63B9
:100F1C00186C40F460421A64596C41F460425A6493
:100F2C009A6C42F460459D641D6B6FEA45356FEA1F
:100F3C0055351D635D6B6FEA45356FEA55355D635D
:100F4C009D6B6FEA45356FEA55359D6344F4631428
:100F5C0044F40054DC6340F4631040F40050186413
:100F6C0041F4631141F40051596442F4631242F4A8
:100F7C0000529A6493F8FC2042F07F0283F8FC2024
:100F8C0093F8FD2042F07F0283F8FD2093F8FE20B9
:100F9C0042F07F0283F8FE2093F8FF2042F07002AB
:100FAC0083F8FF2093F8002142F0700283F80021AF
:100FBC0093F8012142F0700283F8012193F8022189
:100FCC0042F0700283F802210F2307E08D4951F89B
:100FDC00232042F0E04241F823200133302BF5D995
:100FEC00884BD3F8C02042F07842C3F8C020D3F825
:100FFC00BC2042F07842C3F8BC20D3F8B82042F0B1
:10100C007842C3F8B8204FF6F872C3F85C217E49D9
:10101C00C3F860117D48C3F86401C3F8E401C3F858
:10102C00E811C3F8EC210F210BE001F14A03754ADA
:10103C0002EB8302536843F4603343F00E035360B6
:10104C0001312D29F1D96F4BD3F868214FF270047F
:10105C002243C3F86821D3F86C214EF230000243CE
:10106C00C3F86C21D3F870214CF210010A43C3F879
:10107C007021D3F8E0212243C3F8E021D3F8DC211E
:10108C000243C3F8DC21D3F8D8210A43C3F8D82192
:10109C00D3F85C216FEA82226FEA9222C3F85C21BA
:1010AC00D3F860216FEA82226FEA9222C3F86021A2
:1010BC00D3F864216FEA82226FEA9222C3F864218A
:1010CC0093F8282242F03F0283F8282293F8292231
:1010DC0042F07F0283F82922FF2283F82A220F2272
:1010EC0009E002F14A01474B03EB8103596841F0D7
:1010FC00606159600132302AF3D9424BD3F8EC21AC
:10110C0042F07E52C3F8EC21D3F8E82142F07E5233
:10111C00C3F8E821D3F8E42142F07E52C3F8E4216D
:10112C00D3F8A02142F07E42C3F8A021D3F8A42129
:10113C0042F07E42C3F8A421D3F8A82142F07E42AB
:10114C00C3F8A821FF2283F8392293F83A2242F0FF
:10115C007F0283F83A2293F83B2242F03F0283F855
:10116C003B220F2208E0274B134493F81C1261F02A
:10117C001F0183F81C1201321C2AF4D9214BD3F81D
:10118C00682142F04052C3F86821D3F86C2142F038
:10119C008052C3F86C21D3F89C2142F04052C3F822
:1011AC009C21D3F8982142F08052C3F8982193F8EF
:1011BC002B2242F0180283F82B2293F82C2242F0B7
:1011CC00100283F82C2293F8382242F0180283F88C
:1011DC00382293F8372242F0100283F837220C4B56
:1011EC000C4AC3F85C210C49C3F860110B48C3F8D6
:1011FC006401C3F8E401C3F8E811C3F8EC210F2132
:10120C001AE000BFF4040020FCFF0100FEFF030005
:10121C009C02002080FF0F00C0FF1F00E0FF3F007A
:10122C0001F14A036C4A02EB8302536843F46013E6
:10123C0043F0E003536001312D29F1D9664BD3F80B
:10124C00682142F4702242F4E062C3F86821D3F8BA
:10125C006C2142F4602242F44072C3F86C21D3F842
:10126C00702142F4402242F48072C3F87021D3F80A
:10127C00E02142F4702242F4E062C3F8E021D3F89A
:10128C00DC2142F4602242F44072C3F8DC21D3F832
:10129C00D82142F4402242F48072C3F8D8214F4C3A
:1012AC001C634F4D5D634F4E9E63002283F8FC2000
:1012BC00012183F8FD10032083F8FE00C3F8B86009
:1012CC00C3F8BC50C3F8C04083F81E0183F81F114B
:1012DC0083F820210F2307E03F4951F8232042F4E3
:1012EC00602241F8232001332D2BF5D91F220EE06B
:1012FC00394B53F8221041F0004143F822101344AB
:10130C0093F8F01041F0030183F8F01001322D2A0C
:10131C00EED9314BDA6F42F07F42DA67D3F8802096
:10132C0042F07F42C3F88020D3F8842042F07F4201
:10133C00C3F884205A6F42F040725A679A6F42F099
:10134C0040729A67D3F8882042F04072C3F8882024
:10135C00D3F88C2042F04072C3F88C20DA6B42F048
:10136C000042DA6393F8FF2042F0030283F8FF2077
:10137C001A6C42F000421A6493F8002142F0030206
:10138C0083F800215A6C42F000425A6493F8012110
:10139C0042F0030283F801219A6C42F000429A64F5
:1013AC0093F8022142F0030283F80221DA6C42F036
:1013BC000042DA6493F8032142F0030283F803211C
:1013CC001A6D42F000421A6593F8042142F00302B0
:1013DC0083F8042170BC70479C0200200000F8FFC9
:1013EC000000FCFF0000FEFF72B6FEE710B596B0E1
:1013FC000024129413941494159410941194099439
:10140C000A940B940C940D940E940F942022214664
:10141C0001A802F00FFD3D483D4B0360472343609C
:10142C00846040F2CF73C36004614461846100F056
:10143C0011FE002857D14FF48053129312A9334850
:10144C0000F057FF002850D1304800F05BFE002818
:10145C004DD12E4800F02AFE00284AD1502310937B
:10146C000023119310A9294801F0B0FA002842D1A9
:10147C007023099340F2BC730A9300220B920C92D6
:10148C000D920E920F9209A9204800F0BEFE002882
:10149C0033D11023099340F2C1730A93042209A992
:1014AC001A4800F089FE50BB6023099340F2C173C7
:1014BC000A93082209A9154800F0A7FE08BB0023CF
:1014CC00019302930393049305934FF400520692F5
:1014DC00089301A90D4801F0AFFAA0B90B4800F030
:1014EC00B9FA16B010BDFFF77FFFFFF77DFFFFF7CE
:1014FC007BFFFFF779FFFFF777FFFFF775FFFFF72C
:10150C0073FFFFF771FFFFF76FFF00BFD0250020BF
:10151C00002C014000B58FB000230A930B930C9361
:10152C000D930893099301930293039304930593EA
:10153C00069307931E484FF080420260436083601D
:10154C00FA22C2600361836100F084FD28BB4FF472
:10155C0080530A930AA9164800F0CBFEF8B9144838
:10156C0000F0D0FDE8B900230893099308A91048AE
:10157C0001F02CFAB8B9602301937D230293002269
:10158C000392059201A90A4800F03FFE68B9084889
:10159C0000F060FA0FB05DF804FBFFF725FFFFF7D2
:1015AC0023FFFFF721FFFFF71FFFFFF71DFF00BF12
:1015BC008825002000B593B000230E930F93109351
:1015CC00119309930A930B930C930D930793089320
:1015DC000093019302930393049305930693254878
:1015EC00254A026047224260836040F2CF72C2609B
:1015FC000361836100F02EFD00282ED14FF480533F
:10160C000E930EA91B4800F074FE40BB194800F065
:10161C0079FD30BB0623099300230A9309A91548C9
:10162C0000F01BFFF8B900230793089307A9114892
:10163C0001F0CCF9C8B9602300930A23019300226E
:10164C000292049269460B4800F0DFFD78B9094814
:10165C0000F000FA13B05DF804FBFFF7C5FEFFF7CE
:10166C00C3FEFFF7C1FEFFF7BFFEFFF7BDFEFFF79E
:10167C00BBFE00BF402500200004004008B50A480E
:10168C000A4B03604FF41643436000238360C3602E
:10169C0003610C2242618361C36102F05DF900B900
:1016AC0008BDFFF7A1FE00BF7424002000440040D9
:1016BC0000B591B02822002106A802F0BBFB002344
:1016CC0001930293039304930593012206924FF422
:1016DC00803307930A9202220D920E934FF4E0137B
:1016EC000F9306A801F034FA80B90F23019302215D
:1016FC000291002303934FF480620492059301A896
:10170C0001F066FC20B911B05DF804FBFFF76CFE2C
:10171C00FFF76AFE70B501F0E1F9FFF7C9FFFEF7BC
:10172C0035FDFEF785FDFFF761FEFFF7F3FEFFF7D2
:10173C0041FFFFF7A3FF554C4FF422032360544B9A
:10174C006360544BA360544BE360544B2361FFF72D
:10175C002BF8534D284600F0C5FA0021284600F01E
:10176C0023FF052322460821284600F08BFF042185
:10177C00284600F0ABFE00214A4800F015FFF0238C
:10178C00494A0021494800F07DFF494E002535604B
:10179C007560B560F56035617561B561294628469F
:1017AC00FEF7C0FD2C46B56101214FF4FA60FEF73F
:1017BC00B9FD01250CE001F0AFF93D4B9B69984256
:1017CC000ED8002301223B493B4802F0F4F868B1E3
:1017DC0001F0A2F96328EED8354B00229A61EAE7B2
:1017EC0001F09AF96430324B9861EAE7304E1423D9
:1017FC0004223146304802F0DEF83378FF2BE7D173
:10180C00337DFF2BE4D17078B1784318DBB2F278DA
:10181C00134413F0FF0FDBD160F30704A4B261F3A0
:10182C001F24AC4207D0B4F57A7F0BD2012120469D
:10183C00FEF778FD254601F06FF900F57A701C4A29
:10184C009061C5E7A4F2E9339BB240F2E6329342D1
:10185C0008D9B4F5FA6F0CD040F2D1739C420ED07B
:10186C002546E8E70021A4F57A70FEF75BFD2546D6
:10187C00E1E701212046FEF755FD2546DBE7002177
:10188C002046FEF74FFD2546D5E700BF602400201B
:10189C008000220020008200A00002000200A000B4
:1018AC00D0250020402500209C11002088250020F8
:1018BC00800200209402002074240020FEE7FEE742
:1018CC00FEE7FEE7FEE770477047704708B501F08A
:1018DC0017F908BD08B5024801F05CFE08BD00BF51
:1018EC00B824002008B5024802F05AF908BD00BF20
:1018FC007424002008B5024801F04CFE08BD00BF5E
:10190C00FC24002008B5024800F07DFA08BD00BF99
:10191C00D025002082B00E4B9A6942F001029A61E8
:10192C009A6902F001020092009ADA6942F0805240
:10193C00DA61DB6903F080530193019B054A53681C
:10194C0023F0E06343F00073536002B0704700BFB4
:10195C00001002400000014010B584B0044603683A
:10196C00354A934207D0B3F1804F32D0334A934279
:10197C0057D004B010BD324B9A6942F400629A61A0
:10198C009B6903F400630193019B2E482E4B03606B
:10199C0010234360002383608022C2604FF40072E6
:1019AC0002614FF40062426120228261C36101F046
:1019BC0015FD58B9234BE3625C62002211461920D5
:1019CC0001F0D0FE192001F0DDFED2E7FFF70CFD8F
:1019DC00F0E703F50433DA6942F00102DA61DB69FE
:1019EC0003F001030293029B1848194B0360102368
:1019FC004360002383608022C2604FF480720261D6
:101A0C004FF48062426183614FF40053C36101F073
:101A1C00E5FC18B90D4B63625C62AAE7FFF7E4FCC6
:101A2C00F8E7074BDA6942F00202DA61DB6903F08E
:101A3C0002030393039B9CE7002C0140000400402D
:101A4C0000100240FC2400206C000240B82400204E
:101A5C005800024000B589B0002304930593069307
:101A6C0007930368244A934208D0B3F1804F1AD0ED
:101A7C00224A93422CD009B05DF804FB204B9A69A2
:101A8C0042F004029A619B6903F004030193019BE9
:101A9C004FF48073049302230593079304A9194808
:101AAC0001F072FBE7E703F504339A6942F0040294
:101ABC009A619B6903F004030293029B0123049334
:101ACC0002230593079304A90E4801F05DFBD2E7AE
:101ADC000B4B9A6942F004029A619B6903F0040370
:101AEC000393039B4023049302230593079304A9B8
:101AFC00044801F049FBBEE7002C01400004004003
:101B0C00001002400008014030B587B0002302935A
:101B1C0003930493059302681B4B9A4201D007B0C0
:101B2C0030BD03F5E633DA6942F40032DA61DA6982
:101B3C0002F400320092009A9A6942F004029A610F
:101B4C009B6903F004030193019B0423029302237A
:101B5C000393032305930D4D02A9284601F014FBB2
:101B6C00082302930024039404940DEB03012846EC
:101B7C0001F00AFB22460121262001F0F3FD26206C
:101B8C0001F000FECBE700BF00440040000801401C
:101B9C0030B4036A23F001030362026A4568836967
:101BAC0023F073030C681C4322F002028B6813436E
:101BBC000B4A904206D0456084614A6842630362D6
:101BCC0030BC704723F00803CA681A4322F00403A0
:101BDC0025F440754A692A438D691543EBE700BF2C
:101BEC00002C014030B4036A23F480730362036A4F
:101BFC004468C26922F073020D68154323F4007324
:101C0C008A6843EA02230D4A904206D04460C561BB
:101C1C004A68C263036230BC704723F40063CA682D
:101C2C0043EA022323F4806324F440544A6944EACF
:101C3C0002148A6944EA0214E8E700BF002C014050
:101C4C0030B4036A23F480530362036A4468C269A4
:101C5C0022F4E6420D6842EA052223F400538D6813
:101C6C0043EA0533074DA84206D04460C2614A6876
:101C7C000264036230BC704724F480444D6944EA2A
:101C8C008514F2E7002C014010B4036A046A24F0B6
:101C9C0001040462846924F0F00C4CEA021223F073
:101CAC000A030B438261036210BC704710B4036AD1
:101CBC0023F0100303628469036A24F4704C4CEA29
:101CCC00023223F0A00343EA01138261036210BCC9
:101CDC007047836823F070030B4343F00703836062
:101CEC007047000090F83D30DBB2012B27D1022366
:101CFC0080F83D300268D36843F00103D360036879
:101D0C00114A934210D0B3F1804F0DD0A2F594320A
:101D1C00934209D002F58062934205D01A6842F0D2
:101D2C0001021A60002070479A6802F00702062A26
:101D3C0007D01A6842F001021A6000207047012097
:101D4C0070470020704700BF002C0140704770475F
:101D5C007047704710B5446A636A83420ED0A36A19
:101D6C00834214D0E36A83421AD0236B834220D07F
:101D7C002046FEF77FFA0023237710BD012323773B
:101D8C008369002BF4D1012384F83E30F0E7022361
:101D9C0023778369002BEBD1012384F83F30E7E7ED
:101DAC00042323778369002BE2D1012384F840308C
:101DBC00DEE7082323778369002BD9D1012384F82C
:101DCC004130D5E7704710B5446A636A83420BD043
:101DDC00A36A834210D0E36A834210D0236B834200
:101DEC0004D10823237701E0012323772046FFF752
:101DFC00E9FF0023237710BD02232377F6E70423A2
:101E0C002377F3E7704710B5044603681A6912F09C
:101E1C00020F11D0DA6812F0020F0DD06FF002022F
:101E2C001A610123037703689B6913F0030F70D0C9
:101E3C00FFF78FFF0023237723681A6912F0040F32
:101E4C0012D0DA6812F0040F0ED06FF004021A618F
:101E5C000223237723689B6913F4407F5FD02046CD
:101E6C00FFF777FF0023237723681A6912F0080F16
:101E7C0012D0DA6812F0080F0ED06FF008021A6157
:101E8C00042323772368DB6913F0030F4ED020461D
:101E9C00FFF75FFF0023237723681A6912F0100FF6
:101EAC0012D0DA6812F0100F0ED06FF010021A6117
:101EBC00082323772368DB6913F4407F3DD0204649
:101ECC00FFF747FF0023237723681A6912F0010FED
:101EDC0003D0DA6812F0010F36D123681A6912F0B8
:101EEC00800F03D0DA6812F0800F34D123681A699E
:101EFC0012F0400F03D0DA6812F0400F32D1236891
:101F0C001A6912F0200F03D0DA6812F0200F30D1CA
:101F1C0010BDFFF71DFF2046FEF7ACF98AE72046FF
:101F2C00FFF716FF2046FEF7A5F99BE72046FFF7C3
:101F3C000FFF2046FEF79EF9ACE72046FFF708FF9F
:101F4C002046FEF797F9BDE76FF001021A612046B3
:101F5C00FEF7A8F9C1E76FF080021A61204600F085
:101F6C0095FDC3E76FF040021A612046FFF74AFF68
:101F7C00C5E76FF020021A61204600F086FDC7E726
:101F8C00704710B5446A636A83420CD0A36A8342DB
:101F9C0013D0E36A834216D0236B834219D00123FA
:101FAC0084F83D3003E00123237784F83E3020464B
:101FBC00FFF7E6FF0023237710BD022323770123CD
:101FCC0084F83F30F3E704232377012384F840306F
:101FDC00EDE708232377012384F84130E7E700007D
:101FEC0003681B4A90420AD0B0F1804F07D0A2F58B
:101FFC009432904203D002F58062904203D123F0D8
:10200C0070034A681343124A90420AD0B0F1804FD1
:10201C0007D0A2F59432904203D002F58062904230
:10202C0003D123F44073CA68134323F080034A6935
:10203C00134303608B68C3620B688362044B984242
:10204C0002D00123436170470B690363F9E700BFBA
:10205C00002C014040B310B5044690F83D30F3B16C
:10206C00022384F83D30214651F8040BFFF7B8FFEA
:10207C00012384F8463084F83E3084F83F3084F8ED
:10208C00403084F8413084F8423084F8433084F88E
:10209C00443084F8453084F83D30002010BD80F881
:1020AC003C30FFF759FCDBE70120704740B310B51B
:1020BC00044690F83D30F3B1022384F83D302146BC
:1020CC0051F8040BFFF78CFF012384F8463084F899
:1020DC003E3084F83F3084F8403084F8413084F846
:1020EC00423084F8433084F8443084F8453084F826
:1020FC003D30002010BD80F83C30FFF727FEDBE7B9
:10210C000120704740B310B5044690F83D30F3B150
:10211C00022384F83D30214651F8040BFFF760FF91
:10212C00012384F8463084F83E3084F83F3084F83C
:10213C00403084F8413084F8423084F8433084F8DD
:10214C00443084F8453084F83D30002010BD80F8D0
:10215C003C30FFF7FCFDDBE70120704730B4036A2D
:10216C0023F010030362036A4468826922F4E64296
:10217C000D6842EA052223F020038D6843EA05131B
:10218C000C4DA84206D0446082614A6882630362A7
:10219C0030BC704723F08003CD6843EA051323F06D
:1021AC00400324F440644D6944EA85048D6944EA93
:1021BC008504E8E7002C014090F83C30012B22D03C
:1021CC0010B50446012380F83C300C2A0BD8DFE80C
:1021DC0002F0070A0A0A0E0A0A0A120A0A0A16006A
:1021EC000068FFF7D5FC002084F83C0010BD0068A7
:1021FC00FFF7B4FFF7E70068FFF7F4FCF3E70068BC
:10220C00FFF71EFDEFE70220704738B590F83C3021
:10221C00012B60D004460D46012380F83C300C2A7B
:10222C001AD8DFE802F0071919191D1919193119F3
:10223C00191944000068FFF7ABFC2268936943F05E
:10224C00080393612268936923F004039361226865
:10225C00936929690B439361002084F83C0038BDD5
:10226C000068FFF77BFF2268936943F40063936176
:10227C002268936923F480639361226893692969C6
:10228C0043EA01239361E7E70068FFF7ABFC2268A0
:10229C00D36943F00803D3612268D36923F00403A4
:1022AC00D3612268D36929690B43D361D4E70068F1
:1022BC00FFF7C6FC2268D36943F40063D36122683C
:1022CC00D36923F48063D3612268D369296943EA13
:1022DC000123D361C0E70220C1E710B4846824F461
:1022EC007F4C42EA03220A4342EA0C02826010BC91
:1022FC00704790F83C30012B66D010B50446012392
:10230C0080F83C30022380F83D300268936823F457
:10231C007F4323F0770393600B68602B40D01CD86D
:10232C00402B47D00BD9502B33D1CA684968006871
:10233C00FFF7AAFC50212068FFF7CBFC29E0202BEB
:10234C0006D003D823B1102B02D022E0302B20D1A1
:10235C0019462068FFF7BDFC1BE0702B0ED0B3F5BF
:10236C00005F16D1CB684A6889680068FFF7B5FF33
:10237C002268936843F4804393600AE0CB684A6810
:10238C0089680068FFF7A9FF2268936843F0770318
:10239C009360012384F83D30002084F83C0010BD8C
:1023AC00CA6849680068FFF781FC60212068FFF764
:1023BC0090FCEEE7CA6849680068FFF765FC4021AD
:1023CC002068FFF786FCE4E70220704710B504682C
:1023DC00A26822F070024B68134323F007030A68CB
:1023EC001A43A2604B68602B2CD00CD8402B14D015
:1023FC00502B06D10A6989680068FFF745FC00205C
:10240C000AE0002008E0702B23D10B698A68C968A8
:10241C000068FFF762FF002010BD0B68052B1AD077
:10242C0003681C6A1A6A22F001021A620268936934
:10243C0023F0F003096943EA0113936103681C62FA
:10244C000020E9E70A6989680068FFF72FFC002083
:10245C00E2E70020E0E70120DEE790F83C30012BBA
:10246C0022D010B50446012380F83C30022380F8BA
:10247C003D30FFF7ABFF80B92268D36823F04003EF
:10248C00D3602268D36823F48043D360012384F89B
:10249C003D30002384F83C3010BD012084F83D0011
:1024AC00002384F83C30F7E70220704701F01F014D
:1024BC004FF0010C0CFA01FC036A23EA0C030362D3
:1024CC00036A8A40134303627047000010B5044648
:1024DC00084651BB94F83E30DBB2013B18BF0123D8
:1024EC00002B5BD1002839D1022384F83E30012225
:1024FC0001462068FFF7DAFF23682A4A93423DD051
:10250C002368284A93423ED0B3F1804F3BD0A2F5CA
:10251C009432934237D002F58062934233D01A68DA
:10252C0042F001021A60002039E0042908D0082981
:10253C000DD094F84130DBB2013B18BF0123CFE73B
:10254C0094F83F30DBB2013B18BF0123C8E794F885
:10255C004030DBB2013B18BF0123C1E7042805D092
:10256C00082807D0022384F84130C0E7022384F8FE
:10257C003F30BCE7022384F84030B8E75A6C42F491
:10258C0000425A64BCE79A6802F00702062A07D098
:10259C001A6842F001021A60002000E0012010BD10
:1025AC000020FCE7002C014010B50446084651BB46
:1025BC0094F83E30DBB2013B18BF0123002B5BD1FA
:1025CC00002839D1022384F83E30012201462068CC
:1025DC00FFF76CFF23682A4A93423DD02368284AB0
:1025EC0093423ED0B3F1804F3BD0A2F5943293424C
:1025FC0037D002F58062934233D01A6842F0010260
:10260C001A60002039E0042908D008290DD094F86C
:10261C004130DBB2013B18BF0123CFE794F83F30C8
:10262C00DBB2013B18BF0123C8E794F84030DBB2A2
:10263C00013B18BF0123C1E7042805D0082807D0A7
:10264C00022384F84130C0E7022384F83F30BCE712
:10265C00022384F84030B8E75A6C42F400425A64C2
:10266C00BCE79A6802F00702062A07D01A6842F003
:10267C0001021A60002000E0012010BD0020FCE7E0
:10268C00002C014070B5044616460D46002955D164
:10269C0090F83E00C0B2022814BF00200120002890
:1026AC0040F00781002D65D194F83E20D2B2012A6A
:1026BC0014BF00220122002A00F0FD80002E75D0EC
:1026CC00002D77D1022284F83E20626A8049916203
:1026DC00626A8049D162626A7F4911637F4A3146DE
:1026EC00606A00F0AFFE002840F0E7802268D368F3
:1026FC0043F40073D360012229462068FFF7D6FE0D
:10270C002368774A934200F0C4802368744A93424A
:10271C0000F0C480B3F1804F00F0C080A2F5943279
:10272C00934200F0BB8002F58062934200F0B680C9
:10273C001A6842F001021A600020BDE0042909D099
:10274C0008290FD090F84100C0B2022814BF002015
:10275C000120A4E790F83F00C0B2022814BF00206B
:10276C0001209CE790F84000C0B2022814BF002062
:10277C00012094E7042D09D0082D0FD094F84120A6
:10278C00D2B2012A14BF0022012294E794F83F2010
:10279C00D2B2012A14BF002201228CE794F8402007
:1027AC00D2B2012A14BF0022012284E7002B87D069
:1027BC00012081E0042D23D0082D3BD0022284F887
:1027CC0041200C2D97D801A252F825F0D7260008ED
:1027DC000327000803270008032700081328000814
:1027EC0003270008032700080327000847280008D0
:1027FC000327000803270008032700087328000894
:10280C00022284F83F20A26A31499162A26A3149BE
:10281C00D162A26A30491163226838323146A06A0B
:10282C0000F010FE00284AD12268D36843F480637C
:10283C00D36060E7022284F84020E26A2449916266
:10284C00E26A2449D162E26A23491163254A31467E
:10285C00E06A00F0F7FD002833D12268D36843F416
:10286C000063D36047E7226B19499162226B1949C7
:10287C00D162226B18491163226840323146206BB9
:10288C0000F0E0FDF8B92268D36843F48053D360BC
:10289C0031E75A6C42F400425A6436E79A6802F007
:1028AC000702062A11D01A6842F001021A600020B1
:1028BC0002E0022000E0012070BD0120FCE70120B5
:1028CC00FAE70120F8E70120F6E70020F4E700BF63
:1028DC00611D0008D31D00088F1F00080C0C01405F
:1028EC00002C01401008014038B504460D460C2957
:1028FC0010D8DFE801F0070F0F0F2E0F0F0F370F57
:10290C000F0F40000268D36823F40073D360406A51
:10291C0000F0F4FD002229462068FFF7C7FD23686C
:10292C00294A934230D02368196A41F2111211429C
:10293C0008D1196A40F24442114203D11A6822F0BC
:10294C0001021A60002D2ED1012384F83E300020A4
:10295C0038BD0268D36823F48063D360806A00F0CA
:10296C00CDFDD7E70268D36823F40063D360C06A57
:10297C0000F0C4FDCEE70268D36823F48053D36023
:10298C00006B00F0BBFDC5E7196A41F21112114250
:10299C00C9D1196A40F244421142C4D15A6C22F492
:1029AC0000425A64BFE7042D05D0082D07D001233F
:1029BC0084F84130CBE7012384F83F30C7E701238B
:1029CC0084F84030C3E700BF002C014090F83C2055
:1029DC00012A2CD010B40346012280F83C2002229C
:1029EC0080F83D2002685068946820F0700C0868EC
:1029FC0040EA0C0050601A680E4882420AD0B2F1CC
:102A0C00804F07D0A0F59430824203D000F580604F
:102A1C00824204D124F08004496821439160012250
:102A2C0083F83D20002083F83C0010BC7047022046
:102A3C00704700BF002C0140024690F83C30012B3F
:102A4C0021D0012380F83C30CB6823F44073886894
:102A5C00034323F480634868034323F4006308684A
:102A6C00034323F480530869034323F40053486958
:102A7C00034323F48043C9690B4311684B64002062
:102A8C0082F83C0070470220704770477047000086
:102A9C0010B504460E4B1A784FF47A73B3FBF2F36D
:102AAC000C4A1068B0FBF3F000F07AFE68B90F2CFA
:102ABC0001D901200AE0002221464FF0FF3000F03E
:102ACC0051FE054B1C60002000E0012010BD00BF32
:102ADC0000000020080000200400002008B5074A70
:102AEC00136843F010031360032000F029FE0F203D
:102AFC00FFF7CEFFFEF70EFF002008BD00200240BE
:102B0C00034A1168034B1B780B441360704700BFDA
:102B1C001826002000000020014B1868704700BFE9
:102B2C001826002082B0084B1B68084AA2FB03231E
:102B3C005B0A00FB03F3019300BF019B5A1E019239
:102B4C00002BF9D102B0704708000020D34D621061
:102B5C00002800F0F18170B582B00446036813F0D0
:102B6C00010F2CD0994B5B6803F00C03042B1DD088
:102B7C00964B5B6803F00C03082B12D06368B3F51B
:102B8C00803F41D0002B55D103F1804303F5043332
:102B9C001A6822F480321A601A6822F480221A60B1
:102BAC0037E08A4B5B6813F4803FE7D0874B1B6898
:102BBC0013F4003F03D06368002B00F0BF8123683F
:102BCC0013F0020F75D0814B5B6813F00C0F5FD0C4
:102BDC007E4B5B6803F00C03082B54D02369002B4D
:102BEC0000F08A807A4B01221A60FFF795FF0546A8
:102BFC00764B1B6813F0020F75D1FFF78DFF401B4E
:102C0C000228F5D903209EE1704A136843F48033FF
:102C1C001360636843B3FFF77FFF05466B4B1B687C
:102C2C0013F4003FCBD1FFF777FF401B6428F5D995
:102C3C00032088E1B3F5A02F09D0644B1A6822F465
:102C4C0080321A601A6822F480221A60E1E703F1DC
:102C5C008043A3F53C331A6842F480221A601A6848
:102C6C0042F480321A60D4E7FFF756FF0546574B03
:102C7C001B6813F4003FA2D0FFF74EFF401B6428E3
:102C8C00F5D903205FE1514B5B6813F4803FA5D16C
:102C9C004E4B1B6813F0020F03D02369012B40F03D
:102CAC004F814A4A136823F0F803616943EAC10370
:102CBC001360236813F0080F33D0A369002B5CD08A
:102CCC00434B0122C3F88024FFF726FF05463F4BF8
:102CDC005B6A13F0020F21D1FFF71EFF401B022885
:102CEC00F5D903202FE1394A136823F0F803616901
:102CFC0043EAC1031360DCE7354B00221A60FFF78F
:102D0C000BFF0546314B1B6813F0020FD1D0FFF7B8
:102D1C0003FF401B0228F5D9032014E10120FFF723
:102D2C0001FF236813F0040F00F09680274BDB693A
:102D3C0013F0805F34D1254BDA6942F08052DA61AE
:102D4C00DB6903F080530193019B0125214B1B6828
:102D5C0013F4807F26D0E368012B3DD0002B53D198
:102D6C0003F1804303F504331A6A22F001021A625C
:102D7C001A6A22F004021A6233E0154B0022C3F8DF
:102D8C008024FFF7C9FE0546104B5B6A13F0020F57
:102D9C00C7D0FFF7C1FE401B0228F5D90320D2E0B3
:102DAC000025D3E70B4A136843F480731360FFF7D5
:102DBC00B3FE0646074B1B6813F4807FCBD1FFF79D
:102DCC00ABFE801B6428F5D90320BCE00010024048
:102DDC0000004242007000405F4A136A43F0010356
:102DEC001362E36833B3FFF797FE06465A4B1B6A30
:102DFC0013F0020F2FD1FFF78FFE801B41F28833A7
:102E0C009842F3D903209EE0052B09D0524B1A6A45
:102E1C0022F001021A621A6A22F004021A62E0E736
:102E2C004D4B1A6A42F004021A621A6A42F001020D
:102E3C001A62D6E7FFF770FE0646474B1B6A13F083
:102E4C00020F08D0FFF768FE801B41F288339842CE
:102E5C00F3D9032077E0E5B9E369002B72D03E4A41
:102E6C00526802F00C02082A56D0022B17D03B4BAA
:102E7C0000221A66FFF750FE0446374B1B6813F00E
:102E8C00007F47D0FFF748FE001B0228F5D903202E
:102E9C0059E0314AD36923F08053D361DCE72F4BDF
:102EAC0000221A66FFF738FE05462B4B1B6813F001
:102EBC00007F06D0FFF730FE401B0228F5D9032017
:102ECC0041E0236AB3F5803F1AD023494B6823F4C1
:102EDC007413226A606A024313434B601F4B012236
:102EEC001A66FFF719FE04461B4B1B6813F0007F94
:102EFC000ED1FFF711FE001B0228F5D9032022E0AA
:102F0C00154A536823F40033A1680B435360DCE784
:102F1C00002018E0002016E0012B16D00E4B5B6849
:102F2C0003F48031226A914211D103F47013626A66
:102F3C0093420ED1002006E001207047012002E0F0
:102F4C00012000E0002002B070BD0120FBE7012051
:102F5C00F9E70120F7E700BF0010024000004242F1
:102F6C0086B0174B0FCB0DF1180C0CE90F0040F28B
:102F7C000123ADF80430134B5B6803F00C02082AF4
:102F8C0002D0114806B07047C3F3834218326A442A
:102F9C0012F8100C13F4803F0DD00A4B5B68C3F38E
:102FAC00404318336B4413F8143C074A02FB00F0FF
:102FBC00B0FBF3F0E6E7054B03FB00F0E2E700BFE4
:102FCC00983E00080010024000127A0000093D00F3
:102FDC00002800F0A08070B50D460446524B1B68CB
:102FEC0003F007038B420BD24F4A136823F00703FD
:102FFC000B431360136803F007038B4240F08D8082
:10300C00236813F0020F17D013F0040F04D0474AB3
:10301C00536843F4E0635360236813F0080F04D043
:10302C00424A536843F460535360404A536823F058
:10303C00F003A1680B435360236813F0010F31D0E8
:10304C006368012B20D0022B25D0384A126812F06D
:10305C00020F64D035494A6822F0030213434B60D7
:10306C00FFF75AFD0646314B5B6803F00C036268B0
:10307C00B3EB820F16D0FFF74FFD801B41F2883364
:10308C009842F0D9032045E0284A126812F4003F18
:10309C00E0D101203EE0254A126812F0007FD9D120
:1030AC00012037E0204B1B6803F00703AB420AD921
:1030BC001D4A136823F007032B431360136803F0B6
:1030CC000703AB422DD1236813F0040F06D0174A27
:1030DC00536823F4E063E1680B435360236813F0F7
:1030EC00080F07D0114A536823F46053216943EA4F
:1030FC00C1035360FFF734FF0C4B5B68C3F303133E
:10310C000B4AD35CD8400B4B18600B4B1868FFF77D
:10311C00BFFC002070BD012070470120FAE70120A0
:10312C00F8E70120F6E700BF002002400010024043
:10313C00B43E00080800002004000020014B186871
:10314C00704700BF0800002008B5FFF7F7FF044BDD
:10315C005B68C3F30223034AD35CD84008BD00BFAD
:10316C0000100240AC3E000808B5FFF7E7FF044B27
:10317C005B68C3F3C223034AD35CD84008BD00BFCD
:10318C0000100240AC3E000870B582B00024A4468A
:10319C00A1E07E4DAB4214D00CD8A5F58015AB4206
:1031AC000FD005F57025AB420BD0A5F58015AB42C1
:1031BC0010D106E0764DAB4203D005F58035AB421D
:1031CC0008D18B68002B50D0012B49D042610824C8
:1031DC0000E0CC68BEF1FF0F49D806464FEA8C02DE
:1031EC0033680F25954023EA050304FA02F21343D2
:1031FC0033604B6813F0805F6BD0664B9A6942F07A
:10320C0001029A619B6903F001030193019B4FEA50
:10321C009C02951C604B53F825600CF00305AD0027
:10322C000F23AB4026EA03065C4B984226D003F5ED
:10323C008063984200F08C8003F58063984200F024
:10324C00898003F58063984216D0042317E0CC687C
:10325C000434BFE7CC680834BCE7CC680C34B9E75D
:10326C0002610824B6E70024B4E70424B2E7061D83
:10327C00ACF108029200B3E7032300E00023AB405B
:10328C0033430232444D45F822304B6813F4803FEF
:10329C0062D0434A136843EA0E0313604B6813F47D
:1032AC00003F5FD03E4A536843EA0E0353604B68BD
:1032BC0013F4801F5CD03A4A936843EA0E03936080
:1032CC004B6813F4001F59D0354AD36843EA0E03F8
:1032DC00D3600CF1010C0B6833FA0CF254D00122C0
:1032EC0002FA0CF203EA020E32EA0303F1D14B6844
:1032FC00122B3FF64EAF122B3FF66CAF01A555F8D3
:10330C0023F000BFCF310008DF3100086132000824
:10331C0073320008E1310008E1310008E1310008A6
:10332C00E1310008E1310008E1310008E131000829
:10333C00E1310008E1310008E1310008E131000819
:10334C00E1310008E13100085B3200086732000807
:10335C00012394E7022392E7114A136823EA0E0330
:10336C0013609BE70E4A536823EA0E0353609EE7F3
:10337C000B4A936823EA0E039360A1E7084AD368CB
:10338C0023EA0E03D360A4E702B070BD0000221044
:10339C000000311000100240000001400008014004
:1033AC00000401400AB101617047090401617047D2
:1033BC0030B40124056CAC40C56B6C600468636070
:1033CC004368102B05D0036899600368DA6030BC41
:1033DC00704703689A600368D960F8E750B310B47B
:1033EC0002460168144B0B441448A0FB03031B0951
:1033FC009B001364124BD363022382F821300868BC
:10340C006FF30D10536894682343D46823431469F5
:10341C0023435469234394692343D46923430343CB
:10342C000B6000209063012382F8213082F8200089
:10343C0010BC704701207047F8FFFDBFCDCCCCCC41
:10344C000000024038B5044690F82000012831D025
:10345C00012084F8200094F82100012804D00023D6
:10346C0084F82030022038BD022084F8210000208E
:10347C00A0632568286820F0010028602046FFF72B
:10348C0097FFE36A5BB12268136843F00E03136085
:10349C002268136843F0010313600020E3E72268FD
:1034AC00136823F0040313602268136843F00A03C3
:1034BC001360EDE70220D6E7034690F82120022A9C
:1034CC0006D004228263002280F82020012070475D
:1034DC0001680A6822F00E020A6001680A6822F08C
:1034EC0001020A60026CC06B012101FA02F2426017
:1034FC0083F82110002083F82000704708B590F85D
:10350C002130022B03D004238363012008BD026801
:10351C00136823F00E0313600268136823F0010391
:10352C0013600368194A934214D0143293421FD08B
:10353C00143293421ED0143293421ED01432934252
:10354C001ED01432934202D04FF0807203E04FF43D
:10355C00801200E001220E4B5A60012380F82130CA
:10356C00002380F82030436B6BB198470020CDE7E7
:10357C001022F0E74FF48072EDE74FF48052EAE747
:10358C004FF48032E7E70020C0E700BF080002409C
:10359C000000024038B5C36B1A6804682568016CDA
:1035AC0004238B40134235D015F0040F32D023681E
:1035BC0013F0200F03D1236823F004032360036866
:1035CC00434A934214D01432934218D0143293428B
:1035DC0017D01432934217D01432934217D01432AE
:1035EC00934202D04FF0806203E04FF4800200E07F
:1035FC000422384B5A60C36A03B1984738BD402245
:10360C00F7E74FF48062F4E74FF48042F1E74FF4B0
:10361C008022EEE702238B4013423CD015F0020FC0
:10362C0039D0236813F0200F06D1236823F00A0346
:10363C002360012380F821300368254A934214D07B
:10364C00143293421CD0143293421BD01432934246
:10365C001BD0143293421BD01432934202D04FF041
:10366C00007203E04FF4001200E00222194B5A6082
:10367C00002380F82030836A002BBFD09847BDE729
:10368C002022F3E74FF40072F0E74FF40052EDE71D
:10369C004FF40032EAE708238B401342AED015F00A
:1036AC00080FABD0236823F00E032360026CC16BB0
:1036BC00012303FA02F24A60836380F8213000236D
:1036CC0080F82030036B002B98D0984796E700BF0A
:1036DC000800024000000240002808DB0901C9B2C2
:1036EC0000F1604000F5614080F80013704700F075
:1036FC000F000901C9B2014B1954704714ED00E0D9
:10370C0000B500F00700C0F1070CBCF1040F28BF96
:10371C004FF0040C031D062B0FD9C31E4FF0FF3EB8
:10372C000EFA0CF021EA000199400EFA03FE22EA8F
:10373C000E0241EA02005DF804FB0023EEE70000F4
:10374C00074AD36823F4E0631B041B0C000200F44B
:10375C00E060034343F0BF6343F40033D36070472E
:10376C0000ED00E010B50446054BD868C0F302200C
:10377C00FFF7C6FF01462046FFF7AEFF10BD00BFA6
:10378C0000ED00E0002807DB00F01F0240090123D8
:10379C009340024A42F82030704700BF00E100E03D
:1037AC000138B0F1807F0BD24FF0E0235861054A0D
:1037BC00F02182F823100020986107221A617047CB
:1037CC000120704700ED00E070470268D36823F4D5
:1037DC009073D3600268536923F001035361036B48
:1037EC00012B05D0202380F83E3000230363704763
:1037FC000268D36823F01003D360F3E790F83D30F0
:10380C00DBB2212B01D0022070478368B3F5805FB7
:10381C0017D0036A5A1C02621A7803685A60C38C68
:10382C009BB2013B9BB2C3844BB90268D36823F0B3
:10383C008003D3600268D36843F04003D360002058
:10384C0070470369002BE4D1036A1B880268C3F339
:10385C0008035360036A02330362E0E710B50446C1
:10386C000268136923F44053C1680B4313618368E6
:10387C000269134342691A430168CB6823F4B053BD
:10388C0023F00C031343CB600268536923F4407399
:10389C0081690B4353610268134B9A4220D0FFF7A6
:1038AC0053FC024602EB820202EB820263689B002D
:1038BC00B2FBF3F20D48A0FB02314909642303FB70
:1038CC0011231B013233A0FB03035B0903F0F0024D
:1038DC0002EB011203F00F03216813448B6010BD3F
:1038EC00FFF742FC0246DDE7003801401F85EB5133
:1038FC002DE9F84305460F4616469946DDF820801B
:10390C002B681C6837EA04040CBF01240024B44261
:10391C001FD1B8F1FF3FF3D0B8F1000F05D0FFF77E
:10392C00FBF8A0EB09004045EAD92A68D36823F4D8
:10393C00D073D3602A68536923F0010353612023A9
:10394C0085F83D3085F83E30002385F83C30032067
:10395C0000E00020BDE8F88358B310B5044690F899
:10396C003D300BB3242384F83D302268D36823F414
:10397C000053D3602046FFF771FF2268136923F4CC
:10398C00904313612268536923F02A035361226820
:10399C00D36843F40053D36000202064202384F8C0
:1039AC003D3084F83E3010BD80F83C30FEF7ACF86A
:1039BC00D8E7012070472DE9F04182B01E4690F8FF
:1039CC003E30DBB2202B5CD104460D4690460029DC
:1039DC005BD0002A5BD090F83C30012B59D00123EE
:1039EC0080F83C3000230364222280F83E200363DD
:1039FC00FFF792F80746A4F82C80A4F82E80A36851
:103A0C00B3F5805F05D04FF00008002384F83C30FC
:103A1C0017E0236913B14FF00008F6E7A84600251C
:103A2C00F3E723685B68C3F3080328F8023B03E061
:103A3C0023685B682B700135E28D92B2013A92B229
:103A4C00E285E38D9BB2BBB100963B460022202160
:103A5C002046FFF74DFFF0B9002DE2D0A368B3F577
:103A6C00805FE5D013B92369002BE1D023685B6834
:103A7C0003F07F032B70DEE7202384F83E30002018
:103A8C0000E0022002B0BDE8F0810120FAE701203D
:103A9C00F8E70220F6E70320F4E7704708B5016861
:103AAC00CA6822F04002CA60202280F83D20FFF74D
:103ABC00F4FF002008BD704708B5406A0023C38599
:103ACC00C384FFF7F8FF08BD704790F83E30DBB2B7
:103ADC00222B60D18368B3F5805F46D0826AB3F540
:103AEC00805F04D0002B4DD10369002B4AD10368B1
:103AFC005B681370836A01338362C38D9BB2013B95
:103B0C009BB2C385002B48D100B583B00268D36843
:103B1C0023F02003D3600268D36823F48073D3604E
:103B2C000268536923F001035361202380F83E306F
:103B3C00036B012B2CD1002303630268D36823F0A1
:103B4C001003D36003681A6812F0100F06D000221D
:103B5C0001921A6801925B680193019B818DFFF7BA
:103B6C00B3FF002003B05DF804FB0269002AB5D155
:103B7C00826A03685B68C3F308031380836A0233A9
:103B8C008362BAE703685B6803F07F031370B1E7E5
:103B9C00FCF7A8FBE5E70220704700207047000007
:103BAC0010B582B0044602681368D068516913F0EE
:103BBC000F0F09D113F0200F0CD010F0200F09D0EB
:103BCC002046FFF782FF16E011F0010115D110F429
:103BDC00907F12D1216B012971D013F0800F03D08B
:103BEC0010F0800F40F0D28013F0400F03D010F093
:103BFC00400F40F0CF8002B010BD13F0010F06D083
:103C0C0010F4807F03D0226C42F00102226413F086
:103C1C00040F04D019B1226C42F00202226413F09A
:103C2C00020F04D019B1226C42F00402226413F08A
:103C3C00080F07D010F0200F00D119B1226C42F000
:103C4C0008022264226C002AD5D013F0200F02D077
:103C5C0010F0200F21D123685B6903F04003226C24
:103C6C0012F0080F00D123B32046FFF7AEFD2368F6
:103C7C005A6912F0400F18D05A6922F040025A616A
:103C8C00A36B73B1454A5A63A06BFFF737FC00284E
:103C9C00B1D0A06B436B9847ADE72046FFF715FFFB
:103CAC00D9E72046FFF707FFA5E72046FFF703FFFC
:103CBC00A1E72046FFF7FFFE002323649BE713F0E8
:103CCC00100F8AD010F0100F87D0002301931368C7
:103CDC00019353680193019B536913F0400F31D04A
:103CEC00A16B0B685B689BB2002B84D0A08D9842B3
:103CFC0081D9E3858B69202B08D1A18DE38D9BB2F3
:103D0C00C91A89B22046FFF7DFFE74E7D36823F4A3
:103D1C008073D3602268536923F0010353612268D6
:103D2C00536923F040035361202384F83E30002371
:103D3C0023632268D36823F01003D360A06BFFF7D2
:103D4C00BBFBDAE7A38DE18D89B25B1A99B2E38DE7
:103D5C009BB2002B3FF44FAF00293FF44CAFD3681C
:103D6C0023F49073D3602268536923F001035361E9
:103D7C00202384F83E30002323632268D36823F089
:103D8C001003D3602046FFF79FFE34E72046FFF771
:103D9C0035FD30E72046FFF781FE2CE7C53A0008D9
:103DAC000C480D490D4A002302E0D458C45004338A
:103DBC00C4188C42F9D30A4A0A4C002301E0136060
:103DCC000432A242FBD3FFF7FFFC00F00FF8FDF723
:103DDC00A1FC7047000000200C000020CC3E000825
:103DEC000C0000201C260020FEE7000070B5002609
:103DFC000C4D0D4C641BA410A64209D100F022F806
:103E0C0000260A4D0A4C641BA410A64205D170BDB5
:103E1C0055F8043B98470136EEE755F8043B9847B4
:103E2C000136F2E7C43E0008C43E0008C43E000858
:103E3C00C83E000803460244934200D1704703F881
:103E4C00011BF9E7F8B500BFF8BC08BC9E467047EB
:0C3E5C00F8B500BFF8BC08BC9E467047DB
:103E68000000000004000000000000000400000042
:103E780050000000540000005000000054000000F2
:103E8800A0000000A4000000A0000000A4000000A2
:103E980002030405060708090A0B0C0D0E0F101083
:103EA8000000000000000000010203040000000000
:0C3EB800000000000102030406070809D6
:043EC400750100087C
:043EC8004D010008A0
:0C3ECC0001000000100000000024F400C1
:0400000508003DAD05
:00000001FF
