:020000040800F2
:100000000050002031330008391500083B15000866
:100010003D1500083F1500084115000800000000CC
:100020000000000000000000000000004315000870
:100030004515000800000000471500084915000894
:1000400079330008793300087933000879330008E0
:1000500079330008793300087933000879330008D0
:1000600079330008793300087933000879330008C0
:1000700079330008793300087933000851150008F6
:1000800061150008793300087933000879330008D6
:100090007933000879330008793300087933000890
:1000A00079330008711500087933000879330008A6
:1000B0007933000879330008793300087933000870
:1000C0007933000879330008793300087933000860
:1000D0007933000879330008793300087933000850
:1000E00079330008793300087933000800000000F4
:1000F0000000000000000000000000000000000000
:0C01000000000000000000005FF808F1A3
:10010C000348044B834202D0034B03B1184770479A
:10011C000C0000200C000020000000000548064BDD
:10012C001B1AD90F01EBA301491002D0034B03B1E9
:10013C00184770470C0000200C0000200000000045
:10014C0010B5064C237843B9FFF7DAFF044B13B113
:10015C000448AFF300800123237010BD0C00002075
:10016C0000000000D433000808B5054B1BB105494D
:10017C000548AFF30080BDE80840FFF7CFBF00BFD4
:10018C000000000010000020D43300082DE9F041DD
:10019C0088B000240494059406940794274B9A691C
:1001AC0042F020029A619A6902F020020192019AAF
:1001BC009A6942F004029A619A6902F0040202926E
:1001CC00029A9A6942F008029A619B6903F008034B
:1001DC000393039B1A4D224640F2B221284602F0AB
:1001EC00AEFE184F22464FF2FF71384602F0A7FEC2
:1001FC0040F2B22304934FF00108CDF8148006941A
:10020C000226079604A9284602F084FD4FF2FF73DC
:10021C000493CDF814800694079604A9384602F08E
:10022C0079FD0C23049305940694079604A928469B
:10023C0002F070FD08B0BDE8F08100BF0010024074
:10024C0000080140000C014000B583B00E4B5A6908
:10025C0042F001025A615B6903F001030193019BB7
:10026C00002211460F2003F029F80F2003F036F876
:10027C0000221146102003F021F8102003F02EF874
:10028C0003B05DF804FB00BF0010024008B5084B3A
:10029C00984203D0074B984205D008BD0021184660
:1002AC0002F00EF9F9E7044B00221A60F5E700BFE3
:1002BC00581D0020A01D0020341C00200B4B834235
:1002CC0000D0704710B50A4C2268C2EB0212F02322
:1002DC00084901EB42120021074801F0BFFF2368D7
:1002EC00032B02DC23680133236010BDA01D00200A
:1002FC00341C002074090020581D0020002316E037
:10030C000C4A03F59660002122F8101003F5B46036
:10031C0022F8101003F5D26022F8101003F5F060EB
:10032C0022F8101003F5076022F810100133EF2BA0
:10033C00E6DD7047740900202DE9F04106460C46B5
:10034C00F0220021AB4803F037F83C220021AA48E8
:10035C0003F032F846B3632E2CDDA84B83FB062347
:10036C00F517C5EB6315EDB2092E25DDA34A82FB0B
:10037C000632F317C3EB6213642202FB1363A0492A
:10038C0081FB0321DA17C2EBA102D2B29C4B83FB97
:10039C000613F017C0EBA30000EB8000A6EB4000A7
:1003AC000A2D43D000232AE000233B2B00F281804E
:1003BC000133FAE70A25D7E70A22E7E7C1B201EBD6
:1003CC00810103EBC1018F4E56F821100F01894EAC
:1003DC0046F82370C90E884EF1540FE0A3F11401B6
:1003EC0002EB820601EBC601864E56F821100F0176
:1003FC00804E46F82370C90E7F4EF15401333B2BCF
:10040C0057D8132BDAD9272BE8D9A3F1280105EB00
:10041C00850601EBC6017B4E56F821100F01754E77
:10042C0046F82370C90E744EF154E7E70A2A01D03E
:10043C00002314E000223AE0A3F1140102EB820540
:10044C0001EBC5016F4D55F8215003F10C012F0143
:10045C00684E46F82170ED0E674E75540133272B0C
:10046C0027D8132BE8D8C1B201EB810103EBC101F2
:10047C00644D55F8215003F108012F015D4E46F8EB
:10048C002170ED0E5C4E7554E8E7C3B203EB8303A9
:10049C0002EBC3035B4951F8233002F114011E0136
:1004AC00544D45F82160DB0E534D6B540132132A29
:1004BC00EBD9FFF723FF4FF0000E85E0A1F12002EE
:1004CC00012393402CE04C4A12F80E201A4264D1BE
:1004DC004FF0000808E01F292FD8464A52F82E206A
:1004EC001A425DD14FF000080CF1050221F0030314
:1004FC000B443B44444DC2EB021003EB001035F8A7
:10050C001000C2EB021203EB021340EA080225F8BA
:10051C0013200131272955D81F29CFD801238B400F
:10052C009CB9002ED7D11F29CDD8324A52F82E2093
:10053C001A422FD14FF00008D6E72F4A12F80E209E
:10054C001A4230D14FF00008CEE78EB91F2907D8D8
:10055C00284A52F82E201A4228D14FF00008C3E73F
:10056C00254A12F80E201A4223D14FF00008BBE79F
:10057C001F2907D81F4A52F82E201A421CD14FF0BF
:10058C000008B1E71C4A12F80E201A4217D14FF09E
:10059C000008A9E74FF02008A6E74FF02008A3E7D2
:1005AC004FF04008A0E74FF040089DE74FF01008CF
:1005BC009AE74FF0100897E74FF0080894E74FF0D0
:1005CC00080891E70EF1010EBEF13B0F10D80F4E4B
:1005DC00A6FB0E364FEA960C62460CEB8C0CAEEB7F
:1005EC000C0CC6F3C0060A4B53F82270002191E79D
:1005FC00002337E064000020280000201F85EB5109
:10060C00676666665401002074090020CDCCCCCC02
:10061C00EC330008154A03F5966132F8111022F8F4
:10062C00131003F5B46132F8110003F1F00122F854
:10063C00110003F5D26132F8110003F5F07122F8C4
:10064C00110003F5F06132F8110003F5347122F852
:10065C00110003F5076132F8110003F5707122F8EF
:10066C0011000133EF2BD5D9BDE8F08174090020BE
:10067C0010B5A8B04FF402620021AE4802F09CFE07
:10068C00A0220021684602F097FE4FF4FF3300933E
:10069C00A94B0193A94B0293032306E028AA02EB72
:1006AC008302A74942F8A01C01330C2BF6D9A54BA9
:1006BC000F9303F500330E9303F580230D93102352
:1006CC001C2B08D828AA02EB83024FF4E07142F8E5
:1006DC00A01C0133F4E74FF4FF331F93964B1E938A
:1006EC00964B1D931C9B43F460231C931B9B43F460
:1006FC0060231B931A9B43F460231A93199B43F4B6
:10070C0060231993002413E00133132B0FD801221B
:10071C009A4012EA0E0FF7D0864803F5B47C50F8D5
:10072C002C200121A1400A4340F82C20ECE7013495
:10073C001F2C08D828AB03EB840353F8A03C4FEADA
:10074C00D30E0023E1E7A0220021684602F034FE1C
:10075C004FF4FF330093784B0193784B02930323B0
:10076C0006E028AA02EB8302754942F8A01C01336B
:10077C000E2BF6D9714B0F936F4A109211931223D3
:10078C0006E028AA02EB83026D4942F8A01C013353
:10079C001C2BF6D94FF4FF331F93674B1E93674BFB
:1007AC001D93002413E00133132B0FD801229A4020
:1007BC0012EA0E0FF7D05F4803F5A07C50F82C20FE
:1007CC000121A1400A4340F82C20ECE701341F2CF6
:1007DC0008D828AB03EB840353F8A03C4FEAD30EA4
:1007EC000023E1E7A0220021684602F0E5FD564B0C
:1007FC0000930193029303230AE0D91E49084FF496
:10080C00E0728A4028A901EB830141F8A02C013346
:10081C00192BF2D9039B43F460230393049B43F4F9
:10082C0060230493059B43F460230593069B43F4D8
:10083C00602306934FF460231F931E931D931C9308
:10084C001B931A93002413E00133132B0FD80122AE
:10085C009A4012EA0E0FF7D0364803F58C7C50F80C
:10086C002C200121A1400A4340F82C20ECE7013454
:10087C001F2C08D828AB03EB840353F8A03C4FEA99
:10088C00D30E0023E1E7A0220021684602F094FD7C
:10089C004FF4FF330093284B0193284B029303230F
:1008AC000F2B08D828AA02EB83024FF4602142F8E0
:1008BC00A01C0133F4E7039B43F4E0730393049B04
:1008CC0043F4E0730493059B43F4E0730593069B98
:1008DC0043F4E07306931D4B109303F5807311934F
:1008EC0080331293132306E028AA02EB83021449E7
:1008FC0042F8A01C01331C2BF6D94FF4FF331F9385
:10090C000D4B1E930D4B1D93002422E00133132B32
:10091C001ED801229A4012EA0E0FF7D0054803F1B7
:10092C00F00C50F82C200121A1400A4340F82C2057
:10093C00ECE700BF5401002000FF030080FF07001C
:10094C00C0010E00C0FF0100C0FF0F0000FE0F0031
:10095C0001341F2C08D828AB03EB840353F8A03CBC
:10096C004FEAD30E0023D2E7A0220021684602F002
:10097C0023FDAF4B009301930293032307E028AAB6
:10098C0002EB83024FF4602142F8A01C01330A2BC6
:10099C00F5D9A84B0B9303F580730C9380330D930F
:1009AC000E231C2B08D828AA02EB83024FF4E0710B
:1009BC0042F8A01C0133F4E74FF4FF331F939E4B16
:1009CC001E939E4B1D931C9B43F460231C931B9BFB
:1009DC0043F460231B931A9B43F460231A93199BD3
:1009EC0043F460231993002413E00133132B0FD825
:1009FC0001229A4012EA0E0FF7D0914803F1C80C6D
:100A0C0050F82C200121A1400A4340F82C20ECE79F
:100A1C0001341F2C08D828AB03EB840353F8A03CFB
:100A2C004FEAD30E0023E1E7A0220021684602F032
:100A3C00C3FC002307E028AA02EB83024FF4E07109
:100A4C0042F8A01C01331F2BF5D900230CE028AA77
:100A5C0002EB830050F8A02C5C084FF4E061A1403D
:100A6C000A4340F8A02C0133132BF0D9754B11938A
:100A7C0003F5002312931393002413E00133132B7B
:100A8C000FD801229A4012EA0E0FF7D06C4803F1EE
:100A9C00A00C50F82C200121A1400A4340F82C2036
:100AAC00ECE701341F2C08D828AB03EB840353F874
:100ABC00A03C4FEAD30E0023E1E7A02200216846B8
:100ACC0002F07AFC4FF4FF3300935B4B01935B4BCA
:100ADC000293032307E028AA02EB83024FF4E07190
:100AEC0042F8A01C01330E2BF5D9039B43F4602371
:100AFC000393049B43F460230493059B43F460230A
:100B0C000593514B0F93514A10921193122307E006
:100B1C0028AA02EB83024FF4E07142F8A01C0133C7
:100B2C001C2BF5D94FF4FF331F93434B1E93434BB0
:100B3C001D931C9B43F460231C931B9B43F4602369
:100B4C001B931A9B43F460231A93002413E0013384
:100B5C00132B0FD801229A4012EA0E0FF7D0384807
:100B6C0003F1780C50F82C200121A1400A4340F8E5
:100B7C002C20ECE701341F2C08D828AB03EB8403A2
:100B8C0053F8A03C4FEAD30E0023E1E7A02200214A
:100B9C00684602F011FC4FF4FF330093264B01938F
:100BAC00264B0293032307E028AA02EB83024FF49F
:100BBC00E07142F8A01C01330E2BF5D9224B0F9398
:100BCC001D4B1093224B1193122307E028AA02EB22
:100BDC0083024FF4602142F8A01C01331C2BF5D981
:100BEC004FF4FF331F93144B1E93144B1D9300248F
:100BFC0013E00133132B0FD801229A4012EA0E0F87
:100C0C00F7D00F4803F1500C50F82C200121A140D3
:100C1C000A4340F82C20ECE701341F2C1AD828ABDF
:100C2C0003EB840353F8A03C4FEAD30E0023E1E717
:100C3C00C0FF0F0000FE0F0000FF030080FF070045
:100C4C0054010020F8FF070080FF010000FF0100A5
:100C5C0000FE0700A0220021684602F0ADFB4FF415
:100C6C00406300934FF4E05301934FF4705302939D
:100C7C004FF4F8430393042307E028AA02EB830202
:100C8C004FF4E05142F8A01C01331C2BF5D9344B26
:100C9C001F931E931D93002413E00133132B0FD8C5
:100CAC0001229A4012EA0E0FF7D02E4803F1280CBD
:100CBC0050F82C200121A1400A4340F82C20ECE7ED
:100CCC0001341F2C08D828AB03EB840353F8A03C49
:100CDC004FEAD30E0023E1E7A0220021684602F080
:100CEC006BFB4FF4FF3300931F4B01931F4B02938D
:100CFC00032306E028AA02EB83021D4942F8A01C3C
:100D0C0001331C2BF6D94FF4FF331F93164B1E9354
:100D1C00164B1D934FF0000E13E00133132B0ED81E
:100D2C0001229A4012EA0C0FF7D00E4850F82320FB
:100D3C00012101FA0EF10A4340F82320EDE70EF1F0
:100D4C00010EBEF11F0F08D828AB03EB8E0353F82E
:100D5C00A03C4FEAD30C0023E0E728B010BD00BF45
:100D6C00C0FF01005401002000FF030080FF0700BA
:100D7C00C0010E0072B6FEE710B596B000241294B6
:100D8C001394149415941094119409940A940B943C
:100D9C000C940D940E940F942022214601A802F07D
:100DAC000BFB3D483D4B036047234360846040F29E
:100DBC00CF73C36004614461846100F037FF002885
:100DCC0057D14FF48053129312A9334801F07DF898
:100DDC00002850D1304800F081FF00284DD12E481A
:100DEC0000F050FF00284AD1502310930023119398
:100DFC0010A9294801F0D6FB002842D17023099391
:100E0C0040F2BC730A9300220B920C920D920E923C
:100E1C000F9209A9204800F0E4FF002833D11023D9
:100E2C00099340F2C1730A93042209A91A4800F0ED
:100E3C00AFFF50BB6023099340F2C1730A930822A1
:100E4C0009A9154800F0CDFF08BB002301930293BC
:100E5C000393049305934FF400520692089301A94F
:100E6C000D4801F0D5FBA0B90B4800F023FC16B0DF
:100E7C0010BDFFF77FFFFFF77DFFFFF77BFFFFF74D
:100E8C0079FFFFF777FFFFF775FFFFF773FFFFF7AA
:100E9C0071FFFFF76FFF00BFA01D0020002C014069
:100EAC0000B58FB000230A930B930C930D9308930A
:100EBC000993019302930393049305930693079369
:100ECC001E484FF08042026043608360FA22C26089
:100EDC000361836100F0AAFE28BB4FF480530A9390
:100EEC000AA9164800F0F1FFF8B9144800F0F6FE14
:100EFC00E8B900230893099308A9104801F052FBA4
:100F0C00B8B9602301937D230293002203920592CA
:100F1C0001A90A4800F065FF68B9084800F0CAFB4F
:100F2C000FB05DF804FBFFF725FFFFF723FFFFF77A
:100F3C0021FFFFF71FFFFFF71DFF00BF581D00200B
:100F4C0000B593B000230E930F9310931193099354
:100F5C000A930B930C930D930793089300930193AF
:100F6C00029303930493059306932548254A026044
:100F7C0047224260836040F2CF72C260036183619A
:100F8C0000F054FE00282ED14FF480530E930EA97E
:100F9C001B4800F09AFF40BB194800F09FFE30BB85
:100FAC000623099300230A9309A9154801F041F877
:100FBC00F8B900230793089307A9114801F0F2FA36
:100FCC00C8B9602300930A23019300220292049271
:100FDC0069460B4800F005FF78B9094800F06AFB38
:100FEC0013B05DF804FBFFF7C5FEFFF7C3FEFFF778
:100FFC00C1FEFFF7BFFEFFF7BDFEFFF7BBFE00BF54
:10100C00101D00200004004000B591B028220021E2
:10101C0006A802F0D1F900230193029303930493E1
:10102C000593012206924FF4803307930A92022211
:10103C000D920E934FF4E0130F9306A801F074FB7E
:10104C0080B90F23019302210291002303934FF4E3
:10105C0080620492059301A801F0A6FD20B911B09D
:10106C005DF804FBFFF786FEFFF784FE2DE9F04FD9
:10107C0083B001F01FFBFFF7C7FFFFF787F8FFF7FF
:10108C00E3F8FFF779FEFFF70BFFFFF759FFA04CD2
:10109C004FF4220323609F4B63609F4BA3609F4BD5
:1010AC00E3609F4B2361FFF7E3FA9E4D284600F067
:1010BC0005FC0021284601F063F80523224608218F
:1010CC00284601F0CBF80421284600F0EBFF002164
:1010DC00954801F055F8F023944A0021944801F00A
:1010EC00BDF800210846FFF727F9924A3C211181EF
:1010FC00914B1981117B21F001011173197B21F0A6
:10110C00010119730121517159714FF00008C24648
:10111C004446474646464546C146CDF8048000E065
:10112C00002401F0E5FA632802D8844B00221A60EF
:10113C0001F0DEFA814B1B68984265D80421804887
:10114C0001F0F6FE002869D004217D4801F0F0FE84
:10115C00012805D108217A4801F0EAFE0128E0D0E7
:10116C000421774801F0E4FE012840F0EB80714B3C
:10117C001B79002B00F08E8001F0BAFA6D4C2060C8
:10118C0001F0B6FAC8306D4B186001F0B1FA636922
:10119C00C01A40F2E633984200F28A8000240821FB
:1011AC00674801F0C5FE012840F05781624B1B795E
:1011BC00002B00F0298101F09BFA5F4C206001F0BC
:1011CC0097FAC8305D4B186001F092FA6369C01A47
:1011DC0040F2E6339842A3D901F08AFA6061022EFC
:1011EC0040F23581237B03F00103043334F91300FF
:1011FC00002840F31781431E9BB240F2E632934223
:10120C0040F2168100248CE701F072FA64304B4BEB
:10121C00186000210846FFF78FF88FE7082100F1CE
:10122C00804000F5843001F083FE834600288BD18A
:10123C000CB301F05DFAC01BB0F5FA5F03D95E4642
:10124C000025A946019501F053FAC01BB0F5487F63
:10125C007FF67AAFB8F1000F3FF476AF0AF1010ACE
:10126C005FFA8AFA334B00221A815A81BAF1080FBD
:10127C0008D8904668E701F03BFA07464FF00108A2
:10128C004446D6E75E464FF000084546C146CDF8C9
:10129C00048059E701F02CFA00F59670254B186183
:1012AC0001221A71002D7FF467AF1546019263E796
:1012BC0001F01EFA6061022E24D9237B03F0010396
:1012CC00043334F91300002807DD431E9BB240F2AF
:1012DC00E632934207D9002461E700210846FFF764
:1012EC002BF800245BE70121FFF726F8114A137B4A
:1012FC0003F00103043332F91310013922F81310EF
:10130C0000244CE701210020FFF716F8002446E7E3
:10131C00381C00208000220020008200A000020067
:10132C000200A000A01D0020101D00207409002048
:10133C00581D00206C1C0020501C00204C1C002050
:10134C000008014001F0D4F9754B1B68C01AB0F5C8
:10135C00967FFFF424AF724B1B79002B3FF41FAF29
:10136C00DFF8BCB100238BF8043001F0C1F9DBF8D5
:10137C001030C01A6B4BA3FB00239A09C3F38F13D5
:10138C004FF47A7101FB1200B0F5617F2CD9012268
:10139C0013449BB2624AD380032B7FF600AF527981
:1013AC0022B35F4A002151711BB2138153815C4BF4
:1013BC001B7B13F0010F21D1594A43F00103137326
:1013CC00574A137B03F00103043332F91330936152
:1013DC00019B002B3FF4E3AE0136F6B2022E7FF6F2
:1013EC00DEAE00230193DAE60022D1E74C490A7BFA
:1013FC0002F00102043221F81230D8E7484A137B7C
:10140C0023F001031373DBE701F072F900F596701A
:10141C00454B186101221A71002D7FF4CCAE154694
:10142C009146C8E600210846FEF786FF002478E6C0
:10143C000021FEF781FF3C4A137B03F001030433C8
:10144C0032F91310013922F81310002469E6002137
:10145C000846FEF771FF002463E601F049F9324BB0
:10146C001B68C01AB0F5967FFFF45BAE2E4B1B7950
:10147C00002B3FF456AEDFF8B0B000238BF80430ED
:10148C0001F036F9DBF81030C01A264BA3FB002311
:10149C009A09C3F38F134FF47A7101FB1200B0F564
:1014AC00617F2CD9012213449BB21F4AD380032B9A
:1014BC007FF637AE527922B31B4A002151711BB211
:1014CC0013815381184B1B7B13F0010F21D1164A4A
:1014DC0043F001031373144A137B03F00103043329
:1014EC0032F913309361B9F1000F3FF41AAE0136A3
:1014FC00F6B2022E7FF615AE4FF0000911E600226F
:10150C00D1E709490A7B02F00102043221F81230BA
:10151C00D8E7054A137B23F001031373DBE700BF05
:10152C006C1C0020D34D6210501C0020FEE7FEE71F
:10153C00FEE7FEE7FEE770477047704708B501F01D
:10154C00CBF808BD08B5024801F0D0FD08BD00BFBE
:10155C00881C002008B5024801F0C8FD08BD00BF7A
:10156C00CC1C002008B5024800F039FA08BD00BFB9
:10157C00A01D002082B00E4B9A6942F001029A61C4
:10158C009A6902F001020092009ADA6942F08052E4
:10159C00DA61DB6903F080530193019B054A5368C0
:1015AC0023F0E06343F00073536002B0704700BF58
:1015BC00001002400000014010B584B004460368DE
:1015CC00354A934207D0B3F1804F32D0334A93421D
:1015DC0057D004B010BD324B9A6942F400629A6144
:1015EC009B6903F400630193019B2E482E4B03600F
:1015FC0010234360002383608022C2604FF400728A
:10160C0002614FF40062426120228261C36101F0E9
:10161C00B3FC58B9234BE3625C62002211461920DB
:10162C0001F04CFE192001F059FED2E7FFF7A2FBA6
:10163C00F0E703F50433DA6942F00102DA61DB69A1
:10164C0003F001030293029B1848194B036010230B
:10165C004360002383608022C2604FF48072026179
:10166C004FF48062426183614FF40053C36101F017
:10167C0083FC18B90D4B63625C62AAE7FFF77AFB37
:10168C00F8E7074BDA6942F00202DA61DB6903F032
:10169C0002030393039B9CE7002C014000040040D1
:1016AC0000100240CC1C00206C000240881C002062
:1016BC005800024000B589B00023049305930693AB
:1016CC0007930368244A934208D0B3F1804F1AD091
:1016DC00224A93422CD009B05DF804FB204B9A6946
:1016EC0042F004029A619B6903F004030193019B8D
:1016FC004FF48073049302230593079304A91948AC
:10170C0001F008FBE7E703F504339A6942F00402A1
:10171C009A619B6903F004030293029B01230493D7
:10172C0002230593079304A90E4801F0F3FAD2E7BC
:10173C000B4B9A6942F004029A619B6903F0040313
:10174C000393039B4023049302230593079304A95B
:10175C00044801F0DFFABEE7002C01400004004011
:10176C00001002400008014030B4036A23F001036A
:10177C000362026A4568836923F073030C681C4397
:10178C0022F002028B6813430B4A904206D045604C
:10179C0084614A684263036230BC704723F00803DB
:1017AC00CA681A4322F0040325F440754A692A4397
:1017BC008D691543EBE700BF002C014030B4036A80
:1017CC0023F480730362036A4468C26922F07302D3
:1017DC000D68154323F400738A6843EA02230D4A0B
:1017EC00904206D04460C5614A68C263036230BC53
:1017FC00704723F40063CA6843EA022323F480632E
:10180C0024F440544A6944EA02148A6944EA0214F2
:10181C00E8E700BF002C014030B4036A23F4805386
:10182C000362036A4468C26922F4E6420D6842EA24
:10183C00052223F400538D6843EA0533074DA84273
:10184C0006D04460C2614A680264036230BC7047CF
:10185C0024F480444D6944EA8514F2E7002C0140DD
:10186C0010B4036A046A24F001040462846924F04D
:10187C00F00C4CEA021223F00A030B438261036260
:10188C0010BC704710B4036A23F010030362846920
:10189C00036A24F4704C4CEA023223F0A00343EAAE
:1018AC0001138261036210BC7047836823F07003DC
:1018BC000B4343F0070383607047000090F83D3002
:1018CC00DBB2012B27D1022380F83D300268D368AC
:1018DC0043F00103D3600368114A934210D0B3F173
:1018EC00804F0DD0A2F59432934209D002F580625C
:1018FC00934205D01A6842F001021A60002070472A
:10190C009A6802F00702062A07D01A6842F0010210
:10191C001A6000207047012070470020704700BFFC
:10192C00002C0140704770477047704710B5446AEF
:10193C00636A83420ED0A36A834214D0E36A834263
:10194C001AD0236B834220D02046FEF79FFC002345
:10195C00237710BD012323778369002BF4D1012356
:10196C0084F83E30F0E7022323778369002BEBD118
:10197C00012384F83F30E7E7042323778369002BA6
:10198C00E2D1012384F84030DEE708232377836912
:10199C00002BD9D1012384F84130D5E7704710B51D
:1019AC00446A636A83420BD0A36A834210D0E36A11
:1019BC00834210D0236B834204D10823237701E0A8
:1019CC00012323772046FFF7E9FF0023237710BD7F
:1019DC0002232377F6E704232377F3E7704710B548
:1019EC00044603681A6912F0020F11D0DA6812F07B
:1019FC00020F0DD06FF002021A6101230377036806
:101A0C009B6913F0030F70D0FFF78FFF0023237730
:101A1C0023681A6912F0040F12D0DA6812F0040F5E
:101A2C000ED06FF004021A610223237723689B699E
:101A3C0013F4407F5FD02046FFF777FF0023237716
:101A4C0023681A6912F0080F12D0DA6812F0080F26
:101A5C000ED06FF008021A61042323772368DB6928
:101A6C0013F0030F4ED02046FFF75FFF00232377C0
:101A7C0023681A6912F0100F12D0DA6812F0100FE6
:101A8C000ED06FF010021A61082323772368DB69EC
:101A9C0013F4407F3DD02046FFF747FF0023237708
:101AAC0023681A6912F0010F03D0DA6812F0010FE3
:101ABC0036D123681A6912F0800F03D0DA6812F05D
:101ACC00800F34D123681A6912F0400F03D0DA6802
:101ADC0012F0400F32D123681A6912F0200F03D094
:101AEC00DA6812F0200F30D110BDFFF71DFF204631
:101AFC00FEF7CCFB8AE72046FFF716FF2046FEF7E1
:101B0C00C5FB9BE72046FFF70FFF2046FEF7BEFB09
:101B1C00ACE72046FFF708FF2046FEF7B7FBBDE712
:101B2C006FF001021A612046FEF7C8FBC1E76FF0A7
:101B3C0080021A61204600F095FDC3E76FF0400269
:101B4C001A612046FFF74AFFC5E76FF020021A61C1
:101B5C00204600F086FDC7E7704710B5446A636AFB
:101B6C0083420CD0A36A834213D0E36A834216D01B
:101B7C00236B834219D0012384F83D3003E0012309
:101B8C00237784F83E302046FFF7E6FF00232377C7
:101B9C0010BD02232377012384F83F30F3E704239D
:101BAC002377012384F84030EDE7082323770123C2
:101BBC0084F84130E7E7000003681B4A90420AD0E2
:101BCC00B0F1804F07D0A2F59432904203D002F5C9
:101BDC008062904203D123F070034A681343124A87
:101BEC0090420AD0B0F1804F07D0A2F594329042C7
:101BFC0003D002F58062904203D123F44073CA688B
:101C0C00134323F080034A69134303608B68C36258
:101C1C000B688362044B984202D0012343617047E6
:101C2C000B690363F9E700BF002C014040B310B50A
:101C3C00044690F83D30F3B1022384F83D30214640
:101C4C0051F8040BFFF7B8FF012384F8463084F8F1
:101C5C003E3084F83F3084F8403084F8413084F8CA
:101C6C00423084F8433084F8443084F8453084F8AA
:101C7C003D30002010BD80F83C30FFF79DFCDBE7C9
:101C8C000120704740B310B5044690F83D30F3B1D5
:101C9C00022384F83D30214651F8040BFFF78CFFEA
:101CAC00012384F8463084F83E3084F83F3084F8C1
:101CBC00403084F8413084F8423084F8433084F862
:101CCC00443084F8453084F83D30002010BD80F855
:101CDC003C30FFF727FEDBE70120704740B310B51F
:101CEC00044690F83D30F3B1022384F83D30214690
:101CFC0051F8040BFFF760FF012384F8463084F899
:101D0C003E3084F83F3084F8403084F8413084F819
:101D1C00423084F8433084F8443084F8453084F8F9
:101D2C003D30002010BD80F83C30FFF7FCFDDBE7B8
:101D3C000120704730B4036A23F010030362036A76
:101D4C004468826922F4E6420D6842EA052223F0D7
:101D5C0020038D6843EA05130C4DA84206D044605D
:101D6C0082614A688263036230BC704723F080034F
:101D7C00CD6843EA051323F0400324F440644D6915
:101D8C0044EA85048D6944EA8504E8E7002C0140A7
:101D9C0090F83C30012B22D010B50446012380F87A
:101DAC003C300C2A0BD8DFE802F0070A0A0A0E0AAC
:101DBC000A0A120A0A0A16000068FFF7D5FC00206E
:101DCC0084F83C0010BD0068FFF7B4FFF7E700682B
:101DDC00FFF7F4FCF3E70068FFF71EFDEFE70220C6
:101DEC00704738B590F83C30012B60D004460D4656
:101DFC00012380F83C300C2A1AD8DFE802F00719CE
:101E0C0019191D1919193119191944000068FFF70E
:101E1C00ABFC2268936943F00803936122689369D1
:101E2C0023F0040393612268936929690B4393613E
:101E3C00002084F83C0038BD0068FFF77BFF226867
:101E4C00936943F4006393612268936923F480637C
:101E5C00936122689369296943EA01239361E7E757
:101E6C000068FFF7ABFC2268D36943F00803D36129
:101E7C002268D36923F00403D3612268D3692969EA
:101E8C000B43D361D4E70068FFF7C6FC2268D36923
:101E9C0043F40063D3612268D36923F48063D36174
:101EAC002268D369296943EA0123D361C0E7022080
:101EBC00C1E710B4846824F47F4C42EA03220A433D
:101ECC0042EA0C02826010BC704790F83C30012B47
:101EDC0066D010B50446012380F83C30022380F80C
:101EEC003D300268936823F47F4323F077039360BB
:101EFC000B68602B40D01CD8402B47D00BD9502BF3
:101F0C0033D1CA6849680068FFF7AAFC50212068E1
:101F1C00FFF7CBFC29E0202B06D003D823B1102BE4
:101F2C0002D022E0302B20D119462068FFF7BDFCEF
:101F3C001BE0702B0ED0B3F5005F16D1CB684A684E
:101F4C0089680068FFF7B5FF2268936843F4804303
:101F5C0093600AE0CB684A6889680068FFF7A9FFBC
:101F6C002268936843F077039360012384F83D3033
:101F7C00002084F83C0010BDCA6849680068FFF76F
:101F8C0081FC60212068FFF790FCEEE7CA68496885
:101F9C000068FFF765FC40212068FFF786FCE4E74A
:101FAC000220704710B50468A26822F070024B68DA
:101FBC00134323F007030A681A43A2604B68602B93
:101FCC002CD00CD8402B14D0502B06D10A69896820
:101FDC000068FFF745FC00200AE0002008E0702BA9
:101FEC0023D10B698A68C9680068FFF762FF00207B
:101FFC0010BD0B68052B1AD003681C6A1A6A22F0F4
:10200C0001021A620268936923F0F003096943EA3A
:10201C000113936103681C620020E9E70A6989686F
:10202C000068FFF72FFC0020E2E70020E0E701202A
:10203C00DEE790F83C30012B22D010B5044601238A
:10204C0080F83C30022380F83D30FFF7ABFF80B9BD
:10205C002268D36823F04003D3602268D36823F44A
:10206C008043D360012384F83D30002384F83C3056
:10207C0010BD012084F83D00002384F83C30F7E7C4
:10208C000220704701F01F014FF0010C0CFA01FC0B
:10209C00036A23EA0C030362036A8A401343036254
:1020AC007047000010B50446084651BB94F83E300A
:1020BC00DBB2013B18BF0123002B5BD1002839D1C7
:1020CC00022384F83E30012201462068FFF7DAFF34
:1020DC0023682A4A93423DD02368284A93423ED033
:1020EC00B3F1804F3BD0A2F59432934237D002F536
:1020FC008062934233D01A6842F001021A600020C9
:10210C0039E0042908D008290DD094F84130DBB20D
:10211C00013B18BF0123CFE794F83F30DBB2013B02
:10212C0018BF0123C8E794F84030DBB2013B18BF5D
:10213C000123C1E7042805D0082807D0022384F81E
:10214C004130C0E7022384F83F30BCE7022384F817
:10215C004030B8E75A6C42F400425A64BCE79A68C3
:10216C0002F00702062A07D01A6842F001021A6030
:10217C00002000E0012010BD0020FCE7002C0140F5
:10218C0010B50446084651BB94F83E30DBB2013B17
:10219C0018BF0123002B5BD1002839D1022384F80E
:1021AC003E30012201462068FFF76CFF23682A4A63
:1021BC0093423DD02368284A93423ED0B3F1804FDE
:1021CC003BD0A2F59432934237D002F58062934211
:1021DC0033D01A6842F001021A60002039E0042959
:1021EC0008D008290DD094F84130DBB2013B18BF60
:1021FC000123CFE794F83F30DBB2013B18BF01233A
:10220C00C8E794F84030DBB2013B18BF0123C1E7AB
:10221C00042805D0082807D0022384F84130C0E7F1
:10222C00022384F83F30BCE7022384F84030B8E73F
:10223C005A6C42F400425A64BCE79A6802F00702F6
:10224C00062A07D01A6842F001021A60002000E04A
:10225C00012010BD0020FCE7002C014070B50446A5
:10226C0016460D46002955D190F83E00C0B2022802
:10227C0014BF00200120002840F00781002D65D1FB
:10228C0094F83E20D2B2012A14BF00220122002A67
:10229C0000F0FD80002E75D0002D77D1022284F83D
:1022AC003E20626A80499162626A8049D162626AA8
:1022BC007F4911637F4A3146606A00F091FE002825
:1022CC0040F0E7802268D36843F40073D3600122A6
:1022DC0029462068FFF7D6FE2368774A934200F020
:1022EC00C4802368744A934200F0C480B3F1804FD9
:1022FC0000F0C080A2F59432934200F0BB8002F54E
:10230C008062934200F0B6801A6842F001021A60B3
:10231C000020BDE0042909D008290FD090F8410015
:10232C00C0B2022814BF00200120A4E790F83F009F
:10233C00C0B2022814BF002001209CE790F8400096
:10234C00C0B2022814BF0020012094E7042D09D04C
:10235C00082D0FD094F84120D2B2012A14BF0022CC
:10236C00012294E794F83F20D2B2012A14BF002234
:10237C0001228CE794F84020D2B2012A14BF00222B
:10238C00012284E7002B87D0012081E0042D23D08B
:10239C00082D3BD0022284F841200C2D97D801A2A5
:1023AC0052F825F0AF220008DB220008DB220008DF
:1023BC00DB220008EB230008DB220008DB220008EC
:1023CC00DB2200081F240008DB220008DB220008A7
:1023DC00DB2200084B240008022284F83F20A26A6A
:1023EC0031499162A26A3149D162A26A30491163C2
:1023FC00226838323146A06A00F0F2FD00284AD13A
:10240C002268D36843F48063D36060E7022284F8C7
:10241C004020E26A24499162E26A2449D162E26A6C
:10242C0023491163254A3146E06A00F0D9FD0028A2
:10243C0033D12268D36843F40063D36047E7226B3F
:10244C0019499162226B1949D162226B18491163A7
:10245C00226840323146206B00F0C2FDF8B9226888
:10246C00D36843F48053D36031E75A6C42F4004292
:10247C005A6436E79A6802F00702062A11D01A68E5
:10248C0042F001021A60002002E0022000E001206C
:10249C0070BD0120FCE70120FAE70120F8E70120DC
:1024AC00F6E70020F4E700BF39190008AB19000863
:1024BC00671B00080C0C0140002C01401008014067
:1024CC0038B504460D460C2910D8DFE801F0070F8B
:1024DC000F0F2E0F0F0F370F0F0F40000268D3682E
:1024EC0023F40073D360406A00F0B4FD0022294647
:1024FC002068FFF7C7FD2368294A934230D0236830
:10250C00196A41F21112114208D1196A40F244427F
:10251C00114203D11A6822F001021A60002D2ED14B
:10252C00012384F83E30002038BD0268D36823F4C0
:10253C008063D360806A00F08DFDD7E70268D368B2
:10254C0023F40063D360C06A00F084FDCEE7026818
:10255C00D36823F48053D360006B00F07BFDC5E798
:10256C00196A41F211121142C9D1196A40F244425E
:10257C001142C4D15A6C22F400425A64BFE7042DB4
:10258C0005D0082D07D0012384F84130CBE7012377
:10259C0084F83F30C7E7012384F84030C3E700BF1D
:1025AC00002C014090F83C20012A2CD010B403469A
:1025BC00012280F83C20022280F83D2002685068FD
:1025CC00946820F0700C086840EA0C0050601A689F
:1025DC000E4882420AD0B2F1804F07D0A0F5943059
:1025EC00824203D000F58060824204D124F0800442
:1025FC00496821439160012283F83D20002083F833
:10260C003C0010BC70470220704700BF002C0140FA
:10261C00024690F83C30012B21D0012380F83C304D
:10262C00CB6823F440738868034323F480634868C1
:10263C00034323F400630868034323F480530869BD
:10264C00034323F400534869034323F48043C969CB
:10265C000B4311684B64002082F83C007047022049
:10266C00704770477047000010B504460E4B1A783F
:10267C004FF47A73B3FBF2F30C4A1068B0FBF3F02F
:10268C0000F03AFE68B90F2C01D901200AE00022B3
:10269C0021464FF0FF3000F011FE054B1C6000206E
:1026AC0000E0012010BD00BF000000200800002049
:1026BC000400002008B5074A136843F010031360A8
:1026CC00032000F0E9FD0F20FFF7CEFFFEF752FFCD
:1026DC00002008BD00200240034A1168034B1B7800
:1026EC000B441360704700BFE81D00200000002061
:1026FC00014B1868704700BFE81D002082B0084BE2
:10270C001B68084AA2FB03235B0A00FB03F301933B
:10271C0000BF019B5A1E0192002BF9D102B07047E9
:10272C0008000020D34D6210002800F0F18170B534
:10273C0082B00446036813F0010F2CD0994B5B68F0
:10274C0003F00C03042B1DD0964B5B6803F00C03B9
:10275C00082B12D06368B3F5803F41D0002B55D1C4
:10276C0003F1804303F504331A6822F480321A60B3
:10277C001A6822F480221A6037E08A4B5B6813F4E3
:10278C00803FE7D0874B1B6813F4003F03D063688E
:10279C00002B00F0BF81236813F0020F75D0814B22
:1027AC005B6813F00C0F5FD07E4B5B6803F00C037F
:1027BC00082B54D02369002B00F08A807A4B01221D
:1027CC001A60FFF795FF0546764B1B6813F0020F56
:1027DC0075D1FFF78DFF401B0228F5D903209EE130
:1027EC00704A136843F480331360636843B3FFF794
:1027FC007FFF05466B4B1B6813F4003FCBD1FFF7F3
:10280C0077FF401B6428F5D9032088E1B3F5A02F8E
:10281C0009D0644B1A6822F480321A601A6822F4C8
:10282C0080221A60E1E703F18043A3F53C331A6878
:10283C0042F480221A601A6842F480321A60D4E79B
:10284C00FFF756FF0546574B1B6813F4003FA2D009
:10285C00FFF74EFF401B6428F5D903205FE1514B75
:10286C005B6813F4803FA5D14E4B1B6813F0020F2D
:10287C0003D02369012B40F04F814A4A136823F09F
:10288C00F803616943EAC1031360236813F0080F6E
:10289C0033D0A369002B5CD0434B0122C3F88024B6
:1028AC00FFF726FF05463F4B5B6A13F0020F21D161
:1028BC00FFF71EFF401B0228F5D903202FE1394AF0
:1028CC00136823F0F803616943EAC1031360DCE782
:1028DC00354B00221A60FFF70BFF0546314B1B6886
:1028EC0013F0020FD1D0FFF703FF401B0228F5D9DC
:1028FC00032014E10120FFF701FF236813F0040FFC
:10290C0000F09680274BDB6913F0805F34D1254BA8
:10291C00DA6942F08052DA61DB6903F0805301938B
:10292C00019B0125214B1B6813F4807F26D0E368A3
:10293C00012B3DD0002B53D103F1804303F504331D
:10294C001A6A22F001021A621A6A22F004021A624E
:10295C0033E0154B0022C3F88024FFF7C9FE05466F
:10296C00104B5B6A13F0020FC7D0FFF7C1FE401B80
:10297C000228F5D90320D2E00025D3E70B4A1368CF
:10298C0043F480731360FFF7B3FE0646074B1B68D6
:10299C0013F4807FCBD1FFF7ABFE801B6428F5D9F5
:1029AC000320BCE0001002400000424200700040D6
:1029BC005F4A136A43F001031362E36833B3FFF712
:1029CC0097FE06465A4B1B6A13F0020F2FD1FFF7E6
:1029DC008FFE801B41F288339842F3D903209EE08E
:1029EC00052B09D0524B1A6A22F001021A621A6A9C
:1029FC0022F004021A62E0E74D4B1A6A42F004021C
:102A0C001A621A6A42F001021A62D6E7FFF770FEE8
:102A1C000646474B1B6A13F0020F08D0FFF768FEFF
:102A2C00801B41F288339842F3D9032077E0E5B953
:102A3C00E369002B72D03E4A526802F00C02082A5D
:102A4C0056D0022B17D03B4B00221A66FFF750FED4
:102A5C000446374B1B6813F0007F47D0FFF748FE46
:102A6C00001B0228F5D9032059E0314AD36923F021
:102A7C008053D361DCE72F4B00221A66FFF738FE38
:102A8C0005462B4B1B6813F0007F06D0FFF730FE7A
:102A9C00401B0228F5D9032041E0236AB3F5803F9F
:102AAC001AD023494B6823F47413226A606A0243D8
:102ABC0013434B601F4B01221A66FFF719FE0446A5
:102ACC001B4B1B6813F0007F0ED1FFF711FE001B90
:102ADC000228F5D9032022E0154A536823F4003369
:102AEC00A1680B435360DCE7002018E0002016E0DF
:102AFC00012B16D00E4B5B6803F48031226A914295
:102B0C0011D103F47013626A93420ED1002006E0D7
:102B1C0001207047012002E0012000E0002002B0FB
:102B2C0070BD0120FBE70120F9E70120F7E700BFAA
:102B3C00001002400000424286B0174B0FCB0DF143
:102B4C00180C0CE90F0040F20123ADF80430134BC4
:102B5C005B6803F00C02082A02D0114806B07047DB
:102B6C00C3F3834218326A4412F8100C13F4803FFA
:102B7C000DD00A4B5B68C3F3404318336B4413F816
:102B8C00143C074A02FB00F0B0FBF3F0E6E7054B00
:102B9C0003FB00F0E2E700BF1C3400080010024009
:102BAC0000127A0000093D00002800F0A08070B5EA
:102BBC000D460446524B1B6803F007038B420BD2A5
:102BCC004F4A136823F007030B431360136803F099
:102BDC0007038B4240F08D80236813F0020F17D04F
:102BEC0013F0040F04D0474A536843F4E063536076
:102BFC00236813F0080F04D0424A536843F460531F
:102C0C005360404A536823F0F003A1680B435360B0
:102C1C00236813F0010F31D06368012B20D0022BF5
:102C2C0025D0384A126812F0020F64D035494A6830
:102C3C0022F0030213434B60FFF75AFD0646314B5B
:102C4C005B6803F00C036268B3EB820F16D0FFF7DE
:102C5C004FFD801B41F288339842F0D9032045E0A8
:102C6C00284A126812F4003FE0D101203EE0254AC8
:102C7C00126812F0007FD9D1012037E0204B1B687D
:102C8C0003F00703AB420AD91D4A136823F007036C
:102C9C002B431360136803F00703AB422DD1236859
:102CAC0013F0040F06D0174A536823F4E063E1686D
:102CBC000B435360236813F0080F07D0114A536875
:102CCC0023F46053216943EAC1035360FFF734FFD7
:102CDC000C4B5B68C3F303130B4AD35CD8400B4B10
:102CEC0018600B4B1868FFF7BFFC002070BD01206B
:102CFC0070470120FAE70120F8E70120F6E700BF52
:102D0C00002002400010024030340008080000206F
:102D1C000400002070B582B00024A446A1E07E4DD2
:102D2C00AB4214D00CD8A5F58015AB420FD005F5ED
:102D3C007025AB420BD0A5F58015AB4210D106E047
:102D4C00764DAB4203D005F58035AB4208D18B688C
:102D5C00002B50D0012B49D04261082400E0CC68F4
:102D6C00BEF1FF0F49D806464FEA8C0233680F2597
:102D7C00954023EA050304FA02F2134333604B68CF
:102D8C0013F0805F6BD0664B9A6942F001029A6136
:102D9C009B6903F001030193019B4FEA9C02951C74
:102DAC00604B53F825600CF00305AD000F23AB40CE
:102DBC0026EA03065C4B984226D003F580639842C2
:102DCC0000F08C8003F58063984200F0898003F555
:102DDC008063984216D0042317E0CC680434BFE714
:102DEC00CC680834BCE7CC680C34B9E70261082421
:102DFC00B6E70024B4E70424B2E7061DACF10802E0
:102E0C009200B3E7032300E00023AB4033430232CC
:102E1C00444D45F822304B6813F4803F62D0434A4E
:102E2C00136843EA0E0313604B6813F4003F5FD042
:102E3C003E4A536843EA0E0353604B6813F4801FF9
:102E4C005CD03A4A936843EA0E0393604B6813F4E0
:102E5C00001F59D0354AD36843EA0E03D3600CF1F6
:102E6C00010C0B6833FA0CF254D0012202FA0CF26A
:102E7C0003EA020E32EA0303F1D14B68122B3FF640
:102E8C004EAF122B3FF66CAF01A555F823F000BFE7
:102E9C005B2D00086B2D0008ED2D0008FF2D0008A0
:102EAC006D2D00086D2D00086D2D00086D2D00088E
:102EBC006D2D00086D2D00086D2D00086D2D00087E
:102ECC006D2D00086D2D00086D2D00086D2D00086E
:102EDC006D2D0008E72D0008F32D0008012394E761
:102EEC00022392E7114A136823EA0E0313609BE74F
:102EFC000E4A536823EA0E0353609EE70B4A93680D
:102F0C0023EA0E039360A1E7084AD36823EA0E0371
:102F1C00D360A4E702B070BD000022100000311095
:102F2C000010024000000140000801400004014074
:102F3C008368194201D001207047002070470AB104
:102F4C000161704709040161704730B40124056CBC
:102F5C00AC40C56B6C60046863604368102B05D093
:102F6C00036899600368DA6030BC704703689A6044
:102F7C000368D960F8E7000050B310B4024601684A
:102F8C00144B0B441448A0FB03031B099B00136454
:102F9C00124BD363022382F8213008686FF30D10B3
:102FAC00536894682343D4682343146923435469B6
:102FBC00234394692343D469234303430B600020C8
:102FCC009063012382F8213082F8200010BC7047F6
:102FDC0001207047F8FFFDBFCDCCCCCC00000240E7
:102FEC0038B5044690F82000012831D0012084F82F
:102FFC00200094F82100012804D0002384F820300C
:10300C00022038BD022084F821000020A06325682E
:10301C00286820F0010028602046FFF796FFE36A3D
:10302C005BB12268136843F00E03136022681368C7
:10303C0043F0010313600020E3E72268136823F0D8
:10304C00040313602268136843F00A031360EDE76E
:10305C000220D6E708B590F82130022B03D00423C8
:10306C008363012008BD0268136823F00E0313600C
:10307C000268136823F0010313600368194A934232
:10308C0014D0143293421FD0143293421ED01432F7
:10309C0093421ED0143293421ED01432934202D06B
:1030AC004FF0807203E04FF4801200E001220E4BCF
:1030BC005A60012380F82130002380F82030436BC4
:1030CC006BB198470020CDE71022F0E74FF48072E7
:1030DC00EDE74FF48052EAE74FF48032E7E7002047
:1030EC00C0E700BF080002400000024038B5C36BC7
:1030FC001A6804682568016C04238B40134235D090
:10310C0015F0040F32D0236813F0200F03D123687D
:10311C0023F0040323600368434A934214D014320F
:10312C00934218D01432934217D01432934217D0D2
:10313C001432934217D01432934202D04FF0806273
:10314C0003E04FF4800200E00422384B5A60C36A5B
:10315C0003B1984738BD4022F7E74FF48062F4E79B
:10316C004FF48042F1E74FF48022EEE702238B40CC
:10317C0013423CD015F0020F39D0236813F0200F06
:10318C0006D1236823F00A032360012380F8213041
:10319C000368254A934214D0143293421CD0143243
:1031AC0093421BD0143293421BD0143293421BD047
:1031BC001432934202D04FF0007203E04FF400122D
:1031CC0000E00222194B5A60002380F82030836AF9
:1031DC00002BBFD09847BDE72022F3E74FF40072D5
:1031EC00F0E74FF40052EDE74FF40032EAE7082322
:1031FC008B401342AED015F0080FABD0236823F0F0
:10320C000E032360026CC16B012303FA02F24A60C5
:10321C00836380F82130002380F82030036B002B6F
:10322C0098D0984796E700BF080002400000024083
:10323C00002808DB0901C9B200F1604000F56140CB
:10324C0080F80013704700F00F000901C9B2014B60
:10325C001954704714ED00E000B500F00700C0F100
:10326C00070CBCF1040F28BF4FF0040C031D062BF8
:10327C000FD9C31E4FF0FF3E0EFA0CF021EA0001ED
:10328C0099400EFA03FE22EA0E0241EA02005DF8B2
:10329C0004FB0023EEE70000074AD36823F4E06345
:1032AC001B041B0C000200F4E060034343F0BF63FB
:1032BC0043F40033D360704700ED00E010B50446D2
:1032CC00054BD868C0F30220FFF7C6FF0146204625
:1032DC00FFF7AEFF10BD00BF00ED00E0002807DBDC
:1032EC0000F01F02400901239340024A42F82030AB
:1032FC00704700BF00E100E00138B0F1807F0BD2D5
:10330C004FF0E0235861054AF02182F82310002089
:10331C00986107221A6170470120704700ED00E0A8
:10332C00704700000C480D490D4A002302E0D458A8
:10333C00C4500433C4188C42F9D30A4A0A4C0023F3
:10334C0001E013600432A242FBD3FFF7E9FF00F067
:10335C000FF8FDF78BFE7047000000200C000020DA
:10336C00483400080C000020EC1D0020FEE7000093
:10337C0070B500260C4D0D4C641BA410A64209D14F
:10338C0000F022F800260A4D0A4C641BA410A64239
:10339C0005D170BD55F8043B98470136EEE755F85A
:1033AC00043B98470136F2E74034000840340008EB
:1033BC00403400084434000803460244934200D1D0
:1033CC00704703F8011BF9E7F8B500BFF8BC08BC5F
:1033DC009E467047F8B500BFF8BC08BC9E467047C7
:1033EC0000000000040000000000000004000000C9
:1033FC005000000054000000500000005400000079
:10340C00A0000000A4000000A0000000A400000028
:10341C0002030405060708090A0B0C0D0E0F101009
:10342C000000000000000000000000000102030486
:04343C00060708096E
:04344000750100080A
:043444004D0100082E
:0C34480001000000100000000024F4004F
:04000005080033318B
:00000001FF
