:100000000C9462000C948A000C948A000C948A0070
:100010000C948A000C948A000C948A000C948A0038
:100020000C948A000C948A000C948A000C948A0028
:100030000C948A000C948A000C948A000C948A0018
:100040000C9414030C948A000C9484030C945E03A7
:100050000C948A000C948A000C948A000C948A00F8
:100060000C948A000C948A000000000024002700F1
:100070002A0000000000250028002B0000000000DE
:1000800023002600290004040404040404040202DA
:100090000202020203030303030301020408102007
:1000A0004080010204081020010204081020000012
:1000B0000008000201000003040700000000000027
:1000C0000000990611241FBECFEFD8E0DEBFCDBFE0
:1000D00011E0A0E0B1E0ECE9FDE002C005900D9276
:1000E000A631B107D9F721E0A6E1B1E001C01D9228
:1000F000A93FB207E1F710E0C2E6D0E004C02197C3
:10010000FE010E94C606C136D107C9F70E94B60398
:100110000C94CC060C940000833081F028F48130DC
:1001200099F08230A9F008958730A9F08830C9F09D
:100130008430B1F4809180008F7D03C08091800075
:100140008F7780938000089584B58F7784BD08955C
:1001500084B58F7DFBCF8091B0008F778093B00006
:1001600008958091B0008F7DF9CFCF93DF93282F32
:1001700030E0F901E255FF4F8491F901E656FF4F57
:10018000D491F901EA57FF4FC491CC23A1F081111A
:100190000E948C00EC2FF0E0EE0FFF1FE458FF4FA1
:1001A000A591B491EC91ED2381E090E009F480E019
:1001B000DF91CF91089580E090E0FACF1F93CF9325
:1001C000DF93282F30E0F901E255FF4F8491F901C8
:1001D000E656FF4FD491F901EA57FF4FC491CC2363
:1001E000A9F0162F81110E948C00EC2FF0E0EE0F89
:1001F000FF1FEE58FF4FA591B4918FB7F894EC9183
:10020000111108C0D095DE23DC938FBFDF91CF9111
:100210001F910895DE2BF8CF8F929F92AF92BF92DD
:10022000CF92DF92EF92FF920F931F93CF93DF93C2
:10023000CDB7DEB728970FB6F894DEBF0FBECDBF9F
:100240008FEEE82E81E0F82E97E5C92ED12C2BE118
:10025000A22E23E0B22EF70141917F0150E08E01E2
:100260000F5F1F4FF80190E080E09A01082E02C056
:10027000359527950A94E2F72170219301968830ED
:10028000910599F760E087E00E94DE00C6010197C2
:10029000F1F74801F8E08F0E911CF80161918F0190
:1002A00087E00E94DE00C6010197F1F780169106F3
:1002B000A1F761E087E00E94DE00C5010197F1F738
:1002C000F4EFEF16F1E0FF0609F0C5CF28960FB660
:1002D000F894DEBF0FBECDBFDF91CF911F910F917C
:1002E000FF90EF90DF90CF90BF90AF909F908F9056
:1002F0000895CF93DF9390E0FC01E656FF4F2491E1
:100300008A579F4FFC0184918823D1F090E0880F99
:10031000991FFC01E859FF4FA591B491FC01EE58DB
:10032000FF4FC591D49161110EC09FB7F8948C9185
:10033000E22FE0958E238C932881E223E8839FBFF0
:10034000DF91CF9108958FB7F894EC91E22BEC9365
:100350008FBFF6CF2FB7F8946091EB017091EC014D
:100360008091ED019091EE012FBF0895AF92BF9261
:10037000CF92DF92EF92FF920F931F93CF93DF9371
:100380006C017B018B01040F151FEB015E01AE18A0
:10039000BF08C017D10759F06991D601ED91FC91C2
:1003A0000190F081E02DC6010995892B79F7C501EF
:1003B000DF91CF911F910F91FF90EF90DF90CF9041
:1003C000BF90AF900895FC01538D448D252F30E0F0
:1003D000842F90E0821B930B541710F0CF96089552
:1003E00001970895FC01918D828D981761F0A28D7F
:1003F000AE0FBF2FB11D5D968C91928D9F5F9F7345
:10040000928F90E008958FEF9FEF0895FC01918DFA
:10041000828D981731F0828DE80FF11D858D90E067
:1004200008958FEF9FEF0895FC01918D228D892F04
:1004300090E0805C9F4F821B91098F7399270895EC
:1004400084E491E00E94140221E0892B09F420E069
:10045000822F089580E090E0892B29F00E942002ED
:1004600081110C9400000895FC01A48DA80FB92FF0
:10047000B11DA35ABF4F2C91848D90E001968F73CC
:100480009927848FA689B7892C93A089B1898C91EB
:10049000837080648C93938D848D981306C002883A
:1004A000F389E02D80818F7D80830895EF92FF9204
:1004B0000F931F93CF93DF93EC0181E0888F9B8D87
:1004C0008C8D98131AC0E889F989808185FF15C041
:1004D0009FB7F894EE89FF896083E889F989808164
:1004E0008370806480839FBF81E090E0DF91CF9133
:1004F0001F910F91FF90EF900895F62E0B8D10E055
:100500000F5F1F4F0F731127E02E8C8D8E110CC0C3
:100510000FB607FCFACFE889F989808185FFF5CF0E
:10052000CE010E943402F1CFEB8DEC0FFD2FF11DB7
:10053000E35AFF4FF0829FB7F8940B8FEA89FB894B
:1005400080818062CFCFCF93DF93EC01888D8823A9
:10055000B9F0AA89BB89E889F9898C9185FD03C026
:10056000808186FD0DC00FB607FCF7CF8C9185FF0B
:10057000F2CF808185FFEDCFCE010E943402E9CF1A
:10058000DF91CF910895EFEEF1E08FEF80838183CB
:100590001282138214820C940C01209117012111F4
:1005A00005C08093160121E0209317012FEF2093BF
:1005B000EF012093F0012091240130912501213099
:1005C000310571F4672B11F488519C4F8093F10130
:1005D0009093F201890F81958093F3010C940C01A3
:1005E00020910001309101012617370711F0809307
:1005F00016012091160130E0281B390B6115710599
:1006000041F488519C4F2830310530F481ED97E05A
:1006100003C02830310528F0709301016093000178
:10062000D5CF80ED97E0F8CF1F920F920FB60F92C3
:1006300011242F933F938F939F93AF93BF938091F8
:10064000EB019091EC01A091ED01B091EE013091A0
:10065000EA0123E0230F2D3758F50196A11DB11DA6
:100660002093EA018093EB019093EC01A093ED01BC
:10067000B093EE018091E6019091E701A091E8012D
:10068000B091E9010196A11DB11D8093E6019093FF
:10069000E701A093E801B093E901BF91AF919F9169
:1006A0008F913F912F910F900FBE0F901F90189533
:1006B00026E8230F0296A11DB11DD2CF1F920F92E3
:1006C0000FB60F9211242F933F934F935F936F9325
:1006D0007F938F939F93AF93BF93EF93FF9384E4A4
:1006E00091E00E943402FF91EF91BF91AF919F91F1
:1006F0008F917F916F915F914F913F912F910F90CB
:100700000FBE0F901F9018951F920F920FB60F9269
:1007100011242F938F939F93EF93FF93E0915401B4
:10072000F09155018081E0915A01F0915B0182FDC9
:100730001BC0908180915D018F5F8F7320915E015E
:10074000821741F0E0915D01F0E0EC5BFE4F958F88
:1007500080935D01FF91EF919F918F912F910F9069
:100760000FBE0F901F9018958081F4CF789484B5B8
:10077000826084BD84B5816084BD85B5826085BD9D
:1007800085B5816085BD80916E00816080936E002B
:10079000109281008091810082608093810080911D
:1007A00081008160809381008091800081608093CE
:1007B00080008091B10084608093B1008091B0008E
:1007C00081608093B00080917A00846080937A0089
:1007D00080917A00826080937A0080917A008160B3
:1007E00080937A0080917A00806880937A001092DA
:1007F000C10061E082E00E94DE0061E083E00E94CF
:10080000DE0061E084E00E94DE0061E085E00E949D
:10081000DE0061E086E00E94DE0061E08EE00E9482
:10082000DE0061E08FE00E94DE0061E080E10E9476
:10083000DE0061E081E10E94DE0061E083E10E9470
:10084000DE0061E082E00E94790161E083E00E94C5
:10085000790161E084E00E94790161E085E00E9415
:10086000790161E086E00E94790160E08EE00E94FB
:10087000790160E08FE00E94790160E080E10E94F0
:10088000790160E081E10E94790160E083E10E94EA
:10089000790161E087E00E947901E0915401F091D3
:1008A000550182E08083E0915001F0915101108266
:1008B000E0915201F091530180E1808310925C013C
:1008C000E0915801F091590186E08083E091560152
:1008D000F0915701808180618083E0915601F09111
:1008E0005701808188608083E0915601F091570123
:1008F000808180688083E0915601F091570180816A
:100900008F7D80838EE00E94B500C0912301892BEA
:1009100009F4C1608FE00E94B500892B09F4C26020
:10092000C093230181E10E94B500892B09F074C0B6
:1009300081E090E090932501809324010E94AA0118
:100940006093E2017093E3018093E4019093E501E9
:1009500008E211E06CE1C62E7FE3E72E71E0F72E8E
:10096000C0E0D0E0DD24D3940E94AA01643F71402E
:100970008105910508F055C00E94AA016455724F87
:100980008F4F9F4F6093E2017093E3018093E401E6
:100990009093E501D092E10184E491E00E94140279
:1009A000892B09F419C1F8012C2D11922A95E9F728
:1009B000109227010E94AA014B015C0135E0830ED1
:1009C000911CA11CB11C0E94AA01681579058A0519
:1009D0009B0578F584E491E00E941402892B99F339
:1009E000B090270189E18B15F8F084E491E00E9432
:1009F000F20191E09B0D90932701EB2DF0E0E85D73
:100A0000FE4F80830E94AA014B015C01EAE08E0E3A
:100A1000911CA11CB11CD7CF10922501109224016A
:100A20008DCF1092E101B8CF84E491E00E94F201F1
:100A3000E9CF84E491E00E94A302809128018F3FD6
:100A400009F0CAC0809129018F3F09F0C5C080918B
:100A50002701883109F0C0C0EAE2F1E080E091911D
:100A6000890FEE16FF06D9F78111B6C00E94AA01C0
:100A70006053784F8F4F9F4F6093E2017093E30173
:100A80008093E4019093E50180912A01811158C07F
:100A9000D092260180913D01811155C0D092020172
:100AA00020912401309125012115310509F0DCC088
:100AB000E0912301AE2FA695B0E0A85DBE4F12963F
:100AC0003C91832F90E0E0FF41C044E095958795ED
:100AD0004A95E1F7282F2370932E9294969496943A
:100AE00053E09522F0E0EE0FFF1FE35DFE4FA08084
:100AF000B180B0922201A0922101223089F12330ED
:100B0000E1F1213009F04FC060E082E00E94DE0098
:100B100061E083E00E94DE0061E084E00E94DE008C
:100B20008091020161E070E0811139C00E94C3022E
:100B300031E0931619F083E098124AC060E049C092
:100B400010922601A7CF10920201AACF232F237063
:100B50009595879595958795F82FF3709F2EC2CF21
:100B600061E082E00E94DE0060E083E00E94DE003F
:100B700061E084E00E94DE00D9CF61E082E00E9463
:100B8000DE0061E083E00E94DE0060E084E00E941D
:100B9000DE0080910201882349F270E060E0C50127
:100BA0000E94CD02C5CF0E94C30261E0A114B1042E
:100BB00021F0AA94AB2861F460E083E00E94DE009B
:100BC00061E084E00E94DE0061E082E00E94DE00DD
:100BD00061E085E00E94DE000E94AA018090E201AF
:100BE0009090E301A090E401B090E501861697068D
:100BF000A806B90670F50E94AA0164527A4F8F4F79
:100C00009F4F6093E2017093E3018093E40190931E
:100C1000E50161E082E00E94DE0061E084E00E9484
:100C2000DE0061E083E00E94DE0061E085E00E947A
:100C3000DE0061E086E00E94DE000E94C30286E0E2
:100C40000E94B50061E0892B09F060E086E00E9417
:100C5000DE00209709F488CE0E942002882309F440
:100C600083CE0E94000080CE2130310509F0B4CF40
:100C700080912C01982F907F09F5E091230190E05D
:100C80000E2E02C0959587950A94E2F780FF1FC04B
:100C90003093200120931F01F0E0EE0FFF1FEB5C6B
:100CA000FE4FA080B180B0922201A09221018091DC
:100CB0002601882389F060E0AB2809F461E082E036
:100CC0000E94DE0061E084E00E94DE001AC0109203
:100CD000200110921F01E0CF80911F01909120010F
:100CE0008130910589F461E082E00E94DE0060E0DD
:100CF00084E00E94DE008091020170E060E08111DA
:100D000014C00E94C30268CF892B09F065CF60E050
:100D100082E00E94DE0061E084E00E94DE008091BB
:100D20000201882371F361E070E0C5010E94CD02E9
:100D300053CFE4E4F1E01382128288EE93E0A0E066
:100D4000B0E084839583A683B78387E091E09183A5
:100D5000808385EC90E09587848784EC90E097878A
:100D6000868780EC90E0918B808B81EC90E0938B78
:100D7000828B82EC90E0958B848B86EC90E0978B55
:100D8000868B118E128E138E148E0895EE0FFF1F18
:0C0D90000590F491E02D0994F894FFCF39
:100D9C00010001000000005602B601E301A3021499
:060DAC0002F20106020044
:00000001FF
