:100000000C9468000C9490000C9490000C94900058
:100010000C9490000C9490000C9490000C94900020
:100020000C9490000C9490000C9490000C94900010
:100030000C9490000C9490000C9490000C94900000
:100040000C94C6050C9490000C9436060C94100683
:100050000C9490000C9490000C9490000C949000E0
:100060000C9490000C9490000A0B0C0D0E0F0001E4
:100070000203040500000000240027002A000000FD
:100080000000250028002B000000000023002600AF
:10009000290004040404040404040202020202020B
:1000A000030303030303010204081020408001023C
:1000B00004081020010204081020000000080002BB
:1000C00001000003040700000000000000006806B3
:1000D00011241FBECFEFD8E0DEBFCDBF22E0ACE1E0
:1000E000B1E001C01D92AF31B207E1F711E0A0E02D
:1000F000B1E0EEECF2E102C005900D92AC31B10737
:10010000D9F710E0C8E6D0E004C02197FE010E94B4
:100110005609C736D107C9F70E94B7060C9465097E
:100120000C940000833081F028F4813099F0823003
:10013000A9F008958730A9F08830C9F08430B1F46F
:10014000809180008F7D03C0809180008F778093A5
:100150008000089584B58F7784BD089584B58F7D20
:10016000FBCF8091B0008F778093B000089580918D
:10017000B0008F7DF9CFCF93DF93282F30E0F901C6
:10018000E654FF4F8491F901EA55FF4FD491F901EC
:10019000EE56FF4FC491CC23A1F081110E94920032
:1001A000EC2FF0E0EE0FFF1FE857FF4FA591B49141
:1001B000EC91ED2381E090E009F480E0DF91CF91B4
:1001C000089580E090E0FACF1F93CF93DF93282F1C
:1001D00030E0F901E654FF4F8491F901EA55FF4FF1
:1001E000D491F901EE56FF4FC491CC23A9F0162FFC
:1001F00081110E949200EC2FF0E0EE0FFF1FE258F9
:10020000FF4FA591B4918FB7F894EC91111108C0EC
:10021000D095DE23DC938FBFDF91CF911F9108959E
:10022000DE2BF8CF682F809104020E94E4008091B9
:100230001B0290911C028230910538F0880F991FA3
:10024000880F991F05970197F1F7089581E00C94A5
:1002500012018F929F92AF92BF92CF92DF92EF9254
:10026000FF920F931F93CF93DF93CDB7DEB72897FD
:100270000FB6F894DEBF0FBECDBF89E5E82E81E052
:10028000F82E9BE3C92E93E0D92E2BECA22E27E06B
:10029000B22EF70141917F0150E08E010F5F1F4F99
:1002A000F80190E080E09A01082E02C0359527956C
:1002B0000A94E2F72170219301968830910599F70D
:1002C00060E087E00E94E400C6010197F1F7480171
:1002D000F8E08F0E911CF80161918F0187E00E9478
:1002E000E400C6010197F1F780169106A1F761E0DD
:1002F00087E00E94E400C5010197F1F7FEE5EF16E3
:10030000F1E0FF0609F0C5CF28960FB6F894DEBFDE
:100310000FBECDBFDF91CF911F910F91FF90EF9056
:10032000DF90CF90BF90AF909F908F900895CF9324
:10033000DF9390E0FC01EA55FF4F24918E569F4FCA
:10034000FC0184918823D1F090E0880F991FFC0173
:10035000EC58FF4FA591B491FC01E258FF4FC591B5
:10036000D49161110EC09FB7F8948C91E22FE09563
:100370008E238C932881E223E8839FBFDF91CF9166
:1003800008958FB7F894EC91E22BEC938FBFF6CFE2
:100390003FB7F8948091550190915601A091570173
:1003A000B091580126B5A89B05C02F3F19F00196C2
:1003B000A11DB11D3FBFBA2FA92F982F8827BC01BF
:1003C000CD01620F711D811D911D42E0660F771FE7
:1003D000881F991F4A95D1F708952FB7F894609117
:1003E00051017091520180915301909154012FBF9E
:1003F0000895AF92BF92CF92DF92EF92FF920F9348
:100400001F93CF93DF936C017B018B01040F151FAA
:10041000EB015E01AE18BF08C017D10759F0699112
:10042000D601ED91FC910190F081E02DC601099576
:10043000892B79F7C501DF91CF911F910F91FF9023
:10044000EF90DF90CF90BF90AF900895FC01538D57
:10045000448D252F30E0842F90E0821B930B54179E
:1004600010F0CF96089501970895FC01918D828D2B
:10047000981761F0A28DAE0FBF2FB11D5D968C91C4
:10048000928D9F5F9F73928F90E008958FEF9FEF03
:100490000895FC01918D828D981731F0828DE80FBF
:1004A000F11D858D90E008958FEF9FEF0895FC0179
:1004B000918D228D892F90E0805C9F4F821B910946
:1004C0008F739927089583E691E00E94570221E0F7
:1004D000892B09F420E0822F089580E090E0892B99
:1004E00029F00E94630281110C9400000895FC0120
:1004F000A48DA80FB92FB11DA35ABF4F2C91848D85
:1005000090E001968F739927848FA689B7892C93E1
:10051000A089B1898C91837080648C93938D848D34
:10052000981306C00288F389E02D80818F7D808337
:100530000895EF92FF920F931F93CF93DF93EC01F7
:1005400081E0888F9B8D8C8D98131AC0E889F9897A
:10055000808185FF15C09FB7F894EE89FF8960837D
:10056000E889F98980818370806480839FBF81E0FE
:1005700090E0DF91CF911F910F91FF90EF90089540
:10058000F62E0B8D10E00F5F1F4F0F731127E02E1B
:100590008C8D8E110CC00FB607FCFACFE889F98953
:1005A000808185FFF5CFCE010E947702F1CFEB8DE0
:1005B000EC0FFD2FF11DE35AFF4FF0829FB7F89427
:1005C0000B8FEA89FB8980818062CFCFCF93DF9345
:1005D000EC01888D8823B9F0AA89BB89E889F9895B
:1005E0008C9185FD03C0808186FD0DC00FB607FC90
:1005F000F7CF8C9185FFF2CF808185FFEDCFCE01C3
:100600000E947702E9CFDF91CF9108958EBD00005F
:100610000DB407FEFDCF8EB50895E9E5F1E08FEF4B
:10062000808381831282138214820C942901209189
:100630001E01211105C080931D0121E020931E01A0
:100640002FEF2093590120935A0120912B013091D3
:100650002C012130310571F4672B11F488519C4F26
:1006600080935B0190935C01890F819580935D017C
:100670000C942901209100013091010126173707C0
:1006800011F080931D0120911D0130E0281B390BD2
:100690006115710541F488519C4F2830310530F4C3
:1006A00081ED97E003C02830310528F070930101F7
:1006B00060930001D5CF80ED97E0F8CF0F931F93A3
:1006C0000091050210910602209107023091080264
:1006D00040E052E16AE770E080E004171507260762
:1006E000370740F476956795579547958F5F863025
:1006F000A1F787E0982F906A9695809581709CBDB0
:100700008DBD80E01F910F910C941201CF93DF9368
:10071000D82FC62F0E945E038D2F80620E94060391
:10072000809309028C2F0E940603DF91CF910C94D5
:1007300026016091100261FD0AC0626060931002A0
:1007400080E00E9486038BE19EE40197F1F7089513
:10075000CF93C82F0E945E038C2F0E9406038093C4
:1007600009028FEF0E940603C82F0E9426018C2FDA
:10077000CF910895CF9386E00E94A803C82FC77D2C
:1007800085E590E0A0E0B0E0809317029093180216
:10079000A0931902B0931A026C2F86E00E94860380
:1007A00086E00E94A80391E0C81390E0892FCF91C2
:1007B0000895FF920F931F93CF93DF93C82FF62EC8
:1007C000072F142F0E945E038C2F80620E94060365
:1007D00080930902CF2DD02F115020F089910E94D3
:1007E0000603FACFDF91CF911F910F91FF900C94E8
:1007F0002601CF93C82F0E945E038C2F0E94060310
:1008000080930902CF910C9426010E945E0380E53B
:100810000E9406038093090283E70E9406030C945A
:1008200026018F929F92AF92BF92CF92DF92EF926A
:10083000FF921F93CF93DF9360E082E10E949701C4
:1008400060E08AE00E94970180E092E090930202CB
:100850008093010282E1809303028AE08093040284
:1008600080E896E9A8E9B0E080930502909306023B
:10087000A0930702B093080280E280930A021092CC
:100880000B02109211021092120285E08093140262
:1008900081E08093150285E090E0A0E0B0E08093D5
:1008A0001B0290931C02A0931D02B0931E02CFB7AF
:1008B000F89480911C01811127C0ECE9F0E084914B
:1008C000E0EBF0E09491E82FF0E0EE0FFF1FEC5822
:1008D000FF4FA591B491EC91E92321F461E08AE006
:1008E0000E94E40061E08AE00E9497018CB580617B
:1008F0008CBD8CB580648CBD61E08DE00E94970159
:1009000061E08BE00E94970180911C018F5F8093D2
:100910001C01CFBF809103028F3F09F498C09091D2
:1009200004029F3F09F493C0891741F061E00E94DF
:10093000970161E0809104020E9497018091030277
:1009400090910402891719F060E00E94E40081E0B0
:100950000E9412010E94C8014B015C0185E0C82E73
:10096000D12CE12CF12C0E94C801681979098A095F
:100970009B09683E734081059105A8F321E0C21AE6
:10098000D108E108F10888EE880E83E0981EA11CCA
:10099000B11CC114D104E104F10429F76FE584E02E
:1009A0000E9486030E94BA038DE10E94A803C82F0B
:1009B0000E9405048DE10E94A80391E0C81390E015
:1009C00090931102882341F0C81302C00E940504CD
:1009D00060E08DE10E9486031092130260E08CE1DA
:1009E0000E948603109215026FE381E00E94860345
:1009F00063E082E00E94860380E280930A02C1E104
:100A000060910A028C2F0E948603CF5FC731C1F725
:100A100063E083E00E94860385E0809314026CE427
:100A20000E94860360E787E00E94860382EE0E94B0
:100A3000F90381EE0E94F9036CE080E00E948603D6
:100A400080E00E94A803809310020E9499034091C5
:100A5000140250E063E071E08BE092E00E945C09D8
:100A600081E080931202E8E6F0E084914091140264
:100A700063E071E00E94D90382E00E94A803CEE601
:100A8000D0E0FE01949161E070E001C0660F9A959C
:100A9000EAF7682B82E00E94860386E00E94A803A2
:100AA000887F682F636086E00E94860360E785E0A8
:100AB0000E94860388E180930A0211E160910A0294
:100AC000812F0E9486031F5F1731C1F70E94BA036E
:100AD00060E081E00E94860380911302882351F038
:100AE0008DE10E94A803682F6D7F8DE10E9486032F
:100AF000109213020E94990360911002616060934A
:100B0000100280E00E94860360E787E00E9486036F
:100B10008091030290910402891719F061E00E940C
:100B2000E40080911202882391F0409114026BE05E
:100B300072E08AE0DF91CF911F91FF90EF90DF90FC
:100B4000CF90BF90AF909F908F900C94D90382E08C
:100B50000E94A803FE01C49121E030E001C0220FF1
:100B6000CA95EAF72095622F682382E00E948603E7
:100B700010921202DF91CF911F91FF90EF90DF90C2
:100B8000CF90BF90AF909F908F9008951F920F923B
:100B90000FB60F9211242F933F938F939F93AF9390
:100BA000BF938091510190915201A0915301B09156
:100BB00054013091500123E0230F2D3758F5019651
:100BC000A11DB11D209350018093510190935201BA
:100BD000A0935301B0935401809155019091560117
:100BE000A0915701B09158010196A11DB11D8093AC
:100BF000550190935601A0935701B0935801BF91AE
:100C0000AF919F918F913F912F910F900FBE0F90B9
:100C10001F90189526E8230F0296A11DB11DD2CF73
:100C20001F920F920FB60F9211242F933F934F9361
:100C30005F936F937F938F939F93AF93BF93EF9344
:100C4000FF9383E691E00E947702FF91EF91BF91BD
:100C5000AF919F918F917F916F915F914F913F9154
:100C60002F910F900FBE0F901F9018951F920F920B
:100C70000FB60F9211242F938F939F93EF93FF93AF
:100C8000E0917301F09174018081E0917901F0911C
:100C90007A0182FD1BC0908180917C018F5F8F73F0
:100CA00020917D01821741F0E0917C01F0E0ED5947
:100CB000FE4F958F80937C01FF91EF919F918F91D3
:100CC0002F910F900FBE0F901F9018958081F4CF39
:100CD000E3E6F1E01382128288EE93E0A0E0B0E058
:100CE00084839583A683B7838DE091E0918380838D
:100CF00085EC90E09587848784EC90E097878687E1
:100D000080EC90E0918B808B81EC90E0938B828BD8
:100D100082EC90E0958B848B86EC90E0978B868BB1
:100D2000118E128E138E148EE1E0F2E08FEF82832B
:100D3000838380E896E9A8E9B0E084839583A6835D
:100D4000B78380E28187108A118A85E0838B81E0F6
:100D5000848B85E090E0A0E0B0E0828F938FA48F39
:100D6000B58F80E092E09183808312860895789415
:100D700084B5826084BD84B5816084BD85B58260A0
:100D800085BD85B5816085BD80916E008160809351
:100D90006E001092810080918100826080938100BA
:100DA00080918100816080938100809180008160CA
:100DB000809380008091B10084608093B100809125
:100DC000B00081608093B00080917A00846080934D
:100DD0007A0080917A00826080937A0080917A0014
:100DE000816080937A0080917A00806880937A0095
:100DF0001092C10061E082E00E94E40061E083E0C3
:100E00000E94E40061E084E00E94E40061E085E08B
:100E10000E94E40061E086E00E94E40061E08EE070
:100E20000E94E40061E08FE00E94E40061E080E164
:100E30000E94E40061E081E10E94E40061E083E15E
:100E40000E94E40061E082E00E94970161E083E09B
:100E50000E94970161E084E00E94970161E085E0D3
:100E60000E94970161E086E00E94970160E08EE0B9
:100E70000E94970160E08FE00E94970160E080E1AE
:100E80000E94970160E081E10E94970160E083E1A8
:100E90000E94970161E087E00E9497010E9411047F
:100EA0008EE00E94BB00C0912A01892B09F4C16029
:100EB0008FE00E94BB00892B09F4C260C0932A0115
:100EC00081E10E94BB00892B09F065C081E090E0C0
:100ED00090932C0180932B010E94ED0160934C01B3
:100EE00070934D0180934E0190934F01EFE2EE2EEF
:100EF000E1E0FE2EF8E19F2EA6E4CA2EA1E0DA2E54
:100F000000E010E0D1E0B8E18B2E0E94ED01643FDB
:100F100071408105910508F043C00E94ED016455C0
:100F2000724F8F4F9F4F60934C0170934D01809390
:100F30004E0190934F01D0934B0187E10E94A8038B
:100F400080FD04C1F701292D11922A95E9F78091BE
:100F50001502C0E068E1762E811108C0C0910A0236
:100F60007C2EC93110F078E1772EC7190E945E03FC
:100F700081E60E940603809309025FE2A52E51E0FC
:100F8000B52E7A948FEF781671F00E940603F50162
:100F900081935F01F6CF10922C0110922B019CCF10
:100FA00010924B01CACFC15020F08FEF0E94060370
:100FB000FACF0E94260160E487E00E9486038092B7
:100FC0002E0180912F018F3F09F0C0C08091300128
:100FD0008F3F09F0BBC0E1E3F1E080E09191890F20
:100FE000CE16DF06D9F78111B1C00E94ED01605322
:100FF000784F8F4F9F4F60934C0170934D018093BA
:101000004E0190934F0180913101811155C0D093D1
:101010002D0180914401811152C0D0930201209191
:101020002B0130912C012115310509F0DAC0E09136
:101030002A01AE2FA695B0E0A15DBE4F1296CC91CD
:101040008C2F90E0E0FF3EC044E0959587954A954F
:10105000E1F7282F2370C295C695C695C370F0E0BE
:10106000EE0FFF1FEC5CFE4FA080B180B092290113
:10107000A0922801223071F12330C9F1213009F00A
:101080004CC060E082E00E94E40061E083E00E94E6
:10109000E40061E084E00E94E4008091020161E0EC
:1010A00070E0811136C00E940D03C13019F0C330C9
:1010B00009F048C060E047C010922D01AACF1092FD
:1010C0000201ADCF2C2F2370959587959595879527
:1010D000C82FC4CF61E082E00E94E40060E083E0BA
:1010E0000E94E40061E084E00E94E400DCCF61E063
:1010F00082E00E94E40061E083E00E94E40060E09E
:1011000084E00E94E40080910201882361F270E093
:1011100060E0C5010E941703C8CF0E940D0361E083
:10112000A114B10421F0AA94AB2861F460E083E03B
:101130000E94E40061E084E00E94E40061E082E05B
:101140000E94E40061E085E00E94E4000E94ED015D
:1011500040904C0150904D0160904E0170904F01B5
:10116000461657066806790680F50E94ED0164521E
:101170007A4F8F4F9F4F60934C0170934D01809336
:101180004E0190934F0161E082E00E94E40061E033
:1011900084E00E94E40061E083E00E94E40061E0FA
:1011A00085E00E94E40061E086E00E94E4000E9485
:1011B0000D030E94110486E00E94BB0061E0892BB0
:1011C00009F060E086E00E94E4000115110509F4D1
:1011D0009CCE0E946302882309F497CE0E940000EF
:1011E00094CE2130310509F0B1CF80913301982F91
:1011F000907F09F5E0912A0190E00E2E02C09595AE
:1012000087950A94E2F780FF1FC03093270120934F
:101210002601F0E0EE0FFF1FE45CFE4FA080B180DE
:10122000B0922901A092280180912D01882389F094
:1012300060E0AB2809F461E082E00E94E40061E034
:1012400084E00E94E4001AC0109227011092260147
:10125000E0CF80912601909127018130910589F49A
:1012600061E082E00E94E40060E084E00E94E4002B
:101270008091020170E060E0811114C00E940D03B2
:1012800065CF892B09F062CF60E082E00E94E40024
:1012900061E084E00E94E40080910201882371F300
:1012A00061E070E0C5010E94170350CFEE0FFF1FF1
:1012B0000590F491E02D0994FB01DC0102C001903E
:0E12C0000D9241505040D8F70895F894FFCF9A
:1012CE00010001307278706100000000009902F98F
:0C12DE00012602E6025702350249020018
:00000001FF
