:020000040800F2
:10000000000002205D640008C1160008C316000845
:10001000C5160008C7160008C91600080000000031
:10002000000000000000000000000000415C00082B
:10003000CB16000800000000E15C0008455D0008E8
:10004000AD640008AD640008AD640008AD6400084C
:10005000AD640008AD640008AD640008AD6400083C
:10006000AD640008AD640008AD640008AD6400082C
:10007000AD640008AD640008AD640008AD6400081C
:10008000AD640008AD640008AD640008AD6400080C
:10009000AD640008AD640008AD640008AD640008FC
:1000A000AD640008AD640008AD640008AD640008EC
:1000B000CD160008AD640008AD640008AD6400080A
:1000C000AD640008AD640008AD640008DD160008EA
:1000D000ED160008AD640008FD1600080D170008B5
:1000E000AD640008AD640008AD640008AD640008AC
:1000F000AD640008AD640008AD640008AD6400089C
:10010000AD640008AD640008AD640008AD6400088B
:10011000AD640008AD640008AD640008AD6400087B
:10012000AD640008AD640008AD640008AD6400086B
:10013000AD640008AD640008AD640008AD6400085B
:10014000AD640008AD640008AD640008AD6400084B
:10015000AD640008AD640008AD640008AD6400083B
:10016000AD640008AD640008AD640008AD6400082B
:10017000AD640008AD640008AD6400080000000034
:08018000AD640008AD64000845
:1001900010B5054C237833B9044B13B10448AFF3C1
:1001A00000800123237010BD7800002000000000B3
:1001B000546E000808B5034B1BB103490348AFF365
:1001C000008008BD000000007C000020546E000884
:1001D000034613F8012B002AFBD1181A0138704787
:1001E00001F0FF01102A2BDB10F0070F08D010F8E8
:1001F000013B013A8B422DD010F0070F42B3F6D1EC
:10020000F0B441EA012141EA014122F007047FF004
:1002100000070023F0E80256083C85EA010586EA5B
:10022000010685FA47F5A3FA87F586FA47F6A5FA97
:1002300087F68EB9EED1F0BC01F0FF0102F00702A3
:1002400032B110F8013B013A83EA010313B1F8D14E
:100250000020704701387047002D06BF354603382F
:10026000073815F0010F07D1013015F4807F02BF68
:10027000013015F4C03F0130F0BC0138704700BFB9
:1002800053B94AB9002908BF00281CBF4FF0FF31FD
:100290004FF0FF3000F074B9ADF1080C6DE904CEF9
:1002A00000F006F8DDF804E0DDE9022304B0704751
:1002B0002DE9F047089D04468E46002B4DD18A4219
:1002C000944669D9B2FA82F252B101FA02F3C2F14C
:1002D000200120FA01F10CFA02FC41EA030E9440DD
:1002E0004FEA1C48210CBEFBF8F61FFA8CF708FBFE
:1002F00016E341EA034306FB07F199420AD91CEBD6
:10030000030306F1FF3080F01F81994240F21C8107
:10031000023E63445B1AA4B2B3FBF8F008FB10334F
:1003200044EA034400FB07F7A7420AD91CEB040484
:1003300000F1FF3380F00A81A74240F20781644454
:10034000023840EA0640E41B00261DB1D4400023D9
:10035000C5E900433146BDE8F0878B4209D9002D3D
:1003600000F0EF800026C5E9000130463146BDE8C7
:10037000F087B3FA83F6002E4AD18B4202D3824231
:1003800000F2F980841A61EB030301209E46002DE0
:10039000E0D0C5E9004EDDE702B9FFDEB2FA82F235
:1003A000002A40F09280A1EB0C014FEA1C471FFA93
:1003B0008CFE0126200CB1FBF7F307FB131140EA7A
:1003C00001410EFB03F0884208D91CEB010103F147
:1003D000FF3802D2884200F2CB804346091AA4B209
:1003E000B1FBF7F007FB101144EA01440EFB00FEDD
:1003F000A64508D91CEB040400F1FF3102D2A64542
:1004000000F2BB800846A4EB0E0440EA03409CE7E0
:10041000C6F12007B34022FA07FC4CEA030C20FA8D
:1004200007F401FA06F31C43F9404FEA1C4900FAAD
:1004300006F3B1FBF9F8200C1FFA8CFE09FB18112A
:1004400040EA014108FB0EF0884202FA06F20BD99D
:100450001CEB010108F1FF3A80F08880884240F2ED
:100460008580A8F102086144091AA4B2B1FBF9F031
:1004700009FB101144EA014100FB0EFE8E4508D92C
:100480001CEB010100F1FF346CD28E456AD90238B1
:10049000614440EA0840A0FB0294A1EB0E01A14296
:1004A000C846A64656D353D05DB1B3EB080261EB04
:1004B0000E0101FA07F722FA06F3F1401F43C5E9DE
:1004C000007100263146BDE8F087C2F12003D84014
:1004D0000CFA02FC21FA03F3914001434FEA1C4756
:1004E0001FFA8CFEB3FBF7F007FB10360B0C43EA48
:1004F000064300FB0EF69E4204FA02F408D91CEBF8
:10050000030300F1FF382FD29E422DD902386344F5
:100510009B1B89B2B3FBF7F607FB163341EA034195
:1005200006FB0EF38B4208D91CEB010106F1FF38E4
:1005300016D28B4214D9023E6144C91A46EA0046DB
:1005400038E72E46284605E70646E3E61846F8E66D
:100550004B45A9D2B9EB020864EB0C0E0138A3E7B6
:100560004646EAE7204694E74046D1E7D0467BE797
:10057000023B614432E7304609E76444023842E70F
:10058000704700BF08B50368B3F1804F00D008BDC5
:1005900003F0B2FBFBE772B6FEE7000000B595B0D2
:1005A0003022002108A805F0B5FF0023039304932F
:1005B0000593069307930193204A116C41F08051F3
:1005C0001164126C02F080520192019A02931C4B4A
:1005D0001A6842F480421A601B6803F48043029355
:1005E000029B012308934FF48033099302220E9259
:1005F0004FF480030F9304231093A82111911292BA
:10060000139308A802F068FC98B90F230393022300
:100610000493002305934FF4A05306934FF48053A3
:100620000793052103A802F0BDFE20B915B05DF8BF
:1006300004FBFFF7B0FFFFF7AEFF00BF003802403A
:100640000070004008B503F03DFBFFF7A7FF05F081
:1006500081FC05F025FD05F045FD05F0EDFD05F0FB
:100660003FFE05F057FE00F077FE05F065F9FEE766
:1006700008B50C21104800F0E5F94FF47A7005F048
:1006800060F90E210D4800F0DDF94FF47A7005F0A5
:1006900058F919210A4800F0D5F94FF47A7005F09D
:1006A00050F90C21074800F0CDF94FF47A7005F0AD
:1006B00048F900F08FF908BD6C6E00087C6E0008E8
:1006C0008C6E0008A86E000808B50D21034800F0E4
:1006D000B9F94FF47A7005F034F908BDB86E000826
:1006E00010B50D211D4800F0ADF94FF47A7005F0FA
:1006F00028F91B4C1B4A1C49204605F013FF2046D5
:10070000FFF766FD81B2204600F09CF94FF47A7045
:1007100005F017F9154A1649204605F003FF204653
:10072000FFF756FD81B2204600F08CF94FF47A7045
:1007300005F007F92A210F4800F084F94FF47A7088
:1007400005F0FFF829210C4800F07CF94FF47A708D
:1007500005F0F7F800F03EF910BD00BFC86E0008C4
:1007600094000020C86F0008D86E0008F46F0008DD
:10077000F06E00080C6F0008386F000870B5064670
:100780000D460846FFF724FD02462D4C42F2283361
:100790002C49204605F0C6FE2046FFF719FD81B220
:1007A000204600F04FF94FF4167005F0CAF82846BD
:1007B000FFF70EFD81B2284600F044F94FF41670A1
:1007C00005F0BFF800F006F911211F4800F03AF9D2
:1007D00040F6C41005F0B5F8C822FA21204600F012
:1007E0000FF91A49204605F0D2FE20B3112118480E
:1007F00000F028F94FF42F7005F0A3F82546642285
:10080000FA21204600F0FCF87B21204605F0AAFEE4
:1008100004467D21284605F0A5FE74B108B90020E4
:100820000AE0031B01330022E2542146304605F062
:10083000A6FE012000E0002070BD0020FCE700BF04
:1008400018010020646F0008786F00088C6F0008A2
:10085000906F000810B500F0BDF80A213A4800F08A
:10086000F1F84FF4967005F06CF8384C0A22FA2132
:10087000204600F0C5F842F62271204605F072FECF
:10088000044642F62271013005F06CFE002854D077
:10089000002C54D0031B01330022E2546278303A1A
:1008A000A37802EB820203EB420202F5F4639BB2EF
:1008B000274A938721796279303901EB810102EB74
:1008C0004102D2B2303AD2B20C2A02D8204981F881
:1008D0003E20E179227A303901EB810102EB4102BD
:1008E000D2B2303AD2B2202A02D8194981F83F2038
:1008F000A17AE27A303901EB810102EB4102D2B2F6
:10090000303AD2B2172A02D8114981F84020617BCF
:10091000A27B303901EB810102EB4102D2B2303AC5
:10092000D2B23B2A02D80A4981F84120A3F5FD63DF
:100930009BB2052B05D9002010BD0020FCE700204C
:10094000FAE70120F8E700BFA46F000818010020B3
:100950004402002008B50D21044800F073F84FF45C
:100960007A7004F0EEFF00F035F808BDB06F0008B3
:1009700008B50621014800F065F808BDC06F000801
:1009800008B50B4B834200D008BD0A4A9378591C26
:100990005278914205D0074A1078D118C8700133B7
:1009A000937001220349024804F0C3FAECE700BF48
:1009B000804600208802002008B5044900238B707F
:1009C0004B700122024804F0B4FA08BD88020020EE
:1009D00080460020014B5A789A70704788020020A8
:1009E000064B99785A78914204D0511C597013449F
:1009F000D87870474FF0FF30704700BF8802002062
:100A0000F8B507460E46154603F082F90544002462
:100A100004E0022004F095FFA6420BDD03F078F914
:100A2000A8420BD2FFF7DCFFB0F1FF3FF1D0385501
:100A30000134F1E700233B55344601E000233B55E8
:100A40002046F8BD10B50C4664230A46014604480A
:100A500004F01DF808B9204610BD0020FCE700BFD7
:100A600080460020A2F5E163B3F5966F42D24B1E9B
:100A70000B2B41D8431E1E2B40D81D2B07D8042911
:100A80003ED006293ED009293ED00B293ED01D2B51
:100A90000DD801293CD003293CD005293CD0072999
:100AA0003CD008293CD00A293CD00C293CD01B2B37
:100AB00001D802293AD01D283AD102293AD1214938
:100AC00081FB0231D317C3EBE1134FF4C87101FB73
:100AD0001323002B30D012F0030F2FD1194981FBC3
:100AE0000231D317C3EB6113642101FB13233BBB1A
:100AF000002070470020704700207047002070479A
:100B00000120704701207047012070470120704785
:100B10000846704701207047012070470120704748
:100B20000120704701207047012070470120704765
:100B30000020704700207047012070470020704758
:100B4000012070471F85EB5110B5C1F10E03204CF9
:100B500084FB034E4FEAE37CCCEB6E0303EB4303D1
:100B600001EB8303033B03EBC30303EB03130233E8
:100B7000184981FB0341DB17C3EB6103134400F504
:100B80009650ACEB6E0C604440F26D1202FB0033E9
:100B90000246002819DB03EBA2030F4A82FB001276
:100BA000C017A0EB62110B44C0EBE2100344A3F5A5
:100BB000FA432D3B094880FB0320C218D817C0EB2D
:100BC000A200C0EBC000181A10BDC21CE3E700BFB2
:100BD000ABAAAA2A676666661F85EB5193244992E1
:100BE00030B583B01F24009432234FF4A07200214B
:100BF000084600F0B9FC0194032300934FF6FF73FD
:100C000005224621494800F03BFD13240094EF23C0
:100C10004FF4A0722521002000F0A6FC01940225CB
:100C200000954FF4FC63B9220521414800F028FDEE
:100C3000019400954FF47843B9228C213D4800F08F
:100C40001FFD15234FF4A0724A21002001F0E0F8A7
:100C500015234FF4A0724B21002001F0D9F8019424
:100C600000954FF4FC63DA220521334800F008FDBB
:100C7000019400954FF6FF73DA229A212F4800F075
:100C8000FFFC15234FF4A0726B21002001F0C0F887
:100C900015234FF4A0726C21002001F0B9F80194E3
:100CA00000954FF4FC6377220521254800F0E8FC0D
:100CB00015234FF4A0728C21002001F0A9F8152310
:100CC0004FF4A0728D21002001F0A2F8019400954C
:100CD0004FF4FC63982205211A4800F0D1FC15233B
:100CE0004FF4A072AD21002001F092F815234FF4CB
:100CF000A072AE21002001F08BF8019400954FF412
:100D0000FC6335220521104800F0BAFC15234FF48E
:100D1000A072CE21002001F07BF815234FF4A072C1
:100D2000CF21002001F074F803B030BD347000080A
:100D3000407000084C700008587000086870000887
:100D4000707000087C700008B4700008F0B583B0C3
:100D5000AA48AB4B1860AB4B20221A80AA4BAB4A77
:100D600013600124AA4A1480AA4A1360AA4B0222E3
:100D70001A802246102102F0E0FE00F0C9FD204654
:100D800000F07AFD132000F025FFFFF729FF2EE287
:100D900013230193022300934FF4FC63B92205212E
:100DA0009E4800F06DFC9E4B1B787BB9132301938A
:100DB000022300934FF47843B9228921994800F027
:100DC0005FFC974B1A78984B1A7017E21323019324
:100DD000022300934FF6FF73B9228921934800F054
:100DE0004FFCEEE713230193022300934FF4FC63BF
:100DF000DA2205218E4800F043FC8E4B1B78012B34
:100E000006D0022B10D08B4B1A788B4B1A70FCE15A
:100E100013230193022300934FF6FF73DA229521E7
:100E2000864800F02DFCEEE7132301930223009384
:100E30004FF6E073DA229521814800F021FCE2E7C9
:100E4000804A1370804F814C97F84020804920469B
:100E500005F068FB13250195032600964FF6FF73F6
:100E6000352246217B4800F00BFC019500964FF699
:100E7000FF7335224621204600F002FC0195022630
:100E800000964FF4FC6377220521734800F0F8FBCD
:100E90003A467249204605F045FB019500964FF60B
:100EA000FF7377227521204600F0EAFB07F1140258
:100EB0006B49204605F036FB019500964FF4FC6324
:100EC00098220521674800F0DBFB019500964FF65C
:100ED000FF7398228021204600F0D2FB9DE122463C
:100EE00029463046FFF730FE062845D8DFE800F0F7
:100EF000041B212A30373D00544B5B4A92E8030023
:100F000083E80300013D0B2D4AD8DFE815F03D00D2
:100F10006A00C300D100DF00EB00F70003010E01FF
:100F20001D012A013701514A484B07CA03C31A70F1
:100F3000E8E74F4A454B07CA03C323F8022B120CBC
:100F40001A70DFE74B4A414B07CA03C31A80D9E73F
:100F50003E4B494A92E8030083E80300D2E7474A40
:100F60003A4B07CA03C31A80CCE7384B444A92E88D
:100F7000030083E80300C5E7344B00221A605A607F
:100F80009A60DA601A61BDE7304C2046FFF720F91D
:100F9000024625183B4B03CBA05069601B782B728F
:100FA0002A4C2046FFF714F9274A938F92F83F20E6
:100FB0003549204405F0B6FA13260196022500951E
:100FC0004FF6FF7356220521304800F059FB019679
:100FD00000954FF4FC6356220521204600F050FB9B
:100FE00030E11A4C2046FFF7F3F802462518284B4B
:100FF00003CBA05069601B882B81D1E70008024019
:10100000980300209403002000040240A003002065
:101010009C030020900300208C03002040700008F7
:10102000A60700204C700008DD030020887000082F
:101030005870000804000020DC03002068700008DD
:1010400094700008DA03002044020020A803002066
:101050009C700008A870000870700008B870000844
:10106000C07000087C700008C8700008D0700008CC
:10107000DC700008E8700008F4700008FC700008DC
:10108000087100081071000888710008907100084C
:101090001C7100088F4C2046FFF79AF80346211870
:1010A0008D4A1068E0509088937988808B7177E73B
:1010B000884C2046FFF78CF803462118874A1068B1
:1010C000E0509088937988808B7169E7814C204645
:1010D000FFF77EF803462118814A1068E050137923
:1010E0000B715DE77B4C2046FFF772F80346211831
:1010F0007C4A1068E05093888B8051E7754C2046FD
:10110000FFF766F803462118774A1068E050938885
:101110008B8045E76F4C2046FFF75AF803462518A9
:10112000724A03CAE05069603AE76A4D2846FFF701
:101130004FF802462C186E4B03CBA85061601A88FA
:101140009B782281A3722BE7624C2046FFF740F880
:1011500002462518674B03CBA05069601B782B72A1
:101160001EE75C4C2046FFF733F802462518624B19
:1011700003CBA05069601B882B8111E7554C20469A
:10118000FFF726F8024625185C4B03CBA050696098
:101190001B882B8104E75A4B186804F059FB594B04
:1011A00002221A70584B03221A70002304E0574A97
:1011B000D15C574AD1540133172BF8DD002304E0EA
:1011C000544AD15C544AD1540133112BF8DD534BAE
:1011D000186804F03DF940F2DC5004F0B2FB504BCB
:1011E00001221A704FF400514E4802F0ACFC4E4BF5
:1011F0001A784E4B1B789A427FF4CAAD4C4B1A7842
:10120000404B1B789A427FF4EDAD4A4B93F8413046
:10121000494A127893427FF413AE464B93F83F400D
:10122000464B1B789C420DD0444B1C70414B93F8AD
:101230003E509E8F324629462046FFF713FC012878
:101240003FF44DAE322004F07CFB0221354802F021
:101250006DFC002834D14FF47A7004F072FB022147
:10126000304802F063FC0028C1D12D4B1B78002BC5
:10127000BDD1244B1B78012B8DD0022BABD1274B3A
:10128000186804F0E5FA1F4B01221A701E4B032266
:101290001A70002304E0204AD15C1E4AD154013365
:1012A000112BF8DD002304E0194AD15C174AD15410
:1012B0000133172BF8DD124B186804F0C9F88AE7E0
:1012C0000221184802F032FC01288BD1144B002275
:1012D0001A7087E7A8030020287100083071000801
:1012E000387100084071000848710008507100080A
:1012F0005871000864710008707100087C71000862
:10130000E8030020040000209E0700208006002043
:10131000A00700205C06002088060020E0030020D3
:10132000DB030020000C0240DD030020A6070020A4
:10133000DC03002044020020DA030020A403002084
:10134000034B0360034B0B6080231360704700BFA7
:10135000F4050020F403002030B583B01F4C019445
:10136000052500950023FA221D491E4804F03BF88C
:10137000206804F06DFA1C4C019400950023C822EB
:101380001A491B4804F02FF8206804F061FA194C40
:1013900001940423009300234FF4C87216491748A0
:1013A00004F021F8206804F053FA154B019303234D
:1013B000009300234FF4C8721249134804F013F845
:1013C000124B01930223009300234FF496721049AD
:1013D000104804F008F803B030BD00BFE803002057
:1013E000AC71000859280008E0030020B47100081F
:1013F00091280008F0030020BC7100082129000892
:10140000EC030020C8710008812D0008E4030020CF
:10141000D47100084D0D000800F1784243F6FE73C8
:101420009A4247D9A2F5804343F6FE72934243D9CC
:1014300000F17843A3F5004393423FD900F178438C
:10144000A3F5404393423BD900F1774303F57F0373
:101450004FF6FE72934235D900F1774303F57E03D0
:1014600002F5803293422FD900F1774303F57C03D4
:1014700093422BD900F1774303F57A03934227D99E
:1014800000F1774303F57803934223D900F17743C2
:1014900003F5760393421FD900F1774303F57403F4
:1014A00093421BD900F1774000F57200904217D9A2
:1014B00000207047002070470120704702207047CD
:1014C00003207047042070470520704706207047AE
:1014D0000720704708207047092070470A2070478E
:1014E0000B207047F0B583B005460F46164602F054
:1014F000DFF82846FFF790FF044605EB8600FFF76C
:101500008BFF134B00221A6002221A619C60001BA1
:101510000130D86001A9184602F0CCF968B900245E
:10152000A64210DD57F8242000232946022002F0AD
:1015300017F928B904350134F2E702F0DBF805E0C9
:1015400002F0D8F802E002F0CBF8002003B0F0BDC2
:101550004806002050F8043B41F8043B1346013A8A
:1015600092B2002BF6D1704710B582B096469C46D9
:10157000131A002B16DB0022ACEB0103002B13DB4C
:1015800000239AB9AEEB000E1FFA8EF29BB9ACEBBA
:10159000010C1FFA8CF3BDF81040009400F000FC21
:1015A00002B010BD0122E7E70123EAE7A0EB0E003D
:1015B00082B27046EAE7A1EB0C018BB26146EAE722
:1015C0002DE9F04385B00F4690469946BDF830604E
:1015D0001F2801D92038C0B200230CE000EB4002E4
:1015E000264901EB4202D15C03F110026A4402F881
:1015F000081C0133DBB2052BF0D9F3009BB206EBDC
:101600004602520092B2BDF834100091414638466D
:1016100000F0C6FB002529E008EB040178194A46D2
:1016200089B280B200F0F0FA0134E4B2072C1BD882
:1016300005F110036B4413F8080C204110F0010F62
:10164000F2D0012EE8D015FB06F014FB06F118FAD3
:1016500081F117FA80F0CDF800903346324689B216
:1016600080B200F09DFBDFE70135EDB2052D01D81A
:101670000024DBE705B0BDE8F08300BFDC710008A3
:101680002DE9F04383B004460D4690461F46BDF851
:101690002860BDF82C900DE00134CDF80490009640
:1016A0003B4642462946FFF78BFF06EB460105EB1A
:1016B00041018DB220780028EED103B0BDE8F0835F
:1016C000FEE7FEE7FEE7FEE7FEE7704708B50248E3
:1016D00002F062FE08BD00BF4045002008B5024888
:1016E00002F00AFD08BD00BF8845002008B5024889
:1016F00002F002FD08BD00BFE045002008B5024829
:1017000003F0BAFA08BD00BF8046002008B50248C1
:1017100003F0B2FA08BD00BFC446002008B500229D
:10172000034B1988034B186802F007FA08BD00BF85
:101730008C0300209003002000B583B08DF80700D3
:1017400001231A460DF10701024802F0F8FB03B02D
:101750005DF804FB8845002070B504460B4E0C4D27
:1017600000223188286802F0E8F90022094B198824
:10177000094B186802F0E1F92046FFF7DDFF01226E
:101780003188286802F0D9F970BD00BF8C030020B1
:1017900090030020940300209803002070B50446B5
:1017A00001220B4B19880B4B186802F0C6F90A4E40
:1017B0000A4D00223188286802F0BFF92046FFF761
:1017C000BBFF01223188286802F0B7F970BD00BF65
:1017D00094030020980300208C0300209003002035
:1017E000F8B507460D4616461C462A20FFF7B4FFFB
:1017F000380AFFF7D3FFF8B2FFF7D0FF300AFFF740
:10180000CDFFF0B2FFF7CAFF2B20FFF7A5FF280A94
:10181000FFF7C4FFE8B2FFF7C1FF200AFFF7BEFFE2
:10182000E0B2FFF7BBFF2C20FFF796FFF8BD0000EA
:1018300038B50D4D0D4C01222988206802F07DF944
:10184000C82002F06BFA0022094B1988094B18686E
:1018500002F073F9C82002F061FA01222988206899
:1018600002F06BF938BD00BF9C030020A0030020EC
:101870008C0300209003002010B504463620FFF7AB
:101880006BFF012002F04AFA032C0DD8DFE804F0C8
:10189000020D18234820FFF781FF144BF0221A8015
:1018A000134B4FF4A0721A8010BD2820FFF776FF6B
:1018B0000E4B4FF4A0721A800D4BF0221A80F3E702
:1018C0008820FFF76BFF094BF0221A80084B4FF47A
:1018D000A0721A80E8E7E820FFF760FF034B4FF49F
:1018E000A0721A80024BF0221A80DDE7020000206D
:1018F0000000002008B50122034B1988034B18682B
:1019000002F01BF908BD00BF9C030020A0030020CB
:1019100008B5FFF7EFFFFFF701FFFFF789FF012091
:10192000FFF71AFF4FF47A7002F0F8F9CB20FFF7B7
:1019300013FF3920FFF732FF2C20FFF72FFF002085
:10194000FFF72CFF3420FFF729FF0220FFF726FFC7
:10195000CF20FFF701FF0020FFF720FFC120FFF796
:101960001DFF3020FFF71AFFE820FFF7F5FE852066
:10197000FFF714FF0020FFF711FF7820FFF70EFF9D
:10198000EA20FFF7E9FE0020FFF708FF0020FFF73D
:1019900005FFED20FFF7E0FE6420FFF7FFFE0320C8
:1019A000FFF7FCFE1220FFF7F9FE8120FFF7F6FE9D
:1019B000F720FFF7D1FE2020FFF7F0FEC020FFF751
:1019C000CBFE2320FFF7EAFEC120FFF7C5FE102063
:1019D000FFF7E4FEC520FFF7BFFE3E20FFF7DEFE67
:1019E0002820FFF7DBFEC720FFF7B6FE8620FFF7B3
:1019F000D5FE3620FFF7B0FE4820FFF7CFFE3A2095
:101A0000FFF7AAFE5520FFF7C9FEB120FFF7A4FE9D
:101A10000020FFF7C3FE1820FFF7C0FEB620FFF737
:101A20009BFE0820FFF7BAFE8220FFF7B7FE2720B3
:101A3000FFF7B4FEF220FFF78FFE0020FFF7AEFEA7
:101A40002620FFF789FE0120FFF7A8FEE020FFF720
:101A500083FE0F20FFF7A2FE3120FFF79FFE2B2011
:101A6000FFF79CFE0C20FFF799FE0E20FFF796FE75
:101A70000820FFF793FE4E20FFF790FEF120FFF7BE
:101A80008DFE3720FFF78AFE0720FFF787FE102024
:101A9000FFF784FE0320FFF781FE0E20FFF77EFE96
:101AA0000920FFF77BFE0020FFF778FEE120FFF71B
:101AB00053FE0020FFF772FE0E20FFF76FFE14208A
:101AC000FFF76CFE0320FFF769FE1120FFF766FEAB
:101AD0000720FFF763FE3120FFF760FEC120FFF70C
:101AE0005DFE4820FFF75AFE0820FFF757FE0F2043
:101AF000FFF754FE0C20FFF751FE3120FFF74EFE9A
:101B00003620FFF74BFE0F20FFF748FE1120FFF7AE
:101B100023FE782002F002F92920FFF71DFE0020A5
:101B2000FFF7AAFE08BD00002DE9F04700AF06460A
:101B30000D464FEA4108B8F5FA7F01D34FF4FA7524
:101B400001221F4B19881F4B186801F0F6FF002275
:101B50001D4B19881D4B186801F0EFFF310AEB1D72
:101B600023F00703ADEB030D6C46002303E0E154C3
:101B70005A1CA6540233AB42F9D3B8FBF5F905FB66
:101B8000198AA84510D20A231FFA8AF22146104862
:101B900002F0D5F901220C4B19880C4B186801F0A2
:101BA000CCFFBD46BDE8F08700264E45EBD20A23A8
:101BB000AAB22146064802F0C2F90136F5E700BF95
:101BC00094030020980300208C0300209003002041
:101BD0008845002070B50446094E3288094D2B888F
:101BE0009BB292B200210846FFF7FAFD33889BB200
:101BF000298889B203FB01F12046FFF795FF70BDEC
:101C000002000020000000205E4B1B889BB2834234
:101C100040F2B7802DE9F04784B004460D46904667
:101C2000594B1B889BB28B4202D804B0BDE8F087A9
:101C3000DFF864A1DFF864910022BAF80010D9F847
:101C4000000001F07AFF514F514E00223988306870
:101C500001F073FF2A20FFF76FFD0122BAF8001090
:101C6000D9F8000001F069FF01223988306801F0DD
:101C700064FF00223988306801F05FFF230A8DF885
:101C80000C30E3B28DF80D30013424128DF80E4083
:101C900001338DF80F303F4C0123042203A9204665
:101CA00002F04DF901223988306801F046FF002228
:101CB000BAF80010D9F8000001F03FFF002239887F
:101CC000306801F03AFF2B20FFF736FD0122BAF809
:101CD0000010D9F8000001F030FF01223988306887
:101CE00001F02BFF00223988306801F026FF2B0A13
:101CF0008DF80830EBB28DF8093001352D128DF8D2
:101D00000A5001338DF80B300123042202A920462A
:101D100002F015F901223988306801F00EFF002227
:101D2000BAF80010D9F8000001F007FF0022398846
:101D3000306801F002FF2C20FFF7FEFC0122BAF808
:101D40000010D9F8000001F0F8FE0122398830684F
:101D500001F0F3FE00223988306801F0EEFE4FEA10
:101D600018238DF804308DF805800123022201A983
:101D7000204602F0E4F801223988306801F0DDFEE7
:101D800053E7704702000020000000208C03002071
:101D90009003002088450020940300209803002031
:101DA00038B51C46184B1B889BB283422BD915466D
:101DB000164B1B889BB28B4225D98218124B1B886D
:101DC0009BB29A4204DD104B1D88ADB22D1AADB204
:101DD0000A190E4B1B889BB29A4204DD0B4B1C88E0
:101DE000A4B2641AA4B22A1892B263189BB2013B3F
:101DF000013A9BB292B2FFF7F3FC05FB04F1BDF888
:101E00001000FFF791FE38BD020000200000002006
:101E100038B514461D46104B1A8892B282421AD920
:101E20000E4B1B889BB28B4215D902190A4B1B889B
:101E30009BB29A4204DD084B1C88A4B2241AA4B2B7
:101E4000221892B2013A0B4692B2FFF7C9FC214622
:101E50002846FFF769FE38BD020000200000002080
:101E600010B45308023312F0010F0AD10A4CE25C9D
:101E700002F0F002E25408431043E0545DF8044BD2
:101E80007047054CE25C02F00F02E254084342EA5C
:101E90000012E254F2E700BF800600200C4A1379DA
:101EA00003F00F031371012802D0022808D07047F5
:101EB000012202FA01F123EA0103054A1371704776
:101EC000012202FA01F10B43014A1371EFE700BF4F
:101ED00080060020084B00225A71022305E0064AC2
:101EE000D15C5079014451710133042BF7DD024A72
:101EF00053795B42537170478006002010B501385A
:101F0000112816D8DFE810F012004D008800E1001B
:101F10001D015E019E01DF011B025702B202EE02AB
:101F200034037003B103ED032A046704C34B1B8819
:101F300003B910BD002204210120FFF791FF012207
:101F400004211046FFF78CFF022200210120FFF739
:101F500087FF032200210120FFF782FF00210120DB
:101F6000FFF79CFF01210846FFF798FF022101209F
:101F7000FFF794FF03210120FFF790FFFFF7AAFF6F
:101F8000002409E040F2E53003F0DBFC4FF400717F
:101F9000AB4801F0D8FD0134A84B1B88A342F1DC0B
:101FA000C7E7A64B5B88002BC3D000221146032055
:101FB000FFF756FF012200210320FFF751FF022205
:101FC00000210120FFF74CFF032200210120FFF731
:101FD00047FF00210120FFF761FF01210846FFF7BD
:101FE0005DFF02210846FFF759FF03210220FFF79A
:101FF00055FFFFF76FFF002409E040F2E53003F0E2
:10200000A0FC4FF400718E4801F09DFD01348B4B14
:102010005B88A342F1DC8CE7884B5B88002B88D07F
:10202000864B9B88002B84D0844BDB8833B3834B57
:102030005B894BB3022200210120FFF711FF03222D
:1020400000210120FFF70CFF00210120FFF726FFF0
:1020500001210846FFF722FF784B5B89D3B1774B0C
:10206000DB88E3B1FFF736FF744BDB885BB3734B60
:102070005B89002B7FF45DAF00241FE00022114636
:102080000220FFF7EDFED2E7012200210220FFF738
:10209000E7FECFE702210120FFF700FFDFE7032182
:1020A0000120FFF7FBFEDDE740F2E53003F049FCDD
:1020B0004FF40071624801F046FD01345F4B9B888C
:1020C000A342F1DC35E70024F8E75C4BDB88002B0A
:1020D0003FF42FAF002204210320FFF7C1FE0122AD
:1020E00000211046FFF7BCFE022200210120FFF76D
:1020F000B7FE032200210120FFF7B2FE00210120DC
:10210000FFF7CCFE01210846FFF7C8FE022101209F
:10211000FFF7C4FE03210220FFF7C0FEFFF7DAFE3F
:10212000002409E040F2E53003F00BFC4FF40071AD
:10213000434801F008FD0134404BDB88A342F1DC49
:10214000F7E63E4BDB88002B3FF4F3AE3B4B1B899D
:10215000002B3FF4EEAE002211460220FFF780FE76
:10216000012200211046FFF77BFE02220021012000
:10217000FFF776FE032200210120FFF771FE002108
:102180000120FFF78BFE01210846FFF787FE0221A1
:102190000120FFF783FE03210120FFF77FFEFFF7F9
:1021A00099FE002409E040F2E53003F0CAFB4FF449
:1021B0000071234801F0C7FC0134204B1B89A34266
:1021C000F1DCB6E61D4B5B89002B3FF4B2AE00227A
:1021D00011460120FFF744FE012204210320FFF7EE
:1021E0003FFE022200210120FFF73AFE03220021D8
:1021F0000120FFF735FE00210120FFF74FFE0121EE
:102200000846FFF74BFE02210846FFF747FE032171
:102210000120FFF743FEFFF75DFE002409E040F2D6
:10222000E53003F08EFB4FF40071054801F08BFCA4
:102230000134024B5B89A342F1DC7AE65C060020A4
:10224000000C0240C84B5B89002B3FF472AEC64BBA
:102250009B89002B3FF46DAE002211460120FFF751
:10226000FFFD012200210220FFF7FAFD02220021DA
:102270000120FFF7F5FD032200210120FFF7F0FD0B
:1022800000210120FFF70AFE01210846FFF706FEA4
:1022900002210120FFF702FE03210120FFF7FEFDCE
:1022A000FFF718FE002409E040F2E53003F049FB97
:1022B0004FF40071AD4801F046FC0134AA4B9B89F4
:1022C000A342F1DC35E6A84BDB89002B3FF431AEAD
:1022D000002211460120FFF7C3FD01220021104614
:1022E000FFF7BEFD022204210120FFF7B9FD032202
:1022F00004210120FFF7B4FD00210120FFF7CEFDEE
:1023000001210846FFF7CAFD02210120FFF7C6FDA3
:1023100003210120FFF7C2FDFFF7DCFD002409E0E7
:1023200040F2E53003F00DFB4FF400718F4801F0EF
:102330000AFC01348C4BDB89A342F1DCF9E58A4BC2
:102340001B8A002B3FF4F5AD002211460120FFF758
:1023500087FD012200211046FFF782FD02220021A5
:102360000320FFF77DFD032200211046FFF778FDD3
:1023700000210220FFF792FD01210220FFF78EFDD0
:1023800002210120FFF78AFD03210120FFF786FDCE
:10239000FFF7A0FD002409E040F2E53003F0D1FA98
:1023A0004FF40071714801F0CEFB01346E4B1B8A73
:1023B000A342F1DCBDE56C4B1B8A002B3FF4B9ADA9
:1023C000694B5B8A002B3FF4B4AD0022114601201B
:1023D000FFF746FD012200211046FFF741FD624B49
:1023E0009B8AE3B1604B1B8BFBB15F4B9B8A13B3A2
:1023F0005D4B1B8B23B302210120FFF74FFD03210F
:102400000120FFF74BFDFFF765FD574B9B8A5BB340
:10241000554B1B8B002B7FF48CAD00241FE0022258
:1024200000211046FFF71CFDDCE7032200210220FB
:10243000FFF716FDD9E700210120FFF72FFDD7E7B1
:1024400001210846FFF72AFDD5E740F2E53003F009
:1024500078FA4FF40071454801F075FB0134424BA6
:102460005B8AA342F1DC64E50024F8E73E4B9B8ADB
:10247000002B3FF45EAD002211460120FFF7F0FC77
:10248000012200211046FFF7EBFC02220421032069
:10249000FFF7E6FC032200210120FFF7E1FC002109
:1024A0000220FFF7FBFC01210846FFF7F7FC0221A1
:1024B0000120FFF7F3FC03210120FFF7EFFCFFF7FA
:1024C00009FD002409E040F2E53003F03AFA4FF448
:1024D0000071264801F037FB0134234B9B8AA3424D
:1024E000F1DC26E5204B9B8A002B3FF422AD1E4BEE
:1024F000DB8A002B3FF41DAD002211460120FFF7BF
:10250000AFFC012200211046FFF7AAFC02220021A5
:102510001046FFF7A5FC032200210120FFF7A0FCD5
:1025200000210120FFF7BAFC01210846FFF7B6FCA5
:1025300002210120FFF7B2FC03210120FFF7AEFCCE
:10254000FFF7C8FC002409E040F2E53003F0F9F998
:102550004FF40071054801F0F6FA0134024BDB8AB2
:10256000A342F1DCE5E400BF5C060020000C024061
:10257000B74B1B8B002B3FF4DCAC00221146012033
:10258000FFF76EFC012200211046FFF769FC0222D2
:1025900000210120FFF764FC032204211046FFF70D
:1025A0005FFC00210120FFF779FC01210220FFF7E9
:1025B00075FC02210120FFF771FC03210120FFF7C8
:1025C0006DFCFFF787FC002409E040F2E53003F0E2
:1025D000B8F94FF400719F4801F0B5FA01349C4BF3
:1025E0001B8BA342F1DCA4E4994B1B8B002B3FF423
:1025F000A0AC974B5B8B002B3FF49BAC00221146A9
:102600000120FFF72DFC012200211046FFF728FCD6
:10261000022200210120FFF723FC032200210220D7
:10262000FFF71EFC00210120FFF738FC01210846BE
:10263000FFF734FC02210120FFF730FC03210120C9
:10264000FFF72CFCFFF746FC002409E040F2E530E0
:1026500003F077F94FF400717E4801F074FA013409
:102660007B4B5B8BA342F1DC63E4794B1B89002B32
:102670003FF45FAC002211460220FFF7F1FB01227C
:1026800000210320FFF7ECFB022200210120FFF7CD
:10269000E7FB032200210120FFF7E2FB00210120DC
:1026A000FFF7FCFB01210846FFF7F8FB0221084673
:1026B000FFF7F4FB03210120FFF7F0FBFFF70AFC13
:1026C000002409E040F2E53003F03BF94FF40071DB
:1026D000604801F038FA01345D4B1B89A342F1DCFC
:1026E00027E45B4B9B89002B3FF423AC002211466F
:1026F0000320FFF7B5FB012200210220FFF7B0FB0A
:10270000022200210120FFF7ABFB03220021012060
:10271000FFF7A6FB00210120FFF7C0FB01210846BF
:10272000FFF7BCFB02210120FFF7B8FB03210220C9
:10273000FFF7B4FBFFF7CEFB002409E040F2E530E1
:1027400003F0FFF84FF40071424801F0FCF9013446
:102750003F4B9B89A342F1DCFFF7EBBB3C4BDB8A91
:10276000002B3FF4E6AB002211460120FFF778FB77
:10277000012200211046FFF773FB022200211046C0
:10278000FFF76EFB032200211046FFF769FB0021D3
:102790000120FFF783FB01210220FFF77FFB0221CD
:1027A0000120FFF77BFB03210120FFF777FBFFF7F9
:1027B00091FB002409E040F2E53003F0C2F84FF449
:1027C0000071244801F0BFF90134214BDB8AA34298
:1027D000F1DCFFF7AEBB1E4B5B8B002B3FF4A9ABCC
:1027E000002211460120FFF73BFB01220021104689
:1027F000FFF736FB022200210320FFF731FB032203
:1028000000210220FFF72CFB00210220FFF746FBEE
:1028100001210846FFF742FB02210120FFF73EFBA2
:1028200003210120FFF73AFBFFF754FB002409E0E6
:1028300040F2E53003F085F84FF40071054801F0EF
:1028400082F90134024B5B8BA342F1DCFFF771BBD1
:102850005C060020000C024010B50B4B00221A60F1
:102860009A80FF221A705A700CE001340D2C06DC9D
:10287000064B185D0028F8D0FFF740FBF5E7142061
:1028800003F05FF80024F1E7800600201C740008C4
:1028900008B5104BFF221A705A7000249C70DC702F
:1028A0001C71FFF717FB0C4D01224FF400712846F5
:1028B00001F043F940F2E73003F043F822464FF4C9
:1028C0000071284601F039F940F2E73003F039F899
:1028D000DFE700BF80060020000C024000B583B097
:1028E000002200920D4B596C41F480415964596C9F
:1028F00001F48041009100990192196C41F08051DE
:1029000019641B6C03F080530193019B0F216FF03E
:10291000010001F091F903B05DF804FB00380240BA
:1029200010B501F0F5F9044602E00A2002F01EFF9E
:102930000B4B1B78002BF8D101F0EAF9031BC72BD6
:10294000F3D901F0E5F90446642306220549064857
:1029500002F09DF84FF40061044801F0F4F8E4E758
:102960009D07002080060020C4460020000C024085
:1029700000B58BB00A2269460948FEF7EBFD00233B
:1029800008E00AAA02EB430232F8281C054A22F8A2
:1029900013100133112BF4DD0BB05DF804FB00BF05
:1029A00000E001085C06002008B50A22024903483D
:1029B000FEF798FD08BD00BFAC06002000E001084E
:1029C00038B55B21764803F0CDFD00286CD08646F3
:1029D000013000210A4607E010F80C30303B714C02
:1029E00024F8113002320131944683185B782C2B85
:1029F0000DD08418A4782C2C09D08518ED782C2DB6
:102A000005D05D2B03D05D2C01D05D2D32D1122974
:102A100030DC2C2BE0D05D2BDED000EB0C04A47856
:102A20002C2C18D05D2C16D010F80C50303DA3F192
:102A3000300C05EB850303EB83050CEB8C035B008B
:102A400003EB85039BB22344303B564C24F81130F2
:102A500004320131C8E710F80CC0ACF1300C0CEBBB
:102A60008C0C03EB4C03303B4E4C24F811300332FA
:102A70000131B9E7132917D11EF80C305D2B13D1A2
:102A8000494B1B7813B1013B474A1370454B9B8C54
:102A90005BB1464A00211170012B20D0414B9B8C29
:102AA000012B27D0022B50D038BD404B01221A7089
:102AB000FAE70133112B16DC3D4A32F81310394A7C
:102AC00032F81320914203D0394921F81320012410
:102AD000374A32F81320002AEBD10130E9E700230E
:102AE00018461C46E6E71128D8D0002CD6D0FFF7B0
:102AF0005BFFD3E72F4A1278012AD3D02A490978FD
:102B00000029CFD1022A01D0002309E02A4B1868FE
:102B100002F09EFEF8E7294AD15C294AD1540133DC
:102B2000052BF8DD002306E0264A32F81310204A70
:102B300022F813100133112BF6DD234B186802F035
:102B400087FC1C4B01221A70AEE71A4B1B78022B34
:102B5000AAD0154A1278002AA6D1012B07D0164B0D
:102B6000186802F075FC134B02221A709CE7164B92
:102B7000186802F06DFE002304E0114AD15C0F4A90
:102B8000D1540133052BF8DD002306E0084A32F862
:102B900013100C4A22F813100133112BF6DDDEE777
:102BA000D4060020AC0600209E0700209D070020D0
:102BB0005C06002004000020E0030020A0070020A5
:102BC0008006002088060020E8030020674B7B2257
:102BD0001A7022225A70732199707420D8704FF0A5
:102BE000610C83F804C0587175209871D9711A72FC
:102BF0003A225A725B229A722C221A739A731A74AE
:102C00009A745D221A757D225A7500229A753022B7
:102C1000DA725A73DA735A74DA74554B1B78002BD4
:102C200034D1544B1B78012B31D0534B1B78002BE4
:102C300038D04E4B3422DA74504B9B7803F00302A9
:102C4000C3F38101022A3BD0032A3DD0012A2DD0B3
:102C5000C3F301129B09022A4AD0032A4CD0012A4D
:102C60003CD0464BDB7803F00302C3F38101022A18
:102C700056D0032A58D0012A48D0C3F301129B0929
:102C8000022A65D0032A67D0012A57D070473A4BF1
:102C90001B781BB1354B3322DA74CDE7334B31222D
:102CA000DA74C9E7314B3222DA74C5E7012903D05F
:102CB0002E4A3121D172CBE72C4A3521D172C7E798
:102CC0002A4A3221D172C3E7012903D0274A33218E
:102CD000D172BDE7254A3421D172B9E7012B03D067
:102CE000224B31225A73BCE7204B35225A73B8E786
:102CF0001E4B32225A73B4E7012B03D01B4B3322F5
:102D00005A73AEE7194B34225A73AAE7012903D04C
:102D1000164A3121D173B0E7144A3521D173ACE79B
:102D2000124A3221D173A8E7012903D00F4A332177
:102D3000D173A2E70D4A3421D1739EE7012B03D052
:102D40000A4B31225A747047084B35225A74704727
:102D5000064B32225A747047012B03D0034B3322A7
:102D60005A7493E7014B34225A747047AC07002021
:102D70009D070020040000209E0700208006002000
:102D800038B5FDF719FEFFF7F3FD494B186802F05F
:102D90005FFB484B186802F05BFB44F6206002F0D2
:102DA000D0FDFDF7E5FD4FF42F7002F0CAFD0B21B9
:102DB0004148FDF747FE4FF42F7002F0C2FD0C2191
:102DC0003E48FDF73FFE4FF47A7002F0BAFDFDF782
:102DD00001FEFDF74DFCFDF783FC00F099FF00F0CC
:102DE00097FF04464DE000F093FF00F59C4420342B
:102DF000FDF730FD49E0FFF7E3FD314D01224FF4CF
:102E00000041284600F099FE642002F09AFD00225D
:102E10004FF40041284600F090FE00F079FF294B66
:102E200001221A7000F074FF00F59C402030264B00
:102E30001860264B00221A7010E0FDF799FD4FF440
:102E40002F7002F07EFDFDF73FFCFDF711FC1F4BDC
:102E500000221A701D4A13780133137000F058FFD6
:102E6000194B1B68984209D9164B00221A7000F0C2
:102E70004FFF00F51C501030134B1860C82002F0B3
:102E800075FC00F045FFA042ADD8FFF79FFE10494A
:102E90001048FDF773FC0028ADD10C4B1B781E2B9E
:102EA000CBD8052BD6D9FDF755FDFDF719FCD1E799
:102EB000E8030020F00300202C7400083874000898
:102EC000000C0240A6070020A80700209C07002055
:102ED000AC070020D4060020002800F0E08170B587
:102EE00082B00446036813F0010F3BD09F4B9B68F0
:102EF00003F00C03042B2CD09C4B9B6803F00C03B9
:102F0000082B21D06368B3F5803F4FD0B3F5A02FD5
:102F100052D0964B1A6822F480321A601A6822F452
:102F200080221A606368002B50D000F0F1FE054645
:102F30008E4B1B6813F4003F14D100F0E9FE401BD8
:102F40006428F5D90320B1E1884B5B6813F4800F46
:102F5000D8D0864B1B6813F4003F03D06368002B66
:102F600000F09F81236813F0020F54D07F4B9B68C1
:102F700013F00C0F3ED07D4B9B6803F00C03082B25
:102F800033D0E368002B68D0794B01221A6000F03F
:102F9000BFFE0546754B1B6813F0020F54D100F0BD
:102FA000B7FE401B0228F5D903207FE16F4A136862
:102FB00043F480331360B5E76C4B1A6842F4802207
:102FC0001A601A6842F480321A60ABE700F0A0FE83
:102FD0000546664B1B6813F4003FC3D000F098FE13
:102FE000401B6428F5D9032060E1604B5B6813F453
:102FF000800FC6D15D4B1B6813F0020F03D0E3684E
:10300000012B40F05081594A136823F0F8032169DD
:1030100043EAC1031360236813F0080F42D06369C9
:103020006BB3534B0122C3F8802E00F071FE0546AE
:103030004E4B5B6F13F0020F34D100F069FE401B62
:103040000228F5D9032031E1484A136823F0F80338
:10305000216943EAC1031360DDE7454B00221A6092
:1030600000F056FE0546414B1B6813F0020FD2D00C
:1030700000F04EFE401B0228F5D9032016E13C4B20
:103080000022C3F8802E00F043FE0546374B5B6FED
:1030900013F0020F06D000F03BFE401B0228F5D9CA
:1030A000032003E1236813F0040F77D02F4B1B6C30
:1030B00013F0805F33D1002301932C4B1A6C42F044
:1030C00080521A641B6C03F080530193019B01250D
:1030D000284B1B6813F4807F23D0A368012B34D0C6
:1030E000052B38D0214B1A6F22F001021A671A6F94
:1030F00022F004021A67A368002B3DD000F008FEFE
:1031000006461A4B1B6F13F0020F46D100F000FE6B
:10311000801B41F288339842F3D90320C6E0002592
:10312000D6E7144A136843F48073136000F0F0FD8F
:103130000646104B1B6813F4807FCED100F0E8FDEB
:10314000801B0228F5D90320B0E0084A136F43F032
:1031500001031367CFE7054B1A6F42F004021A67A9
:103160001A6F42F001021A67C5E700BF003802403B
:10317000000047420070004000F0CAFD0646524B76
:103180001B6F13F0020F08D000F0C2FD801B41F24C
:1031900088339842F3D9032088E0EDB9A369002B66
:1031A00000F08380484A926802F00C02082A51D04D
:1031B000022B17D0454B00221A6600F0A9FD0446E9
:1031C000414B1B6813F0007F42D000F0A1FD001BB3
:1031D0000228F5D9032069E03B4A136C23F08053A1
:1031E0001364DBE7394B00221A6600F091FD0546B7
:1031F000354B1B6813F0007F06D000F089FD401BA3
:103200000228F5D9032051E0E369226A1343626A78
:1032100043EA8213A26A5208013A43EA0243E26A8D
:1032200043EA0263284A5360284B01221A6600F0E1
:103230006FFD0446244B1B6813F0007F06D100F09D
:1032400067FD001B0228F5D903202FE000202DE0A8
:1032500000202BE0012B2BD01B4B5B6803F480017B
:10326000E269914226D103F03F02216A8A4223D1CA
:10327000616A47F6C0721A40B2EB811F1ED103F497
:103280004031A26A5208013AB1EB024F18D103F063
:103290007063E26AB3EB026F14D1002006E00120F4
:1032A0007047012002E0012000E0002002B070BD64
:1032B0000120FBE70120F9E70120F7E70120F5E70E
:1032C0000120F3E70120F1E7003802400000474207
:1032D00008B5314B9B6803F00C03042B57D0082B27
:1032E00057D12D4B5A6802F03F025B6813F4800FF0
:1032F0002AD0294B5968C1F3881C4FEA4C11B1EB15
:103300000C006EEB0E0E4FEA8E1343EA90638101C0
:10331000091A63EB0E03DB0043EA5173C90011EB9A
:103320000C0C43F10003590200234FEA4C2041EA00
:10333000DC51FCF7A5FF184B5B68C3F30143013375
:103340005B00B0FBF3F025E0134B5968C1F3881C18
:103350004FEA4C11B1EB0C006EEB0E0E4FEA8E13E0
:1033600043EA90638101091A63EB0E03DB0043EA31
:103370005173C90011EB0C0C43F1000399020023B7
:103380004FEA8C2041EA9C51FCF77AFFD3E70348CF
:1033900000E0034808BD00BF0038024000127A0078
:1033A0000024F400002800F09B8070B50D46044610
:1033B0004F4B1B6803F007038B4208D2CBB24C4A39
:1033C0001370136803F007038B4240F08B8023686F
:1033D00013F0020F17D013F0040F04D0454A93687E
:1033E00043F4E0539360236813F0080F04D0414A7C
:1033F000936843F4604393603E4A936823F0F0037C
:10340000A1680B439360236813F0010F32D0636807
:10341000012B21D09A1E012A25D9364A126812F0B2
:10342000020F61D033498A6822F0030213438B6094
:1034300000F06EFC06462F4B9B6803F00C0362689D
:10344000B3EB820F16D000F063FC801B41F288338F
:103450009842F0D9032042E0264A126812F4003F55
:10346000E0D101203BE0234A126812F0007FD9D15D
:10347000012034E01E4B1B6803F00703AB4207D961
:10348000EAB21B4B1A701B6803F00703AB422DD145
:10349000236813F0040F06D0164A936823F4E05310
:1034A000E1680B439360236813F0080F07D0114ABB
:1034B000936823F46043216943EAC1039360FFF7F3
:1034C00007FF0C4B9B68C3F303130B4AD35CD84034
:1034D0000A4B18600A4B186802F0EAFC002070BD25
:1034E000012070470120FAE70120F8E70120F6E704
:1034F000003C024000380240487400080C000020E4
:1035000008000020014B1868704700BF0C00002025
:1035100008B5FFF7F7FF044B9B68C3F38223034A08
:10352000D35CD84008BD00BF003802405874000882
:1035300008B5FFF7E7FF044B9B68C3F34233034A28
:10354000D35CD84008BD00BF003802405874000862
:103550000F2303600B4B9A6802F0030242609A68E3
:1035600002F0F00282609A6802F4E052C2609B6846
:10357000DB0803F4E0530361034B1B6803F007030C
:103580000B60704700380240003C024010B40A490A
:103590000C6924F440740C610C6944F440740C61AF
:1035A0000C6944F001040C610260BFF36F8F43604B
:1035B0005DF8044B704700BF003C0240074B1A699E
:1035C00022F440721A611A6942F400721A611A698F
:1035D00042F001021A610160704700BF003C0240E6
:1035E000074B1A6922F440721A611A6942F4807218
:1035F0001A611A6942F001021A610180704700BF26
:10360000003C0240064B1A6922F440721A611A69A2
:103610001A611A6942F001021A610170704700BF15
:10362000003C0240204BDB6813F0100F07D01F4A0C
:10363000D36943F01003D3611B4B1022DA601A4B9D
:10364000DB6813F0200F07D0184AD36943F0080352
:10365000D361154B2022DA60134BDB6813F0400F67
:1036600007D0124AD36943F00403D3610E4B4022C2
:10367000DA600D4BDB6813F0800F07D00B4AD3697B
:1036800043F00203D361084B8022DA60064BDB680B
:1036900013F0020F07D0054AD36943F02003D3612A
:1036A000014B0222DA607047003C0240C80700204C
:1036B000094B1B69002B01DB00207047064B074AB2
:1036C0005A6002F188325A601B69002B01DB00202E
:1036D00070470120704700BF003C0240230167454E
:1036E000034A136943F0004313610020704700BF91
:1036F000003C0240014BD869704700BFC80700205A
:1037000038B50446144B0022DA6100F001FB05468F
:10371000124BDB6813F4803F0AD0B4F1FF3FF7D0BF
:1037200024B100F0F5FA401BA042F1D903200DE0CE
:103730000A4BDB6813F0010F02D0084B0122DA605C
:10374000064BDB6813F0F20F01D1002038BDFFF704
:1037500069FF0120FAE700BFC8070020003C0240D3
:10376000F8B516461B4A127E012A30D004460D4693
:103770001F46184B01221A764CF25030FFF7C0FF5B
:1037800090B9ACB1012C18D0022C1BD032463B466C
:103790002846FFF7FBFE4CF25030FFF7B1FF0E4A10
:1037A000136923F0010313610A4B00221A76F8BD56
:1037B000F1B22846FFF726FFEDE7B1B22846FFF742
:1037C0000FFFE8E731462846FFF7F8FEE3E702205F
:1037D000EDE700BFC8070020003C0240074B196915
:1037E00021F440711961196941F0040119611A69E4
:1037F00042EA002242F480321A617047003C0240E3
:1038000049B1012921D0022902D04FF4407C04E0C3
:103810004FF4007C01E04FF0000C0D4B196921F4CE
:10382000407119611A6942EA0C021A611A6922F0A0
:10383000F8021A611A6942EAC00040F002001861F9
:103840001A6942F480321A6170474FF4807CE4E7D1
:10385000003C0240164B1B6813F4007F10D0144B41
:103860001A6822F400721A601A6842F400621A6040
:103870001A6822F400621A601A6842F400721A6030
:103880000B4B1B6813F4806F10D0094B1A6822F49D
:1038900080621A601A6842F480521A601A6822F430
:1038A00080521A601A6842F480621A60704700BF42
:1038B000003C0240F8B5224B1B7E012B3ED0044653
:1038C0000E461F4B01221A764CF25030FFF718FFBC
:1038D000074670BB4FF0FF3333602368012B16D0CF
:1038E000A568E368A2681344AB4220D9217C28462E
:1038F000FFF786FF4CF25030FFF702FF114A1369C1
:1039000023F0FA031361074680B90135E9E76168DE
:10391000207CFFF763FF4CF25030FFF7F1FE0746C3
:10392000084A136923F00403136100E03560FFF7D0
:1039300091FF034B00221A763846F8BD0227FBE7B9
:10394000C8070020003C024000230F2B00F2E48057
:1039500070B582B060E085685E000324B44025EA5B
:103960000405CC68B4402C438460456825EA020510
:103970004C68C4F300129A402A4342605AE0DC08C3
:10398000083450F8246003F0070295000F22AA4083
:1039900026EA020E0A69AA4042EA0E0240F82420F2
:1039A0005CE0072200E0002202FA0EF22A43023411
:1039B0005A4D45F824205A4A94686FEA0C0224EACA
:1039C0000C054E6816F4801F01D04CEA0405544CD7
:1039D000A560E46802EA04054E6816F4001F01D0F1
:1039E0004CEA04054E4CE560646802EA04054E6842
:1039F00016F4003F01D04CEA0405494C6560246888
:103A000022404D6815F4803F01D04CEA0402444C3A
:103A1000226001330F2B7DD801229A400C6804EA02
:103A2000020C32EA0404F4D14C6804F00304013CB3
:103A3000012C90D94A6802F00302032A09D0C46815
:103A40005D000322AA4024EA02048A68AA402243B5
:103A5000C2604A6802F00302022A90D004684FEA6A
:103A6000430E032202FA0EF224EA02044A6802F02C
:103A7000030202FA0EF2224302604A6812F4403F47
:103A8000C7D000220192274A546C44F48044546405
:103A9000526C02F480420192019A9C08A51C1F4AB4
:103AA00052F8255003F003024FEA820E0F2202FA69
:103AB0000EF225EA02051C4A90423FF474AF02F56B
:103AC000806290421AD002F58062904218D002F5CE
:103AD0008062904216D002F58062904214D002F5C6
:103AE0008062904212D002F58062904210D002F5BE
:103AF000806290423FF455AF082255E7012253E718
:103B0000022251E703224FE704224DE705224BE74B
:103B1000062249E702B070BD704700BF003801407F
:103B2000003C014000380240000002400369194295
:103B300001D001207047002070470AB181617047B1
:103B4000090481617047436901EA030221EA030124
:103B500041EA02418161704770B50446866D00F00C
:103B6000D7F894F83530DBB2022B06D0802363659A
:103B7000002384F83430012070BD054622681368A4
:103B800023F0160313602268536923F08003536106
:103B9000236CE3B12268136823F0080313602268E2
:103BA000136823F00103136023681B6813F0010FEF
:103BB00011D000F0ADF8431B052BF5D92023636528
:103BC000032084F83500002384F83430D4E7A36C54
:103BD000002BDFD1E3E7E26D3F239340B360012385
:103BE00084F83530002084F83400C5E790F835308B
:103BF000DBB2022B03D080234365012070470523ED
:103C000080F835300268136823F001031360002048
:103C100070470000074AD36823F4E0631B041B0CC1
:103C2000000200F4E060034343F0BF6343F4003359
:103C3000D360704700ED00E000B5194BDB68C3F3BB
:103C40000223C3F1070CBCF1040F28BF4FF0040C92
:103C500003F1040EBEF1060F18D9033B4FF0FF3EEF
:103C60000EFA0CFC21EA0C0199400EFA03F322EA49
:103C70000303194300280BDB0901C9B200F16040BE
:103C800000F5614080F800135DF804FB0023E5E7D0
:103C900000F00F000901C9B2024B1954F4E700BF4C
:103CA00000ED00E014ED00E0002807DB00F01F024B
:103CB000400901239340024A42F82030704700BF78
:103CC00000E100E008B50B4B1A6842F400721A607C
:103CD0001A6842F480621A601A6842F480721A60AC
:103CE0000320FFF797FF0F2002F0E2F8FEF7F6FD42
:103CF000002008BD003C0240034A1168034B1B78BA
:103D00000B441360704700BFE80700200500002047
:103D1000014B1868704700BFE807002038B504461B
:103D2000FFF7F6FF0546B4F1FF3F02D0044B1B78C6
:103D30001C44FFF7EDFF401BA042FAD338BD00BF83
:103D4000050000202DE9F04782B005468846174659
:103D50001E46FFF7DDFF0A9B1B1A03EB0609FFF760
:103D6000D7FF82462B4B1B68C3F3CB3309FB03F30E
:103D700001932B689C6838EA04030CBF4FF0010CD8
:103D80004FF0000CBC4540D0B6F1FF3FF1D0FFF73B
:103D9000BFFFA0EB0A0048450AD2B9F1000F07D0D7
:103DA000019A02B14A46019B013B01939146E0E72B
:103DB0002A68536823F0E00353606B68B3F5827F91
:103DC0000BD0AB6AB3F5005F14D0012385F85130F6
:103DD000002385F85030032018E0AB68B3F5004F9E
:103DE00002D0B3F5806FECD12A68136823F040034A
:103DF0001360E6E72A68136823F4005313602A6807
:103E0000136843F400531360DFE7002002B0BDE8FD
:103E1000F08700BF0C00002010B584B00446164B9C
:103E20001868164BA3FB0030400D4FF47A7303FB68
:103E300000F003906368B3F5827F0BD0039BBBB1A6
:103E4000039B013B039323689B6813F0800FF5D11C
:103E500000200EE000920B46002280212046FFF752
:103E600071FF30B1636D43F020036365032000E010
:103E7000002004B010BD00BF0C000020819F5E1622
:103E800000285AD010B50446436A33B94368B3F5E5
:103E9000827F05D00023C36102E0002303614361F8
:103EA0000023A36294F85130002B40D0022384F801
:103EB00051302268136823F040031360636803F4F1
:103EC0008273A26802F404421343E26802F40062BF
:103ED0001343226902F002021343626902F00102F5
:103EE0001343A26902F400721343E26902F038023C
:103EF0001343226A02F080021343A26A02F40052C2
:103F0000216813430B60638B03F00403626A02F0C1
:103F10001002216813434B602268D36923F40063C5
:103F2000D36100206065012384F8513010BD84F80E
:103F30005030204602F0F8F8B8E7012070472DE92C
:103F4000F04383B01D4690F85030012B00F0D18033
:103F5000044688469146012380F85030FFF7D8FE8A
:103F6000074694F85160F6B2012E40F0AF80B8F1E8
:103F7000000F00F0AC80B9F1000F00F0A88003231F
:103F800084F8513000236365C4F83080A4F834907D
:103F9000A4F83690A363A387E38763642364A368CC
:103FA000B3F5004F1ED023681A6812F0400F03D1FA
:103FB0001A6842F040021A60E368B3F5006F1CD043
:103FC000636813B1B9F1010F52D1226B23681278E3
:103FD0001A73236B01332363E38E9BB2013B9BB2C5
:103FE000E38645E02268136823F0400313602268EB
:103FF000136843F480431360D5E7636813B1B9F1E4
:10400000010F16D1226B23681288DA60236B02330A
:104010002363E38E9BB2013B9BB2E38609E0FFF78B
:1040200077FEC01BA84202D3B5F1FF3F59D1002D46
:1040300059D0E38E9BB2002B33D023689A6812F0DC
:10404000020FECD0226B1288DA60236B02332363F9
:10405000E38E9BB2013B9BB2E386EAE7FFF758FE93
:10406000C01BA84202D3B5F1FF3F3ED1002D3ED088
:10407000E38E9BB2ABB123689A6812F0020FEDD0C9
:10408000226B12781A73236B01332363B4F836C0A2
:104090001FFA8CFC0CF1FF3C1FFA8CFCA4F836C014
:1040A000E6E73A4629462046FFF7B6FE08B1202348
:1040B0006365A36833B901932368DA6801929B684A
:1040C0000193019B636D13B9002600E002260123D2
:1040D00084F85130002384F85030304603B0BDE8F6
:1040E000F0830326F3E70326F1E70326EFE7032631
:1040F000EDE70226F1E7704730B585B00446026867
:1041000051689368C3F3801013F0400F05D113F08A
:10411000010F02D011F0400F69D113F0020F02D04D
:1041200011F0800F67D1C3F3401513F0200F03D1B6
:1041300010B913F4807F61D011F0200F5ED078B1F8
:1041400094F85100C0B203285AD0606D40F00400CA
:10415000606500200090D068009090680090009802
:1041600065B1606D40F001006065002002909068CC
:104170000290106820F040001060029A13F4807FD3
:1041800009D0636D43F0080363650023039323683C
:104190009B680393039B636D002B2FD022685368A9
:1041A00023F0E0035360012384F8513011F0030F32
:1041B0002ED02268536823F003035360E36C4BB1A5
:1041C000154A1A65E06CFFF711FD18B1636D43F0F5
:1041D00040036365A36C8BB10F4A1A65A06CFFF7AF
:1041E00005FD58B1636D43F04003636506E0236C41
:1041F0002046984702E0636C2046984705B030BDE2
:1042000000230193D368019393680193019BF5E721
:104210002046FFF770FFF1E71D42000808B5806BEC
:104220000023C387C386FFF766FF08BD10B4036A87
:10423000046A24F001040462846924F0F00C4CEA5E
:10424000021223F00A030B43826103625DF8044B00
:10425000704710B4046A24F0100404628469036A8D
:1042600024F4704C4CEA023223F0A00343EA011319
:10427000826103625DF8044B7047836823F070032A
:104280000B4343F0070383607047000090F83D3014
:10429000DBB2012B32D1022380F83D300368194A8A
:1042A000934220D0B3F1804F1DD0A2F57C429342BF
:1042B00019D002F58062934215D002F580629342D4
:1042C00011D002F5784293420DD002F5705293421C
:1042D00009D0A2F59432934205D01A6842F0010247
:1042E0001A60002070479A6802F00702062A07D079
:1042F0001A6842F001021A600020704701207047DE
:10430000002070470000014090F83D30DBB2012BE7
:1043100037D1022380F83D300268D36843F00103AF
:10432000D3600368194A934220D0B3F1804F1DD067
:10433000A2F57C42934219D002F58062934215D0D7
:1043400002F58062934211D002F5784293420DD07B
:1043500002F57052934209D0A2F59432934205D0EF
:104360001A6842F001021A60002070479A6802F051
:104370000702062A07D01A6842F001021A600020DC
:104380007047012070470020704700BF00000140C7
:10439000704770477047704710B5044603681A6944
:1043A00012F0020F11D0DA6812F0020F0DD06FF088
:1043B00002021A610123037703689B6913F0030F5C
:1043C00070D0FFF7E6FF0023237723681A6912F005
:1043D000040F12D0DA6812F0040F0ED06FF004024E
:1043E0001A610223237723689B6913F4407F5FD00F
:1043F0002046FFF7CEFF0023237723681A6912F0C7
:10440000080F12D0DA6812F0080F0ED06FF0080211
:104410001A61042323772368DB6913F0030F4ED05E
:104420002046FFF7B6FF0023237723681A6912F0AE
:10443000100F12D0DA6812F0100F0ED06FF01002C9
:104440001A61082323772368DB6913F4407F3DD08A
:104450002046FFF79EFF0023237723681A6912F096
:10446000010F03D0DA6812F0010F36D123681A6900
:1044700012F0800F03D0DA6812F0800F34D1236875
:104480001A6912F0400F03D0DA6812F0400F32D1EF
:1044900023681A6912F0200F03D0DA6812F0200F97
:1044A00030D110BDFFF774FF2046FFF773FF8AE796
:1044B0002046FFF76DFF2046FFF76CFF9BE7204685
:1044C000FFF766FF2046FFF765FFACE72046FFF7E2
:1044D0005FFF2046FFF75EFFBDE76FF001021A6144
:1044E0002046FCF74FF8C1E76FF080021A612046C2
:1044F00000F073F9C3E76FF040021A612046FFF73E
:104500004AFFC5E76FF020021A61204600F064F907
:10451000C7E700000368304A904212D0B0F1804FE4
:104520000FD0A2F57C4290420BD002F580629042FF
:1045300007D002F58062904203D002F578429042A3
:1045400003D123F070034A681343234A90422AD0D0
:10455000B0F1804F27D0A2F57C42904223D002F5E3
:10456000806290421FD002F5806290421BD002F51B
:104570007842904217D002F57052904213D002F563
:10458000806290420FD002F5806290420BD0A2F57B
:104590009832904207D002F58062904203D002F533
:1045A0008062904203D123F44073CA68134323F01E
:1045B00080034A69134303608B68C3620B6883629C
:1045C000054B984203D003F58063984201D10B69F3
:1045D00003630123436170470000014040B310B5FD
:1045E000044690F83D30F3B1022384F83D30214673
:1045F00051F8040BFFF78EFF012384F8463084F84E
:104600003E3084F83F3084F8403084F8413084F8FC
:10461000423084F8433084F8443084F8453084F8DC
:104620003D30002010BD80F83C3001F041FEDBE75A
:104630000120704710B4846824F47F4C42EA0322BE
:104640000A4342EA0C0282605DF8044B704790F81E
:104650003C30012B78D010B50446012380F83C3063
:10466000022380F83D300268936823F47F4323F0EF
:10467000770393600B68602B4CD029D8402B54D023
:104680000CD9502B22D1CA6849680068FFF7CEFDCB
:1046900050212068FFF7F1FD002005E0202B0DD010
:1046A00009D9302B0AD00120012384F83D300023A2
:1046B00084F83C3010BD0BB1102B05D11946206891
:1046C000FFF7DBFD0020EFE70120EDE70120EBE73E
:1046D000B3F5805F34D0B3F5005F0CD1CB684A6886
:1046E00089680068FFF7A6FF2268936843F4804357
:1046F00093600020D8E7702B24D1CB684A68896882
:104700000068FFF797FF2268936843F07703936090
:104710000020C9E7CA6849680068FFF79AFD602170
:104720002068FFF7AAFD0020BEE7CA684968006854
:10473000FFF77CFD40212068FFF79FFD0020B3E7D5
:104740000020B1E70120AFE70220704790F83C302D
:10475000012B3DD010B4012380F83C30022380F8B7
:104760003D3003685A689C6822F0700C0A6842EA7F
:104770000C025A600368174A93421AD0B3F1804F73
:1047800017D0A2F57C42934213D002F58062934287
:104790000FD002F5806293420BD002F5784293422B
:1047A00007D002F57052934203D0A2F5943293429F
:1047B00004D124F080044A6814439C60012380F8EB
:1047C0003D30002380F83C3018465DF8044B7047BC
:1047D000022070470000014070477047026802F1F4
:1047E0000C0353E8003F23F490730C3242E800318D
:1047F0000029F3D1026802F1140353E8003F23F0CB
:104800000103143242E800310029F3D1036B012B7C
:1048100005D0202380F83E300023036370470268F0
:1048200002F10C0353E8003F23F010030C3242E87E
:1048300000310029F3D1ECE790F83D30DBB2212BB9
:1048400001D0022070478368B3F5805F17D0036AF8
:104850005A1C02621A7803685A60C38C9BB2013BEF
:104860009BB2C3844BB90268D36823F08003D36042
:104870000268D36843F04003D360002070470369A7
:10488000002BE4D1036A1B880268C3F3080353605A
:10489000036A02330362E0E738B50446026813692D
:1048A00023F44053C1680B431361836802691343C7
:1048B00042691343C2691A430168CB6823F4164363
:1048C00023F00C031343CB600268536923F4407355
:1048D00081690B4353610368314A934206D002F564
:1048E0008062934202D0FEF713FE01E0FEF720FE45
:1048F000E369B3F5004F29D00021031849411B1883
:1049000041F10001C90041EA5371DB0018186368E6
:104910004FEA83024FEA937341F10001FBF7B0FCC9
:10492000204DA5FB00325109642303FB11031B0139
:104930003233A5FB03235B0903F0F00202EB011203
:1049400003F00F03216813448B6038BD0023021865
:1049500043EB0301121841F10001C90041EA527111
:10496000D200101841F10001626892185B41FBF718
:1049700087FC0C4DA5FB00325109642303FB110396
:10498000DB003233A5FB03235B095A0002F4F87203
:1049900002EB011203F00703216813448B60D4E794
:1049A000001001401F85EB512DE9F84305460F46E5
:1049B00016469946DDF820802C68246837EA0403FF
:1049C0000CBF4FF0010C4FF0000CB4452DD1B8F1E5
:1049D000FF3FF1D0B8F1000F05D0FFF799F9A0EB38
:1049E00009004045E8D92A6802F10C0353E8003F6A
:1049F00023F4D0730C3242E800310029F3D12A6845
:104A000002F1140353E8003F23F00103143242E89B
:104A100000310029F3D1202385F83D3085F83E3060
:104A2000002385F83C30032000E00020BDE8F88337
:104A300058B310B5044690F83D300BB3242384F8E6
:104A40003D302268D36823F40053D3602046FFF73B
:104A500023FF2268136923F490431361226853698A
:104A600023F02A0353612268D36843F40053D360D0
:104A700000202064202384F83D3084F83E3010BDAF
:104A800080F83C3001F060FCD8E7012070472DE948
:104A9000F04182B01E4690F83D30DBB2202B54D15D
:104AA00004460D469046002953D0002A53D090F872
:104AB0003C30012B51D0012380F83C3000230364AB
:104AC000212380F83D30FFF723F90746A4F824801E
:104AD000A4F82680A368B3F5805F05D04FF00008E6
:104AE000002384F83C3012E0236913B14FF0000832
:104AF000F6E7A8460025F3E738F8023B2268C3F33F
:104B000008035360E28C92B2013A92B2E284E38CE1
:104B10009BB273B100963B46002280212046FFF7EE
:104B200043FFE0B9002DE7D015F8012B23685A6048
:104B3000E8E700963B46002240212046FFF734FF7D
:104B400078B9202384F83D3000E0022002B0BDE8AF
:104B5000F0810120FAE70120F8E70220F6E70320C0
:104B6000F4E70320F2E7704708B50168CA6822F04D
:104B70004002CA60202280F83D20FFF7F4FF0020A9
:104B800008BD704708B5806B0023C385C384FFF759
:104B9000F8FF08BD704790F83E30DBB2222B67D19A
:104BA0008368B3F5805F4DD0826AB3F5805F04D02F
:104BB000002B54D10369002B51D103685B6813703B
:104BC000836A01338362C38D9BB2013B9BB2C38571
:104BD000002B4FD100B583B00268D36823F02003C7
:104BE000D3600268D36823F48073D360026853698A
:104BF00023F001035361202380F83E30036B012B27
:104C000033D100230363026802F10C0353E8003F31
:104C100023F010030C3242E800310029F3D103687D
:104C20001A6812F0100F06D0002201921A68019241
:104C30005B680193019B818DFFF7ACFF002003B0FF
:104C40005DF804FB0269002AAED1826A03685B68E2
:104C5000C3F308031380836A02338362B3E70368F4
:104C60005B6803F07F031370AAE7FBF789FEE5E7B3
:104C7000022070470020704730B583B004460268B8
:104C80001368D068516913F00F0505D113F0200F98
:104C900002D010F0200F19D12DB111F0010119D15E
:104CA00010F4907F16D1216B01297DD013F0800F75
:104CB00003D010F0800F40F0158113F0400F03D0A7
:104CC00010F0400F40F0128103B030BD2046FFF7D6
:104CD00062FFF9E713F0010F06D010F4807F03D0D4
:104CE000226C42F00102226413F0040F04D019B1C7
:104CF000226C42F00202226413F0020F04D019B1B8
:104D0000226C42F00402226413F0080F07D010F066
:104D1000200F00D119B1226C42F008022264226CEB
:104D2000002AD1D013F0200F02D010F0200F29D18B
:104D300023685B6903F04003226C12F0080F00D176
:104D400063B32046FFF74AFD23685B6913F0400F09
:104D500020D0226802F1140353E8003F23F04003FF
:104D6000143242E800310029F3D1A36B73B1614AD8
:104D70001A65A06BFEF73AFF0028A5D0A06B036D63
:104D80009847A1E72046FFF706FFD1E72046FFF747
:104D9000F8FE99E72046FFF7F4FE95E72046FFF777
:104DA000F0FE002323648FE713F0100F3FF47EAF73
:104DB00010F0100F3FF47AAF0023019313680193B2
:104DC00053680193019B536913F0400F50D0A26BBD
:104DD00013685B689BB2002B3FF476AFA18D9942BC
:104DE0007FF672AFE385D369B3F5807F37D0226851
:104DF00002F10C0353E8003F23F480730C3242E8C5
:104E000000310029F3D1226802F1140353E8003F76
:104E100023F00103143242E800310029F3D1226863
:104E200002F1140353E8003F23F04003143242E838
:104E300000310029F3D1202384F83E30002323637E
:104E4000226802F10C0353E8003F23F010030C32F8
:104E500042E800310029F3D1A06BFEF77DFEA18D61
:104E6000E38D9BB2C91A89B22046FFF793FE2BE768
:104E7000A18DE38D9BB2C91A89B2E38D9BB2002B41
:104E80003FF422AF00293FF41FAF226802F10C0368
:104E900053E8003F23F490730C3242E800300028BE
:104EA000F3D1226802F1140353E8003F23F0010319
:104EB000143242E800300028F3D1202384F83E3039
:104EC00000232363226802F10C0353E8003F23F020
:104ED00010030C3242E800300028F3D12046FFF7DF
:104EE00059FEF1E62046FFF7A7FCEDE62046FFF766
:104EF0003BFEE9E6854B000881628285C28500237E
:104F00000364222280F83E2080F83C30036923B1FC
:104F10000268D36843F48073D3600268536943F036
:104F2000010353610268D36843F02003D36000207B
:104F3000704708B590F83E30DBB2202B0DD171B12F
:104F40007AB190F83C30012B0DD0012380F83C3031
:104F500000230363FFF7D0FF00E0022008BD01201B
:104F6000FCE70120FAE70220F8E70000034AD2F844
:104F7000883043F47003C2F88830704700ED00E0D9
:104F800000F1080343604FF0FF328260C3600361A9
:104F900000230360704700230361704743684B6040
:104FA0009A688A6051609960086103680133036000
:104FB000704730B40D68B5F1FF3F11D000F1080320
:104FC0001C465B681A68AA42FAD963684B6099600C
:104FD0008C606160086103680133036030BC704716
:104FE0000469F2E70369416882688A604168516038
:104FF0005A68824206D0002202611A68013A1A6099
:105000001868704782685A60F5E7000028B1416966
:105010000C4A91420AD0002070474FF0500383F3AE
:105020001188BFF36F8FBFF34F8FFEE7836A064A85
:10503000934202D01BB1002070470020704701202E
:10504000704700BFE8080020D0080020084B1B680C
:105050001B6823B9074B4FF0FF321A607047044BAF
:105060001B68DB68DB685A68024B1A60704700BF38
:10507000F0070020C40800202DE9F04707469846B5
:10508000089DDDF824900A9C266B02F18042013ACB
:1050900006EB820626F0070600293AD08E464FF02E
:1050A000000CBCF10F0F0BD81EF80C2004EB0C0306
:1050B00083F834201EF80C3013B10CF1010CF0E72A
:1050C000002384F84330062D00D90625E562656487
:1050D0004FF0000AC4F848A0201DFFF75CFF04F160
:1050E0001800FFF758FF2461C5F10705A561646248
:1050F000C4F84CA084F850A042463946304600F02F
:1051000085FD2060B9F1000F01D0C9F80040BDE86D
:10511000F087002384F83430D5E7000038B5002448
:1051200007E004EB840293000E481844FFF728FFC1
:105130000134062CF5D90C4D2846FFF721FF0B4C06
:105140002046FFF71DFF0A48FFF71AFF0948FFF73F
:1051500017FF0948FFF714FF084B1D60084B1C6040
:1051600038BD00BFF807002098080020AC080020D8
:10517000D0080020FC080020E8080020F0070020EC
:10518000F407002010B5044600F06CFD214A1368B6
:1051900001331360204B1B685BB1204B1B686BB95C
:1051A0001D4B1B68DA6AE36A9A4207D81A4B1C60E7
:1051B00004E0194B1C601368012B28D0184A1368AF
:1051C00001331360E06A01238340164A11680B43E0
:1051D000136000EB8000211D134B03EB8000FFF7F1
:1051E000DDFE00F061FD0D4B1B687BB10A4B1B68B7
:1051F000DA6AE36A9A4209D24FF0E0234FF0805214
:10520000C3F8042DBFF34F8FBFF36F8F10BDFFF7AF
:1052100085FFD3E784080020EC070020E408002085
:105220009008002094080020F807002010B50446DC
:1052300090F8513063B1012B11D0022B0ED04FF0FA
:10524000500383F31188BFF36F8FBFF34F8FFEE7D7
:10525000006B00F05FFC204600F05CFC10BD00F02D
:1052600059FCFBE70F4B1B68D3B110B500F0FAFCFB
:105270000D4BDB68DC68201DFFF7B4FE0B4A13689A
:10528000013B1360074A1368013B136000F00CFDFB
:105290002046FFF7CBFF034B1B68002BE6D110BD68
:1052A000704700BF88080020FC0800208408002008
:1052B00008B5FFF7D7FF074B1B68012BF9D94FF053
:1052C000E0234FF08052C3F8042DBFF34F8FBFF39C
:1052D0006F8FEEE7F807002070B504460D461D4BB2
:1052E0001E681D4B18680430FFF77CFE50B91A4B3E
:1052F0001B68DA6A012303FA02F218490B6823EAF1
:1053000002030B60B4F1FF3F0DD03444124B1B6815
:105310005C60A64210D9124B18680F4B1968043113
:10532000FFF747FE70BD002DEFD00B4B196804311D
:105330000C48FFF733FEF5E70B4B1868064B19686E
:105340000431FFF736FE094B1B68A342EAD9074B2D
:105350001C60E7E710090020EC07002094080020FB
:10536000F4070020E8080020F0070020C40800200F
:1053700030B587B00B9C7CB10C9DB5B1542504951C
:10538000049D542D1AD04FF0500383F31188BFF3BE
:105390006F8FBFF34F8FFEE74FF0500383F31188F9
:1053A000BFF36F8FBFF34F8FFEE74FF0500383F3D0
:1053B0001188BFF36F8FBFF34F8FFEE7049D0C9DE5
:1053C0002C63022485F8514000240394029505AC17
:1053D00001940A9C0094FFF74FFE0C98FFF7D2FE51
:1053E000059807B030BD2DE9F04385B007468846E3
:1053F00014461E46900000F00FFB00B38146542077
:1054000000F00AFB0546B0B1C0F83090E5B10023CA
:1054100085F85130039302950D9B01930C9B0093EB
:105420003346224641463846FFF726FE2846FFF718
:10543000A9FE012005E0484600F06CFBE6E74FF0CE
:10544000FF3005B0BDE8F0834FF0FF30F9E7000012
:1054500038B568B104461D4B1B68834207D000F085
:1054600001FC2046FFF7D2FD58B900F01DFC38BD05
:105470004FF0500383F31188BFF36F8FBFF34F8F4B
:10548000FEE7251D2846FFF7ADFDE06A01238340B6
:105490000F4A11680B43136000EB800029460D4B47
:1054A00003EB8000FFF77AFDE26A084B1B68DB6ABA
:1054B0009A42DAD34FF0E0234FF08052C3F8042D24
:1054C000BFF34F8FBFF36F8FCFE700BFEC07002014
:1054D00094080020F807002010B588B00024059437
:1054E000069407AA06A905A8FBF72AFF059B0293C5
:1054F000069B019300942346079A0E490E48FFF736
:1055000037FF0E4B186090B14FF0500383F31188B2
:10551000BFF36F8FBFF34F8F094B4FF0FF321A600D
:10552000084B01221A60084B1C6000F035FC08B0E3
:1055300010BD00BF60740008B1520008C008002010
:10554000C4080020E408002010090020024A136863
:1055500001331360704700BF8C080020F8B53A4B48
:105560001B68002B69D1394B1D6801351D60C5B919
:10557000374B1B681B6843B14FF0500383F311880E
:10558000BFF36F8FBFF34F8FFEE7314A1168314B86
:10559000186810601960304A136801331360FFF710
:1055A00055FD2E4B1B68AB423DD900272C4B1B6889
:1055B000DB6A03EB83039A002A4B9B58012B00D92B
:1055C0000127294B1B68002B3CD001273AE001271B
:1055D0001F4B1B681B6843B31D4B1B68DB68DC68F3
:1055E00063689D4226D3261D3046FFF7FBFCA36A65
:1055F0001BB104F11800FFF7F5FCE36A01229A40A1
:105600001A49086802430A6003EB83039A00314693
:1056100014481044FFF7C2FCE26A114B1B68DB6AB6
:105620009A42D4D2D4E70027D2E70C4B4FF0FF3296
:105630001A60BBE7094A1360B8E70D4A13680133E3
:10564000136000273846F8BD8C08002010090020A0
:10565000F0070020F4070020C8080020C40800203C
:10566000EC070020F807002014090020940800200F
:10567000CC08002038B5354B1B6843B94FF05003B8
:1056800083F31188BFF36F8FBFF34F8FFEE700F0F6
:10569000E9FA2E4B1A68013A1A601B68002B4FD1A9
:1056A0002B4B1B680BB900244BE00024294B1B68D3
:1056B0001BB3284BDB68DC6804F11800FFF792FC91
:1056C000251D2846FFF78EFCE06A01238340224A0D
:1056D00011680B43136000EB800029461F4B03EB5E
:1056E0008000FFF75BFCE26A1D4B1B68DB6A9A4295
:1056F000DCD31C4B01221A60D8E70CB1FFF7A6FCE3
:10570000194B1C6884B9174B1C68D4B14FF0E023C7
:105710004FF08052C3F8042DBFF34F8FBFF36F8F4C
:1057200001240EE0013C07D0FFF718FF0028F9D054
:105730000C4B01221A60F5E70B4B00221A60E2E7DE
:10574000002400F0B1FA204638BD00BF8C080020CC
:1057500084080020D008002094080020F8070020CA
:10576000EC07002014090020CC08002010B5A8B1D7
:105770000446104B1B6843B14FF0500383F311886C
:10578000BFF36F8FBFF34F8FFEE7FFF7DFFE002100
:105790002046FFF7A1FDFFF76DFF48B94FF0E0236A
:1057A0004FF08052C3F8042DBFF34F8FBFF36F8FBC
:1057B00010BD00BF8C080020204B1B681BB1204B84
:1057C00001221A6070471E4B00221A601D4B1B6895
:1057D000B3FA83F3DBB2C3F11F0303EB83018A0047
:1057E00019498A5842B94FF0500383F31188BFF327
:1057F0006F8FBFF34F8FFEE7134903EB83008200E7
:105800000A4450684068506003EB830C4FEA8C02F6
:1058100008321144884209D003EB83039A000A4BF3
:1058200013445B68DA68094B1A6070474068624647
:105830009100054A0A445060EEE700BF8C08002042
:105840001409002094080020F8070020EC0700202D
:1058500038B5044600F006FA5CB3251D2846FFF76C
:10586000C1FB68B9E26A02EB82039B002B49CB586B
:1058700033B9012393402A490A6822EA03020A60E5
:10588000A36A1BB104F11800FFF7ACFB29462548B9
:10589000FFF784FB94F85030DBB2012B0CD000F002
:1058A00003FA214B1B685BB9204B1B68A3420ED047
:1058B00038BD1E4B1C68D0E7002384F85030EEE75B
:1058C00000F0D0F9FFF7C2FB00F0EEF9ECE7164B61
:1058D0001B68B3B1164B1B6843B14FF0500383F301
:1058E0001188BFF36F8FBFF34F8FFEE74FF0E023B8
:1058F0004FF08052C3F8042DBFF34F8FBFF36F8F6B
:10590000D6E7084B1A680B4B1B689A4203D1074B2A
:1059100000221A60CCE7FFF74FFFC9E7F807002025
:1059200094080020E8080020E4080020EC0700208C
:105930008C0800208408002008B5FFF7CDFD00206A
:1059400008BD08B500B90120FFF710FF002008BD11
:10595000124A12F0070F1ED0D11D21F00701C1F528
:10596000705313440A460E480260002141601344FC
:10597000083B23F007030B48036059601960991A2C
:1059800051601360084B1960084B1960084B4FF0C9
:1059900000421A6070474FF47053E4E71C0900207E
:1059A0003045002018090020244500202045002013
:1059B0001C450020164B1A461B688342FBD35168D6
:1059C00002EB010C844509D0416800EB010C6345F2
:1059D00009D00360904219D01060704740680144BC
:1059E00051601046F0E710B40A4C2468A3420BD073
:1059F0005B681944416013681B680360904200D0E3
:105A000010605DF8044B70470460F7E7704700BF13
:105A1000304500201809002070B50546FFF796FDB7
:105A2000364B1B68A3B1364B1B681D424ED135B1B6
:105A3000083515F0070F02D025F007050835002DB1
:105A400046D0304B1B68AB4251D32F4A146804E058
:105A5000FFF77EFFE7E722461C466368AB4202D2AF
:105A60002368002BF7D1254B1B68A34241D0166851
:105A700008362368136063685B1B102B10D960190C
:105A800010F0070F08D04FF0500383F31188BFF3D5
:105A90006F8FBFF34F8FFEE743606560FFF78AFFAC
:105AA000626818490B689B1A0B60184909688B4299
:105AB00001D216490B60124B1B681343636000232D
:105AC0002360134A13680133136002E0002600E0EC
:105AD0000026FFF7CFFD16F0070F0CD04FF0500354
