:020000040800F2
:1000000000000220AD640008B9140008BB14000809
:10001000BD140008BF140008C1140008000000004F
:10002000000000000000000000000000415C00082B
:10003000C314000800000000E15C0008455D0008F2
:10004000FD640008FD640008FD640008FD6400080C
:10005000FD640008FD640008FD640008FD640008FC
:10006000FD640008FD640008FD640008FD640008EC
:10007000FD640008FD640008FD640008FD640008DC
:10008000FD640008FD640008FD640008FD640008CC
:10009000FD640008FD640008FD640008FD640008BC
:1000A000FD640008FD640008FD640008FD640008AC
:1000B000C5140008FD640008FD640008FD64000824
:1000C000FD640008FD640008FD640008D514000804
:1000D000E5140008FD640008F51400080515000883
:1000E000FD640008FD640008FD640008FD6400086C
:1000F000FD640008FD640008FD640008FD6400085C
:10010000FD640008FD640008FD640008FD6400084B
:10011000FD640008FD640008FD640008FD6400083B
:10012000FD640008FD640008FD640008FD6400082B
:10013000FD640008FD640008FD640008FD6400081B
:10014000FD640008FD640008FD640008FD6400080B
:10015000FD640008FD640008FD640008FD640008FB
:10016000FD640008FD640008FD640008FD640008EB
:10017000FD640008FD640008FD6400080000000044
:08018000FD640008FD640008A5
:10019000034613F8012B002AFBD1181A01387047C7
:1001A00001F0FF01102A2BDB10F0070F08D010F828
:1001B000013B013A8B422DD010F0070F42B3F6D12C
:1001C000F0B441EA012141EA014122F007047FF045
:1001D00000070023F0E80256083C85EA010586EA9C
:1001E000010685FA47F5A3FA87F586FA47F6A5FAD8
:1001F00087F68EB9EED1F0BC01F0FF0102F00702E4
:1002000032B110F8013B013A83EA010313B1F8D18E
:100210000020704701387047002D06BF354603386F
:10022000073815F0010F07D1013015F4807F02BFA8
:10023000013015F4C03F0130F0BC0138704700BFF9
:1002400053B94AB9002908BF00281CBF4FF0FF313D
:100250004FF0FF3000F00CB8ADF1080C6DE904CEA2
:1002600006F038FEDDF804E0DDE9022304B0704753
:10027000704700BF0348044B834202D0034B03B1D5
:100280001847704764000020640000200000000050
:100290000548064B1B1AD90F01EBA301491002D0E8
:1002A000034B03B11847704764000020640000202E
:1002B0000000000010B5064C237843B9FFF7DAFFC1
:1002C000044B13B10448AFF300800123237010BD29
:1002D00064000020000000009071000808B5054B84
:1002E0001BB105490548AFF30080BDE80840FFF7A2
:1002F000CFBF00BF00000000680000209071000820
:1003000008B50368B3F1804F00D008BD03F0FAFCD4
:10031000FBE772B6FEE7000000B595B03022002181
:1003200008A806F029F90023039304930593069384
:1003300007930193204A116C41F080511164126CB3
:1003400002F080520192019A02931C4B1A6842F407
:1003500080421A601B6803F480430293029B0123CE
:1003600008934FF48033099302220E924FF48003D6
:100370000F9304231093A82111911292139308A8AC
:1003800002F0A8FD98B90F230393022304930023DE
:1003900005934FF4A05306934FF480530793052120
:1003A00003A803F001F820B915B05DF804FBFFF7CE
:1003B000B0FFFFF7AEFF00BF003802400070004002
:1003C00008B503F085FCFFF7A7FF05F0C3FD05F0B6
:1003D00067FE05F087FE05F02FFF05F081FF05F0B1
:1003E00099FF00F0B5FE05F0A1FAFEE72DE9F04710
:1003F00080460F4603F092FC06464046FFF7C8FED3
:1004000081464FF4806200211D4806F0B5F80025B2
:100410001BE0142005F08FFA17E0CA46B9F5007FFB
:1004200028BF4FF4007AA5EB0A0115485246014453
:1004300006F088F80AF10105114800F80A40002387
:100440004355414606F0C3F8B8B903F067FC831B77
:10045000BB420FD200F084FA0446B0F1FF3FD8D07F
:10046000A0F120035E2BF0D840F2FE339D42D4D899
:10047000AA46DFE70020BDE8F0870120FBE700BFC8
:10048000C800002010B5044600F064FA04210448B6
:1004900000F07EFA21460348FFF7A8FF10BD00BF19
:1004A000A8710008B071000810B50024052C0ADC02
:1004B0004FF4FA70FFF7E6FF034628B9C82005F0AD
:1004C0003AFA0134F2E70023184610BD08B50D21B1
:1004D000044800F05DFA4FF47A710348FFF786FF95
:1004E00008BD00BFB4710008B071000810B50C2140
:1004F000124800F04DFA124C4FF47A712046FFF783
:1005000075FF0E210F4800F043FA4FF47A71204630
:10051000FFF76CFF19210C4800F03AFA4FF47A719A
:100520002046FFF763FF0C21084800F031FA4FF432
:10053000FA612046FFF75AFF10BD00BFC4710008E2
:10054000B0710008D4710008E4710008007200085E
:1005500038B50D211F4800F01BFA1F4D4FF47A717A
:100560002846FFF743FF1D4C1D4A1E49204605F053
:10057000C7FF2046FFF70CFE81B2204600F008FAC4
:100580004FF47A712846FFF731FF174A1749204682
:1005900005F0B6FF2046FFF7FBFD81B2204600F0D4
:1005A000F7F94FF47A712846FFF720FF2A21104807
:1005B00000F0EEF94FF47A712846FFF717FF292172
:1005C0000C4800F0E5F94FF47A712846FFF70EFF6A
:1005D00038BD00BF10720008B0710008C8040020C8
:1005E00060750008207200088C75000838720008D9
:1005F000547200088072000808B50D21044800F00C
:10060000C7F94FF47A710348FFF7F0FE08BD00BF49
:10061000AC720008B071000808B50621014800F06E
:10062000B7F908BDBC72000810B5FFF7F5FF114C13
:100630004FF47A712046FFF7D9FE0B210E4800F0E7
:10064000A7F94FF47A712046FFF7D0FE0C210B4832
:1006500000F09EF94FF47A712046FFF7C7FEFFF7CE
:1006600035FFFFF743FFFFF7C7FFFFF771FF0120DB
:1006700010BD00BFB0710008C4720008D07200083D
:1006800008B50B21064800F083F943F6982005F0E1
:1006900052F9FFF709FF00B908BDFFF7C5FFFBE7F7
:1006A000E0720008F8B506460C4600F053F9204603
:1006B000FFF76EFD0246574D5749284605F020FFCB
:1006C0002846FFF765FD81B2284600F061F94FF436
:1006D0007A715248FFF78AFE30B90546504A1378BE
:1006E000013313702846F8BD2046FFF751FD81B253
:1006F000204600F04DF94FF47A714A48FFF776FE34
:10070000054620B9464A137801331370EAE71121F0
:10071000454800F03DF943F698214448FFF766FE4E
:100720000546F0B11121424800F032F94FF4FA6168
:100730004048FFF75BFE054668B1364F7B213846DF
:1007400005F022FF04467D21384605F02AFF14B14A
:1007500008B1844252D3324A137801331370002512
:10076000C0E72C4E3449304605F031FF044633498A
:10077000304605F02CFF064600F0E0F8284A1378D2
:100780000133DBB213702E4991F84120013281F818
:100790004120052B0AD8DCB1FFF72EFFFFF7D8FE6A
:1007A000284C294B0FCB84E80F009BE7FFF768FF2D
:1007B0004FF4FA6005F0BFF8194B00221A70234B72
:1007C000204C0FCB07C424F8023B1B0C237089E795
:1007D000002EE1D11E4AA2FB031202F0FE0101EB42
:1007E00052029B1A13F0FF0F7FF47CAFFFF71CFF40
:1007F000184B144C0FCB07C4238073E7031B013342
:100800000027E7542146304605F01EFF044B1F70B9
:1008100068E700BFC8000020EC72000804730008FD
:1008200080000020B07100081073000824730008D5
:1008300090730008A4730008387300084C73000814
:100840008400002098000020707300086073000886
:10085000ABAAAAAA8073000808B50E4B834200D049
:1008600008BD0D4881884B1C5A42C3F30903C2F3EB
:10087000090258BF53429BB242889A4204D00246B2
:10088000007811448871938001220349014804F0E3
:100890004EFBE5E7B84D00204C05002010B584B0B4
:1008A000044604F025FB10F0080F07D00023009346
:1008B00023681A6800925B680093009B10F0040F95
:1008C00007D00023019323681A6801925B680193A3
:1008D000019B10F0020F07D00023029323681A68CF
:1008E00002925B680293029B10F0010F07D0002375
:1008F000039323681A6803925B680393039B054B79
:100900009C4201D004B010BD01220349184604F0F6
:100910000EFBF7E7B84D00204C05002010B5054947
:1009200000248C804C800122034804F000FB204608
:1009300010BD00BF4C050020B84D002008B50122B5
:100940000249034804F0F3FA08BD00BF4C0500203B
:10095000B84D0020014B9A885A8070474C05002002
:100960000A4B9A885B889A420CD00849C818013310
:100970005A42C3F30903C2F3090258BF53424B80E2
:10098000807970474FF0FF30704700BF4C05002062
:1009900010B50C464FF47A730A460146034804F03A
:1009A00074F808B9204610BD0020FCE7B84D0020BF
:1009B000A2F5E163B3F5966F34D24B1E0B2B33D8FF
:1009C000431E1E2B32D81D2B0AD8012930D00029F6
:1009D00006DDA1F1030CBCF1090F01D8012070471D
:1009E0001B2B01D8022925D01D2825D1022925D16C
:1009F000164981FB0231D317C3EBE1134FF4C871E1
:100A000001FB1323E3B112F0030F1BD10F4981FB4C
:100A10000231D317C3EB6113642101FB13239BB98C
:100A2000002070470020704700207047002070476A
:100A3000084670470120704700207047002070472B
:100A40000120704700207047012070471F85EB513F
:100A500000B5C1F10E0C204B83FB0CE34FEAEC7C9C
:100A6000CCEB630C0CEB4C0301EB8303033B03EB7C
:100A7000C30303EB03130233184981FB03E1DB17C4
:100A8000C3EB6103134400F59650A0EB0C0040F259
:100A90006D1202FB0033024600281ADB03EBA203AF
:100AA0000F4A82FB0012C017A0EB62110B44C0EB8F
:100AB000E2100344A3F5FA432D3B0A4A82FB0312DA
:100AC0001A44D817C0EBA200C0EBC000181A5DF89A
:100AD00004FBC21CE2E700BFABAAAA2A67666666EF
:100AE0001F85EB519324499230B583B01F240094A5
:100AF00032234FF4A0720021084600F031FC01942B
:100B0000032300934FF6FF7305224621494800F066
:100B1000B3FC13240094EF234FF4A072252100208E
:100B200000F01EFC0194022500954FF4FC63B922ED
:100B30000521414800F0A0FC019400954FF4784352
:100B4000B9228C213D4800F097FC15234FF4A07288
:100B50004A21002001F058F815234FF4A0724B21D0
:100B6000002001F051F8019400954FF4FC63DA2263
:100B70000521334800F080FC019400954FF6FF7387
:100B8000DA229A212F4800F077FC15234FF4A07247
:100B90006B21002001F038F815234FF4A0726C216E
:100BA000002001F031F8019400954FF4FC637722A6
:100BB0000521254800F060FC15234FF4A0728C211C
:100BC000002001F021F815234FF4A0728D210020A0
:100BD00001F01AF8019400954FF4FC639822052166
:100BE0001A4800F049FC15234FF4A072AD210020F3
:100BF00001F00AF815234FF4A072AE21002001F095
:100C000003F8019400954FF4FC6335220521104848
:100C100000F032FC15234FF4A072CE21002000F02A
:100C2000F3FF15234FF4A072CF21002000F0ECFF5A
:100C300003B030BDB0730008BC730008C87300086F
:100C4000D4730008E4730008EC730008F87300081C
:100C50003074000880B582B0A548A64B1860A64B3A
:100C600020221A80A54BA64A13600124A54A1480AD
:100C7000A54A1360A54B02221A802246102102F0D9
:100C800057FF00F041FD204600F0F2FC132000F079
:100C90009DFEFFF729FF73E01323019302230093C6
:100CA0004FF4FC63B9220521994800F0E5FB994B0C
:100CB0001B787BB913230193022300934FF47843ED
:100CC000B9228921944800F0D7FB924B1A78934BB4
:100CD0001A705BE013230193022300934FF6FF7316
:100CE000B92289218E4800F0C7FBEEE71323019358
:100CF000022300934FF4FC63DA220521894800F0B7
:100D0000BBFB894B1B78012B06D0022B10D0864BE6
:100D10001A78864B1A703FE0132301930223009345
:100D20004FF6FF73DA229521814800F0A5FBEEE72C
:100D300013230193022300934FF6E073DA229521E7
:100D40007C4800F099FBE2E77B4B93F83F407B4BFC
:100D50001B789C420CD0794B1C70774B93F83E501B
:100D60009E8F324629462046FFF722FE012869D091
:100D7000322004F0E0FD4FF40051714802F0DEFE35
:100D8000664B1A78634B1B789A4285D1674B1A7869
:100D9000654B1B789A42A9D1674B93F84130694A59
:100DA00012789342D0D0674A1370634F664C97F81D
:100DB00040206649204605F0A3FB13250195032634
:100DC00000964FF6FF7335224621614800F054FB30
:100DD000019500964FF6FF7335224621204600F01C
:100DE0004BFB0195022600964FF4FC637722052108
:100DF000584800F041FB3A465749204605F080FB31
:100E0000019500964FF6FF7377227521204600F07A
:100E100033FB07F114025149204605F071FB01959F
:100E200000964FF4FC63982205214D4800F024FB06
:100E3000019500964FF6FF7398228021204600F01E
:100E40001BFB81E7224629463046FFF701FE0628B4
:100E500046D8DFE800F0041C222B31383E003A4B24
:100E6000404A92E8030083E80300013D0B2D00F2A5
:100E70009380DFE815F08500B200BF00CD00DB00F5
:100E8000E700F300FF000A01190126013301364A89
:100E90002D4B07CA03C31A70E7E7344A2A4B07CA27
:100EA00003C323F8022B120C1A70DEE7304A264BDC
:100EB00007CA03C31A80D8E7234B2E4A92E80300DF
:100EC00083E80300D1E72C4A1F4B07CA03C31A80EB
:100ED000CBE71D4B294A92E8030083E80300C4E7EF
:100EE000194B00221A605A609A60DA601A61BCE7F6
:100EF00000080240940900209009002000040240EC
:100F00008C0900208A0900209C09002098090020F3
:100F1000BC730008BB0E0020C873000889090020BC
:100F200004740008D473000804000020880900201D
:100F3000E473000810740008840000208609002073
:100F4000000C024087090020540900201874000892
:100F500024740008EC730008347400083C74000822
:100F6000F8730008447400084C74000858740008B2
:100F700064740008707400087874000884740008B1
:100F80005D4C2046FFF704F9024605195B4B03CB85
:100F9000A05069601B782B72574C2046FFF7F8F879
:100FA000574A938F92F83F205649204405F0A8FAFB
:100FB00013260196022500954FF6FF735622052150
:100FC000514800F059FA019600954FF4FC635622FF
:100FD0000521204600F050FACAE6474C2046FFF7AC
:100FE000D7F802460519494B03CBA05069601B880E
:100FF0002B81D1E7404C2046FFF7CAF80346011980
:10100000434A1068E0509088937988808B71C3E7D9
:10101000394C2046FFF7BCF8034601193D4A1068D9
:10102000E0509088937988808B71B5E7324C2046E8
:10103000FFF7AEF803460119374A1068E0501379FC
:101040000B71A9E72C4C2046FFF7A2F803460119C3
:10105000324A1068E05093888B809DE7264C2046EA
:10106000FFF796F8034601192D4A1068E05093885F
:101070008B8091E7204C2046FFF78AF8034605193C
:10108000284A03CAE050696086E71B4D2846FFF7EF
:101090007FF802464419244B03CBA85061601A889C
:1010A0009B782281A37277E7134C2046FFF770F8F4
:1010B000024605191D4B03CBA05069601B782B72AB
:1010C0006AE70D4C2046FFF763F802460519184BF6
:1010D00003CBA05069601B882B815DE7064C20463E
:1010E000FFF756F802460519124B03CBA050696072
:1010F0001B882B8150E700BF540900208C74000826
:1011000084000020047500080C750008987400081D
:10111000A4740008AC740008B4740008BC7400081F
:10112000C4740008CC740008D4740008E07400088B
:10113000EC740008F8740008034B0360034B0B6069
:1011400080231360704700BFA00B0020A00900207F
:1011500030B583B01F4C0194052500950023FA2279
:101160001D491E4804F039F9206804F069FB1C4C45
:10117000019400950023C8221A491B4804F02DF958
:10118000206804F05DFB194C0194042300930023B4
:101190004FF4C8721649174804F01FF9206804F08C
:1011A0004FFB154B01930323009300234FF4C872A8
:1011B0001249134804F011F9124B019302230093D2
:1011C00000234FF496721049104804F006F903B05A
:1011D00030BD00BF040C002028750008A5270008BA
:1011E000000C002030750008DD270008F80B0020F7
:1011F000387500087D280008F40B002044750008AD
:101200001D2E0008FC0B002050750008550C00082E
:1012100000F1784243F6FE739A4247D9A2F5804323
:1012200043F6FE72934243D900F17843A3F500439D
:1012300093423FD900F17843A3F5404393423BD911
:1012400000F1774303F57F034FF6FE72934235D9E1
:1012500000F1774303F57E0302F5803293422FD9E4
:1012600000F1774303F57C0393422BD900F17743D8
:1012700003F57A03934227D900F1774303F5780306
:10128000934223D900F1774303F5760393421FD9A4
:1012900000F1774303F5740393421BD900F17740C3
:1012A00000F57200904217D9002070470020704767
:1012B00001207047022070470320704704207047C8
:1012C00005207047062070470720704708207047A8
:1012D000092070470A2070470B207047F0B583B093
:1012E00005460F46164602F0E5F92846FFF790FF3F
:1012F000044605EB8600FFF78BFF134B00221A60B4
:1013000002221A619C60001B0130D86001A91846B6
:1013100002F0CEFA68B90024A64210DD57F8242066
:1013200000232946022002F01DFA28B904350134B1
:10133000F2E702F0E1F905E002F0DEF902E002F086
:10134000D1F9002003B0F0BD080C002050F8043B98
:1013500041F8043B1346013A92B2002BF6D1704794
:1013600010B582B096469C46131A002B16DB00225D
:10137000ACEB0103002B13DB00239AB9AEEB000E9C
:101380001FFA8EF29BB9ACEB010C1FFA8CF3BDF87F
:101390001040009400F000FC02B010BD0122E7E70D
:1013A0000123EAE7A0EB0E0292B27046EAE7A1EB56
:1013B0000C039BB26146EAE72DE9F04385B00F4686
:1013C00090469946BDF830601F2801D92038C0B238
:1013D00000230CE000EB4001264A02EB4102D15C05
:1013E00003F110026A4402F8081C0133DBB2052B3A
:1013F000F0D9F3009BB206EB4602520092B2BDF860
:10140000341000914146384600F0C6FB002529E023
:1014100004EB0801E8194A4689B280B200F0F0FAFC
:101420000134E4B2072C1BD805F110036B4413F808
:10143000080C204110F0010FF2D0012EE8D015FB6E
:1014400006F014FB06F118FA81F117FA80F0CDF8D6
:1014500000903346324689B280B200F09DFBDFE750
:101460000135EDB2052D01D80024DBE705B0BDE85C
:10147000F08300BFCC7500082DE9F04383B004462B
:101480000D4690461F46BDF82860BDF82C900DE033
:101490000134CDF8049000963B4642462946FFF7BA
:1014A0008BFF06EB460105EB41018DB22078002849
:1014B000EED103B0BDE8F083FEE7FEE7FEE7FEE70E
:1014C000FEE7704708B5024802F066FF08BD00BF9E
:1014D000344C002008B5024802F00EFE08BD00BFE3
:1014E000D44C002008B5024802F006FE08BD00BF3B
:1014F0007C4C002008B5024803F0BCFB08BD00BFCF
:10150000B84D002008B5024803F0B4FB08BD00BF89
:10151000744D002008B50022034B1988034B18684E
:1015200002F006FB08BD00BF980900209C090020BE
:1015300000B583B08DF8070001231A460DF10701AD
:10154000024802F0FCFC03B05DF804FBD44C002020
:1015500070B504460B4E0C4D00223188286802F00D
:10156000E7FA0022094B1988094B186802F0E0FAE3
:101570002046FFF7DDFF01223188286802F0D8FA03
:1015800070BD00BF980900209C0900209009002030
:101590009409002070B5044601220B4B19880B4BAF
:1015A000186802F0C5FA0A4E0A4D002231882868F0
:1015B00002F0BEFA2046FFF7BBFF012231882868FF
:1015C00002F0B6FA70BD00BF900900209409002017
:1015D000980900209C090020F8B507460D461646DC
:1015E0001C462A20FFF7B4FF380AFFF7D3FFF8B2F2
:1015F000FFF7D0FF300AFFF7CDFFF0B2FFF7CAFFC9
:101600002B20FFF7A5FF280AFFF7C4FFE8B2FFF77A
:10161000C1FF200AFFF7BEFFE0B2FFF7BBFF2C209F
:10162000FFF796FFF8BD000038B50D4D0D4C0122B7
:101630002988206802F07CFAC82002F075FB00229D
:10164000094B1988094B186802F072FAC82002F099
:101650006BFB01222988206802F06AFA38BD00BFBE
:101660008A0900208C090020980900209C0900208C
:1016700010B504463620FFF76BFF012002F054FB43
:10168000032C0DD8DFE804F0020D18234820FFF7E3
:1016900081FF144BF0221A80134B4FF4A0721A8072
:1016A00010BD2820FFF776FF0E4B4FF4A0721A8072
:1016B0000D4BF0221A80F3E78820FFF76BFF094BF0
:1016C000F0221A80084B4FF4A0721A80E8E7E82055
:1016D000FFF760FF034B4FF4A0721A80024BF02219
:1016E0001A80DDE7000000200200002008B501227A
:1016F000034B1988034B186802F01AFA08BD00BFA3
:101700008A0900208C09002008B5FFF7EFFFFFF7DA
:1017100001FFFFF789FF0120FFF71AFF4FF47A70EE
:1017200002F002FBCB20FFF713FF3920FFF732FF57
:101730002C20FFF72FFF0020FFF72CFF3420FFF7AE
:1017400029FF0220FFF726FFCF20FFF701FF00202F
:10175000FFF720FFC120FFF71DFF3020FFF71AFF22
:10176000E820FFF7F5FE8520FFF714FF0020FFF7C4
:1017700011FF7820FFF70EFFEA20FFF7E9FE0020B7
:10178000FFF708FF0020FFF705FFED20FFF7E0FE61
:101790006420FFF7FFFE0320FFF7FCFE1220FFF797
:1017A000F9FE8120FFF7F6FEF720FFF7D1FE20209B
:1017B000FFF7F0FEC020FFF7CBFE2320FFF7EAFE85
:1017C000C120FFF7C5FE1020FFF7E4FEC520FFF79C
:1017D000BFFE3E20FFF7DEFE2820FFF7DBFEC7201E
:1017E000FFF7B6FE8620FFF7D5FE3620FFF7B0FEE6
:1017F0004820FFF7CFFE3A20FFF7AAFE5520FFF75B
:10180000C9FEB120FFF7A4FE0020FFF7C3FE182099
:10181000FFF7C0FEB620FFF79BFE0820FFF7BAFED9
:101820008220FFF7B7FE2720FFF7B4FEF220FFF774
:101830008FFE0020FFF7AEFE2620FFF789FE012075
:10184000FFF7A8FEE020FFF783FE0F20FFF7A2FEC0
:101850003120FFF79FFE2B20FFF79CFE0C20FFF7A7
:1018600099FE0E20FFF796FE0820FFF793FE4E200C
:10187000FFF790FEF120FFF78DFE3720FFF78AFE7D
:101880000720FFF787FE1020FFF784FE0320FFF7F5
:1018900081FE0E20FFF77EFE0920FFF77BFE002071
:1018A000FFF778FEE120FFF753FE0020FFF772FEFE
:1018B0000E20FFF76FFE1420FFF76CFE0320FFF7EA
:1018C00069FE1120FFF766FE0720FFF763FE312057
:1018D000FFF760FEC120FFF75DFE4820FFF75AFECC
:1018E0000820FFF757FE0F20FFF754FE0C20FFF7EC
:1018F00051FE3120FFF74EFE3620FFF74BFE0F2042
:10190000FFF748FE1120FFF723FE782002F00CFAC3
:101910002920FFF71DFE0020FFF7AAFE08BD0000EA
:101920002DE9F04700AF06460D464FEA4108B8F5ED
:10193000FA7F01D34FF4FA7501221F4B19881F4B10
:10194000186802F0F5F800221D4B19881D4B186825
:1019500002F0EEF8310AEB1D23F00703ADEB030DA7
:101960006C46002303E0E1545A1CA65402339D4206
:10197000F9D8B8FBF5F905FB198AA84510D20A2356
:101980001FFA8AF22146104802F0D9FA01220C4BC4
:1019900019880C4B186802F0CBF8BD46BDE8F087FB
:1019A00000264E45EBD20A23AAB22146064802F091
:1019B000C6FA0136F5E700BF90090020940900201F
:1019C000980900209C090020D44C002070B50446E2
:1019D000094E3288094D2B889BB292B200210846ED
:1019E000FFF7FAFD33889BB2298889B203FB01F126
:1019F0002046FFF795FF70BD000000200200002088
:101A00005E4B1B889BB2834240F2B7802DE9F047C2
:101A100084B004460D469046594B1B889BB28B42BE
:101A200002D804B0BDE8F087DFF864A1DFF8649164
:101A30000022BAF80010D9F8000002F079F8514FEE
:101A4000514E00223988306802F072F82A20FFF7E0
:101A50006FFD0122BAF80010D9F8000002F068F812
:101A600001223988306802F063F800223988306832
:101A700002F05EF8230A8DF80C30E3B28DF80D30D9
:101A8000013424128DF80E4001338DF80F303F4C95
:101A90000123042203A9204602F051FA01223988C9
:101AA000306802F045F80022BAF80010D9F80000BA
:101AB00002F03EF800223988306802F039F82B2015
:101AC000FFF736FD0122BAF80010D9F8000002F045
:101AD0002FF801223988306802F02AF8002239886C
:101AE000306802F025F82B0A8DF80830EBB28DF83B
:101AF000093001352D128DF80A5001338DF80B3065
:101B00000123042202A9204602F019FA0122398891
:101B1000306802F00DF80022BAF80010D9F8000081
:101B200002F006F800223988306802F001F82C2013
:101B3000FFF7FEFC0122BAF80010D9F8000001F00E
:101B4000F7FF01223988306801F0F2FF002239885E
:101B5000306801F0EDFF4FEA18238DF804308DF85E
:101B600005800123022201A9204602F0E8F90122A2
:101B70003988306801F0DCFF53E77047000000202F
:101B800002000020980900209C090020D44C00206D
:101B9000900900209409002038B51C46184B1B887A
:101BA0009BB283422BD91546164B1B889BB28B42A6
:101BB00025D98218124B1B889BB29A4204DD104B28
:101BC0001D88ADB22D1AADB20A190E4B1B889BB2FF
:101BD0009A4204DD0B4B1C88A4B2641AA4B22A18E2
:101BE00092B263189BB2013B013A9BB292B2FFF7EB
:101BF000F3FC05FB04F1BDF81000FFF791FE38BDC2
:101C0000000000200200002038B514461D46104B8D
:101C10001A8892B282421AD90E4B1B889BB28B4211
:101C200015D902190A4B1B889BB29A4204DD084B56
:101C30001C88A4B2241AA4B2221892B2013A0B460C
:101C400092B2FFF7C9FC21462846FFF769FE38BD6E
:101C5000000000200200002010B45308023312F0EC
:101C6000010F0AD10A4CE25C02F0F002E254014397
:101C70000A43E2545DF8044B7047054CE25C02F005
:101C80000F02E254084342EA0012E254F2E700BFB6
:101C9000200C00200B4A137903F00F031371012865
:101CA00002D0022808D0704701228A40D24352B2A3
:101CB0001340044A1371704701228A401343014ABA
:101CC0001371F0E7200C0020084B00225A71022308
:101CD00005E0064A5179D05C014451710133042B6F
:101CE000F7DD024A53795B4253717047200C0020A4
:101CF00010B5CA4B18700138112816D8DFE810F05B
:101D000012007000AB00F6004C019401EA012B02B6
:101D10008B02C70226037C03BD03130455049204FF
:101D2000D4041105BE4B1B8803B910BD0022042149
:101D30000120FFF791FF012204211046FFF78CFFDD
:101D4000022200210120FFF787FF0322002101204A
:101D5000FFF782FF00210120FFF79CFF01210846C9
:101D6000FFF798FF02210120FFF794FF03210120D4
:101D7000FFF790FFFFF7A8FF002425E000220421D1
:101D80000120FFF769FF012204211046FFF764FFDD
:101D9000FFF79AFF40F2F31003F0CDFD0022114649
:101DA0000120FFF759FF012200211046FFF754FFE1
:101DB000FFF78AFF40F2F31003F0BDFD4FF400710E
:101DC000984801F0BBFE0134954B1B88A342ACDD63
:101DD0001B1B0A2BD2DD40F2E53003F0ACFDEDE732
:101DE0008F4B5B88002BA0D0002211460320FFF709
:101DF00033FF012200210320FFF72EFF02220021E2
:101E00000120FFF729FF032200210120FFF724FF13
:101E100000210120FFF73EFF01210846FFF73AFFAE
:101E200002210846FFF736FF03210220FFF732FFA9
:101E3000FFF74AFF002409E040F2E53003F07BFDA4
:101E40004FF40071774801F079FE0134744B5B88E0
:101E5000A342F1DC69E7724B5B88002B3FF465AF6E
:101E60006F4B9B88002B3FF460AF0022114602208D
:101E7000FFF7F2FE012200210220FFF7EDFE022211
:101E800000210120FFF7E8FE032200210120FFF7D7
:101E9000E3FE00210120FFF7FDFE01210846FFF7C8
:101EA000F9FE02210120FFF7F5FE03210120FFF7D3
:101EB000F1FEFFF709FF5A4BDB88ABB1584B5B894A
:101EC000002B7FF432AF002409E040F2E53003F04C
:101ED00032FD4FF40071534801F030FE0134504B95
:101EE0009B88A342F1DC20E70024F8E74C4BDB8819
:101EF000002B3FF41AAF002204210320FFF7ACFEB1
:101F0000012200211046FFF7A7FE02220021012036
:101F1000FFF7A2FE032200210120FFF79DFE002112
:101F20000120FFF7B7FE01210846FFF7B3FE0221AB
:101F30000120FFF7AFFE03210220FFF7ABFEFFF702
:101F4000C3FE00241BE0002204210320FFF784FECF
:101F5000FFF7BAFE40F2F31003F0EDFC0022114649
:101F60000320FFF779FEFFF7AFFE40F2F31003F016
:101F7000E2FC4FF400712B4801F0E0FD0134284BE6
:101F8000DB88A3427FF7D1AE1B1B0A2BDBDD40F2BF
:101F9000E53003F0D0FCECE7214BDB88002B3FF46D
:101FA000C4AE1F4B1B89002B3FF4BFAE002211466D
:101FB0000220FFF751FE012200211046FFF74CFEE0
:101FC000022200210120FFF747FE03220021012009
:101FD000FFF742FE00210120FFF75CFE01210846C9
:101FE000FFF758FE02210120FFF754FE03210120D4
:101FF000FFF750FEFFF768FE002409E040F2E530ED
:1020000003F099FC4FF40071064801F097FD01348C
:10201000034B1B89A342F1DC87E600BF1C0C0020A8
:10202000280C0020000C0240C64B5B89002B3FF4BB
:102030007CAE002211460120FFF70EFE0122042192
:102040000320FFF709FE022200210120FFF704FE12
:10205000032200210120FFF7FFFD00210120FFF7EF
:1020600019FE01210846FFF715FE02210846FFF779
:1020700011FE03210120FFF70DFEFFF725FE0024CE
:102080001BE0012204210320FFF7E6FDFFF71CFE01
:1020900040F2F31003F04FFC012200210320FFF770
:1020A000DBFDFFF711FE40F2F31003F044FC4FF4A8
:1020B0000071A54801F042FD0134A24B5B89A342A7
:1020C0007FF733AE1B1B0A2BDBDD40F2E53003F05C
:1020D00032FCECE79B4B5B89002B3FF426AE994B1F
:1020E0009B89002B3FF421AE002211460120FFF70F
:1020F000B3FD012200210220FFF7AEFD02220021E4
:102100000120FFF7A9FD032200210120FFF7A4FD14
:1021100000210120FFF7BEFD01210846FFF7BAFDAF
:1021200002210120FFF7B6FD03210120FFF7B2FDD8
:10213000FFF7CAFD002409E040F2E53003F0FBFBA5
:102140004FF40071804801F0F9FC01347D4B9B890C
:10215000A342F1DCE9E57B4BDB89002B3FF4E5ADE5
:10216000002211460120FFF777FD012200211046D1
:10217000FFF772FD022204210120FFF76DFD03220B
:1021800004210120FFF768FD00210120FFF782FDF7
:1021900001210846FFF77EFD02210120FFF77AFDAD
:1021A00003210120FFF776FDFFF78EFD002425E0D7
:1021B000022204210120FFF74FFD03220421012008
:1021C000FFF74AFDFFF780FD40F2F31003F0B3FB89
:1021D000022200210120FFF73FFD03220021012000
:1021E000FFF73AFDFFF770FD40F2F31003F0A3FB99
:1021F0004FF40071544801F0A1FC0134514BDB89CC
:10220000A3427FF792AD1B1B0A2BD1DD40F2E530D4
:1022100003F091FBECE74B4B1B8A002B3FF485ADA1
:10222000002211460120FFF717FD01220021104670
:10223000FFF712FD022200210320FFF70DFD03220C
:1022400000211046FFF708FD00210220FFF722FDC4
:1022500001210220FFF71EFD02210120FFF71AFDD8
:1022600003210120FFF716FDFFF72EFD002409E0F2
:1022700040F2E53003F05FFB4FF40071324801F0AB
:102280005DFC01342F4B1B8AA342F1DC4DE52D4B45
:102290001B8A002B3FF449AD2A4B5B8A002B3FF48D
:1022A00044AD002211460120FFF7D6FC0122002197
:1022B0001046FFF7D1FC234B9B8AE3B1214B1B8BCC
:1022C000FBB1204B9B8A13B31E4B1B8B23B3022104
:1022D0000120FFF7DFFC03210120FFF7DBFCFFF704
:1022E000F3FC184B9B8A5BB3164B1B8B002B7FF4C4
:1022F0001CAD00241FE0022200211046FFF7ACFCB9
:10230000DCE7032200210220FFF7A6FCD9E7002129
:102310000120FFF7BFFCD7E701210846FFF7BAFC11
:10232000D5E740F2E53003F006FB4FF400710648B4
:1023300001F004FC0134034B5B8AA342F1DCF4E4BA
:102340000024F8E7280C0020000C0240D44B9B8AA4
:10235000002B3FF4EAAC002211460120FFF77CFC81
:10236000012200211046FFF777FC022204210320FE
:10237000FFF772FC032200210120FFF76DFC002112
:102380000220FFF787FC01210846FFF783FC0221AA
:102390000120FFF77FFC03210120FFF77BFCFFF703
:1023A00093FC00241BE0022204210320FFF754FCCD
:1023B000FFF78AFC40F2F31003F0BDFA022200217D
:1023C0000320FFF749FCFFF77FFC40F2F31003F016
:1023D000B2FA4FF40071B34801F0B0FB0134B04BD6
:1023E0009B8AA3427FF7A1AC1B1B0A2BDBDD40F2CB
:1023F000E53003F0A0FAECE7A94B9B8A002B3FF4F1
:1024000094ACA74BDB8A002B3FF48FAC0022114623
:102410000120FFF721FC012200211046FFF71CFCE0
:10242000022200211046FFF717FC032200210120A1
:10243000FFF712FC00210120FFF72CFC01210846C8
:10244000FFF728FC02210120FFF724FC03210120D3
:10245000FFF720FCFFF738FC002409E040F2E530EC
:1024600003F069FA4FF400718E4801F067FB013404
:102470008B4BDB8AA342F1DC57E4894B1B8B002B8F
:102480003FF453AC002211460120FFF7E5FB012287
:1024900000211046FFF7E0FB022200210120FFF798
:1024A000DBFB032204211046FFF7D6FB00210120AD
:1024B000FFF7F0FB01210220FFF7ECFB02210120D6
:1024C000FFF7E8FB03210120FFF7E4FBFFF7FCFB2C
:1024D00000241BE0032204211046FFF7BDFBFFF799
:1024E000F3FB40F2F31003F026FA0322002110461A
:1024F000FFF7B2FBFFF7E8FB40F2F31003F01BFA23
:102500004FF40071674801F019FB0134644B1B8BD9
:10251000A3427FF70AAC1B1B0A2BDBDD40F2E53040
:1025200003F009FAECE75E4B1B8B002B3FF4FDAB8D
:102530005B4B5B8B002B3FF4F8AB00221146012074
:10254000FFF78AFB012200211046FFF785FB0222DC
:1025500000210120FFF780FB032200210220FFF76A
:102560007BFB00210120FFF795FB01210846FFF7C7
:1025700091FB02210120FFF78DFB03210120FFF7D2
:1025800089FBFFF7A1FB002409E040F2E53003F0EE
:10259000D2F94FF40071434801F0D0FA0134404BB6
:1025A0005B8BA342F1DCFFF7C0BB3D4B1B89002BCB
:1025B0003FF4BBAB002211460220FFF74DFB012286
:1025C00000210320FFF748FB022200210120FFF732
:1025D00043FB032200210120FFF73EFB00210120E5
:1025E000FFF758FB01210846FFF754FB022108467C
:1025F000FFF750FB03210120FFF74CFBFFF764FBC3
:10260000002409E040F2E53003F095F94FF4007141
:10261000244801F093FA0134214B1B89A342F1DCD9
:10262000FFF783BB1E4B9B89002B3FF47EAB002240
:1026300011460320FFF710FB012200210220FFF7C3
:102640000BFB022200210120FFF706FB03220021E1
:102650000120FFF701FB00210120FFF71BFB0121F7
:102660000846FFF717FB02210120FFF713FB0321A8
:102670000220FFF70FFBFFF727FB002409E040F2E1
:10268000E53003F058F94FF40071064801F056FAAE
:102690000134034B9B89A342F1DCFFF746BB00BF2B
:1026A000280C0020000C02403C4BDB8A002B3FF43E
:1026B0003CAB002211460120FFF7CEFA0122002197
:1026C0001046FFF7C9FA022200211046FFF7C4FAAC
:1026D000032200211046FFF7BFFA00210120FFF777
:1026E000D9FA01210220FFF7D5FA02210120FFF7D4
:1026F000D1FA03210120FFF7CDFAFFF7E5FA002414
:1027000009E040F2E53003F016F94FF40071244877
:1027100001F014FA0134214BDB8AA342F1DCFFF70C
:1027200004BB1E4B5B8B002B3FF4FFAA002211461B
:102730000120FFF791FA012200211046FFF78CFAE1
:10274000022200210320FFF787FA03220021022042
:10275000FFF782FA00210220FFF79CFA01210846C8
:10276000FFF798FA02210120FFF794FA03210120D4
:10277000FFF790FAFFF7A8FA002409E040F2E530ED
:1027800003F0D9F84FF40071054801F0D7F901348E
:10279000024B5B8BA342F1DCFFF7C7BA280C002089
:1027A000000C024010B50B4B00221A609A80FF22E9
:1027B0001A705A700CE001340D2C06DC064B185DC3
:1027C0000028F8D0FFF794FAF5E7142003F0B3F8E7
:1027D0000024F1E7200C00200C78000808B5002543
:1027E000124B1D70124CFF2323706370A570E570AF
:1027F0002571FFF769FA0F4E01224FF40071304640
:1028000001F096F940F2E73003F095F8FE2363708B
:10281000FFF75AFA2A464FF40071304601F088F962
:1028200040F2E73003F087F8D9E700BF1C0C002026
:10283000200C0020000C024000B583B00022009262
:102840000D4B596C41F480415964596C01F480413D
:10285000009100990192196C41F0805119641B6C30
:1028600003F080530193019B0F216FF0010001F0F1
:1028700011FA03B05DF804FB0038024010B501F016
:102880004DFA044602E00A2002F068FF0B4B1B7869
:10289000002BF8D101F042FA031BC72BF3D901F04A
:1028A0003DFA0446642306220549064802F0EDF885
:1028B0004FF40061044801F041F9E4E7BA0E00204A
:1028C000200C0020744D0020000C024010B453086E
:1028D000023312F0010F0AD10A4CE25C02F0F0025E
:1028E000E25401430A43E2545DF8044B7047054C3F
:1028F000E25C02F00F02E254084342EA0012E254A2
:10290000F2E700BF4C0C0020084B00225A71022352
:1029100005E0064A5179D05C014451710133042B22
:10292000F7DD024A53795B42537170474C0C00202B
:1029300008B5002304E0274AD15C274AD15401336B
:10294000052BF8DD254B1B78013B0C2B14D8DFE859
:1029500003F007131314131C13241313311339003A
:10296000002204210120FFF7B1FF012204211046BB
:10297000FFF7ACFFFFF7C8FF08BD002204210320CA
:10298000FFF7A4FFFFF7C0FFF6E7012204210320B1
:10299000FFF79CFFFFF7B8FFEEE7022204210120BA
:1029A000FFF794FF032204210120FFF78FFFFFF7B9
:1029B000ABFFE1E7022204210320FFF787FFFFF7C7
:1029C000A3FFD9E7032204211046FFF77FFFFFF79B
:1029D0009BFFD1E7200C00204C0C00201C0C002099
:1029E00000B58BB00A2269460948FEF7AFFC002308
:1029F00008E00AAA02EB430232F8281C054A22F832
:102A000013100133112BF4DD0BB05DF804FB00BF94
:102A100000E00108280C002008B50A2202490348FA
:102A2000FEF75CFC08BD00BF700C002000E0010850
:102A300038B55B21774803F0A7FD00286ED08646A5
:102A400000F1010C0020014607E01CF80230303B89
:102A5000714A22F81030023101300A460CEB0103B2
:102A60005B782C2B0FD00CEB0104A4782C2C0AD013
:102A70000CEB0105ED782C2D05D05D2B03D05D2CE2
:102A800001D05D2D30D112282EDC2C2BDDD05D2B1A
:102A9000DBD00CEB0204A4782C2C17D05D2C15D0C5
:102AA0001CF80220303A303B02EB820202EB820239
:102AB00003EB83035B0003EB82039BB22344303BB5
:102AC000554A22F8103004310130C6E71CF80220C4
:102AD000303A02EB820203EB4202303A4E4B23F8CB
:102AE000102003310130B8E7132817D11EF8023047
:102AF0005D2B13D1494B1B7813B1013B474A13702F
:102B0000454B9B8C5BB1464A00211170012B20D0B4
:102B1000414B9B8C012B27D0022B50D038BD404B12
:102B200001221A70FAE70133112B16DC3D4A32F804
:102B30001310394A32F81320914203D0394921F851
:102B400013200124374A32F81320002AEBD1013038
:102B5000E9E7002318461C46E6E71128D8D0002CE8
:102B6000D6D0FFF759FFD3E72F4A1278012AD3D0E6
:102B70002A4909780029CFD1022A01D0002309E08F
:102B80002A4B186802F05CFEF8E7294AD15C294A12
:102B9000D1540133052BF8DD002306E0264A32F834
:102BA0001310204A22F813100133112BF6DD234BAA
:102BB000186802F045FC1C4B01221A70AEE71A4B54
:102BC0001B78022BAAD0154A1278002AA6D1012B15
:102BD00007D0164B186802F033FC134B02221A7010
:102BE0009CE7164B186802F02BFE002304E0114A04
:102BF000D15C0F4AD1540133052BF8DD002306E0E8
:102C0000084A32F813100C4A22F813100133112B22
:102C1000F6DDDEE7980C0020700C00208C0E002002
:102C2000BA0E0020280C002004000020000C002018
:102C3000B40E0020200C0020900E0020040C002078
:102C400008B5714B7B221A7022225A707321997039
:102C50007420D8704FF0610C83F804C0587175204F
:102C60009871D9711A723A225A725B229A722C2286
:102C70001A739A731A749A745D221A757D225A75A2
:102C800000229A753022DA725A73DA735A74DA743F
:102C9000FFF74EFE5D4B1B78002B40F0A7805C4B8E
:102CA0001B78012B18D05B4B1B7803B3564B342297
:102CB000DA74594B9B7803F00302C3F38101022AB3
:102CC0001ED0032A30D0012A1ED1012913D04E492B
:102CD000CA7A0132CA7217E04E4B1B781BB14A4BBD
:102CE0003322DA74E5E7484B3122DA74E1E7464BE8
:102CF0003222DA74DDE74449CA7A0532CA7203E047
:102D00004149CA7A0232CA72C3F301129B09022AEC
:102D10001BD0032A30D0012A1BD1012B10D03A4AF4
:102D2000537B0133537314E0012904D03649CA7A26
:102D30000332CA72E8E73449CA7A0432CA72E3E756
:102D4000314A537B0533537303E02F4A537B0233DD
:102D50005373314BDB7803F00302C3F38101022A82
:102D60001BD0032A2DD0012A1BD1012910D02649BE
:102D7000CA7B0132CA7314E0012B04D0224A537B70
:102D800003335373E5E7204A537B04335373E0E77F
:102D90001D49CA7B0532CA7303E01B49CA7B023254
:102DA000CA73C3F301129B09022A1BD0032A1ED047
:102DB000012A1BD1012B10D0134A537C01335374C9
:102DC00014E0012904D01049CA7B0332CA73E8E732
:102DD0000D49CA7B0432CA73E3E70B4A537C0533BF
:102DE000537403E0084A537C0233537408BD012B2B
:102DF00004D0054A537C03335374F7E7024A537CEB
:102E000004335374F2E700BF540C0020BA0E0020C4
:102E1000040000208C0E00204C0C002010B5FDF7A3
:102E20007DFDFFF7DDFD234B186802F009FB224B07
:102E3000186802F005FB42F2107002F07CFDFDF70D
:102E4000F3FB1E4B002283F8412083F840200CE066
:102E50001B4A13780133DBB21370022B02D9194BD2
:102E600000221A70142002F079FCFFF7E9FE1649DF
:102E70001648FDF717FC0028EAD0FFF7D9FD144CDF
:102E800001224FF40041204600F052FE642002F07F
:102E900052FD00224FF40041204600F049FE094B4C
:102EA00001221A70064B00221A704FF47A7002F059
:102EB00042FDD7E7040C0020F80B0020840000201E
:102EC000520C0020BB0E0020540C0020980C002057
:102ED000000C0240002800F0E08170B582B004468A
:102EE000036813F0010F3BD09F4B9B6803F00C036A
:102EF000042B2CD09C4B9B6803F00C03082B21D097
:102F00006368B3F5803F4FD0B3F5A02F52D0964BF6
:102F10001A6822F480321A601A6822F480221A6039
:102F20006368002B50D000F0F9FE05468E4B1B68FD
:102F300013F4003F14D100F0F1FE401B6428F5D9D2
:102F40000320B1E1884B5B6813F4800FD8D0864B27
:102F50001B6813F4003F03D06368002B00F09F81CF
:102F6000236813F0020F54D07F4B9B6813F00C0FB3
:102F70003ED07D4B9B6803F00C03082B33D0E368F5
:102F8000002B68D0794B01221A6000F0C7FE05467D
:102F9000754B1B6813F0020F54D100F0BFFE401BAD
:102FA0000228F5D903207FE16F4A136843F4803388
:102FB0001360B5E76C4B1A6842F480221A601A68F5
:102FC00042F480321A60ABE700F0A8FE0546664B7B
:102FD0001B6813F4003FC3D000F0A0FE401B642820
:102FE000F5D9032060E1604B5B6813F4800FC6D114
:102FF0005D4B1B6813F0020F03D0E368012B40F018
:103000005081594A136823F0F803216943EAC10348
:103010001360236813F0080F42D063696BB3534BFE
:103020000122C3F8802E00F079FE05464E4B5B6FFF
:1030300013F0020F34D100F071FE401B0228F5D9C5
:10304000032031E1484A136823F0F803216943EA79
:10305000C1031360DDE7454B00221A6000F05EFEFD
:103060000546414B1B6813F0020FD2D000F056FE0C
:10307000401B0228F5D9032016E13C4B0022C3F87F
:10308000802E00F04BFE0546374B5B6F13F0020FAE
:1030900006D000F043FE401B0228F5D9032003E1CF
:1030A000236813F0040F77D02F4B1B6C13F0805F55
:1030B00033D1002301932C4B1A6C42F080521A64D6
:1030C0001B6C03F080530193019B0125284B1B6867
:1030D00013F4807F23D0A368012B34D0052B38D084
:1030E000214B1A6F22F001021A671A6F22F00402B4
:1030F0001A67A368002B3DD000F010FE06461A4B5D
:103100001B6F13F0020F46D100F008FE801B41F246
:1031100088339842F3D90320C6E00025D6E7144A45
:10312000136843F48073136000F0F8FD0646104BFB
:103130001B6813F4807FCED100F0F0FD801B0228C5
:10314000F5D90320B0E0084A136F43F00103136779
:10315000CFE7054B1A6F42F004021A671A6F42F06C
:1031600001021A67C5E700BF00380240000047426D
:103170000070004000F0D2FD0646524B1B6F13F06A
:10318000020F08D000F0CAFD801B41F2883398423C
:10319000F3D9032088E0EDB9A369002B00F0838008
:1031A000484A926802F00C02082A51D0022B17D02C
:1031B000454B00221A6600F0B1FD0446414B1B68E6
:1031C00013F0007F42D000F0A9FD001B0228F5D9C2
:1031D000032069E03B4A136C23F080531364DBE760
:1031E000394B00221A6600F099FD0546354B1B68E5
:1031F00013F0007F06D000F091FD401B0228F5D9A6
:10320000032051E0E369226A1343626A43EA8213AE
:10321000A26A5208013A43EA0243E26A43EA0263BD
:10322000284A5360284B01221A6600F077FD0446B5
:10323000244B1B6813F0007F06D100F06FFD001BCC
:103240000228F5D903202FE000202DE000202BE0FC
:10325000012B2BD01B4B5B6803F48001E269914288
:1032600026D103F03F02216A8A4223D1616A47F6E0
:10327000C0721A40B2EB811F1ED103F44031A26A22
:103280005208013AB1EB024F18D103F07063E26AC1
:10329000B3EB026F14D1002006E00120704701203B
:1032A00002E0012000E0002002B070BD0120FBE739
:1032B0000120F9E70120F7E70120F5E70120F3E716
:1032C0000120F1E7003802400000474208B5334BC7
:1032D0009B6803F00C03042B5BD0082B5BD12F4BB6
:1032E0005A6802F03F025B6813F4800F2CD02B4B1E
:1032F0005868C0F388104FEA401CBCEB000C6EEB22
:103300000E0E4FEA8E1343EA9C634FEA8C11B1EB29
:103310000C0163EB0E03DB0043EA5173C90011EBB0
:10332000000C43F10003590200234FEA4C2041EA0C
:10333000DC51FCF785FF194B5B68C3F30143013394
:103340005B00B0FBF3F008BD144B5868C0F3881065
:103350004FEA401CBCEB000C6EEB0E0E4FEA8E13D6
:1033600043EA9C634FEA8C11B1EB0C0163EB0E0353
:10337000DB0043EA5173C90011EB000C43F1000379
:10338000990200234FEA8C2041EA9C51FCF758FF38
:10339000D1E70348D7E70348D5E700BF003802402C
:1033A00000127A000024F400002800F09B8070B521
:1033B0000D4604464F4B1B6803F007038B4208D2AF
:1033C000CBB24C4A1370136803F007038B4240F0F2
:1033D0008B80236813F0020F17D013F0040F04D072
:1033E000454A936843F4E0539360236813F0080F51
:1033F00004D0414A936843F4604393603E4A936823
:1034000023F0F003A1680B439360236813F0010FCE
:1034100032D06368012B21D09A1E012A25D9364A61
:10342000126812F0020F61D033498A6822F0030259
:1034300013438B6000F072FC06462F4B9B6803F031
:103440000C036268B3EB820F16D000F067FC801BA0
:1034500041F288339842F0D9032042E0264A1268AC
:1034600012F4003FE0D101203BE0234A126812F041
:10347000007FD9D1012034E01E4B1B6803F0070305
:10348000AB4207D9EAB21B4B1A701B6803F0070363
:10349000AB422DD1236813F0040F06D0164A93686F
:1034A00023F4E053E1680B439360236813F0080FA3
:1034B00007D0114A936823F46043216943EAC103AA
:1034C0009360FFF703FF0C4B9B68C3F303130B4A96
:1034D000D35CD8400A4B18600A4B186802F0E8FC2D
:1034E000002070BD012070470120FAE70120F8E7B5
:1034F0000120F6E7003C0240003802402478000832
:103500000C00002008000020014B1868704700BF25
:103510000C00002008B5FFF7F7FF044B9B68C3F3CE
:103520008223034AD35CD84008BD00BF0038024064
:103530001C78000808B5FFF7E7FF044B9B68C3F34E
:103540004233034AD35CD84008BD00BF0038024074
:103550001C7800080F2303600B4B9A6802F00302EB
:1035600042609A6802F0F00282609A6802F4E052C7
:10357000C2609B68DB0803F4E0530361034B1B68E4
:1035800003F007030B60704700380240003C024024
:1035900010B40A490C6924F440740C610C6944F4B9
:1035A00040740C610C6944F001040C610260BFF3CB
:1035B0006F8F43605DF8044B704700BF003C0240D2
:1035C000074B1A6922F440721A611A6942F40072B8
:1035D0001A611A6942F001021A610160704700BF66
:1035E000003C0240074B1A6922F440721A611A69C2
:1035F00042F480721A611A6942F001021A61018074
:10360000704700BF003C0240064B1A6922F440722A
:103610001A611A691A611A6942F001021A6101708D
:10362000704700BF003C0240204BDB6813F0100FD6
:1036300007D01F4AD36943F01003D3611B4B1022FC
:10364000DA601A4BDB6813F0200F07D0184AD369F1
:1036500043F00803D361154B2022DA60134BDB687B
:1036600013F0400F07D0124AD36943F00403D3612B
:103670000E4B4022DA600D4BDB6813F0800F07D051
:103680000B4AD36943F00203D361084B8022DA600E
:10369000064BDB6813F0020F07D0054AD36943F0ED
:1036A0002003D361014B0222DA607047003C0240E4
:1036B000BC0E0020094B1B69002B01DB002070476A
:1036C000064B074A5A6002F188325A601B69002B88
:1036D00001DB002070470120704700BF003C024022
:1036E00023016745034A136943F000431361002037
:1036F000704700BF003C0240014BD869704700BFD3
:10370000BC0E002038B50446144B0022DA6100F0EC
:1037100005FB0546124BDB6813F4803F0AD0B4F179
:10372000FF3FF7D024B100F0F9FA401BA042F1D9D5
:1037300003200DE00A4BDB6813F0010F02D0084BA9
:103740000122DA60064BDB6813F0F20F01D1002092
:1037500038BDFFF769FF0120FAE700BFBC0E00206B
:10376000003C0240F8B516461B4A127E012A30D0B2
:1037700004460D461F46184B01221A764CF2503073
:10378000FFF7C0FF90B9ACB1012C18D0022C1BD0B0
:1037900032463B462846FFF7FBFE4CF25030FFF71F
:1037A000B1FF0E4A136923F0010313610A4B002293
:1037B0001A76F8BDF1B22846FFF726FFEDE7B1B261
:1037C0002846FFF70FFFE8E731462846FFF7F8FEE7
:1037D000E3E70220EDE700BFBC0E0020003C024002
:1037E000074B1A6922F440721A611A6942F0040206
:1037F0001A611A6942EA002242F480321A61704763
:10380000003C0240012905D0022906D039B14FF40D
:10381000407104E04FF4807101E04FF400710B4BF4
:103820001A6922F440721A611A690A431A611A6904
:1038300022F0F8021A611A6942EAC00040F0020060
:1038400018611A6942F480321A617047003C0240E4
:10385000164B1B6813F4007F10D0144B1A6822F427
:1038600000721A601A6842F400621A601A6822F440
:1038700000621A601A6842F400721A600B4B1B68EF
:1038800013F4806F10D0094B1A6822F480621A601A
:103890001A6842F480521A601A6822F480521A6040
:1038A0001A6842F480621A60704700BF003C024010
:1038B000F8B5224B1B7E012B3ED004460E461F4B13
:1038C00001221A764CF25030FFF71CFF074670BBFE
:1038D0004FF0FF3333602368012B16D0A568E368EF
:1038E000A2681344AB4220D9217C2846FFF78AFF07
:1038F0004CF25030FFF706FF114A136923F0FA0328
:103900001361074680B90135E9E76168207CFFF75C
:1039100067FF4CF25030FFF7F5FE0746084A13697F
:1039200023F00403136100E03560FFF791FF034BC0
:1039300000221A763846F8BD0227FBE7BC0E0020AD
:10394000003C024000230F2B00F2E98070B582B0EA
:1039500065E085684FEA430E032404FA0EF425EA75
:103960000405CC6804FA0EF42C438460446824EA0D
:1039700002044A68C2F300129A40224342605CE0AB
:10398000DC08083450F8242003F00705AD004FF0A0
:103990000F0E0EFA05FE22EA0E0E0A69AA4042EA4E
:1039A0000E0240F824205CE0072200E0002202FA28
:1039B0000EF22A4302345A4D45F82420594A94689D
:1039C0006FEA0C0224EA0C054E6816F4801F01D041
:1039D0004CEA0405534CA560E46802EA04054E680D
:1039E00016F4001F01D04CEA04054E4CE5606468F3
:1039F00002EA04054E6816F4003F01D04CEA0405C3
:103A0000484C6560246822404D6815F4803F01D021
:103A10004CEA0402434C226001330F2B7DD8012273
:103A20009A400C6804EA020C32EA0404F4D14C68AF
:103A300004F00304013C012C8BD94A6802F0030214
:103A4000032A09D0C4685D000322AA4024EA0204C4
:103A50008A68AA402243C2604A6802F00302022A2E
:103A60008ED004684FEA430E032202FA0EF224EAD3
:103A700002044A6802F0030202FA0EF222430260D4
:103A80004A6812F4403FC7D000220192264A546C83
:103A900044F480445464526C02F480420192019ACE
:103AA0009C08A51C1E4A52F8255003F0030E4FEA4D
:103AB0008E0E0F2202FA0EF225EA02051B4A9042F0
:103AC0003FF474AF02F5806290421AD002F5806232
:103AD000904218D002F58062904216D002F58062C2
:103AE000904214D002F58062904212D002F58062BA
:103AF000904210D002F5806290423FF455AF082208
:103B000055E7012253E7022251E703224FE704223F
:103B10004DE705224BE7062249E702B070BD70472A
:103B200000380140003C01400038024000000240E3
:103B30000AB181617047090481617047436901EAF4
:103B4000030221EA030141EA02418161704770B535
:103B50000446866D00F0E2F894F83530DBB2022BB3
:103B600006D080236365002384F83430012070BDC3
:103B700005462268136823F0160313602268536910
:103B800023F080035361236CE3B12268136823F0B0
:103B9000080313602268136823F00103136023688D
:103BA0001B6813F0010F11D000F0B8F8431B052B70
:103BB000F5D920236365032084F83500002384F8B9
:103BC0003430D4E7A36C002BDFD1E3E7E26D3F2371
:103BD0009340B360012384F83530002084F834002A
:103BE000C5E790F83530DBB2022B03D08023436564
:103BF00001207047052380F835300268136823F0F0
:103C00000103136000207047002808DB0901C9B2D6
:103C100000F1604000F5614080F80013704700F04B
:103C20000F000901C9B2014B1954704714ED00E0AF
:103C300000B500F00700C0F1070CBCF1040F28BF6D
:103C40004FF0040C031D062B0FD9C31E4FF0FF3E8F
:103C50000EFA0CF021EA000199400EFA03FE22EA66
:103C60000E0241EA02005DF804FB0023EEE70000CB
:103C7000074AD36823F4E0631B041B0C000200F422
:103C8000E060034343F0BF6343F40033D360704705
:103C900000ED00E010B50446054BD868C0F30220E3
:103CA000FFF7C6FF01462046FFF7AEFF10BD00BF7D
:103CB00000ED00E0002807DB00F01F0240090123AF
:103CC0009340024A42F82030704700BF00E100E014
:103CD00008B50B4B1A6842F400721A601A6842F475
:103CE00080621A601A6842F480721A600320FFF73B
:103CF000BFFF0F2002F0DCF8FEF79EFD002008BD9C
:103D0000003C0240034A1168034B1B780B441360CC
:103D1000704700BFDC0E002005000020014B186832
:103D2000704700BFDC0E002038B50446FFF7F6FFF1
:103D30000546B4F1FF3F02D0044B1B781C44FFF74B
:103D4000EDFF401BA042FAD338BD00BF05000020A4
:103D50002DE9F04782B00546884617461E46FFF714
:103D6000DDFF0A9B1B1A03EB0609FFF7D7FF82460C
:103D7000284B1B68C3F3CB3309FB03F301932B6878
:103D80009C6838EA04040CBF01230023BB423DD0E9
:103D9000B6F1FF3FF3D0FFF7C1FFA0EB0A004845A3
:103DA00007D2019A02B14A46019B013B0193914619
:103DB000E5E72A68536823F0E00353606B68B3F5C6
:103DC000827F0BD0AB6AB3F5005F14D0012385F876
:103DD0005130002385F85030032018E0AB68B3F56C
:103DE000004F02D0B3F5806FECD12A68136823F03E
:103DF00040031360E6E72A68136823F40053136056
:103E00002A68136843F400531360DFE7002002B010
:103E1000BDE8F0870C00002010B584B00446164BB6
:103E20001868164BA3FB0030400D4FF47A7303FB68
:103E300000F003906368B3F5827F0BD0039BBBB1A6
:103E4000039B013B039323689B6813F0800FF5D11C
:103E500000200EE000920B46002280212046FFF752
:103E600077FF30B1636D43F020036365032000E00A
:103E7000002004B010BD00BF0C000020819F5E1622
:103E800000285AD010B50446436A33B94368B3F5E5
:103E9000827F05D00023C36102E0002303614361F8
:103EA0000023A36294F85130002B40D0022384F801
:103EB00051302268136823F040031360636803F4F1
:103EC0008273A26802F404421343E26802F40062BF
:103ED0001343226902F002021343626902F00102F5
:103EE0001343A26902F400721343E26902F038023C
:103EF0001343226A02F080021343A26A02F40052C2
:103F0000216813430B60638B03F00403626A02F0C1
:103F10001002216813434B602268D36923F40063C5
:103F2000D36100206065012384F8513010BD84F80E
:103F30005030204602F0F8F8B8E7012070472DE92C
:103F4000F04383B01D4690F85030012B00F0D18033
:103F5000044688469146012380F85030FFF7DEFE84
:103F6000074694F85160F6B2012E40F0AF80B8F1E8
:103F7000000F00F0AC80B9F1000F00F0A88003231F
:103F800084F8513000236365C4F83080A4F834907D
:103F9000A4F83690A363A387E38763642364A368CC
:103FA000B3F5004F1ED023681A6812F0400F03D1FA
:103FB0001A6842F040021A60E368B3F5006F1CD043
:103FC000636813B1B9F1010F52D1226B23681278E3
:103FD0001A73236B01332363E38E9BB2013B9BB2C5
:103FE000E38645E02268136823F0400313602268EB
:103FF000136843F480431360D5E7636813B1B9F1E4
:10400000010F16D1226B23681288DA60236B02330A
:104010002363E38E9BB2013B9BB2E38609E0FFF78B
:104020007DFEC01BA84202D3B5F1FF3F59D1002D40
:1040300059D0E38E9BB2002B33D023689A6812F0DC
:10404000020FECD0226B1288DA60236B02332363F9
:10405000E38E9BB2013B9BB2E386EAE7FFF75EFE8D
:10406000C01BA84202D3B5F1FF3F3ED1002D3ED088
:10407000E38E9BB2ABB123689A6812F0020FEDD0C9
:10408000226B12781A73236B01332363B4F836C0A2
:104090001FFA8CFC0CF1FF3C1FFA8CFCA4F836C014
:1040A000E6E73A4629462046FFF7B6FE08B1202348
:1040B0006365A36833B901932368DA6801929B684A
:1040C0000193019B636D13B9002600E002260123D2
:1040D00084F85130002384F85030304603B0BDE8F6
:1040E000F0830326F3E70326F1E70326EFE7032631
:1040F000EDE70226F1E7704730B585B00446026867
:1041000051689368C3F3801013F0400F05D113F08A
:10411000010F02D011F0400F69D113F0020F02D04D
:1041200011F0800F67D1C3F3401513F0200F03D1B6
:1041300010B913F4807F61D011F0200F5ED078B1F8
:1041400094F85100C0B203285AD0606D40F00400CA
:10415000606500200090D068009090680090009802
:1041600065B1606D40F001006065002002909068CC
:104170000290106820F040001060029A13F4807FD3
:1041800009D0636D43F0080363650023039323683C
:104190009B680393039B636D002B2FD022685368A9
:1041A00023F0E0035360012384F8513011F0030F32
:1041B0002ED02268536823F003035360E36C4BB1A5
:1041C000154A1A65E06CFFF70CFD18B1636D43F0FA
:1041D00040036365A36C8BB10F4A1A65A06CFFF7AF
:1041E00000FD58B1636D43F04003636506E0236C46
:1041F0002046984702E0636C2046984705B030BDE2
:1042000000230193D368019393680193019BF5E721
:104210002046FFF770FFF1E71D42000808B5806BEC
:104220000023C387C386FFF766FF08BD10B4036A87
:10423000046A24F001040462846924F0F00C4CEA5E
:10424000021223F00A030B43826103625DF8044B00
:10425000704710B4036A23F0100303628469036A91
:1042600024F4704C4CEA023223F0A00343EA011319
:10427000826103625DF8044B7047836823F070032A
:104280000B4343F0070383607047000090F83D3014
:10429000DBB2012B32D1022380F83D300368194A8A
:1042A000934220D0B3F1804F1DD0A2F57C429342BF
:1042B00019D002F58062934215D002F580629342D4
:1042C00011D002F5784293420DD002F5705293421C
:1042D00009D0A2F59432934205D01A6842F0010247
:1042E0001A60002070479A6802F00702062A07D079
:1042F0001A6842F001021A600020704701207047DE
:10430000002070470000014090F83D30DBB2012BE7
:1043100037D1022380F83D300268D36843F00103AF
:10432000D3600368194A934220D0B3F1804F1DD067
:10433000A2F57C42934219D002F58062934215D0D7
:1043400002F58062934211D002F5784293420DD07B
:1043500002F57052934209D0A2F59432934205D0EF
:104360001A6842F001021A60002070479A6802F051
:104370000702062A07D01A6842F001021A600020DC
:104380007047012070470020704700BF00000140C7
:10439000704770477047704710B5044603681A6944
:1043A00012F0020F11D0DA6812F0020F0DD06FF088
:1043B00002021A610123037703689B6913F0030F5C
:1043C00070D0FFF7E6FF0023237723681A6912F005
:1043D000040F12D0DA6812F0040F0ED06FF004024E
:1043E0001A610223237723689B6913F4407F5FD00F
:1043F0002046FFF7CEFF0023237723681A6912F0C7
:10440000080F12D0DA6812F0080F0ED06FF0080211
:104410001A61042323772368DB6913F0030F4ED05E
:104420002046FFF7B6FF0023237723681A6912F0AE
:10443000100F12D0DA6812F0100F0ED06FF01002C9
:104440001A61082323772368DB6913F4407F3DD08A
:104450002046FFF79EFF0023237723681A6912F096
:10446000010F03D0DA6812F0010F36D123681A6900
:1044700012F0800F03D0DA6812F0800F34D1236875
:104480001A6912F0400F03D0DA6812F0400F32D1EF
:1044900023681A6912F0200F03D0DA6812F0200F97
:1044A00030D110BDFFF774FF2046FFF773FF8AE796
:1044B0002046FFF76DFF2046FFF76CFF9BE7204685
:1044C000FFF766FF2046FFF765FFACE72046FFF7E2
:1044D0005FFF2046FFF75EFFBDE76FF001021A6144
:1044E0002046FBF70DFFC1E76FF080021A612046FE
:1044F00000F073F9C3E76FF040021A612046FFF73E
:104500004AFFC5E76FF020021A61204600F064F907
:10451000C7E700000368304A904212D0B0F1804FE4
:104520000FD0A2F57C4290420BD002F580629042FF
:1045300007D002F58062904203D002F578429042A3
:1045400003D123F070034A681343234A90422AD0D0
:10455000B0F1804F27D0A2F57C42904223D002F5E3
:10456000806290421FD002F5806290421BD002F51B
:104570007842904217D002F57052904213D002F563
:10458000806290420FD002F5806290420BD0A2F57B
:104590009832904207D002F58062904203D002F533
:1045A0008062904203D123F44073CA68134323F01E
:1045B00080034A69134303608B68C3620B6883629C
:1045C000054B984203D003F58063984201D10B69F3
:1045D00003630123436170470000014040B310B5FD
:1045E000044690F83D30F3B1022384F83D30214673
:1045F00051F8040BFFF78EFF012384F8463084F84E
:104600003E3084F83F3084F8403084F8413084F8FC
:10461000423084F8433084F8443084F8453084F8DC
:104620003D30002010BD80F83C3001F041FEDBE75A
:104630000120704710B4846824F47F4C42EA0322BE
:104640000A4342EA0C0282605DF8044B704790F81E
:104650003C30012B78D010B50446012380F83C3063
:10466000022380F83D300268936823F47F4323F0EF
:10467000770393600B68602B4CD023D8402B54D029
:1046800011D8202B03D00AD80BB1102B05D1194615
:104690002068FFF7F2FD002028E0012026E0302B03
:1046A000F5D0012022E0502B0AD1CA684968006881
:1046B000FFF7BCFD50212068FFF7DFFD002015E06B
:1046C000012013E0B3F5805F3AD0B3F5005F14D05A
:1046D000702B37D1CB684A6889680068FFF7AAFF5A
:1046E0002268936843F0770393600020012384F8E5
:1046F0003D30002384F83C3010BDCB684A6889689F
:104700000068FFF797FF2268936843F48043936043
:104710000020EBE7CA6849680068FFF79AFD60214E
:104720002068FFF7AAFD0020E0E7CA684968006832
:10473000FFF77CFD40212068FFF79FFD0020D5E7B3
:104740000020D3E70120D1E70220704790F83C20F9
:10475000012A3DD010B40346012280F83C200222F9
:1047600080F83D2002685068946820F0700C08685A
:1047700040EA0C0050601A68164882421AD0B2F122
:10478000804F17D0A0F57C40824213D000F58060A6
:1047900082420FD000F5806082420BD000F5784055
:1047A000824207D000F57050824203D0A0F59430C9
:1047B000824204D124F0800449682143916001229F
:1047C00083F83D20002083F83C005DF8044B7047DF
:1047D000022070470000014070477047026802F1F4
:1047E0000C0353E8003F23F490730C3242E800318D
:1047F0000029F3D1026802F1140353E8003F23F0CB
:104800000103143242E800310029F3D1036B012B7C
:1048100005D0202380F83E300023036370470268F0
:1048200002F10C0353E8003F23F010030C3242E87E
:1048300000310029F3D1ECE790F83D30DBB2212BB9
:1048400001D0022070478368B3F5805F17D0036AF8
:104850005A1C02621A7803685A60C38C9BB2013BEF
:104860009BB2C3844BB90268D36823F08003D36042
:104870000268D36843F04003D360002070470369A7
:10488000002BE4D1036A1B880268C3F3080353605A
:10489000036A02330362E0E710B504460268136955
:1048A00023F44053C1680B431361836802691A43C0
:1048B00043691A43C3691A430168CB6823F416435A
:1048C00023F00C031343CB600268536923F4407355
:1048D00081690B4353610368314A934206D002F564
:1048E0008062934202D0FEF715FE01E0FEF722FE41
:1048F000E369B3F5004F29D00021031849411B1883
:1049000041F10001C90041EA5371DB0018186368E6
:104910004FEA83024FEA937341F10001FBF790FCE9
:10492000204AA2FB00314909642303FB11031B0148
:104930003233A2FB03235B0903F0F00202EB011206
:1049400003F00F03216813448B6010BD002302188D
:1049500043EB0301121841F10001C90041EA527111
:10496000D200101841F10001626892185B41FBF718
:1049700067FC0C4AA2FB00314909642303FB1103C5
:10498000DB003233A2FB03235B095A0002F4F87206
:1049900002EB011203F00703216813448B60D4E794
:1049A000001001401F85EB512DE9F84305460F46E5
:1049B00016469946DDF820802B681C6837EA040407
:1049C0000CBF01240024B4422DD1B8F1FF3FF3D035
:1049D000B8F1000F05D0FFF7A1F9A0EB09004045A1
:1049E000EAD92A6802F10C0353E8003F23F4D0739C
:1049F0000C3242E800310029F3D12A6802F1140395
:104A000053E8003F23F00103143242E8003100294B
:104A1000F3D1202385F83D3085F83E30002385F81A
:104A20003C30032000E00020BDE8F88358B310B507
:104A3000044690F83D300BB3242384F83D302268BF
:104A4000D36823F40053D3602046FFF725FF226884
:104A5000136923F4904313612268536923F02A03F6
:104A600053612268D36843F40053D360002020646C
:104A7000202384F83D3084F83E3010BD80F83C306F
:104A800001F062FCD8E7012070472DE9F04182B0C7
:104A90001E4690F83D30DBB2202B54D104460D4623
:104AA0009046002953D0002A53D090F83C30012B77
:104AB00051D0012380F83C3000230364212380F887
:104AC0003D30FFF72BF90746A4F82480A4F8268090
:104AD000A368B3F5805F05D04FF00008002384F889
:104AE0003C3012E0236913B14FF00008F6E7A84606
:104AF0000025F3E738F8023B2268C3F3080353604C
:104B0000E28C92B2013A92B2E284E38C9BB273B12E
:104B100000963B46002280212046FFF745FFE0B982
:104B2000002DE7D015F8012B23685A60E8E70096BE
:104B30003B46002240212046FFF736FF78B920236C
:104B400084F83D3000E0022002B0BDE8F081012091
:104B5000FAE70120F8E70220F6E70320F4E7032054
:104B6000F2E7704708B50168CA6822F04002CA60DF
:104B7000202280F83D20FFF7F4FF002008BD08B593
:104B8000806B0023C385C384FBF788FE08BD704794
:104B900090F83E30DBB2222B67D18368B3F5805F9B
:104BA0004DD0826AB3F5805F04D0002B54D10369E5
:104BB000002B51D103685B681370836A01338362F1
:104BC000C38D9BB2013B9BB2C385002B4FD100B577
:104BD00083B00268D36823F02003D3600268D368EF
:104BE00023F48073D3600268536923F00103536197
:104BF000202380F83E30036B012B33D10023036365
:104C0000026802F10C0353E8003F23F010030C325A
:104C100042E800310029F3D103681A6812F0100F3E
:104C200006D0002201921A6801925B680193019BF1
:104C3000818DFFF7ACFF002003B05DF804FB026933
:104C4000002AAED1826A03685B68C3F3080313804D
:104C5000836A02338362B3E703685B6803F07F0310
:104C60001370AAE7FBF7F8FDE5E702207047002084
:104C70007047000010B582B0044602681368D0681F
:104C8000516913F00F0F09D113F0200F0CD010F061
:104C9000200F09D02046FFF77BFF16E011F001013D
:104CA00015D110F4907F12D1216B012979D013F026
:104CB000800F03D010F0800F40F0108113F0400FF0
:104CC00003D010F0400F40F00D8102B010BD13F082
:104CD000010F06D010F4807F03D0226C42F0010255
:104CE000226413F0040F04D019B1226C42F00202C6
:104CF000226413F0020F04D019B1226C42F00402B6
:104D0000226413F0080F07D010F0200F00D119B162
:104D1000226C42F008022264226C002AD5D013F0E3
:104D2000200F02D010F0200F29D123685B6903F017
:104D30004003226C12F0080F00D163B32046FFF746
:104D40004DFD23685B6913F0400F20D0226802F10B
:104D5000140353E8003F23F04003143242E80031CB
:104D60000029F3D1A36B73B1604A1A65A06BFEF7FB
:104D700038FF0028A9D0A06B036D9847A5E720460F
:104D8000FFF706FFD1E72046FBF788FD9DE72046A9
:104D9000FBF784FD99E72046FBF780FD00232364A1
:104DA00093E713F0100F82D010F0100F3FF47FAF95
:104DB000002301931368019353680193019B536986
:104DC00013F0400F50D0A26B13685B689BB2002BAE
:104DD0003FF47BAFA18D99427FF677AFE385D3692E
:104DE000B3F5807F37D0226802F10C0353E8003F0F
:104DF00023F480730C3242E800310029F3D1226899
:104E000002F1140353E8003F23F00103143242E897
:104E100000310029F3D1226802F1140353E8003F66
:104E200023F04003143242E800310029F3D120235B
:104E300084F83E3000232363226802F10C0353E818
:104E4000003F23F010030C3242E800310029F3D177
:104E5000A06BFEF77CFEA18DE38D9BB2C91A89B2CF
:104E60002046FFF794FE30E7A18DE38D9BB2C91A6F
:104E700089B2E38D9BB2002B3FF427AF00293FF4AA
:104E800024AF226802F10C0353E8003F23F490732F
:104E90000C3242E800300028F3D1226802F11403FA
:104EA00053E8003F23F00103143242E800300028A9
:104EB000F3D1202384F83E3000232363226802F1DB
:104EC0000C0353E8003F23F010030C3242E800309B
:104ED0000028F3D12046FFF75AFEF6E62046FFF7FA
:104EE000ABFCF2E62046FFF73DFEEEE67F4B000806
:104EF000006C704781628285C28500230364222290
:104F000080F83E2080F83C30036923B10268D36802
:104F100043F48073D3600268536943F00103536123
:104F20000268D36843F02003D3600020704708B5BF
:104F300090F83E30DBB2202B0DD171B17AB190F8F0
:104F40003C30012B0DD0012380F83C30002303635B
:104F5000FFF7D0FF00E0022008BD0120FCE70120A0
:104F6000FAE70220F8E70000034AD2F8883043F459
:104F70007003C2F88830704700ED00E000F10803CC
:104F800043604FF0FF328260C3600361002303601F
:104F9000704700230361704743684B609A688A60DA
:104FA000516099600861036801330360704730B451
:104FB0000D68B5F1FF3F11D000F108031C465B6896
:104FC0001A68AA42FAD963684B6099608C60616084
:104FD000086103680133036030BC70470469F2E77D
:104FE0000369416882688A60416851605A688242F8
:104FF00006D0002202611A68013A1A6018687047E8
:1050000082685A60F5E7000028B141690C4A914274
:105010000AD0002070474FF0500383F31188BFF38C
:105020006F8FBFF34F8FFEE7836A064A934202D029
:105030001BB100207047002070470120704700BF5F
:105040000C0F0020380F0020084B1B681B6823B989
:10505000074B4FF0FF321A607047044B1B68DB6848
:10506000DB685A68024B1A60704700BF500F00207F
:10507000E80E00202DE9F04707469846089DDDF828
:1050800024900A9C266B02F18042013A06EB8206CC
:1050900026F00706C1B308464FF0000CBCF10F0F15
:1050A00009D810F80C2004EB0C0383F8342012B15B
:1050B0000CF1010CF2E7002384F84330062D00D9EF
:1050C0000625E56265644FF0000AC4F848A0201D7B
:1050D000FFF75FFF04F11800FFF75BFF2461C5F1E4
:1050E0000705A5616462C4F84CA084F850A042464C
:1050F0003946304600F088FD2060B9F1000F01D03C
:10510000C9F80040BDE8F087002384F83430D5E7C3
:1051100038B5002407E004EB840293000E481844DD
:10512000FFF72CFF0134062CF5D90C4D2846FFF76C
:1051300025FF0B4C2046FFF721FF0A48FFF71EFF13
:105140000948FFF71BFF0948FFF718FF084B1D60D0
:10515000084B1C6038BD00BF7C0F0020680F00208A
:10516000540F0020380F0020240F00200C0F0020C7
:10517000500F00204C0F002010B5044600F072FDC7
:10518000214A136801331360204B1B685BB1204B2D
:105190001B686BB91D4B1B68DA6AE36A9A4207D831
:1051A0001A4B1C6004E0194B1C601368012B28D0BB
:1051B000184A136801331360E06A01238340164ADA
:1051C00011680B43136000EB8000211D134B03EBB0
:1051D0008000FFF7E1FE00F067FD0D4B1B687BB11F
:1051E0000A4B1B68DA6AE36A9A4209D24FF0E0235D
:1051F0004FF08052C3F8042DBFF34F8FBFF36F8F72
:1052000010BDFFF785FFD3E7080F0020081000202E
:10521000FC0E0020EC0E0020000F00207C0F002070
:1052200010B5044690F8513063B1012B11D0022B18
:105230000ED04FF0500383F31188BFF36F8FBFF38D
:105240004F8FFEE7006B00F063FC204600F060FC2F
:1052500010BD00F05DFCFBE70F4B1B68D3B110B530
:1052600000F000FD0D4BDB68DC68201DFFF7B8FE89
:105270000B4A1368013B1360074A1368013B136034
:1052800000F012FD2046FFF7CBFF034B1B68002BFD
:10529000E6D110BD704700BF200F0020240F002072
:1052A000080F002008B5FFF7D7FF074B1B68012B3D
:1052B000F9D94FF0E0234FF08052C3F8042DBFF32B
:1052C0004F8FBFF36F8FEEE77C0F002070B5044661
:1052D0000D461D4B1E681D4B18680430FFF780FEFD
:1052E00048B91A4B1B68DB6A01229A4018490B68BF
:1052F00023EA02030B60B4F1FF3F0DD03444134B9B
:105300001B685C60A64210D9124B18680F4B1968D5
:105310000431FFF74CFE70BD002DEFD00B4B196828
:1053200004310D48FFF738FEF5E70C4B1868074BC2
:1053300019680431FFF73BFE094B1B68A342EAD909
:10534000074B1C60E7E700BF040F00200810002097
:10535000000F00204C0F00200C0F0020500F0020E9
:10536000E80E002030B587B00B9C7CB10C9DB5B128
:1053700054250495049D542D1AD04FF0500383F307
:105380001188BFF36F8FBFF34F8FFEE74FF05003CD
:1053900083F31188BFF36F8FBFF34F8FFEE74FF09A
:1053A000500383F31188BFF36F8FBFF34F8FFEE776
:1053B000049D0C9D2C63022485F851400024039425
:1053C000029505AC01940A9C0094FFF753FE0C98DB
:1053D000FFF7D2FE059807B030BD2DE9F04385B048
:1053E0000746884614461E46900000F00FFB08B39F
:1053F0008146542000F00AFB0546A8B1C0F8309061
:10540000002380F85130039302900D9B01930C9B75
:1054100000933346224641463846FFF72BFE284686
:10542000FFF7AAFE012007E0484600F071FB4FF0AD
:10543000FF3001E04FF0FF3005B0BDE8F083000021
:1054400038B568B104461D4B1B68834207D000F095
:1054500009FC2046FFF7D8FD58B900F025FC38BDFF
:105460004FF0500383F31188BFF36F8FBFF34F8F5B
:10547000FEE7251D2846FFF7B3FDE06A01238340C0
:105480000F4A11680B43136000EB800029460D4B57
:1054900003EB8000FFF780FDE26A084B1B68DB6AC4
:1054A0009A42DAD34FF0E0234FF08052C3F8042D34
:1054B000BFF34F8FBFF36F8FCFE700BF08100020FF
:1054C000000F00207C0F002010B588B00024059448
:1054D000069407AA06A905A8FBF72EFE059B0293D2
:1054E000069B019300942346079A0E490E48FFF746
:1054F00039FF0E4B186090B14FF0500383F31188C1
:10550000BFF36F8FBFF34F8F094B4FF0FF321A601D
:10551000084B01221A60084B1C6000F03DFC08B0EB
:1055200010BD00BF58750008A5520008E40E002009
:10553000E80E0020FC0E0020040F0020024A136831
:1055400001331360704700BFE00E0020F8B53A4BFE
:105550001B68002B69D1394B1D6801351D60C5B929
:10556000374B1B681B6843B14FF0500383F311881E
:10557000BFF36F8FBFF34F8FFEE7314A1168314B96
:10558000186810601960304A136801331360FFF720
:105590005BFD2E4B1B68AB423DD900272C4B1B6893
:1055A000DB6A03EB83039A002A4B9B58012B00D93B
:1055B0000127294B1B68002B3CD001273AE001272B
:1055C0001F4B1B681B6843B31D4B1B68DB68DC6803
:1055D00063689D4226D3261D3046FFF701FDA36A6E
:1055E0001BB104F11800FFF7FBFCE36A01229A40AB
:1055F0001A49086802430A6003EB83039A003146A4
:1056000014481044FFF7C8FCE26A114B1B68DB6AC0
:105610009A42D4D2D4E70027D2E70C4B4FF0FF32A6
:105620001A60BBE7094A1360B8E70D4A13680133F3
:10563000136000273846F8BDE00E0020040F00205C
:10564000500F00204C0F0020F00E0020E80E00202C
:10565000081000207C0F0020F40E0020000F002016
:10566000F80E002038B5354B1B6843B94FF0500396
:1056700083F31188BFF36F8FBFF34F8FFEE700F006
:10568000F1FA2E4B1A68013A1A601B68002B4FD1B1
:105690002B4B1B680BB900244BE00024294B1B68E3
:1056A0001BB3284BDB68DC6804F11800FFF798FC9B
:1056B000251D2846FFF794FCE06A01238340224A17
:1056C00011680B43136000EB800029461F4B03EB6E
:1056D0008000FFF761FCE26A1D4B1B68DB6A9A429F
:1056E000DCD31C4B01221A60D8E70CB1FFF7ACFCED
:1056F000194B1C6884B9174B1C68D4B14FF0E023D8
:105700004FF08052C3F8042DBFF34F8FBFF36F8F5C
:1057100001240EE0013C07D0FFF718FF0028F9D064
:105720000C4B01221A60F5E70B4B00221A60E2E7EE
:10573000002400F0B9FA204638BD00BFE00E00207A
:10574000080F0020380F0020000F00207C0F0020E1
:1057500008100020F40E0020F80E002010B5A8B1AB
:105760000446104B1B6843B14FF0500383F311887C
:10577000BFF36F8FBFF34F8FFEE7FFF7DFFE002110
:105780002046FFF7A3FDFFF76DFF48B94FF0E02378
:105790004FF08052C3F8042DBFF34F8FBFF36F8FCC
:1057A00010BD00BFE00E0020204B1B681BB1204B3A
:1057B00001221A6070471E4B00221A601D4B1B68A5
:1057C000B3FA83F3DBB2C3F11F0303EB83018A0057
:1057D00019498A5842B94FF0500383F31188BFF337
:1057E0006F8FBFF34F8FFEE7134803EB83018A00EF
:1057F000024451684968516003EB830C4FEA8C0204
:1058000008320244914209D003EB83039A000A4B09
:1058100013445B68DA68094B1A607047486862464F
:105820009100054A0A445060EEE700BFE00E0020F8
:10583000F40E0020000F00207C0F00200810002034
:1058400038B5044600F00EFA64B3251D2846FFF76C
:10585000C7FB70B9E26A02EB82039B002C49CB586C
:105860003BB9012303FA02F22A490B6823EA020337
:105870000B60A36A1BB104F11800FFF7B1FB2946C6
:105880002548FFF789FB94F85030DBB2012B0CD090
:1058900000F00AFA214B1B685BB9214B1B68A3423D
:1058A0000ED038BD1E4B1C68CFE7002384F8503063
:1058B000EEE700F0D7F9FFF7C7FB00F0F5F9ECE7EA
:1058C000164B1B68B3B1174B1B6843B14FF0500325
:1058D00083F31188BFF36F8FBFF34F8FFEE74FF055
:1058E000E0234FF08052C3F8042DBFF34F8FBFF376
:1058F0006F8FD6E7084B1A680B4B1B689A4203D18F
:10590000074B00221A60CCE7FFF74EFFC9E700BF44
:105910007C0F0020000F00200C0F0020FC0E002048
:1059200008100020E00E0020080F002008B5FFF747
:10593000CBFD002008BD08B500B90120FFF70EFF20
:10594000002008BD124A12F0070F1ED0D11D21F011
:105950000701C1F5705313440A460E480260002146
:1059600041601344083B23F007030B480360596070
:105970001960991A51601360084B1960084B19603F
:10598000084B4FF000421A6070474FF47053E4E741
:105990002C100020241000202010002018100020BF
:1059A0001C1000200C100020164B1A461B68834266
:1059B000FBD3516802EB010C844509D0416800EB30
:1059C000010C634509D00360904219D01060704704
:1059D0004068014451601046F0E710B40A4C246856
:1059E000A3420BD05B681944416013681B680360D5
:1059F000904200D010605DF8044B70470460F7E7F8
:105A0000704700BF241000202010002038B5044645
:105A1000FFF794FD384B1B68B3B1384B1B681C4231
:105A200050D1002C50D004F1080214F0070F02D01E
:105A300022F007020832002A55D0314B1B689342EE
:105A400053D330490C6804E0FFF77CFFE5E72146BB
:105A50001C466368934202D22368002BF7D1264B81
:105A60001B68A34243D00D68083523680B60636848
:105A70009B1A102B10D9A01810F0070F08D04FF068
:105A8000500383F31188BFF36F8FBFF34F8FFEE78F
:105A900043606260FFF788FF626819490B689B1AD0
:105AA0000B60194909688B4201D217490B60134BEF
:105AB0001B681343636000232360144A1368013397
:105AC000136002E0002500E00025FFF7CBFD15F094
:105AD000070F0ED04FF0500383F31188BFF36F8F81
