:020000040800F2
:1000000000000220BD850008B9190008BB190008CE
:10001000BD190008BF190008C11900080000000040
:10002000000000000000000000000000A17D0008AA
:10003000C319000800000000417E0008A57E0008EA
:100040000D8600080D8600080D8600080D86000844
:100050000D8600080D8600080D8600080D86000834
:100060000D8600080D8600080D8600080D86000824
:100070000D8600080D8600080D8600080D86000814
:100080000D8600080D8600080D8600080D86000804
:100090000D8600080D8600080D8600080D860008F4
:1000A0000D8600080D8600080D8600080D860008E4
:1000B000C51900080D8600080D8600080D86000889
:1000C0000D8600080D8600080D860008D519000869
:1000D000E51900080D860008F5190008051A000842
:1000E0000D8600080D8600080D8600080D860008A4
:1000F0000D8600080D8600080D8600080D86000894
:100100000D8600080D8600080D8600080D86000883
:100110000D8600080D8600080D8600080D86000873
:100120000D8600080D8600080D8600080D86000863
:100130000D8600080D8600080D8600080D86000853
:100140000D8600080D8600080D8600080D86000843
:100150000D8600080D8600080D8600080D86000833
:100160000D8600080D8600080D8600080D86000823
:100170000D8600080D8600080D86000800000000AE
:080180000D8600080D86000841
:1001900010B5054C237833B9044B13B10448AFF3C1
:1001A00000800123237010BD7800002000000000B3
:1001B0007090000808B5034B1BB103490348AFF327
:1001C000008008BD000000007C0000207090000846
:1001D000034613F8012B002AFBD1181A0138704787
:1001E00001F0FF01102A2BDB10F0070F08D010F8E8
:1001F000013B013A8B422DD010F0070F42B3F6D1EC
:10020000F0B441EA012141EA014122F007047FF004
:1002100000070023F0E80256083C85EA010586EA5B
:10022000010685FA47F5A3FA87F586FA47F6A5FA97
:1002300087F68EB9EED1F0BC01F0FF0102F00702A3
:1002400032B110F8013B013A83EA010313B1F8D14E
:100250000020704701387047002D06BF354603382F
:10026000073815F0010F07D1013015F4807F02BF68
:10027000013015F4C03F0130F0BC0138704700BFB9
:1002800053B94AB9002908BF00281CBF4FF0FF31FD
:100290004FF0FF3000F074B9ADF1080C6DE904CEF9
:1002A00000F006F8DDF804E0DDE9022304B0704751
:1002B0002DE9F047089D04468E46002B4DD18A4219
:1002C000944669D9B2FA82F252B101FA02F3C2F14C
:1002D000200120FA01F10CFA02FC41EA030E9440DD
:1002E0004FEA1C48210CBEFBF8F61FFA8CF708FBFE
:1002F00016E341EA034306FB07F199420AD91CEBD6
:10030000030306F1FF3080F01F81994240F21C8107
:10031000023E63445B1AA4B2B3FBF8F008FB10334F
:1003200044EA034400FB07F7A7420AD91CEB040484
:1003300000F1FF3380F00A81A74240F20781644454
:10034000023840EA0640E41B00261DB1D4400023D9
:10035000C5E900433146BDE8F0878B4209D9002D3D
:1003600000F0EF800026C5E9000130463146BDE8C7
:10037000F087B3FA83F6002E4AD18B4202D3824231
:1003800000F2F980841A61EB030301209E46002DE0
:10039000E0D0C5E9004EDDE702B9FFDEB2FA82F235
:1003A000002A40F09280A1EB0C014FEA1C471FFA93
:1003B0008CFE0126200CB1FBF7F307FB131140EA7A
:1003C00001410EFB03F0884208D91CEB010103F147
:1003D000FF3802D2884200F2CB804346091AA4B209
:1003E000B1FBF7F007FB101144EA01440EFB00FEDD
:1003F000A64508D91CEB040400F1FF3102D2A64542
:1004000000F2BB800846A4EB0E0440EA03409CE7E0
:10041000C6F12007B34022FA07FC4CEA030C20FA8D
:1004200007F401FA06F31C43F9404FEA1C4900FAAD
:1004300006F3B1FBF9F8200C1FFA8CFE09FB18112A
:1004400040EA014108FB0EF0884202FA06F20BD99D
:100450001CEB010108F1FF3A80F08880884240F2ED
:100460008580A8F102086144091AA4B2B1FBF9F031
:1004700009FB101144EA014100FB0EFE8E4508D92C
:100480001CEB010100F1FF346CD28E456AD90238B1
:10049000614440EA0840A0FB0294A1EB0E01A14296
:1004A000C846A64656D353D05DB1B3EB080261EB04
:1004B0000E0101FA07F722FA06F3F1401F43C5E9DE
:1004C000007100263146BDE8F087C2F12003D84014
:1004D0000CFA02FC21FA03F3914001434FEA1C4756
:1004E0001FFA8CFEB3FBF7F007FB10360B0C43EA48
:1004F000064300FB0EF69E4204FA02F408D91CEBF8
:10050000030300F1FF382FD29E422DD902386344F5
:100510009B1B89B2B3FBF7F607FB163341EA034195
:1005200006FB0EF38B4208D91CEB010106F1FF38E4
:1005300016D28B4214D9023E6144C91A46EA0046DB
:1005400038E72E46284605E70646E3E61846F8E66D
:100550004B45A9D2B9EB020864EB0C0E0138A3E7B6
:100560004646EAE7204694E74046D1E7D0467BE797
:10057000023B614432E7304609E76444023842E70F
:10058000704700BF10F0030F16D10E4A82FB0032F5
:10059000C317C3EB6213642202FB130373B9094A46
:1005A00082FB0032C317C3EBE2134FF4C87202FBA5
:1005B00013032BB1002070470020704701207047C3
:1005C000012070471F85EB5130B593B0044644229B
:1005D000014601A808F05AF89DF845302D33DBB2EA
:1005E00084F841303B2B35D93C3B84F841309DF8B1
:1005F0004430063384F8403094F84030172B07D944
:10060000183B84F840309DF84330013384F83F3084
:1006100094F83F209DF84250114B5B5D9A420CD9F3
:10062000BDF84000FFF7AEFF38B9022D05D0012319
:1006300084F83F301D4484F83E5094F83E300C2B33
:1006400006D9012384F83E30BDF840300133A3873A
:1006500013B030BD9DF84430053384F84030CBE70B
:10066000BC90000870B5054608461E46114608F0C5
:1006700043F880B1044601343146204608F03CF886
:1006800048B1011B002302E0E25CEA5401338B42D3
:10069000FADB00236B5470BD08B50E21014800F051
:1006A00053FB08BD8890000830B587B0044600F0C1
:1006B00013FB0E215B4800F047FB5B4DFA2211460D
:1006C000284600F01FFB00232B545849284608F009
:1006D00028F8002800F0948005462C231A4601468D
:1006E0002046FFF7BFFF2C21284608F005F82C21F3
:1006F000013008F001F80546002800F08B802C231B
:100700001A46014604F11400FFF7ACFF2C21681CC7
:1007100007F0F2FF054600287ED02C231A4601463A
:1007200004F12800FFF79EFF2C21681C07F0E4FF6E
:100730000146002872D02C231A4601A8FFF792FF29
:10074000002309E003F118020DEB020111F8142C4B
:10075000303A01F8142C01330D2BF3DD9DF8042001
:100760009DF80530C2EB421102EB810203EB8303DB
:1007700003EB83039B0003EBC2039BB29DF80620AF
:1007800002EB820203EB42039BB29DF80720134465
:10079000A3879DF808309DF8092003EB830302EB43
:1007A000430384F83E309DF80A309DF80B2003EB9C
:1007B000830302EB430384F83F309DF80C309DF82F
:1007C0000D2003EB830302EB430384F840309DF8D4
:1007D0000E309DF80F2003EB830302EB430384F8F4
:1007E00041309DF810309DF8112003EB830302EB9C
:1007F000430384F842302046FFF7E6FE012007E07D
:100800000B49094807F08DFF50B1FFF745FF002065
:1008100007B030BD0020FBE70020F9E70020F7E734
:100820000020F5E79890000894000020A8900008A8
:10083000B490000808B50368B3F1804F00D008BD3C
:1008400005F00CFBFBE772B6FEE7000000B595B0C3
:100850003022002108A807F027FF00230393049308
:100860000593069307930193204A116C41F0805140
:100870001164126C02F080520192019A02931C4B97
:100880001A6842F480421A601B6803F480430293A2
:10089000029B012308934FF48033099302220E92A6
:1008A0004FF480030F9304231093A8211191129207
:1008B000139308A804F0C2FB98B90F2303930223F3
:1008C0000493002305934FF4A05306934FF48053F1
:1008D0000793052103A804F017FE20B915B05DF8B1
:1008E00004FBFFF7B0FFFFF7AEFF00BF0038024088
:1008F0000070004008B505F097FAFFF7A7FF07F072
:10090000D9FB07F07DFC07F09DFC07F045FD07F0E3
:1009100097FD07F0AFFD00F09BFE07F0BFF8FEE784
:1009200030B5A7B01F215E4800F00EFA41F28830C2
:1009300007F0B9F81A215B4800F006FA41F2883056
:1009400007F0B1F80E21584800F0FEF941F2883066
:1009500007F0A9F80D21554800F0F6F941F288306A
:1009600007F0A1F81521524800F0EEF941F2883065
:1009700007F099F82A214F4800F0E6F941F2883053
:1009800007F091F86C464C4D0FCD0FC42B6824F83E
:10099000023B1B0C23706846FFF71AFC00F198031A
:1009A0000DEB0304454D983C05F1200EAC46BCE828
:1009B0000F0020606160A260E36065461034F4457A
:1009C000F4D103CD206061602B8823816846FFF756
:1009D000FFFB0DEB00023A4B19889B782DF80010B5
:1009E00093706846FFF7F4FB81B2684600F0ACF9FB
:1009F00041F2883007F057F86C46324D0FCD0FC4E6
:100A000095E8030084E803006846FFF7E1FB00F186
:100A100098030DEB030C2C4CACF1980C04F1300E48
:100A200025460FCDCCF80000CCF80410CCF80820F7
:100A3000CCF80C302C460CF1100C7545F0D12B463F
:100A400007CBCCF80000CCF80410CCF808201A88AA
:100A50009B78ACF80C208CF80E306846FFF7B8FB9A
:100A60000DEB0002164B19889B782DF8001093703F
:100A70006846FFF7ADFB81B2684600F065F941F2C8
:100A8000883007F010F80E21104800F05DF94FF49F
:100A90007A7007F008F800F01FF9012027B030BD88
:100AA000CC900008EC90000808910008189100080C
:100AB00028910008409100086C9100089891000866
:100AC0000491000880910008C491000888900008F3
:100AD00070B5C0B006460D4614464FF48072002132
:100AE000684607F0E1FD2846FFF772FB0A226946D7
:100AF00007F0CAFD00F0F0F82846FFF769FB024650
:100B00004FF47A733E49684607F0D6FD6846FFF712
:100B10005FFB81B2684600F017F9322006F0C3FF90
:100B20002846FFF755FB81B2284600F00DF94FF437
:100B3000FA72FA21684600F0E5F800F0CDF81121CC
:100B4000304800F001F94FF4FA62FA21684600F0EB
:100B5000D9F82D49684607F0E4FD002848D02C213B
:100B600007F0CAFD0546002844D001352C2128464F
:100B700007F0C2FD00283FD0401B002222800AE07F
:100B8000238803EB83035B009BB22380A95C0B44A7
:100B9000303B238001328242F2DB2388C82B02D013
:100BA000002040B070BD0D21184800F0CDF84FF482
:100BB0009672FA21684600F0A5F81549684607F0D4
:100BC000B0FDD8B17B21684607F096FD04467D2133
:100BD000684607F091FD08B90020E2E7031B0133E6
:100BE0000022E2542146304607F093FD0120D8E769
:100BF0000020D6E70020D4E70020D2E70020D0E78D
:100C000004920008189200082C92000838920008FC
:100C10004892000810B5084C01228021204605F0BA
:100C20003EF84FF4FA6006F03EFF00228021204695
:100C300005F035F810BD00BF0004024010B5084CA7
:100C400000222021204605F02AF84FF47A7006F0A1
:100C50002AFF01222021204605F021F810BD00BF07
:100C6000000C024008B50621034800F06DF864202E
:100C700006F019FF08BD00BF5492000808B50D4BDF
:100C8000834200D008BD0C498A78531C49788B42B6
:100C900009D0094908780A44D0705A42C2F30802C0
:100CA00058BF53428B7001220349024806F0F3F902
:100CB000E8E700BFE04500209001002008B50449A6
:100CC00000238B704B700122024806F0E4F908BD46
:100CD00090010020E0450020014B5A789A7070473F
:100CE00090010020064B99785A78914204D0511C0B
:100CF00059701344D87870474FF0FF30704700BFE9
:100D000090010020F8B507460E46154605F0B2F8EA
:100D10000544002404E0022006F0C5FEA6420BDDD7
:100D200005F0A8F8A8420BD2FFF7DCFFB0F1FF3FB7
:100D3000F1D038550134F1E700233B55344601E04A
:100D400000233B552046F8BD10B50C4664230A46E7
:100D50000146044805F04DFF08B9204610BD0020AB
:100D6000FCE700BFE0450020A2F5E163B3F5966F14
:100D700042D24B1E0B2B41D8431E1E2B40D81D2B9D
:100D800007D804293ED006293ED009293ED00B2998
:100D90003ED01D2B0DD801293CD003293CD005297C
:100DA0003CD007293CD008293CD00A293CD00C294A
:100DB0003CD01B2B01D802293AD01D283AD1022958
:100DC0003AD1214981FB0231D317C3EBE1134FF430
:100DD000C87101FB1323002B30D012F0030F2FD169
:100DE000194981FB0231D317C3EB6113642101FB65
:100DF00013233BBB00207047002070470020704742
:100E00000020704701207047012070470120704783
:100E10000120704708467047012070470120704745
:100E20000120704701207047012070470120704762
:100E30000120704700207047002070470120704754
:100E400000207047012070471F85EB5110B5C1F19C
:100E50000E03204C84FB034E4FEAE37CCCEB6E0385
:100E600003EB430301EB8303033B03EBC30303EBFC
:100E700003130233184981FB0341DB17C3EB610302
:100E8000134400F59650ACEB6E0C604440F26D12CA
:100E900002FB00330246002819DB03EBA2030F4AD2
:100EA00082FB0012C017A0EB62110B44C0EBE210F2
:100EB0000344A3F5FA432D3B094880FB0320C218E5
:100EC000D817C0EBA200C0EBC000181A10BDC21C9E
:100ED000E3E700BFABAAAA2A676666661F85EB51E7
:100EE0009324499230B583B01F24009432234FF4E9
:100EF000A0720021084600F0B3FC01940323009384
:100F00004FF6FF7305224621494800F035FD1324B2
:100F10000094EF234FF4A0722521002000F0A0FCE4
:100F20000194022500954FF4FC63B9220521414844
:100F300000F022FD019400954FF47843B9228C21F2
:100F40003D4800F019FD15234FF4A0724A210020FE
:100F500001F0DAF815234FF4A0724B21002001F0C4
:100F6000D3F8019400954FF4FC63DA22052133484D
:100F700000F002FD019400954FF6FF73DA229A21EA
:100F80002F4800F0F9FC15234FF4A0726B210020CC
:100F900001F0BAF815234FF4A0726C21002001F083
:100FA000B3F8019400954FF4FC637722052125489E
:100FB00000F0E2FC15234FF4A0728C21002001F018
:100FC000A3F815234FF4A0728D21002001F09CF8A6
:100FD000019400954FF4FC63982205211A4800F013
:100FE000CBFC15234FF4A072AD21002001F08CF84A
:100FF00015234FF4A072AE21002001F085F8019472
:1010000000954FF4FC6335220521104800F0B4FC34
:1010100015234FF4A072CE21002001F075F815239E
:101020004FF4A072CF21002001F06EF803B030BD64
:101030005C92000868920008749200088092000890
:101040009092000898920008A4920008DC92000890
:10105000F0B583B0AA48AB4B1860AB4B20221A8086
:10106000AA4BAB4A13600124AA4A1480AA4A13600F
:10107000AA4B02221A802246102104F010FE00F032
:10108000C3FD204600F074FD132000F01FFFFFF7A2
:1010900029FF4FE213230193022300934FF4FC63D3
:1010A000B92205219E4800F067FC9E4B1B787BB956
:1010B00013230193022300934FF47843B92289212B
:1010C000994800F059FC974B1A78984B1A7038E2FF
:1010D00013230193022300934FF6FF73B922892152
:1010E000934800F049FCEEE7132301930223009399
:1010F0004FF4FC63DA2205218E4800F03DFC8E4B54
:101100001B78012B06D0022B10D08B4B1A788B4BFF
:101110001A701DE213230193022300934FF6FF730D
:10112000DA229521864800F027FCEEE7132301938D
:10113000022300934FF6E073DA229521814800F0F4
:101140001BFCE2E7804A1370804F814C97F84020E7
:101150008049204607F0B0FA132501950326009632
:101160004FF6FF73352246217B4800F005FC0195C0
:1011700000964FF6FF7335224621204600F0FCFB17
:101180000195022600964FF4FC63772205217348EF
:1011900000F0F2FB3A467249204607F08DFA0195BD
:1011A00000964FF6FF7377227521204600F0E4FB8E
:1011B00007F114026B49204607F07EFA019500966C
:1011C0004FF4FC6398220521674800F0D5FB019598
:1011D00000964FF6FF7398228021204600F0CCFB4A
:1011E000BEE1224629463046FFF730FE062845D8A4
:1011F000DFE800F0041B212A30373D00544B5B4AE6
:1012000092E8030083E80300013D0B2D4AD8DFE894
:1012100015F03D006A00C300D100DF00EB00F700CD
:1012200003010E011D012A013701514A484B07CA2B
:1012300003C31A70E8E74F4A454B07CA03C323F8B4
:10124000022B120C1A70DFE74B4A414B07CA03C34B
:101250001A80D9E73E4B494A92E8030083E803002D
:10126000D2E7474A3A4B07CA03C31A80CCE7384B48
:10127000444A92E8030083E80300C5E7344B0022A8
:101280001A605A609A60DA601A61BDE7304C2046F5
:10129000FEF79EFF024625183B4B03CBA05069602A
:1012A0001B782B722A4C2046FEF792FF274A938F19
:1012B00092F83F203549204407F0FEF913260196A5
:1012C000022500954FF6FF7356220521304800F0A5
:1012D00053FB019600954FF4FC63562205212046EE
:1012E00000F04AFB51E11A4C2046FEF771FF02461E
:1012F0002518284B03CBA05069601B882B81D1E7B0
:1013000000080240A00200209C02002000040240CD
:10131000A8020020A40200209802002094020020CD
:10132000689200080407002074920008E50200207B
:10133000B09200088092000804000020E40200201F
:1013400090920008BC920008E20200207C06002077
:10135000B0020020C4920008D092000898920008C1
:10136000E0920008E8920008A4920008F0920008B9
:10137000F892000804930008109300081C930008DA
:10138000249300083093000838930008B0930008B5
:10139000B8930008449300088C4C2046FEF718FFD1
:1013A000034621188A4A1068E05090889379888013
:1013B0008B7177E7854C2046FEF70AFF034621181C
:1013C000844A1068E0509088937988808B7169E72F
:1013D0007E4C2046FEF7FCFE034621187E4A10682C
:1013E000E05013790B715DE7784C2046FEF7F0FE74
:1013F00003462118794A1068E05093888B8051E7A2
:10140000724C2046FEF7E4FE03462118744A106829
:10141000E05093888B8045E76C4C2046FEF7D8FE61
:10142000034625186F4A03CAE05069603AE7674DE2
:101430002846FEF7CDFE02462C186B4B03CBA85076
:1014400061601A889B782281A3722BE75F4C20464B
:10145000FEF7BEFE02462518644B03CBA050696020
:101460001B782B721EE7594C2046FEF7B1FE024650
:1014700025185F4B03CBA05069601B882B8111E7B7
:10148000524C2046FEF7A4FE02462518594B03CBCA
:10149000A05069601B882B8104E7574B186806F041
:1014A00089FA564B02221A70554B03221A700023F8
:1014B00004E0544AD15C544AD1540133172BF8DD6F
:1014C000002304E0514AD15C514AD1540133112B1D
:1014D000F8DD504B186806F06DF86AE04D4B18685F
:1014E00006F068FA454B01221A70454B03221A7028
:1014F000002304E0464AD15C444AD1540133112B05
:10150000F8DD002304E0404AD15C3E4AD154013367
:10151000172BF8DD384B186806F04CF849E002212B
:101520003D4804F0B5FB01284BD04FF400513A4838
:1015300004F0BBFB394B1A78394B1B789A427FF485
:10154000A9AD384B1A782D4B1B789A427FF4CCAD5D
:10155000354B93F84130354A127893427FF4F2AD1F
:10156000314B93F83F40324B1B789C420DD0304BAF
:101570001C702D4B93F83E509E8F324629462046D4
:10158000FFF7F2FB01283FF42CAE322006F08BFA75
:101590000221214804F07CFB0028C0D1254B1B7898
:1015A000002BBCD1154B1B78012B3FF476AF022BDF
:1015B00094D040F2DC5006F076FA1E4B01221A70ED
:1015C000B3E71C4B00221A70AFE700BFB002002047
:1015D000509300085893000860930008689300082F
:1015E0007093000878930008809300088C9300089B
:1015F00098930008A4930008F00200200400002043
:10160000C106002064050020C40600209C050020BF
:10161000DC060020E8020020000C0240E502002069
:1016200004070020E40200207C060020E2020020E3
:10163000AC020020E3020020034B0360034B0B606D
:1016400080231360704700BFFC040020FC020020D0
:1016500030B583B01F4C0194052500950023FA2274
:101660001D491E4805F071FF206806F0A3F91C4CC7
:10167000019400950023C8221A491B4805F065FF14
:10168000206806F097F9194C019404230093002375
:101690004FF4C8721649174805F057FF206806F046
:1016A00089F9154B01930323009300234FF4C8726B
:1016B0001249134805F049FF124B0193022300938E
:1016C00000234FF496721049104805F03EFF03B016
:1016D00030BD00BFF0020020D4930008F5210008BF
:1016E000E8020020DC93000845490008F8020020C9
:1016F000E4930008654A0008F4020020F093000813
:10170000D54E0008EC020020FC93000851100008A0
:1017100000F1784243F6FE739A4247D9A2F580431E
:1017200043F6FE72934243D900F17843A3F5004398
:1017300093423FD900F17843A3F5404393423BD90C
:1017400000F1774303F57F034FF6FE72934235D9DC
:1017500000F1774303F57E0302F5803293422FD9DF
:1017600000F1774303F57C0393422BD900F17743D3
:1017700003F57A03934227D900F1774303F5780301
:10178000934223D900F1774303F5760393421FD99F
:1017900000F1774303F5740393421BD900F17740BE
:1017A00000F57200904217D9002070470020704762
:1017B00001207047022070470320704704207047C3
:1017C00005207047062070470720704708207047A3
:1017D000092070470A2070470B207047F0B583B08E
:1017E00005460F46164604F015F82846FFF790FF09
:1017F000044605EB8600FFF78BFF134B00221A60AF
:1018000002221A619C60001B0130D86001A91846B1
:1018100004F002F968B90024A64210DD57F824202C
:1018200000232946022004F04DF828B9043501347C
:10183000F2E704F011F805E004F00EF802E004F01D
:1018400001F8002003B0F0BD5005002050F8043B23
:1018500041F8043B1346013A92B2002BF6D170478F
:1018600010B582B096469C46131A002B16DB002258
:10187000ACEB0103002B13DB00239AB9AEEB000E97
:101880001FFA8EF29BB9ACEB010C1FFA8CF3BDF87A
:101890001040009400F000FC02B010BD0122E7E708
:1018A0000123EAE7A0EB0E0082B27046EAE7A1EB63
:1018B0000C018BB26146EAE72DE9F04385B00F4693
:1018C00090469946BDF830601F2801D92038C0B233
:1018D00000230CE000EB4002264901EB4202D15C00
:1018E00003F110026A4402F8081C0133DBB2052B35
:1018F000F0D9F3009BB206EB4602520092B2BDF85B
:10190000341000914146384600F0C6FB002529E01E
:1019100008EB040178194A4689B280B200F0F0FA67
:101920000134E4B2072C1BD805F110036B4413F803
:10193000080C204110F0010FF2D0012EE8D015FB69
:1019400006F014FB06F118FA81F117FA80F0CDF8D1
:1019500000903346324689B280B200F09DFBDFE74B
:101960000135EDB2052D01D80024DBE705B0BDE857
:10197000F08300BF049400082DE9F04383B00446CF
:101980000D4690461F46BDF82860BDF82C900DE02E
:101990000134CDF8049000963B4642462946FFF7B5
:1019A0008BFF06EB460105EB41018DB22078002844
:1019B000EED103B0BDE8F083FEE7FEE7FEE7FEE709
:1019C000FEE7704708B5024804F098FD08BD00BF67
:1019D000A044002008B5024804F040FC08BD00BF48
:1019E000E844002008B5024804F038FC08BD00BFF8
:1019F0004045002008B5024805F0F0F908BD00BFD9
:101A0000E045002008B5024805F0E8F908BD00BF30
:101A10002446002008B50022034B1988034B1868A0
:101A200004F03DF908BD00BF940200209802002098
:101A300000B583B08DF8070001231A460DF10701A8
:101A4000024804F02EFB03B05DF804FBE8440020DC
:101A500070B504460B4E0C4D00223188286804F006
:101A60001EF90022094B1988094B186804F017F970
:101A70002046FFF7DDFF01223188286804F00FF9C6
:101A800070BD00BF94020020980200209C0200203C
:101A9000A002002070B5044601220B4B19880B4BA5
:101AA000186804F0FCF80A4E0A4D002231882868B4
:101AB00004F0F5F82046FFF7BBFF012231882868C3
:101AC00004F0EDF870BD00BF9C020020A0020020D1
:101AD0009402002098020020F8B507460D461646ED
:101AE0001C462A20FFF7B4FF380AFFF7D3FFF8B2ED
:101AF000FFF7D0FF300AFFF7CDFFF0B2FFF7CAFFC4
:101B00002B20FFF7A5FF280AFFF7C4FFE8B2FFF775
:101B1000C1FF200AFFF7BEFFE0B2FFF7BBFF2C209A
:101B2000FFF796FFF8BD000038B50D4D0D4C0122B2
:101B30002988206804F0B3F8C82004F0A1F9002235
:101B4000094B1988094B186804F0A9F8C82004F05B
:101B500097F901222988206804F0A1F838BD00BF58
:101B6000A4020020A8020020940200209802002075
:101B700010B504463620FFF76BFF012004F080F912
:101B8000032C0DD8DFE804F0020D18234820FFF7DE
:101B900081FF144BF0221A80134B4FF4A0721A806D
:101BA00010BD2820FFF776FF0E4B4FF4A0721A806D
:101BB0000D4BF0221A80F3E78820FFF76BFF094BEB
:101BC000F0221A80084B4FF4A0721A80E8E7E82050
:101BD000FFF760FF034B4FF4A0721A80024BF02214
:101BE0001A80DDE7020000200000002008B5012275
:101BF000034B1988034B186804F051F808BD00BF67
:101C0000A4020020A802002008B5FFF7EFFFFFF7AD
:101C100001FFFFF789FF0120FFF71AFF4FF47A70E9
:101C200004F02EF9CB20FFF713FF3920FFF732FF26
:101C30002C20FFF72FFF0020FFF72CFF3420FFF7A9
:101C400029FF0220FFF726FFCF20FFF701FF00202A
:101C5000FFF720FFC120FFF71DFF3020FFF71AFF1D
:101C6000E820FFF7F5FE8520FFF714FF0020FFF7BF
:101C700011FF7820FFF70EFFEA20FFF7E9FE0020B2
:101C8000FFF708FF0020FFF705FFED20FFF7E0FE5C
:101C90006420FFF7FFFE0320FFF7FCFE1220FFF792
:101CA000F9FE8120FFF7F6FEF720FFF7D1FE202096
:101CB000FFF7F0FEC020FFF7CBFE2320FFF7EAFE80
:101CC000C120FFF7C5FE1020FFF7E4FEC520FFF797
:101CD000BFFE3E20FFF7DEFE2820FFF7DBFEC72019
:101CE000FFF7B6FE8620FFF7D5FE3620FFF7B0FEE1
:101CF0004820FFF7CFFE3A20FFF7AAFE5520FFF756
:101D0000C9FEB120FFF7A4FE0020FFF7C3FE182094
:101D1000FFF7C0FEB620FFF79BFE0820FFF7BAFED4
:101D20008220FFF7B7FE2720FFF7B4FEF220FFF76F
:101D30008FFE0020FFF7AEFE2620FFF789FE012070
:101D4000FFF7A8FEE020FFF783FE0F20FFF7A2FEBB
:101D50003120FFF79FFE2B20FFF79CFE0C20FFF7A2
:101D600099FE0E20FFF796FE0820FFF793FE4E2007
:101D7000FFF790FEF120FFF78DFE3720FFF78AFE78
:101D80000720FFF787FE1020FFF784FE0320FFF7F0
:101D900081FE0E20FFF77EFE0920FFF77BFE00206C
:101DA000FFF778FEE120FFF753FE0020FFF772FEF9
:101DB0000E20FFF76FFE1420FFF76CFE0320FFF7E5
:101DC00069FE1120FFF766FE0720FFF763FE312052
:101DD000FFF760FEC120FFF75DFE4820FFF75AFEC7
:101DE0000820FFF757FE0F20FFF754FE0C20FFF7E7
:101DF00051FE3120FFF74EFE3620FFF74BFE0F203D
:101E0000FFF748FE1120FFF723FE782004F038F892
:101E10002920FFF71DFE0020FFF7AAFE08BD0000E5
:101E20002DE9F04700AF06460D464FEA4108B8F5E8
:101E3000FA7F01D34FF4FA7501221F4B19881F4B0B
:101E4000186803F02CFF00221D4B19881D4B1868E1
:101E500003F025FF310AEB1D23F00703ADEB030D63
:101E60006C46002303E0E1545A1CA6540233AB42F3
:101E7000F9D3B8FBF5F905FB198AA84510D20A2356
:101E80001FFA8AF22146104804F00BF901220C4B8C
:101E900019880C4B186803F002FFBD46BDE8F087B7
:101EA00000264E45EBD20A23AAB22146064804F08A
:101EB000F8F80136F5E700BF9C020020A0020020E0
:101EC0009402002098020020E844002070B50446E7
:101ED000094E3288094D2B889BB292B200210846E8
:101EE000FFF7FAFD33889BB2298889B203FB01F121
:101EF0002046FFF795FF70BD020000200000002083
:101F00005E4B1B889BB2834240F2B7802DE9F047BD
:101F100084B004460D469046594B1B889BB28B42B9
:101F200002D804B0BDE8F087DFF864A1DFF864915F
:101F30000022BAF80010D9F8000003F0B0FE514FAB
:101F4000514E00223988306803F0A9FE2A20FFF79D
:101F50006FFD0122BAF80010D9F8000003F09FFECF
:101F600001223988306803F09AFE002239883068EF
:101F700003F095FE230A8DF80C30E3B28DF80D3096
:101F8000013424128DF80E4001338DF80F303F4C90
:101F90000123042203A9204604F083F80122398892
:101FA000306803F07CFE0022BAF80010D9F8000077
:101FB00003F075FE00223988306803F070FE2B2094
:101FC000FFF736FD0122BAF80010D9F8000003F03F
:101FD00066FE01223988306803F061FE00223988EC
:101FE000306803F05CFE2B0A8DF80830EBB28DF8F8
:101FF000093001352D128DF80A5001338DF80B3060
:102000000123042202A9204604F04BF8012239885A
:10201000306803F044FE0022BAF80010D9F800003E
:1020200003F03DFE00223988306803F038FE2C2092
:10203000FFF7FEFC0122BAF80010D9F8000003F007
:102040002EFE01223988306803F029FE00223988EB
:10205000306803F024FE4FEA18238DF804308DF821
:1020600005800123022201A9204604F01AF801226A
:102070003988306803F013FE53E7704702000020F0
:10208000000000209402002098020020E844002074
:102090009C020020A002002038B51C46184B1B886B
:1020A0009BB283422BD91546164B1B889BB28B42A1
:1020B00025D98218124B1B889BB29A4204DD104B23
:1020C0001D88ADB22D1AADB20A190E4B1B889BB2FA
:1020D0009A4204DD0B4B1C88A4B2641AA4B22A18DD
:1020E00092B263189BB2013B013A9BB292B2FFF7E6
:1020F000F3FC05FB04F1BDF81000FFF791FE38BDBD
:10210000020000200000002038B514461D46104B88
:102110001A8892B282421AD90E4B1B889BB28B420C
:1021200015D902190A4B1B889BB29A4204DD084B51
:102130001C88A4B2241AA4B2221892B2013A0B4607
:1021400092B2FFF7C9FC21462846FFF769FE38BD69
:10215000020000200000002010B45308023312F0E7
:10216000010F0AD10A4CE25C02F0F002E25408438B
:102170001043E0545DF8044B7047054CE25C02F0FC
:102180000F02E254084342EA0012E254F2E700BFB1
:10219000640500200C4A137903F00F031371012822
:1021A00002D0022808D07047012202FA01F123EA86
:1021B0000103054A13717047012202FA01F10B4332
:1021C000014A1371EFE700BF64050020084B0022AD
:1021D0009A75022305E0064AD15C907D0144917511
:1021E0000133152BF7DD024A937D5B4293757047EF
:1021F0006405002070B5994B00221A605A609A60FD
:10220000DA601A615A61FF221A705A70944A591D95
:102210001160D91D516003F10901916003F10B01B7
:10222000D160904A03F10D01116003F10F0151607B
:1022300003F1110191601333D36002F02CBA002234
:1022400004210120FFF788FF012204211046FFF737
:1022500083FF022200210120FFF77EFF03220021DD
:102260000120FFF779FF00210120FFF793FF0121F3
:102270000846FFF78FFF02210120FFF78BFF0321A4
:102280000120FFF787FF764B1B68774A117819808A
:102290001378927822B97449CA7809790A4400E01F
:1022A00000226F494868134403806F4A13785078BE
:1022B000034490780344D078034410790344507960
:1022C000034490790344D079896803440B80137ADE
:1022D000002B76D1624A0B886349887A0344C97A15
:1022E000D26811FA83F313805F4B997B00297ED06B
:1022F0001A461B785078034490780344D0780344FE
:10230000107903445079034490790344D07903440D
:10231000127A002A64D1544A127B914257D352490F
:102320008A7AC97A0A444F4909681A440A804E4B8E
:10233000D97B002969D01A461B78507803449078DD
:102340000344D078034410790344507903449079CE
:102350000344D0790344127A002A4DD1424A927A3A
:1023600091424ED2521A92B23E49496813440B80B0
:102370003D4B1A7C002A5DD0194618785B78002BFB
:1023800051D14B799A4245D3CB780A791344354AD7
:10239000926803441380344B5A7C002A58D0197831
:1023A0005B78002B4BD1304BDB789A424CD29B1A96
:1023B0009BB22C4AD2680B441380FFF707FF00241E
:1023C0006FE0274B9A68DB6812881A808CE7264CEE
:1023D000A07AE47A2044521A10FA82F292B2A2E76A
:1023E000914202D2521A92B29DE700229BE71D4B06
:1023F0001B6800221A809AE7914204D2521A92B2C4
:10240000B2E70022B0E70022AEE7164B5B6800227D
:102410001A80ADE7144CE178247921449B1A11FA13
:1024200083F39BB2B3E79A4202D29B1A9BB2AEE708
:102430000023ACE70B4B9B6800221A80ABE79A4263
:1024400004D29B1A9BB2B4E70023B2E70023B0E7A3
:10245000044BDB6800221A80AFE700BF6405002050
:102460007C0500208C0500209C0500200133032BF7
:102470000FDC9D4A52F823100A880AB1013A0A80FB
:102480009A4A52F823100A88002AEFD0013A0A80AB
:10249000ECE7FFF79BFE4FF40071954803F005FC55
:1024A0000134944B1B78A34242F3FA8040F2E730A8
:1024B00005F0F9FA0023DAE7002211460320FFF7BE
:1024C0004BFE012200210320FFF746FE02220021DD
:1024D0000120FFF741FE032200210120FFF73CFE0F
:1024E00000210120FFF756FE01210846FFF752FEAA
:1024F00002210120FFF74EFE03210120FFF74AFED3
:102500007C4B5A78DB781BB17A4989780B4400E020
:1025100000237549096813440B80764B5A785B7920
:102520001BB1744989780B4400E000236E49486868
:10253000134403806F4A537890780344D07803445F
:10254000107903445079034490790344D079896821
:1025500003440B80137A002B5AD1634A0B886549D8
:10256000887A0344C97AD26811FA83F31380614BE5
:10257000997B002962D01A465B7890780344D07822
:102580000344107903445079034490790344D0798B
:102590000344127A002A4AD1564A127B91423DD313
:1025A00054498A7AC97A0A44504909681A440A8007
:1025B000504BD97B00294FD01A465B789078034462
:1025C000D07803441079034450790344907903444C
:1025D000D0790344127A002A35D1464A927A914240
:1025E00036D2521A92B24149496813440B80414B8A
:1025F0001B7C002B3FD03F4A5278934231D33B4B58
:102600009B681A8002210846FFF7C4FD002536E0CA
:10261000354B9A68DB6812881A80A8E7354CA07A97
:10262000E47A2044521A10FA82F292B2BCE7914244
:1026300002D2521A92B2B7E70022B5E72B4B1B68C1
:1026400000221A80B4E7914204D2521A92B2CAE729
:102650000022C8E70022C6E7244B5B6800221A80EC
:10266000C5E722498968D31A0B8002210120FFF7B0
:1026700091FD012503E01D4B9B6800251D801D4B2E
:102680005B7CB3B11B4A5278934208D3174BDB688B
:102690001A8003210220FFF77DFD00260DE013497B
:1026A000C968D31A0B8003210120FFF773FD0126AF
:1026B00003E00E4BDB6800261E80FFF787FD002439
:1026C0002CE00133032B17DC074A52F823100A8849
:1026D0000AB1013A0A80054A52F823100A88002AF2
:1026E000EFD0013A0A80ECE77C0500208C05002041
:1026F000000C02409C050020A44BDB681A8802B93C
:10270000BEB9A24B9B681A8802B9DDB9FFF75EFD1E
:102710004FF400719E4803F0C8FA01349D4B5B787A
:10272000A34241F3C28740F2E73005F0BCF9002331
:10273000C8E7984A527C1A8003210220FFF72AFD3D
:102740000026DEE7934A127C1A8002210846FFF732
:1027500021FD0025DAE7022200210120FFF7FCFC21
:10276000032200210120FFF7F7FC00210120FFF7E1
:1027700011FD01210846FFF70DFD02210120FFF7A1
:1027800009FD03210120FFF705FD824BDB78002BBB
:1027900040F0CF80804B1B68002119800A46022040
:1027A000FFF7DAFC7B4B5B79002B40F0CE807A4B55
:1027B0005B680021198001220220FFF7CDFC754AD9
:1027C0009378D1780B4411790B4451790B4491796A
:1027D0000B44D0797049896803440B80137A002B2D
:1027E00040F0BF806C4A0B886A49887A0344C97AF2
:1027F000D26811FA83F31380664B997B002900F0AD
:10280000CF801A469B78D0780344107903445079DE
:10281000034490790344D0790344127A002A40F0AB
:10282000AF805C4A127B9142C0F0A18059498A7AFC
:10283000C97A0A44554909681A440A80554BD97B1C
:10284000002900F0BB801A469B78D07803441079A9
:1028500003445079034490790344D0790344127AB5
:10286000002A40F0A2804B4A927A914280F0A280E6
:10287000521A92B24549496813440B80454B197C62
:10288000002900F0A2801A469B78D0780344107982
:1028900003445079034490790344D0790344107A77
:1028A0000344507A0344907A0344D07A0344107B63
:1028B00010FA83F3507B10FA83F3107810FA83F345
:1028C0009BB2527891427ED2521A92B22F498968B5
:1028D00013440B802F4B597C00297DD01A469B78DE
:1028E000D078034410790344507903449079034429
:1028F000D0790344107A0344507A0344907A034415
:10290000D07A0344107B10FA83F3507B10FA83F3E0
:10291000107810FA83F39BB2527891425AD2521A2D
:1029200092B21A49C96813440B80FFF74FFC002488
:1029300072E0184A9178184A12680B4413800022FA
:1029400011460320FFF708FC2CE7124A9178124A3F
:1029500052680B441380012200210320FFF7FCFB87
:102960002DE70D4B9A68DB6812881A8044E7094C02
:10297000A07AE47A2044521A10FA82F292B259E70D
:1029800091420BD2521A92B254E700BF8C0500203C
:10299000000C02409C0500207C050020002249E735
:1029A0008F4B1B6800221A8048E7914204D2521ACA
:1029B00092B25FE700225DE700225BE7884B5B682D
:1029C00000221A805AE7002280E7854B9B6800228C
:1029D0001A807FE70022A4E7814BDB6800221A807F
:1029E000A3E70133032B0FDC7E4A52F823100A8839
:1029F0000AB1013A0A807A4A52F823100A88002A5A
:102A0000EFD0013A0A80ECE7FFF7E0FB4FF40071EA
:102A1000754803F04AF90134744B9B78A34241F3A3
:102A20004C8640F2E73005F03EF80023DAE700225A
:102A300004210320FFF790FB012200211046FFF73D
:102A40008BFB022200210120FFF786FB03220021DD
:102A50000120FFF781FB00210120FFF79BFB0121F3
:102A60000846FFF797FB02210120FFF793FB0321A4
:102A70000120FFF78FFB5B4B1A685C4BD978118004
:102A80005B79002B6BD0594AD3781179554A52683B
:102A90000B441380554AD37811790B4451790B4478
:102AA00091790B44D0794F49896803440B80137A9C
:102AB000002B6AD14B4A0B884C49887A0344C97A67
:102AC000D26811FA83F31380484B987B002872D0A8
:102AD0001A46DB7811790B4451790B4491790B44F8
:102AE000D1791944137A002B5ED1137B984252D3CB
:102AF000937AD27A13443A4A12680B4413803B4BC0
:102B0000D97B002965D01A46DB78107903445079C7
:102B1000034490790344D0790344127A002A4FD1B8
:102B2000324A927A914250D2521A92B22C49496852
:102B300013440B802D4B1A7C002A7FD05978002932
:102B400056D11946DB780879034449798A4245D23F
:102B50008A1A92B22249896813440B8072E0234A90
:102B6000D37811790B44D1790B44117A0B44517A03
:102B70000B44917A0B44D17A0B44117B0B44517B6B
:102B8000184A52680B44138084E7164B9A68DB6836
:102B900012881A8098E7154CA27AE47A22441B1A0C
:102BA00012FA83F39BB2A6E7984202D21B1A9BB299
:102BB000A1E700239FE70A4B1B6800221A809EE7CB
:102BC000914204D2521A92B2B0E70022AEE700223C
:102BD000ACE7034B5B6800221A80ABE70022B9E741
:102BE0008C0500207C050020000C02409C05002084
:102BF0009B48C3780479234444792344847923444B
:102C0000C4792344047A2344447A2344847A2344B1
:102C1000C47A2344047B2344447B14FA83F300786E
:102C200010FA83F39BB28A4206D28A1A92B28D4975
:102C3000896813440B8005E00022F8E7894B9B6804
:102C400000221A80864B5A7C002A3ED05978A9B9B6
:102C5000DB789A4208D3834AD2681380032102208A
:102C6000FFF798FA002534E07E49C9689B1A0B806B
:102C700003210120FFF78EFA01252AE07848C37866
:102C8000047923444479234484792344C479234434
:102C9000047A2344447A2344847A2344C47A234420
:102CA000047B2344447B14FA83F3007810FA83F303
:102CB0009BB28A4207D28A1A92B26A49C9681344FF
:102CC0000B80002505E00022F7E7664BDB68002556
:102CD0001D80FFF77BFA00241FE00133032B0FDC7C
:102CE000614A52F823100A880AB1013A0A805D4A03
:102CF00052F823100A88002AEFD0013A0A80ECE744
:102D0000584BDB681A8802B995B9FFF75FFA4FF4A0
:102D10000071564802F0C9FF0134514BDB78A342E1
:102D200041F3D08440F2E73004F0BDFE0023D5E744
:102D30004B4A527C1A8003210220FFF72BFA002510
:102D4000E3E7002211460220FFF706FA01220021E4
:102D50001046FFF701FA022200210120FFF7FCF9DB
:102D6000032200210120FFF7F7F900210120FFF7DE
:102D700011FA01210846FFF70DFA02210120FFF7A1
:102D800009FA03210120FFF705FA374B1B680022DF
:102D90001A80334B5B79002B6AD0334B5B68304A27
:102DA00012791A802E4A137951790B4491790B4488
:102DB000D0792D49896803440B80137A002B6BD19D
:102DC000294A0B882649887A0344C97AD26811FABD
:102DD00083F31380224B997B002973D01A79587999
:102DE000024498790244D87902441B7A002B62D1BC
:102DF0001B4B1B7B994255D319498B7AC97A0B44DB
:102E00001849096813440B80154BD97B002967D0FA
:102E10001A461B795079034490790344D0790344CE
:102E2000127A002A53D10E4A927A914254D2521AFF
:102E300092B20C49496813440B80094B1A7C002A52
:102E400078D05978002952D119795B799A424CD2BD
:102E50009B1A9BB2034A92680B4413806EE000BF3A
:102E60009C0500208C0500207C050020000C024001
:102E7000624A1379D1790B44117A0B44517A0B448D
:102E8000917A0B44D17A0B44117B0B44517B5C4A01
:102E900052680B44138085E7594B9A68DB681288A7
:102EA0001A8097E7554CA07AE47A20445B1A10FA0E
:102EB00083F39BB2A4E7994202D25B1A9BB29FE7CD
:102EC00000239DE74F4B1B6800221A809CE791422C
:102ED00004D2521A92B2ACE70022AAE70022A8E775
:102EE000484B5B6800221A80A7E70023B2E74348FB
:102EF00003794479234484792344C4792344047AAC
:102F00002344447A2344847A2344C47A2344047BAC
:102F10002344447B2344007810FA83F39BB28A4213
:102F200006D28A1A92B23749896813440B8005E0A9
:102F30000022F8E7334B9B6800221A802F4B597C04
:102F4000002930D01A461B79507903449079034404
:102F5000D0790344107A0344507A0344907A0344AE
:102F6000D07A0344107B0344507B0344107810FA5A
:102F700083F39BB252786AB9204AD27891420ED23A
:102F8000521A92B21F49C96813440B80FFF71EF909
:102F9000002428E0914204D2521A92B2F2E70022B1
:102FA000F0E70022EEE7174BDB6800221A80EDE71E
:102FB0000133032B0FDC124A52F823100A880AB19E
:102FC000013A0A800F4A52F823100A88002AEFD0EB
:102FD000013A0A80ECE7FFF7F9F84FF400710A486C
:102FE00002F063FE0134054B1B79A34241F3728367
:102FF00040F2E73004F057FD0023DAE79C0500209B
:103000007C0500208C050020000C024000221146A7
:103010000120FFF7A1F8012204210320FFF79CF80B
:10302000022200210120FFF797F80322002101204E
:10303000FFF792F800210120FFF7ACF801210846C4
:10304000FFF7A8F802210120FFF7A4F803210120CF
:10305000FFF7A0F8944A137851790B4491790B4407
:10306000D1790B44117A0B44517A0B44917A0B4479
:10307000D17A0B44117B0B44547B8C490868234460
:1030800003804B6850791880537990790344D07944
:10309000896803440B80137A002B4BD1834A0B8839
:1030A0008149887A0344C97AD26811FA83F313807C
:1030B0007D4B9A7B002A53D0597998790144D8796D
:1030C00001441B7A002B44D1774B1B7B9A4237D3A8
:1030D000754A937AD27A1344754A12680B44138066
:1030E000714BD97B002949D01A465B79907903440A
:1030F000D0790344127A002A37D16B4A927A9142EE
:1031000038D2521A92B26A49496813440B80664B0E
:103110001A7C002A62D0587800283ED15B799A4206
:1031200031D3634A9268138002210846FFF732F8D0
:10313000002557E05D4B9A68DB6812881A80B7E774
:10314000594CA07AE47A20449B1A10FA83F39BB27C
:10315000C2E79A4202D29B1A9BB2BDE70023BBE7AB
:10316000534B1B6800221A80BAE7914204D2521ACC
:1031700092B2C8E70022C6E70022C4E74C4B5B6866
:1031800000221A80C3E74A4989689B1A0B800221F2
:103190000120FEF7FFFF012524E043494B798C799C
:1031A0002344CC7923440C7A23444C7A23448C7AEC
:1031B0002344CC7A23440C7B23444C7B234409785E
:1031C0000B449BB2824207D2821A92B23849896874
:1031D00013440B80002505E00022F7E7344B9B6881
:1031E00000251D80304B597C00292DD01A465B7973
:1031F00090790344D0790344107A0344507A03440D
:10320000907A0344D07A0344107B0344507B0344F8
:10321000107803449BB252786AB9234AD27891421B
:103220000ED2521A92B22249C96813440B80FEF79B
:10323000CDFF00242DE0914204D2521A92B2F2E75F
:103240000022F0E70022EEE7194BDB6800221A802B
:10325000EDE70133032B0FDC144A52F823100A88E0
:103260000AB1013A0A80124A52F823100A88002A49
:10327000EFD0013A0A80ECE70D4B9B681A8802B93F
:10328000D5B9FEF7A3FF4FF400710A4802F00DFD17
:103290000134054B5B79A34241F3218240F2E730D0
:1032A00004F001FC0023D5E79C0500207C050020EC
:1032B0008C050020000C0240A04A127C1A800221DA
:1032C0000846FEF767FF0025DBE7002211460120D4
:1032D000FEF742FF012200210220FEF73DFF0222FD
:1032E00000210120FEF738FF032200210120FEF714
:1032F00033FF00210120FEF74DFF01210846FEF7B4
:1033000049FF02210120FEF745FF03210120FEF7BE
:1033100041FF8A490B788A791344CA7913440A7A9F
:1033200013444A7A13448A7A1344CA7A13440A7BB0
:1033300013444C7B824A1068234403805368002066
:1033400018808B79C8799268034413800B7A002B1C
:1033500040F082807A4A93681B88887A0344C97A4D
:10336000D26811FA83F31380744B9A7B002A00F021
:10337000898019469879DB7918440B7A002B7AD129
:103380000B7B9A426ED38B7ACA7A13446D4A1268C9
:1033900003441380694BD97B002900F081801846D3
:1033A0009B79C2791A44037A002B70D1837A9942AF
:1033B00072D25B1A9BB26349496813440B805F4B1E
:1033C000197C002900F081801A469B79D07903444A
:1033D000107A0344507A0344907A0344D07A034429
:1033E000107B0344507B0344107803445278002A36
:1033F00064D1524A5279914257D35049CA780979D7
:103400000A44504989681A440A804C4B597C002967
:1034100069D01A469B79D0790344107A0344507AD4
:103420000344907A0344D07A0344107B0344507BD6
:103430000344107803445278002A4BD13F4AD27893
:1034400091424CD2521A92B23E49C96813440B8041
:10345000FEF7BCFE002466E0394B9A68DB681288F0
:103460001A8081E7354CA17AE47A21449B1A11FA3B
:1034700083F39BB28AE79A4202D29B1A9BB285E7FA
:10348000002383E72F4B1B6800221A8082E79942B2
:1034900004D25B1A9BB28EE700238CE700238AE7F5
:1034A000284B5B6800221A8089E7244CE078247955
:1034B0002044521A10FA82F292B2A2E7914202D24A
:1034C000521A92B29DE700229BE71E4B9B68002296
:1034D0001A809AE7914204D2521A92B2B4E70022BB
:1034E000B2E70022B0E7174BDB6800221A80AFE793
:1034F0000133032B0FDC124A52F823100A880AB159
:10350000013A0A800F4A52F823100A88002AEFD0A5
:10351000013A0A80ECE7FEF759FE4FF400710A48C1
:1035200002F0C3FB0134054B9B79A34241F3DF80DA
:1035300040F2E73004F0B7FA0023DAE79C050020F8
:103540007C0500208C050020000C02400022114662
:103550000120FEF701FE012200211046FEF7FCFDCE
:10356000022204210120FEF7F7FD0322042101209D
:10357000FEF7F2FD00210120FEF70CFE01210846B6
:10358000FEF708FE02210120FEF704FE03210120C0
:10359000FEF700FE8D4A1378D1790B44117A0B4463
:1035A000517A0B44917A0B44D17A0B44117B0B4432
:1035B000507B8749096803440B805378002B40F007
:1035C0008C80834A0B888149C87803440979526802
:1035D00011FA83F313807E4B9A687C4BD979118062
:1035E0001B7A002B7FD17A4A8BB27849887A0344C0
:1035F000C97AD26811FA83F31380744B9A7B002A3C
:1036000000F087801946D8791B7A002B7AD10B7B82
:103610009A426ED38B7ACA7A13446E4A1268034474
:1036200013806A4BDA7B002A00F08180D9791B7AFB
:10363000002B73D1654B9B7A9A4274D29B1A9BB232
:10364000644A52680B441380604B197C002900F0D7
:1036500083801A46DB79107A0344507A0344907AC7
:103660000344D07A0344107B0344507B0344107816
:1036700003445278002A68D1544A527991425BD36C
:103680005249CA7809790A44524989681A440A8019
:103690004E4B597C00296DD01A46DB79107A0344D1
:1036A000507A0344907A0344D07A0344107B034455
:1036B000507B0344107803445278002A51D1434A86
:1036C000D278914252D2521A92B24249C9681344F6
:1036D0000B80FEF77BFD00246CE03D4B1A685B68B5
:1036E00012881A8077E73A4B9A68DB6812881A804A
:1036F00083E7364CA17AE47A21449B1A11FA83F3CA
:103700009BB28AE79A4202D29B1A9BB285E70023BA
:1037100083E7304B1B6800221A8082E79A4204D26A
:103720009B1A9BB28CE700238AE7002388E7294B8A
:103730005B6800221A8087E7244CE07824792044D3
:10374000521A10FA82F292B29EE7914202D2521AB3
:1037500092B299E7002297E71E4B9B6800221A80DD
:1037600096E7914204D2521A92B2AEE70022ACE739
:103770000022AAE7174BDB6800221A80A9E7013371
:10378000032B0FDC124A52F823100A880AB1013ABF
:103790000A80104A52F823100A88002AEFD0013A12
:1037A0000A80ECE7FEF712FD4FF400710A4802F0C0
:1037B0007CFA0134054BDB79A34240F39D8740F24C
:1037C000E73004F070F90023DAE700BF9C05002021
:1037D0007C0500208C050020000C024000221146D0
:1037E0000120FEF7B9FC012200211046FEF7B4FCCF
:1037F000022200210320FEF7AFFC03220021104625
:10380000FEF7AAFC00210120FEF7C4FC01210846B6
:10381000FEF7C0FC02210120FEF7BCFC03210120C1
:10382000FEF7B8FC904A1378117A0B44517A0B4496
:10383000917A0B44D17A0B44117B0B44507B8B491A
:10384000096803440B8053788BB9884A0B888649F2
:10385000C87803440979526811FA83F31380824BC4
:103860001A7A9B7A4BB18049497A0B4406E07F4B28
:103870001A685B6812881A80F1E700237B4989681F
:1038800013440B80784B1A7A1B7B1BB17649497A1B
:103890000B4400E000237549C96813440B80724B48
:1038A0009B7BB3B1704A127A934208D3704B1B686A
:1038B0001A8000210220FEF76DFC00250DE06C4906
:1038C0000968D31A0B8000210120FEF763FC012553
:1038D00003E0674B1B6800251D80634BDB7BB3B1A6
:1038E000614A127A934208D3614B5B681A800121C6
:1038F0000220FEF74FFC00260DE05D494968D31A0F
:103900000B8001210846FEF745FC012603E0584BD9
:103910005B6800261E80544B197C00294ED01A4645
:103920001B7A507A0344907A0344D07A0344107B84
:103930000344507B0344107803445278002A36D164
:10394000494A5279914229D34749CA7809790A44A8
:10395000474989681A440A80434B597C00293BD067
:103960001A461B7A507A0344907A0344D07A03446F
:10397000107B0344507B034410780344527812BBFD
:10398000394AD278914223D2521A92B23849C96840
:1039900013440B80FEF71AFC002447E0324CE07819
:1039A00024792044521A10FA82F292B2D0E791425E
:1039B00002D2521A92B2CBE70022C9E72C4B9B6885
:1039C00000221A80C8E7914204D2521A92B2DDE76F
:1039D0000022DBE70022D9E7254BDB6800221A80B2
:1039E000D8E70133032B0FDC204A52F823100A8852
:1039F0000AB1013A0A801E4A52F823100A88002AA6
:103A0000EFD0013A0A80ECE7194B1B681A8802B91B
:103A1000BDB9174B5B681A8802B9DEB9FEF7D6FB51
:103A20004FF40071134802F040F901340E4B1B7A39
:103A3000A34240F3668640F2E73004F034F80023F6
:103A4000D0E7094A927B1A8000210220FEF7A2FBF0
:103A50000025DEE7044AD27B1A8000210220FEF70F
:103A600099FB0026DAE700BF9C0500207C050020BA
:103A70008C050020000C0240002211460120FEF7B8
:103A80006BFB012200211046FEF766FB002101209E
:103A9000FEF780FB01210846FEF77CFB0221012096
:103AA000FEF778FB03210120FEF774FB984A137898
:103AB000517A0B44917A0B44D17A0B44117B0B441D
:103AC000507B9449096803440B805378002B40F0E5
:103AD000BD80904A0B888E49C878034409795268A2
:103AE00011FA83F313808A4B9B7A002B40F0B48049
:103AF000884B9B680021198002221046FEF72CFBA0
:103B0000834B1B7B002B40F0B380824BDB68002192
:103B1000198003220220FEF71FFB7D4B997B0029B1
:103B200000F0B4801A465B7A907A0344D07A03445A
:103B3000107B0344507B03441078034450780344C3
:103B400090780344D078034410790344507910FAF4
:103B500083F3907910FA83F3D07910FA83F39BB250
:103B6000127A914280F09080521A92B26A490968A2
:103B700013440B80664BD97B002900F08E801A46D7
:103B80005B7A907A0344D07A0344107B0344507BE1
:103B90000344107803445078034490780344D07869
:103BA000034410790344507910FA83F3907910FAA2
:103BB00083F3D07910FA83F39BB2127A91426AD2DE
:103BC000521A92B25449496813440B80504B197CE5
:103BD000002977D01A465B7A907A0344D07A03445E
:103BE000107B0344507B0344107803445278002A2E
:103BF00061D1474A5279914254D34549CA780979EB
:103C00000A44454989681A440A80414B597C002975
:103C100066D01A465B7A907A0344D07A0344107BCC
:103C20000344507B0344107803445278002A4ED159
:103C3000374AD27891424FD2521A92B23649C96865
:103C400013440B80FEF7C2FA00246FE0314B1A6870
:103C50005B6812881A8046E72D4A517A2D4A92688D
:103C60000B441380022200210320FEF775FA47E778
:103C7000274A517A274AD2680B4413800322002135
:103C80001046FEF769FA48E700226FE7224B1B68EF
:103C900000221A806EE7002294E71F4B5B68002227
:103CA0001A8093E71A4CE07824792044521A10FACB
:103CB00082F292B2A5E7914202D2521A92B2A0E7E2
:103CC00000229EE7144B9B6800221A809DE79142D8
:103CD00004D2521A92B2B1E70022AFE70022ADE758
:103CE0000D4BDB6800221A80ACE70133032B15DC97
:103CF000084A52F823100A880AB1013A0A80064A93
:103D000052F823100A88002AEFD0013A0A80ECE723
:103D10009C0500207C0500208C050020FEF756FA4B
:103D20004FF400719C4801F0C0FF01349B4B5B7A5B
:103D3000A34240F3EE8440F2E73003F0B4FE0023E8
:103D4000D4E7002211460120FEF706FA01220021E5
:103D50001046FEF701FA022204210320FEF7FCF9C7
:103D6000032200210120FEF7F7F900210120FEF7D0
:103D700011FA01210846FEF70DFA02210120FEF793
:103D800009FA03210120FEF705FA844A1378917A93
:103D90000B44D17A0B44117B0B44507B804909685A
:103DA00003440B805378002B2CD17D4A0B887B4930
:103DB000C87803440979526811FA83F31380784B69
:103DC0009A68764B997A11801B7B0BB3734A937A6E
:103DD000D17A734AD2680B441380704B9A7B002AC5
:103DE00056D0197A00292DD119469B7AC87A0344F6
:103DF000097B8A4224D28A1A92B26A49096813441A
:103E00000B8049E0664B1A685B6812881A80D6E717
:103E1000624A937AD17A0B4411780B4451780B445F
:103E200091780B44D1780B4411790B4451790B44B0
:103E300091790B44D1795A4AD2680B441380CCE76C
:103E40000022DAE75548837AC47A2344047B23446A
:103E5000447B2344047823444478234484782344D3
:103E6000C47823440479234444792344847914FA9C
:103E700083F3C07910FA83F39BB28A4206D28A1A7E
:103E800092B24849096813440B8005E00022F8E724
:103E9000444B1B6800221A80404BDA7B002A3ED03C
:103EA000197AA9B99B7A9A4208D33E4A526813807C
:103EB00001210220FEF76EF9002534E039494968F6
:103EC0009B1A0B8001210846FEF764F901252AE0C0
:103ED0003248837AC47A2344047B2344447B2344BA
:103EE000047823444478234484782344C4782344C6
:103EF0000479234444792344847914FA83F3C07900
:103F000010FA83F39BB28A4207D28A1A92B22549E9
:103F1000496813440B80002505E00022F7E7214B98
:103F20005B6800251D801D4B187C00284CD01A466C
:103F30009B7AD17A0B44117B0B44517B0B44117853
:103F400019445378002B38D1537998422CD3D37825
:103F500012791344134A92680B4413800F4B587C18
:103F600000283FD01A469B7AD17A0B44117B0B4430
:103F7000517B0B4411780B44527852BB074AD278DC
:103F800090422BD2121A92B20649C96813440B8090
:103F9000FEF71CF900244AE0000C02409C050020BA
:103FA0007C0500208C050020784CE278247922449E
:103FB0001B1A12FA83F39BB2CCE7984202D21B1A67
:103FC0009BB2C7E70023C5E7714B9B6800221A80AC
:103FD000C4E7904204D2121A92B2D5E70022D3E786
:103FE0000022D1E76A4BDB6800221A80D0E7013358
:103FF000032B0FDC674A52F823100A880AB1013AF2
:104000000A80634A52F823100A88002AEFD0013A46
:104010000A80ECE75E4B5B681A8802B995B9FEF737
:10402000D5F84FF400715C4801F03FFE0134574B66
:104030009B7AA34240F3728340F2E73003F033FDF2
:104040000023D5E7514AD27B1A8001210220FEF7D6
:10405000A1F80025E3E7002211460120FEF77CF8D5
:10406000012200211046FEF777F8022200211046B7
:10407000FEF772F8032200210120FEF76DF80021FF
:104080000120FEF787F801210846FEF783F8022198
:104090000120FEF77FF803210120FEF77BF83B4A61
:1040A0001378D17A0B44117B0B44507B3949096852
:1040B00003440B805378002B27D1364A0B883349B1
:1040C000C87803440979526811FA83F31380314B9D
:1040D0009B6800221A802D4B1B7BE3B12D4BDB68C4
:1040E0002A4AD27A1A80294B9A7B002A56D0197A0A
:1040F000002928D1D97A1B7B9A4222D29B1A9BB2E3
:10410000234A12680B4413804CE0224B1A685B6808
:1041100012881A80DBE71D4AD37A11780B44517854
:104120000B4491780B44D1780B4411790B445179AD
:104130000B4491790B44D179164AD2680B44138011
:10414000D1E70023DCE71148C37A047B2344447B96
:104150002344047823444478234484782344C47853
:104160002344047923444479234484792344C07943
:1041700010FA83F39BB28A4206D28A1A92B2044999
:10418000096813440B800DE00022F8E79C0500202D
:104190008C0500207C050020000C0240984B1B6819
:1041A00000221A80974BD97B002964D01A46DB7A0B
:1041B000107B0344507B034410780344507803443D
:1041C00090780344D0780344107903445079034431
:1041D00090790344D07910FA83F39BB2127A002AC3
:1041E00040D1884A927A914241D2521A92B284497D
:1041F000496813440B80834B197C002950D0DA7A2C
:10420000187B0244587B0244187802445B78002BE8
:104210003FD17C4B5B79994232D37A49CB7809798B
:104220000B447749896813440B80764B597C0029ED
:1042300044D01A46DB7A107B0344507B0344107849
:1042400003445278002A30D16E4AD278914231D25A
:10425000521A92B26A49C96813440B80FDF7B6FF3F
:1042600000244BE0914204D2521A92B2BFE70022DE
:10427000BDE70022BBE7624B5B6800221A80BAE709
:10428000604CE078247920445B1A10FA83F39BB2E7
:10429000C7E7994202D25B1A9BB2C2E70023C0E78C
:1042A000574B9B6800221A80BFE7914204D2521AF2
:1042B00092B2CFE70022CDE70022CBE7504BDB687C
:1042C00000221A80CAE70133032B0FDC4E4A52F852
:1042D00023100A880AB1013A0A80494A52F8231089
:1042E0000A88002AEFD0013A0A80ECE7FDF76EFF5A
:1042F0004FF40071454801F0D8FC0134414BDB7AA2
:10430000A34240F3138240F2E73003F0CCFB0023DA
:10431000DAE7002211460120FDF71EFF01220021ED
:104320001046FDF719FF022200210120FDF714FFBE
:10433000032204211046FDF70FFF00210120FDF7A5
:1043400029FF01210846FDF725FF02210120FDF785
:1043500021FF03210120FDF71DFF2A4A1378117B5D
:104360000B44507B2849096803440B805378002B89
:1043700035D1254A0B882349C87803440979526806
:1043800011FA83F313801F4A137B517B0B4411787E
:104390000B4451780B4491780B44D1780B4411793C
:1043A0000B4451790B4491790B44D47916498868B0
:1043B00023440380CB68117B1980927B002A48D06C
:1043C000104B187A20BB1B7B9A420ED30C4A126802
:1043D000138000210220FDF7DDFE00253DE00A4BA1
:1043E0001A685B6812881A80CDE7054909689B1A2C
:1043F0000B8000210120FDF7CDFE01252DE000BF3F
:104400008C0500209C0500207C050020000C02404B
:1044100090490B7B4C7B23440C7823444C782344F9
:104420008C782344CC7823440C7923444C7923445E
:104430008C792344C9790B449BB2824207D2821AF9
:1044400092B28549096813440B80002505E00022DB
:10445000F7E7814B1B6800251D807E4BD97B002927
:104460005DD01A461B7B507B034410780344507880
:10447000034490780344D07803441079034450797E
:10448000034490790344D07903449BB2127A002A02
:104490003CD1704A927A91423DD2521A92B26E4900
:1044A000496813440B806B4B187C00284CD01A7B56
:1044B000597B0A4419780A445B78002B3DD1654B3F
:1044C0005B79984230D36349CB7809790B446249D0
:1044D000896813440B805F4B597C002942D01A46EF
:1044E0001B7B507B0344107803445278002A30D160
:1044F000584AD278914231D2521A92B25649C9687A
:1045000013440B80FDF762FE002450E0914204D278
:10451000521A92B2C3E70022C1E70022BFE74E4B16
:104520005B6800221A80BEE74A4CE1782479214476
:104530001B1A11FA83F39BB2C9E7984202D21B1AE5
:104540009BB2C4E70023C2E7434B9B6800221A805A
:10455000C1E7914204D2521A92B2CFE70022CDE7CE
:104560000022CBE73C4BDB6800221A80CAE701330C
:10457000032B0FDC394A52F823100A880AB1013A9A
:104580000A80354A52F823100A88002AEFD0013AEF
:104590000A80ECE7304B1B681A8802B995B9FDF721
:1045A00015FE4FF400712E4801F07FFB0134294BBA
:1045B0001B7BA34240F3BF8040F2E73003F073FA65
:1045C0000023D5E7234A927B1A8000210220FDF7C1
:1045D000E1FD0025E3E7214B1A685B6812881A8029
:1045E000EAE01C4CA17AE47A2144121A11FA82F210
:1045F00092B21AE1904202D2121A92B215E100224E
:1046000013E1154B1B6800221A8012E1914204D27B
:10461000521A92B22FE100222DE100222BE10E4B23
:104620005B6800221A802AE10A4CE178247921444F
:104630009B1A11FA83F39BB235E19A4202D29B1A7C
:104640009BB230E100232EE1034B9B6800221A80CD
:104650002DE100BF9C0500208C0500207C0500207A
:10466000000C0240994280F035815B1A9BB2A04950
:10467000C96813440B80FDF7A9FD00249D4B5B7BAB
:10468000A34200F32E814FF400719B4801F00DFB13
:10469000142003F008FA974B1B78002B7DF4CFAD64
:1046A000944B5B78002B7DF407AF924B9B7823B142
:1046B000904B5B78002B7EF44EA88E4BDB78002B62
:1046C0007EF4B5A98B4B1B7923B18A4BDB78002B89
:1046D0007EF437AB874B5B79002B7EF497AC854B30
:1046E0009B7923B1834B5B79002B7EF4EEAD814B3C
:1046F000DB79002B7EF42AAF7E4B1B7A002B7FF4F4
:104700006DA87C4B5B7A23B17A4B1B7A002B7FF42C
:10471000B3A9784B9B7A002B7FF413AB754BDB7AF4
:1047200023B1744B9B7A002B7FF495AC714B1B7BB0
:10473000002B7FF4EEAD6F4B5B7B002BA3D06D4B5A
:104740001B7B002B9FD0002211460120FDF704FDAA
:10475000012200211046FDF7FFFC0222002101206A
:10476000FDF7FAFC032200210220FDF7F5FC0021F1
:104770000120FDF70FFD01210846FDF70BFD022189
:104780000120FDF707FD03210120FDF703FD594B33
:104790001A78587B5949096802440A805B78002BD3
:1047A0007FF419AF554A0B885249C87803440979F8
:1047B000526811FA83F313804E4A537B11780B44ED
:1047C00051780B4491780B44D1780B4411790B4408
:1047D00051790B4491790B44D47948498868234432
:1047E0000380CB6800211980907B00283FF409AF3B
:1047F0001146537B127813444A7813448A78134441
:10480000CA7813440A7913444A7913448A791344C1
:10481000CA7913440A7A002A7FF4ECAE0A7B9042EC
:10482000FFF4DFAE8A7AC97A0A44314909681A442A
:104830000A80304BD97B00293FF4F1AE1A465B7BEE
:10484000107803445078034490780344D0780344AC
:10485000107903445079034490790344D079034498
:10486000127A002A7FF4D2AE224A927A9142BFF4A1
:10487000D2AE521A92B21E49496813440B801D4BA6
:104880001A7C002A3FF4E0AE1946587B1B78184486
:104890004B78002B7FF4D1AE4B799A42FFF4C4AE33
:1048A000CB780A791344124A926803441380114B5F
:1048B000597C89B118465B7B02781A444378002BF7
:1048C0007FF4D0AEC378994202D25B1A9BB2CEE697
:1048D0000023CCE60023CAE6054BDB6800221A80E1
:1048E000C9E640F2E73003F0DEF8002309E000BF3C
:1048F0008C0500209C050020000C02407C05002057
:104900000133032B0FDC0C4A52F823100A880AB13A
:10491000013A0A80094A52F823100A88002AEFD087
:10492000013A0A80ECE7FDF751FC4FF400710448AE
:1049300001F0BBF90134A1E67C0500208C050020C4
:10494000000C024008B5314B00221A605A609A6090
:10495000DA601A822E4B1A605A609A60DA601A6125
:104960005A61FF221A705A702A4A591D1160D91DC6
:10497000516003F10901916003F10B01D160264AF6
:1049800003F10D01116003F10F01516003F11101F9
:1049900091601333D36031E01E4A52F82310002295
:1049A0000A801D4951F823100A800133032BF3DDDF
:1049B000FDF70CFC01224FF40071184801F06FF96B
:1049C00040F2E73003F06FF8002309E0114A52F893
:1049D000231001220A80104951F823100A80134441
:1049E000032BF3DDFDF7F2FB00224FF400710B48BF
:1049F00001F055F940F2E73003F055F8044A00237E
:104A00009370D370137101215175CFE79C0500207D
:104A1000640500207C0500208C050020000C02406D
:104A200000B583B0002200920D4B596C41F48041D7
:104A30005964596C01F48041009100990192196CFC
:104A400041F0805119641B6C03F080530193019B6A
:104A50000F216FF0010001F0A1F903B05DF804FB34
:104A60000038024010B5124B0022DA7501F002FA4C
:104A7000044602E00A2002F02BFF0E4B1B78002BAD
:104A8000F8D101F0F7F9031B952BF3D901F0F2F9F6
:104A900004460749CB7D0133CB75642318220648B1
:104AA00002F0A7F84FF40061044801F0FEF8E1E7D6
:104AB00064050020C006002024460020000C0240AF
:104AC00000B587B0052201A90848FCF7BFFE002306
:104AD00007E003F118026A4412F8141C044AD15486
:104AE0000133112BF5DD07B05DF804FB00E0010890
:104AF0009C05002008B5052202490348FCF76EFE1C
:104B000008BD00BFF006002000E0010838B55B21B9
:104B1000784803F0F1FD00286DD0044601300021F3
:104B20000A4606E010F80C30303B734D6B540232ED
:104B30000131944683185B782C2B11D000EB020EC8
:104B40009EF802E0BEF12C0F0AD08518ED782C2DCE
:104B500006D05D2B04D0BEF15D0F01D05D2D30D1AC
:104B600012292EDC2C2BDDD05D2BDBD000EB0C05CD
:104B700095F802E0BEF12C0F17D0BEF15D0F14D0F6
:104B800010F80CC00CEB8C0C0CEB8C0C03EB8303BF
:104B90005B0003EB8C03DBB29E440EF1300E564BF0
:104BA00003F801E004320131C3E710F80CC00CEB4C
:104BB0008C0C03EB4C03103B4F4D6B540332013113
:104BC000B7E7132917D114F80C305D2B13D14B4BD9
:104BD0001B7813B1013B494A1370474B9B7C5BB177
:104BE000474A00211170012B1CD0434B9B7C012BA9
:104BF0002AD0022B54D038BD414B01221A70FAE75B
:104C00000133112B12DC3F4AD15C3B4AD25C91420A
:104C100002D03C49CA5401243A4AD25C002AEFD15E
:104C20000130EDE7002318461C46EAE7112807D0BB
:104C3000354B00225A75002CD7D0FFF75BFFD4E725
:104C4000314B01225A75D0E7304A1278012AD0D070
:104C50002A4909780029CCD1022A01D0002309E091
:104C60002B4B186802F0A6FEF8E72A4AD15C264AC8
:104C7000D1540133172BF8DD002304E0264AD15C20
:104C8000204AD1540133112BF8DD1F4B00225A75F5
:104C9000224B186802F08EFC1C4B01221A70AAE706
:104CA0001A4B1B78022BA6D0144A1278002AA2D1E4
:104CB000012B07D0164B186802F07CFC134B022224
:104CC0001A7098E7154B186802F074FE002304E090
:104CD0000D4AD15C0F4AD1540133172BF8DD002364
:104CE00004E0084AD15C0C4AD1540133112BF8DDA1
:104CF000E0E700BFB0050020F0060020C10600205C
:104D0000C00600209C05002064050020040000204F
:104D1000E8020020C4060020DC060020F00200208B
:104D2000674B7B221A7022225A707321997074206B
:104D3000D8704FF0610C83F804C0587175209871D9
:104D4000D9711A723A225A725B229A722C221A7301
:104D50009A731A749A745D221A757D225A7500220C
:104D60009A753022DA725A73DA735A74DA74554BC0
:104D70001B78002B34D1544B1B78012B31D0534B73
:104D80001B78002B38D04E4B3422DA74504B9B7872
:104D900003F00302C3F38101022A3BD0032A3DD072
:104DA000012A2DD0C3F301129B09022A4AD0032AFB
:104DB0004CD0012A3CD0464BDB7803F00302C3F30E
:104DC0008101022A56D0032A58D0012A48D0C3F3C1
:104DD00001129B09022A65D0032A67D0012A57D005
:104DE00070473A4B1B781BB1354B3322DA74CDE751
:104DF000334B3122DA74C9E7314B3222DA74C5E71A
:104E0000012903D02E4A3121D172CBE72C4A35211A
:104E1000D172C7E72A4A3221D172C3E7012903D0F0
:104E2000274A3321D172BDE7254A3421D172B9E72F
:104E3000012B03D0224B31225A73BCE7204B352281
:104E40005A73B8E71E4B32225A73B4E7012B03D0D2
:104E50001B4B33225A73AEE7194B34225A73AAE71D
:104E6000012903D0164A3121D173B0E7144A352104
:104E7000D173ACE7124A3221D173A8E7012903D0DC
:104E80000F4A3321D173A2E70D4A3421D1739EE733
:104E9000012B03D00A4B31225A747047084B35223C
:104EA0005A747047064B32225A747047012B03D054
:104EB000034B33225A7493E7014B34225A747047E0
:104EC0000C070020C006002004000020C1060020BE
:104ED0006405002038B5FBF7B1FEFBF79BFEFBF73E
:104EE000EDFEFBF7BFFEFBF7D7FBFFF7E9FD4A4BF3
:104EF000186802F05FFB494B186802F05BFB43F651
:104F0000982002F0D0FDFBF70BFD00F0B3FF00F599
:104F10002F3404F5487400F0ADFF054664E000F05E
:104F2000A9FF00F5434550353D48FBF7BDFB18B1DF
:104F3000C82002F0B8FD5BE04FF4FA7002F0B3FD58
:104F4000FBF7CAFEFBF7A8FB4FF4FA7002F0ABFDCB
:104F5000FBF7C2FE4CE0FFF7D9FD324C01224FF4C3
:104F60000041204600F09BFE642002F09CFD0022E0
:104F70004FF40041204600F092FE00F07BFF00F568
:104F80002F3404F54874284B01221A7000F072FF88
:104F900000F59C402030254B186032E0FBF74EFEB8
:104FA00043F6982002F07FFDFBF7BAFC4FF4FA704D
:104FB00002F079FDFBF770FB4FF4FA7002F073FD1D
:104FC00000F058FF00F52F3404F548741DE0164B2F
:104FD00000221A7000F04EFF00F51C501030134BE9
:104FE0001860C82002F074FC00F044FFA84296D874
:104FF000FFF796FE0E4A0F490F48FBF769FD0028A0
:10500000A9D100F037FFA042C8D800F033FF074B0A
:105010001B689842DBD8E4E7F0020020F802002089
:105020007C060020000C0240040700200807002036
:10503000780600200C070020B0050020002800F0B2
:10504000E08170B582B00446036813F0010F3BD0D5
:105050009F4B9B6803F00C03042B2CD09C4B9B684C
:1050600003F00C03082B21D06368B3F5803F4FD0C9
:10507000B3F5A02F52D0964B1A6822F480321A60F2
:105080001A6822F480221A606368002B50D000F066
:10509000F1FE05468E4B1B6813F4003F14D100F05F
:1050A000E9FE401B6428F5D90320B1E1884B5B6819
:1050B00013F4800FD8D0864B1B6813F4003F03D045
:1050C0006368002B00F09F81236813F0020F54D017
:1050D0007F4B9B6813F00C0F3ED07D4B9B6803F019
:1050E0000C03082B33D0E368002B68D0794B0122E6
:1050F0001A6000F0BFFE0546754B1B6813F0020FE7
:1051000054D100F0B7FE401B0228F5D903207FE1FF
:105110006F4A136843F480331360B5E76C4B1A6829
:1051200042F480221A601A6842F480321A60ABE7B7
:1051300000F0A0FE0546664B1B6813F4003FC3D089
:1051400000F098FE401B6428F5D9032060E1604B15
:105150005B6813F4800FC6D15D4B1B6813F0020F20
:1051600003D0E368012B40F05081594A136823F0C3
:10517000F803216943EAC1031360236813F0080FA1
:1051800042D063696BB3534B0122C3F8802E00F009
:1051900071FE05464E4B5B6F13F0020F34D100F0E9
:1051A00069FE401B0228F5D9032031E1484A136803
:1051B00023F0F803216943EAC1031360DDE7454B9F
:1051C00000221A6000F056FE0546414B1B6813F0A2
:1051D000020FD2D000F04EFE401B0228F5D903206A
:1051E00016E13C4B0022C3F8802E00F043FE05463A
:1051F000374B5B6F13F0020F06D000F03BFE401BF5
:105200000228F5D9032003E1236813F0040F77D0B7
:105210002F4B1B6C13F0805F33D1002301932C4B79
:105220001A6C42F080521A641B6C03F08053019395
:10523000019B0125284B1B6813F4807F23D0A368B2
:10524000012B34D0052B38D0214B1A6F22F00102EC
:105250001A671A6F22F004021A67A368002B3DD068
:1052600000F008FE06461A4B1B6F13F0020F46D1E2
:1052700000F000FE801B41F288339842F3D90320EE
:10528000C6E00025D6E7144A136843F48073136020
:1052900000F0F0FD0646104B1B6813F4807FCED162
:1052A00000F0E8FD801B0228F5D90320B0E0084A91
:1052B000136F43F001031367CFE7054B1A6F42F0FA
:1052C00004021A671A6F42F001021A67C5E700BFAD
:1052D00000380240000047420070004000F0CAFD64
:1052E0000646524B1B6F13F0020F08D000F0C2FDB0
:1052F000801B41F288339842F3D9032088E0EDB94E
:10530000A369002B00F08380484A926802F00C02E7
:10531000082A51D0022B17D0454B00221A6600F004
:10532000A9FD0446414B1B6813F0007F42D000F0FA
:10533000A1FD001B0228F5D9032069E03B4A136C4C
:1053400023F080531364DBE7394B00221A6600F028
:1053500091FD0546354B1B6813F0007F06D000F029
:1053600089FD401B0228F5D9032051E0E369226A38
:105370001343626A43EA8213A26A5208013A43EA7B
:105380000243E26A43EA0263284A5360284B01223F
:105390001A6600F06FFD0446244B1B6813F0007F73
:1053A00006D100F067FD001B0228F5D903202FE08D
:1053B00000202DE000202BE0012B2BD01B4B5B6845
:1053C00003F48001E269914226D103F03F02216A91
:1053D0008A4223D1616A47F6C0721A40B2EB811F3C
:1053E0001ED103F44031A26A5208013AB1EB024FD8
:1053F00018D103F07063E26AB3EB026F14D100209E
:1054000006E001207047012002E0012000E00020BA
:1054100002B070BD0120FBE70120F9E70120F7E7AA
:105420000120F5E70120F3E70120F1E70038024011
:105430000000474208B5314B9B6803F00C03042B76
:1054400057D0082B57D12D4B5A6802F03F025B68AA
:1054500013F4800F2AD0294B5968C1F3881C4FEAF6
:105460004C11B1EB0C006EEB0E0E4FEA8E1343EABB
:1054700090638101091A63EB0E03DB0043EA517369
:10548000C90011EB0C0C43F10003590200234FEA51
:105490004C2041EADC51FAF7F3FE184B5B68C3F38A
:1054A000014301335B00B0FBF3F025E0134B596877
:1054B000C1F3881C4FEA4C11B1EB0C006EEB0E0EE1
:1054C0004FEA8E1343EA90638101091A63EB0E03DE
:1054D000DB0043EA5173C90011EB0C0C43F10003EC
:1054E000990200234FEA8C2041EA9C51FAF7C8FE4A
:1054F000D3E7034800E0034808BD00BF003802407E
:1055000000127A000024F400002800F09B8070B59F
:105510000D4604464F4B1B6803F007038B4208D22D
:10552000CBB24C4A1370136803F007038B4240F070
:105530008B80236813F0020F17D013F0040F04D0F0
:10554000454A936843F4E0539360236813F0080FCF
:1055500004D0414A936843F4604393603E4A9368A1
:1055600023F0F003A1680B439360236813F0010F4D
:1055700032D06368012B21D09A1E012A25D9364AE0
:10558000126812F0020F61D033498A6822F00302D8
:1055900013438B6000F06EFC06462F4B9B6803F0B4
:1055A0000C036268B3EB820F16D000F063FC801B23
:1055B00041F288339842F0D9032042E0264A12682B
:1055C00012F4003FE0D101203BE0234A126812F0C0
:1055D000007FD9D1012034E01E4B1B6803F0070384
:1055E000AB4207D9EAB21B4B1A701B6803F00703E2
:1055F000AB422DD1236813F0040F06D0164A9368EE
:1056000023F4E053E1680B439360236813F0080F21
:1056100007D0114A936823F46043216943EAC10328
:105620009360FFF707FF0C4B9B68C3F303130B4A10
:10563000D35CD8400A4B18600A4B186802F0E8FCAB
:10564000002070BD012070470120FAE70120F8E733
:105650000120F6E7003C0240003802404496000872
:105660000C00002008000020014B1868704700BFA4
:105670000C00002008B5FFF7F7FF044B9B68C3F34D
:105680008223034AD35CD84008BD00BF00380240E3
:105690005496000808B5FFF7E7FF044B9B68C3F377
:1056A0004233034AD35CD84008BD00BF00380240F3
:1056B000549600080F2303600B4B9A6802F0030214
:1056C00042609A6802F0F00282609A6802F4E05246
:1056D000C2609B68DB0803F4E0530361034B1B6863
:1056E00003F007030B60704700380240003C0240A3
:1056F00010B40A490C6924F440740C610C6944F438
:1057000040740C610C6944F001040C610260BFF349
:105710006F8F43605DF8044B704700BF003C024050
:10572000074B1A6922F440721A611A6942F4007236
:105730001A611A6942F001021A610160704700BFE4
:10574000003C0240074B1A6922F440721A611A6940
:1057500042F480721A611A6942F001021A610180F2
:10576000704700BF003C0240064B1A6922F44072A9
:105770001A611A691A611A6942F001021A6101700C
:10578000704700BF003C0240204BDB6813F0100F55
:1057900007D01F4AD36943F01003D3611B4B10227B
:1057A000DA601A4BDB6813F0200F07D0184AD36970
:1057B00043F00803D361154B2022DA60134BDB68FA
:1057C00013F0400F07D0124AD36943F00403D361AA
:1057D0000E4B4022DA600D4BDB6813F0800F07D0D0
:1057E0000B4AD36943F00203D361084B8022DA608D
:1057F000064BDB6813F0020F07D0054AD36943F06C
:105800002003D361014B0222DA607047003C024062
:1058100028070020094B1B69002B01DB0020704783
:10582000064B074A5A6002F188325A601B69002B06
:1058300001DB002070470120704700BF003C0240A0
:1058400023016745034A136943F0004313610020B5
:10585000704700BF003C0240014BD869704700BF51
:105860002807002038B50446144B0022DA6100F006
:1058700001FB0546124BDB6813F4803F0AD0B4F1FC
:10588000FF3FF7D024B100F0F5FA401BA042F1D958
:1058900003200DE00A4BDB6813F0010F02D0084B28
:1058A0000122DA60064BDB6813F0F20F01D1002011
:1058B00038BDFFF769FF0120FAE700BF2807002085
:1058C000003C0240F8B516461B4A127E012A30D031
:1058D00004460D461F46184B01221A764CF25030F2
:1058E000FFF7C0FF90B9ACB1012C18D0022C1BD02F
:1058F00032463B462846FFF7FBFE4CF25030FFF79E
:10590000B1FF0E4A136923F0010313610A4B002211
:105910001A76F8BDF1B22846FFF726FFEDE7B1B2DF
:105920002846FFF70FFFE8E731462846FFF7F8FE65
:10593000E3E70220EDE700BF28070020003C02401B
:10594000074B196921F440711961196941F004018B
:1059500019611A6942EA002242F480321A617047E2
:10596000003C024049B1012921D0022902D04FF464
:10597000407C04E04FF4007C01E04FF0000C0D4B44
:10598000196921F4407119611A6942EA0C021A611D
:105990001A6922F0F8021A611A6942EAC00040F05E
:1059A000020018611A6942F480321A6170474FF49C
:1059B000807CE4E7003C0240164B1B6813F4007F38
:1059C00010D0144B1A6822F400721A601A6842F45C
:1059D00000621A601A6822F400621A601A6842F4BF
:1059E00000721A600B4B1B6813F4806F10D0094BC8
:1059F0001A6822F480621A601A6842F480521A60AF
:105A00001A6822F480521A601A6842F480621A609E
:105A1000704700BF003C0240F8B5224B1B7E012BB3
:105A20003ED004460E461F4B01221A764CF25030EF
:105A3000FFF718FF074670BB4FF0FF333360236852
:105A4000012B16D0A568E368A2681344AB4220D9A5
:105A5000217C2846FFF786FF4CF25030FFF702FF0B
:105A6000114A136923F0FA031361074680B901351F
:105A7000E9E76168207CFFF763FF4CF25030FFF7E5
:105A8000F1FE0746084A136923F00403136100E09E
:105A90003560FFF791FF034B00221A763846F8BDB8
:105AA0000227FBE728070020003C024000230F2BC1
:105AB00000F2E48070B582B060E085685E00032487
:105AC000B44025EA0405CC68B4402C4384604568A2
:105AD00025EA02054C68C4F300129A402A4342604A
